{
  "contractName": "DronContract",
  "abi": [
    {
      "inputs": [],
      "stateMutability": "nonpayable",
      "type": "constructor"
    },
    {
      "anonymous": false,
      "inputs": [
        {
          "indexed": true,
          "internalType": "address",
          "name": "owner",
          "type": "address"
        },
        {
          "indexed": true,
          "internalType": "address",
          "name": "approved",
          "type": "address"
        },
        {
          "indexed": true,
          "internalType": "uint256",
          "name": "tokenId",
          "type": "uint256"
        }
      ],
      "name": "Approval",
      "type": "event"
    },
    {
      "anonymous": false,
      "inputs": [
        {
          "indexed": true,
          "internalType": "address",
          "name": "owner",
          "type": "address"
        },
        {
          "indexed": true,
          "internalType": "address",
          "name": "operator",
          "type": "address"
        },
        {
          "indexed": false,
          "internalType": "bool",
          "name": "approved",
          "type": "bool"
        }
      ],
      "name": "ApprovalForAll",
      "type": "event"
    },
    {
      "anonymous": false,
      "inputs": [
        {
          "indexed": true,
          "internalType": "address",
          "name": "from",
          "type": "address"
        },
        {
          "indexed": true,
          "internalType": "address",
          "name": "to",
          "type": "address"
        },
        {
          "indexed": true,
          "internalType": "uint256",
          "name": "tokenId",
          "type": "uint256"
        }
      ],
      "name": "Transfer",
      "type": "event"
    },
    {
      "inputs": [
        {
          "internalType": "address",
          "name": "to",
          "type": "address"
        },
        {
          "internalType": "uint256",
          "name": "tokenId",
          "type": "uint256"
        }
      ],
      "name": "approve",
      "outputs": [],
      "stateMutability": "nonpayable",
      "type": "function"
    },
    {
      "inputs": [
        {
          "internalType": "address",
          "name": "owner",
          "type": "address"
        }
      ],
      "name": "balanceOf",
      "outputs": [
        {
          "internalType": "uint256",
          "name": "",
          "type": "uint256"
        }
      ],
      "stateMutability": "view",
      "type": "function",
      "constant": true
    },
    {
      "inputs": [
        {
          "internalType": "uint256",
          "name": "tokenId",
          "type": "uint256"
        }
      ],
      "name": "getApproved",
      "outputs": [
        {
          "internalType": "address",
          "name": "",
          "type": "address"
        }
      ],
      "stateMutability": "view",
      "type": "function",
      "constant": true
    },
    {
      "inputs": [
        {
          "internalType": "address",
          "name": "owner",
          "type": "address"
        },
        {
          "internalType": "address",
          "name": "operator",
          "type": "address"
        }
      ],
      "name": "isApprovedForAll",
      "outputs": [
        {
          "internalType": "bool",
          "name": "",
          "type": "bool"
        }
      ],
      "stateMutability": "view",
      "type": "function",
      "constant": true
    },
    {
      "inputs": [],
      "name": "name",
      "outputs": [
        {
          "internalType": "string",
          "name": "",
          "type": "string"
        }
      ],
      "stateMutability": "view",
      "type": "function",
      "constant": true
    },
    {
      "inputs": [
        {
          "internalType": "uint256",
          "name": "tokenId",
          "type": "uint256"
        }
      ],
      "name": "ownerOf",
      "outputs": [
        {
          "internalType": "address",
          "name": "",
          "type": "address"
        }
      ],
      "stateMutability": "view",
      "type": "function",
      "constant": true
    },
    {
      "inputs": [
        {
          "internalType": "address",
          "name": "from",
          "type": "address"
        },
        {
          "internalType": "address",
          "name": "to",
          "type": "address"
        },
        {
          "internalType": "uint256",
          "name": "tokenId",
          "type": "uint256"
        }
      ],
      "name": "safeTransferFrom",
      "outputs": [],
      "stateMutability": "nonpayable",
      "type": "function"
    },
    {
      "inputs": [
        {
          "internalType": "address",
          "name": "from",
          "type": "address"
        },
        {
          "internalType": "address",
          "name": "to",
          "type": "address"
        },
        {
          "internalType": "uint256",
          "name": "tokenId",
          "type": "uint256"
        },
        {
          "internalType": "bytes",
          "name": "_data",
          "type": "bytes"
        }
      ],
      "name": "safeTransferFrom",
      "outputs": [],
      "stateMutability": "nonpayable",
      "type": "function"
    },
    {
      "inputs": [
        {
          "internalType": "address",
          "name": "operator",
          "type": "address"
        },
        {
          "internalType": "bool",
          "name": "approved",
          "type": "bool"
        }
      ],
      "name": "setApprovalForAll",
      "outputs": [],
      "stateMutability": "nonpayable",
      "type": "function"
    },
    {
      "inputs": [
        {
          "internalType": "bytes4",
          "name": "interfaceId",
          "type": "bytes4"
        }
      ],
      "name": "supportsInterface",
      "outputs": [
        {
          "internalType": "bool",
          "name": "",
          "type": "bool"
        }
      ],
      "stateMutability": "view",
      "type": "function",
      "constant": true
    },
    {
      "inputs": [],
      "name": "symbol",
      "outputs": [
        {
          "internalType": "string",
          "name": "",
          "type": "string"
        }
      ],
      "stateMutability": "view",
      "type": "function",
      "constant": true
    },
    {
      "inputs": [
        {
          "internalType": "uint256",
          "name": "tokenId",
          "type": "uint256"
        }
      ],
      "name": "tokenURI",
      "outputs": [
        {
          "internalType": "string",
          "name": "",
          "type": "string"
        }
      ],
      "stateMutability": "view",
      "type": "function",
      "constant": true
    },
    {
      "inputs": [
        {
          "internalType": "address",
          "name": "from",
          "type": "address"
        },
        {
          "internalType": "address",
          "name": "to",
          "type": "address"
        },
        {
          "internalType": "uint256",
          "name": "tokenId",
          "type": "uint256"
        }
      ],
      "name": "transferFrom",
      "outputs": [],
      "stateMutability": "nonpayable",
      "type": "function"
    },
    {
      "inputs": [
        {
          "internalType": "address",
          "name": "EMPRESA",
          "type": "address"
        },
        {
          "internalType": "int256",
          "name": "MIN",
          "type": "int256"
        },
        {
          "internalType": "int256",
          "name": "MAX",
          "type": "int256"
        },
        {
          "internalType": "enum DronContract._Pesticidas[]",
          "name": "PESTICIDA",
          "type": "uint8[]"
        },
        {
          "internalType": "uint256",
          "name": "COSTE",
          "type": "uint256"
        }
      ],
      "name": "CrearDron",
      "outputs": [
        {
          "internalType": "uint256",
          "name": "",
          "type": "uint256"
        }
      ],
      "stateMutability": "nonpayable",
      "type": "function"
    },
    {
      "inputs": [
        {
          "internalType": "uint256",
          "name": "ID",
          "type": "uint256"
        },
        {
          "internalType": "address",
          "name": "EMPRESA",
          "type": "address"
        }
      ],
      "name": "ConfigurarEmpresa",
      "outputs": [
        {
          "internalType": "bool",
          "name": "",
          "type": "bool"
        }
      ],
      "stateMutability": "nonpayable",
      "type": "function"
    },
    {
      "inputs": [
        {
          "internalType": "uint256",
          "name": "ID",
          "type": "uint256"
        },
        {
          "internalType": "int256",
          "name": "MIN",
          "type": "int256"
        },
        {
          "internalType": "int256",
          "name": "MAX",
          "type": "int256"
        }
      ],
      "name": "ConfigurarAltitud",
      "outputs": [
        {
          "internalType": "int256",
          "name": "",
          "type": "int256"
        },
        {
          "internalType": "int256",
          "name": "",
          "type": "int256"
        }
      ],
      "stateMutability": "nonpayable",
      "type": "function"
    },
    {
      "inputs": [
        {
          "internalType": "uint256",
          "name": "ID",
          "type": "uint256"
        },
        {
          "internalType": "uint256",
          "name": "COSTE",
          "type": "uint256"
        }
      ],
      "name": "ConfigurarCoste",
      "outputs": [
        {
          "internalType": "bool",
          "name": "",
          "type": "bool"
        }
      ],
      "stateMutability": "nonpayable",
      "type": "function"
    },
    {
      "inputs": [
        {
          "internalType": "uint256",
          "name": "ID",
          "type": "uint256"
        },
        {
          "internalType": "enum DronContract._Pesticidas",
          "name": "PESTICIDA",
          "type": "uint8"
        }
      ],
      "name": "BuscarPesticida",
      "outputs": [
        {
          "internalType": "uint256",
          "name": "",
          "type": "uint256"
        }
      ],
      "stateMutability": "view",
      "type": "function",
      "constant": true
    },
    {
      "inputs": [
        {
          "internalType": "uint256",
          "name": "ID",
          "type": "uint256"
        },
        {
          "internalType": "enum DronContract._Pesticidas",
          "name": "PESTICIDA",
          "type": "uint8"
        }
      ],
      "name": "AltaPesticida",
      "outputs": [
        {
          "internalType": "bool",
          "name": "",
          "type": "bool"
        }
      ],
      "stateMutability": "nonpayable",
      "type": "function"
    },
    {
      "inputs": [
        {
          "internalType": "uint256",
          "name": "ID",
          "type": "uint256"
        },
        {
          "internalType": "enum DronContract._Pesticidas",
          "name": "PESTICIDA",
          "type": "uint8"
        }
      ],
      "name": "BajaPesticida",
      "outputs": [
        {
          "internalType": "bool",
          "name": "",
          "type": "bool"
        }
      ],
      "stateMutability": "nonpayable",
      "type": "function"
    },
    {
      "inputs": [
        {
          "internalType": "uint256",
          "name": "ID",
          "type": "uint256"
        }
      ],
      "name": "ObtenerInfoDron",
      "outputs": [
        {
          "components": [
            {
              "internalType": "uint256",
              "name": "_ID",
              "type": "uint256"
            },
            {
              "internalType": "address",
              "name": "_Empresa",
              "type": "address"
            },
            {
              "internalType": "int256",
              "name": "_Altitud_MIN",
              "type": "int256"
            },
            {
              "internalType": "int256",
              "name": "_Altitud_MAX",
              "type": "int256"
            },
            {
              "internalType": "enum DronContract._Pesticidas[]",
              "name": "_Pesticidas",
              "type": "uint8[]"
            },
            {
              "internalType": "uint256",
              "name": "_Coste",
              "type": "uint256"
            }
          ],
          "internalType": "struct DronContract.Dron",
          "name": "",
          "type": "tuple"
        }
      ],
      "stateMutability": "view",
      "type": "function",
      "constant": true
    },
    {
      "inputs": [
        {
          "internalType": "uint256",
          "name": "ID",
          "type": "uint256"
        },
        {
          "internalType": "int256",
          "name": "MIN",
          "type": "int256"
        },
        {
          "internalType": "int256",
          "name": "MAX",
          "type": "int256"
        }
      ],
      "name": "ComprobarAltitud",
      "outputs": [
        {
          "internalType": "bool",
          "name": "",
          "type": "bool"
        }
      ],
      "stateMutability": "view",
      "type": "function",
      "constant": true
    },
    {
      "inputs": [
        {
          "internalType": "uint256",
          "name": "ID",
          "type": "uint256"
        },
        {
          "internalType": "enum DronContract._Pesticidas",
          "name": "PESTICIDA",
          "type": "uint8"
        }
      ],
      "name": "ComprobarPesticida",
      "outputs": [
        {
          "internalType": "bool",
          "name": "",
          "type": "bool"
        }
      ],
      "stateMutability": "view",
      "type": "function",
      "constant": true
    }
  ],
  "bytecode": "0x60806040523480156200001157600080fd5b506040518060400160405280600681526020017f4d7944726f6e00000000000000000000000000000000000000000000000000008152506040518060400160405280600581526020017f4d44726f6e000000000000000000000000000000000000000000000000000000815250816000908051906020019062000096929190620005fa565b508060019080519060200190620000af929190620005fa565b505050620000c96006620000fd60201b620016f71760201c565b6000620000e260066200011360201b6200170d1760201c565b9050620000f633826200012160201b60201c565b5062000b14565b6001816000016000828254019250508190555050565b600081600001549050919050565b620001438282604051806020016040528060008152506200014760201b60201c565b5050565b620001598383620001b560201b60201c565b6200016e6000848484620003af60201b60201c565b620001b0576040517f08c379a0000000000000000000000000000000000000000000000000000000008152600401620001a79062000731565b60405180910390fd5b505050565b600073ffffffffffffffffffffffffffffffffffffffff168273ffffffffffffffffffffffffffffffffffffffff16141562000228576040517f08c379a00000000000000000000000000000000000000000000000000000000081526004016200021f90620007a3565b60405180910390fd5b62000239816200055960201b60201c565b156200027c576040517f08c379a0000000000000000000000000000000000000000000000000000000008152600401620002739062000815565b60405180910390fd5b6200029060008383620005c560201b60201c565b6001600360008473ffffffffffffffffffffffffffffffffffffffff1673ffffffffffffffffffffffffffffffffffffffff1681526020019081526020016000206000828254620002e2919062000870565b92505081905550816002600083815260200190815260200160002060006101000a81548173ffffffffffffffffffffffffffffffffffffffff021916908373ffffffffffffffffffffffffffffffffffffffff160217905550808273ffffffffffffffffffffffffffffffffffffffff16600073ffffffffffffffffffffffffffffffffffffffff167fddf252ad1be2c89b69c2b068fc378daa952ba7f163c4a11628f55a4df523b3ef60405160405180910390a4620003ab60008383620005ca60201b60201c565b5050565b6000620003dd8473ffffffffffffffffffffffffffffffffffffffff16620005cf60201b6200171b1760201c565b156200054c578373ffffffffffffffffffffffffffffffffffffffff1663150b7a026200040f620005f260201b60201c565b8786866040518563ffffffff1660e01b8152600401620004339493929190620009c7565b6020604051808303816000875af19250505080156200047257506040513d601f19601f820116820180604052508101906200046f919062000a7d565b60015b620004fb573d8060008114620004a5576040519150601f19603f3d011682016040523d82523d6000602084013e620004aa565b606091505b50600081511415620004f3576040517f08c379a0000000000000000000000000000000000000000000000000000000008152600401620004ea9062000731565b60405180910390fd5b805181602001fd5b63150b7a0260e01b7bffffffffffffffffffffffffffffffffffffffffffffffffffffffff1916817bffffffffffffffffffffffffffffffffffffffffffffffffffffffff19161491505062000551565b600190505b949350505050565b60008073ffffffffffffffffffffffffffffffffffffffff166002600084815260200190815260200160002060009054906101000a900473ffffffffffffffffffffffffffffffffffffffff1673ffffffffffffffffffffffffffffffffffffffff1614159050919050565b505050565b505050565b6000808273ffffffffffffffffffffffffffffffffffffffff163b119050919050565b600033905090565b828054620006089062000ade565b90600052602060002090601f0160209004810192826200062c576000855562000678565b82601f106200064757805160ff191683800117855562000678565b8280016001018555821562000678579182015b82811115620006775782518255916020019190600101906200065a565b5b5090506200068791906200068b565b5090565b5b80821115620006a65760008160009055506001016200068c565b5090565b600082825260208201905092915050565b7f4552433732313a207472616e7366657220746f206e6f6e20455243373231526560008201527f63656976657220696d706c656d656e7465720000000000000000000000000000602082015250565b600062000719603283620006aa565b91506200072682620006bb565b604082019050919050565b600060208201905081810360008301526200074c816200070a565b9050919050565b7f4552433732313a206d696e7420746f20746865207a65726f2061646472657373600082015250565b60006200078b602083620006aa565b9150620007988262000753565b602082019050919050565b60006020820190508181036000830152620007be816200077c565b9050919050565b7f4552433732313a20746f6b656e20616c7265616479206d696e74656400000000600082015250565b6000620007fd601c83620006aa565b91506200080a82620007c5565b602082019050919050565b600060208201905081810360008301526200083081620007ee565b9050919050565b6000819050919050565b7f4e487b7100000000000000000000000000000000000000000000000000000000600052601160045260246000fd5b60006200087d8262000837565b91506200088a8362000837565b9250827fffffffffffffffffffffffffffffffffffffffffffffffffffffffffffffffff03821115620008c257620008c162000841565b5b828201905092915050565b600073ffffffffffffffffffffffffffffffffffffffff82169050919050565b6000620008fa82620008cd565b9050919050565b6200090c81620008ed565b82525050565b6200091d8162000837565b82525050565b600081519050919050565b600082825260208201905092915050565b60005b838110156200095f57808201518184015260208101905062000942565b838111156200096f576000848401525b50505050565b6000601f19601f8301169050919050565b6000620009938262000923565b6200099f81856200092e565b9350620009b18185602086016200093f565b620009bc8162000975565b840191505092915050565b6000608082019050620009de600083018762000901565b620009ed602083018662000901565b620009fc604083018562000912565b818103606083015262000a10818462000986565b905095945050505050565b600080fd5b60007fffffffff0000000000000000000000000000000000000000000000000000000082169050919050565b62000a578162000a20565b811462000a6357600080fd5b50565b60008151905062000a778162000a4c565b92915050565b60006020828403121562000a965762000a9562000a1b565b5b600062000aa68482850162000a66565b91505092915050565b7f4e487b7100000000000000000000000000000000000000000000000000000000600052602260045260246000fd5b6000600282049050600182168062000af757607f821691505b6020821081141562000b0e5762000b0d62000aaf565b5b50919050565b6139eb8062000b246000396000f3fe608060405234801561001057600080fd5b506004361061014d5760003560e01c806370a08231116100c3578063bfef82821161007c578063bfef8282146103fb578063c87b56dd1461042b578063d422b2171461045b578063e985e9c51461048b578063ed63a95d146104bb578063f4c54c24146104eb5761014d565b806370a082311461031557806395d89b4114610345578063a22cb46514610363578063af3f9e031461037f578063b45d6c12146103af578063b88d4fde146103df5761014d565b806323b872dd1161011557806323b872dd1461021c57806332e3e8071461023857806338a18c491461026857806342842e0e146102985780636352211e146102b45780636678fd0b146102e45761014d565b806301ffc9a71461015257806306fdde0314610182578063081812fc146101a0578063095ea7b3146101d057806320804314146101ec575b600080fd5b61016c600480360381019061016791906123bf565b61051b565b6040516101799190612407565b60405180910390f35b61018a6105fd565b60405161019791906124bb565b60405180910390f35b6101ba60048036038101906101b59190612513565b61068f565b6040516101c79190612581565b60405180910390f35b6101ea60048036038101906101e591906125c8565b610714565b005b6102066004803603810190610201919061262d565b61082c565b6040516102139190612407565b60405180910390f35b6102366004803603810190610231919061266d565b61091f565b005b610252600480360381019061024d91906126c0565b61097f565b60405161025f9190612407565b60405180910390f35b610282600480360381019061027d9190612736565b610a22565b60405161028f9190612407565b60405180910390f35b6102b260048036038101906102ad919061266d565b610b9b565b005b6102ce60048036038101906102c99190612513565b610bbb565b6040516102db9190612581565b60405180910390f35b6102fe60048036038101906102f99190612736565b610c6d565b60405161030c929190612798565b60405180910390f35b61032f600480360381019061032a91906127c1565b610e14565b60405161033c91906127fd565b60405180910390f35b61034d610ecc565b60405161035a91906124bb565b60405180910390f35b61037d60048036038101906103789190612844565b610f5e565b005b61039960048036038101906103949190612884565b610f74565b6040516103a69190612407565b60405180910390f35b6103c960048036038101906103c49190612513565b61108c565b6040516103d69190612aa0565b60405180910390f35b6103f960048036038101906103f49190612bf7565b6111c4565b005b6104156004803603810190610410919061262d565b611226565b60405161042291906127fd565b60405180910390f35b61044560048036038101906104409190612513565b6112f5565b60405161045291906124bb565b60405180910390f35b61047560048036038101906104709190612cda565b61139c565b60405161048291906127fd565b60405180910390f35b6104a560048036038101906104a09190612d74565b6114f0565b6040516104b29190612407565b60405180910390f35b6104d560048036038101906104d0919061262d565b611584565b6040516104e29190612407565b60405180910390f35b6105056004803603810190610500919061262d565b6116c9565b6040516105129190612407565b60405180910390f35b60007f80ac58cd000000000000000000000000000000000000000000000000000000007bffffffffffffffffffffffffffffffffffffffffffffffffffffffff1916827bffffffffffffffffffffffffffffffffffffffffffffffffffffffff191614806105e657507f5b5e139f000000000000000000000000000000000000000000000000000000007bffffffffffffffffffffffffffffffffffffffffffffffffffffffff1916827bffffffffffffffffffffffffffffffffffffffffffffffffffffffff1916145b806105f657506105f58261173e565b5b9050919050565b60606000805461060c90612de3565b80601f016020809104026020016040519081016040528092919081815260200182805461063890612de3565b80156106855780601f1061065a57610100808354040283529160200191610685565b820191906000526020600020905b81548152906001019060200180831161066857829003601f168201915b5050505050905090565b600061069a826117a8565b6106d9576040517f08c379a00000000000000000000000000000000000000000000000000000000081526004016106d090612e87565b60405180910390fd5b6004600083815260200190815260200160002060009054906101000a900473ffffffffffffffffffffffffffffffffffffffff169050919050565b600061071f82610bbb565b90508073ffffffffffffffffffffffffffffffffffffffff168373ffffffffffffffffffffffffffffffffffffffff161415610790576040517f08c379a000000000000000000000000000000000000000000000000000000000815260040161078790612f19565b60405180910390fd5b8073ffffffffffffffffffffffffffffffffffffffff166107af611814565b73ffffffffffffffffffffffffffffffffffffffff1614806107de57506107dd816107d8611814565b6114f0565b5b61081d576040517f08c379a000000000000000000000000000000000000000000000000000000000815260040161081490612fab565b60405180910390fd5b610827838361181c565b505050565b6000826007600082815260200190815260200160002060010160009054906101000a900473ffffffffffffffffffffffffffffffffffffffff1673ffffffffffffffffffffffffffffffffffffffff163373ffffffffffffffffffffffffffffffffffffffff1614806108d257506108a381610bbb565b73ffffffffffffffffffffffffffffffffffffffff163373ffffffffffffffffffffffffffffffffffffffff16145b6108db57600080fd5b60006108e78585611226565b905060008111156109125761090885828061090190612ffa565b93506118d5565b6001925050610918565b60019250505b5092915050565b61093061092a611814565b82611a1c565b61096f576040517f08c379a000000000000000000000000000000000000000000000000000000000815260040161096690613096565b60405180910390fd5b61097a838383611afa565b505050565b60008261098b81610bbb565b73ffffffffffffffffffffffffffffffffffffffff163373ffffffffffffffffffffffffffffffffffffffff16146109c257600080fd5b826007600086815260200190815260200160002060010160006101000a81548173ffffffffffffffffffffffffffffffffffffffff021916908373ffffffffffffffffffffffffffffffffffffffff160217905550600191505092915050565b60006007600085815260200190815260200160002060020154821280610a5d5750600760008581526020019081526020016000206003015483135b80610a6757508183135b15610a755760009050610b94565b60076000858152602001908152602001600020600201548212158015610ab1575060076000858152602001908152602001600020600301548213155b80610af4575060076000858152602001908152602001600020600301548313158015610af3575060076000858152602001908152602001600020600201548312155b5b15610b025760019050610b94565b60076000858152602001908152602001600020600301548212158015610b3e575060076000858152602001908152602001600020600201548313155b80610b81575060076000858152602001908152602001600020600301548213158015610b80575060076000858152602001908152602001600020600201548312155b5b15610b8f5760019050610b94565b600090505b9392505050565b610bb6838383604051806020016040528060008152506111c4565b505050565b6000806002600084815260200190815260200160002060009054906101000a900473ffffffffffffffffffffffffffffffffffffffff169050600073ffffffffffffffffffffffffffffffffffffffff168173ffffffffffffffffffffffffffffffffffffffff161415610c64576040517f08c379a0000000000000000000000000000000000000000000000000000000008152600401610c5b90613128565b60405180910390fd5b80915050919050565b600080846007600082815260200190815260200160002060010160009054906101000a900473ffffffffffffffffffffffffffffffffffffffff1673ffffffffffffffffffffffffffffffffffffffff163373ffffffffffffffffffffffffffffffffffffffff161480610d145750610ce581610bbb565b73ffffffffffffffffffffffffffffffffffffffff163373ffffffffffffffffffffffffffffffffffffffff16145b610d1d57600080fd5b60008513610d60576040517f08c379a0000000000000000000000000000000000000000000000000000000008152600401610d57906131ba565b60405180910390fd5b84841215610da3576040517f08c379a0000000000000000000000000000000000000000000000000000000008152600401610d9a9061324c565b60405180910390fd5b846007600088815260200190815260200160002060020181905550836007600088815260200190815260200160002060030181905550600760008781526020019081526020016000206002015460076000888152602001908152602001600020600301549250925050935093915050565b60008073ffffffffffffffffffffffffffffffffffffffff168273ffffffffffffffffffffffffffffffffffffffff161415610e85576040517f08c379a0000000000000000000000000000000000000000000000000000000008152600401610e7c906132de565b60405180910390fd5b600360008373ffffffffffffffffffffffffffffffffffffffff1673ffffffffffffffffffffffffffffffffffffffff168152602001908152602001600020549050919050565b606060018054610edb90612de3565b80601f0160208091040260200160405190810160405280929190818152602001828054610f0790612de3565b8015610f545780601f10610f2957610100808354040283529160200191610f54565b820191906000526020600020905b815481529060010190602001808311610f3757829003601f168201915b5050505050905090565b610f70610f69611814565b8383611d61565b5050565b6000826007600082815260200190815260200160002060010160009054906101000a900473ffffffffffffffffffffffffffffffffffffffff1673ffffffffffffffffffffffffffffffffffffffff163373ffffffffffffffffffffffffffffffffffffffff16148061101a5750610feb81610bbb565b73ffffffffffffffffffffffffffffffffffffffff163373ffffffffffffffffffffffffffffffffffffffff16145b61102357600080fd5b60008311611066576040517f08c379a000000000000000000000000000000000000000000000000000000000815260040161105d9061334a565b60405180910390fd5b826007600086815260200190815260200160002060050181905550600191505092915050565b611094612234565b600760008381526020019081526020016000206040518060c0016040529081600082015481526020016001820160009054906101000a900473ffffffffffffffffffffffffffffffffffffffff1673ffffffffffffffffffffffffffffffffffffffff1673ffffffffffffffffffffffffffffffffffffffff1681526020016002820154815260200160038201548152602001600482018054806020026020016040519081016040528092919081815260200182805480156111aa57602002820191906000526020600020906000905b82829054906101000a900460ff1660048111156111845761118361291d565b5b815260200190600101906020826000010492830192600103820291508084116111645790505b505050505081526020016005820154815250509050919050565b6111d56111cf611814565b83611a1c565b611214576040517f08c379a000000000000000000000000000000000000000000000000000000000815260040161120b90613096565b60405180910390fd5b61122084848484611ece565b50505050565b600080600190505b600760008581526020019081526020016000206004018054905081116112e9578260048111156112615761126061291d565b5b60076000868152602001908152602001600020600401828061128290612ffa565b9350815481106112955761129461336a565b5b90600052602060002090602091828204019190069054906101000a900460ff1660048111156112c7576112c661291d565b5b14156112d657809150506112ef565b80806112e190613399565b91505061122e565b50600090505b92915050565b6060611300826117a8565b61133f576040517f08c379a000000000000000000000000000000000000000000000000000000000815260040161133690613454565b60405180910390fd5b6000611349611f2a565b905060008151116113695760405180602001604052806000815250611394565b8061137384611f41565b6040516020016113849291906134b0565b6040516020818303038152906040525b915050919050565b60006113a860066116f7565b60006113b4600661170d565b905060006040518060c001604052808381526020018a73ffffffffffffffffffffffffffffffffffffffff168152602001898152602001888152602001878780806020026020016040519081016040528093929190818152602001838360200280828437600081840152601f19601f82011690508083019250505050505050815260200185815250905080600760008481526020019081526020016000206000820151816000015560208201518160010160006101000a81548173ffffffffffffffffffffffffffffffffffffffff021916908373ffffffffffffffffffffffffffffffffffffffff160217905550604082015181600201556060820151816003015560808201518160040190805190602001906114d3929190612280565b5060a0820151816005015590505081925050509695505050505050565b6000600560008473ffffffffffffffffffffffffffffffffffffffff1673ffffffffffffffffffffffffffffffffffffffff16815260200190815260200160002060008373ffffffffffffffffffffffffffffffffffffffff1673ffffffffffffffffffffffffffffffffffffffff16815260200190815260200160002060009054906101000a900460ff16905092915050565b6000826007600082815260200190815260200160002060010160009054906101000a900473ffffffffffffffffffffffffffffffffffffffff1673ffffffffffffffffffffffffffffffffffffffff163373ffffffffffffffffffffffffffffffffffffffff16148061162a57506115fb81610bbb565b73ffffffffffffffffffffffffffffffffffffffff163373ffffffffffffffffffffffffffffffffffffffff16145b61163357600080fd5b600061163f8585611226565b905060008111156116545760019250506116c2565b600760008681526020019081526020016000206004018490806001815401808255809150506001900390600052602060002090602091828204019190069091909190916101000a81548160ff021916908360048111156116b7576116b661291d565b5b021790555060019250505b5092915050565b6000806116d68484611226565b905060008111156116eb5760019150506116f1565b60009150505b92915050565b6001816000016000828254019250508190555050565b600081600001549050919050565b6000808273ffffffffffffffffffffffffffffffffffffffff163b119050919050565b60007f01ffc9a7000000000000000000000000000000000000000000000000000000007bffffffffffffffffffffffffffffffffffffffffffffffffffffffff1916827bffffffffffffffffffffffffffffffffffffffffffffffffffffffff1916149050919050565b60008073ffffffffffffffffffffffffffffffffffffffff166002600084815260200190815260200160002060009054906101000a900473ffffffffffffffffffffffffffffffffffffffff1673ffffffffffffffffffffffffffffffffffffffff1614159050919050565b600033905090565b816004600083815260200190815260200160002060006101000a81548173ffffffffffffffffffffffffffffffffffffffff021916908373ffffffffffffffffffffffffffffffffffffffff160217905550808273ffffffffffffffffffffffffffffffffffffffff1661188f83610bbb565b73ffffffffffffffffffffffffffffffffffffffff167f8c5be1e5ebec7d5bd14f71427d1e84f3dd0314c0f7b2291e5b200ac8c7c3b92560405160405180910390a45050565b600760008381526020019081526020016000206004018054905081106118fa57600080fd5b600760008381526020019081526020016000206004016001600760008581526020019081526020016000206004018054905061193691906134d4565b815481106119475761194661336a565b5b90600052602060002090602091828204019190069054906101000a900460ff1660076000848152602001908152602001600020600401828154811061198f5761198e61336a565b5b90600052602060002090602091828204019190066101000a81548160ff021916908360048111156119c3576119c261291d565b5b0217905550600760008381526020019081526020016000206004018054806119ee576119ed613508565b5b60019003818190600052602060002090602091828204019190066101000a81549060ff021916905590555050565b6000611a27826117a8565b611a66576040517f08c379a0000000000000000000000000000000000000000000000000000000008152600401611a5d906135a9565b60405180910390fd5b6000611a7183610bbb565b90508073ffffffffffffffffffffffffffffffffffffffff168473ffffffffffffffffffffffffffffffffffffffff161480611ae057508373ffffffffffffffffffffffffffffffffffffffff16611ac88461068f565b73ffffffffffffffffffffffffffffffffffffffff16145b80611af15750611af081856114f0565b5b91505092915050565b8273ffffffffffffffffffffffffffffffffffffffff16611b1a82610bbb565b73ffffffffffffffffffffffffffffffffffffffff1614611b70576040517f08c379a0000000000000000000000000000000000000000000000000000000008152600401611b679061363b565b60405180910390fd5b600073ffffffffffffffffffffffffffffffffffffffff168273ffffffffffffffffffffffffffffffffffffffff161415611be0576040517f08c379a0000000000000000000000000000000000000000000000000000000008152600401611bd7906136cd565b60405180910390fd5b611beb8383836120a2565b611bf660008261181c565b6001600360008573ffffffffffffffffffffffffffffffffffffffff1673ffffffffffffffffffffffffffffffffffffffff1681526020019081526020016000206000828254611c4691906134d4565b925050819055506001600360008473ffffffffffffffffffffffffffffffffffffffff1673ffffffffffffffffffffffffffffffffffffffff1681526020019081526020016000206000828254611c9d91906136ed565b92505081905550816002600083815260200190815260200160002060006101000a81548173ffffffffffffffffffffffffffffffffffffffff021916908373ffffffffffffffffffffffffffffffffffffffff160217905550808273ffffffffffffffffffffffffffffffffffffffff168473ffffffffffffffffffffffffffffffffffffffff167fddf252ad1be2c89b69c2b068fc378daa952ba7f163c4a11628f55a4df523b3ef60405160405180910390a4611d5c8383836120a7565b505050565b8173ffffffffffffffffffffffffffffffffffffffff168373ffffffffffffffffffffffffffffffffffffffff161415611dd0576040517f08c379a0000000000000000000000000000000000000000000000000000000008152600401611dc79061378f565b60405180910390fd5b80600560008573ffffffffffffffffffffffffffffffffffffffff1673ffffffffffffffffffffffffffffffffffffffff16815260200190815260200160002060008473ffffffffffffffffffffffffffffffffffffffff1673ffffffffffffffffffffffffffffffffffffffff16815260200190815260200160002060006101000a81548160ff0219169083151502179055508173ffffffffffffffffffffffffffffffffffffffff168373ffffffffffffffffffffffffffffffffffffffff167f17307eab39ab6107e8899845ad3d59bd9653f200f220920489ca2b5937696c3183604051611ec19190612407565b60405180910390a3505050565b611ed9848484611afa565b611ee5848484846120ac565b611f24576040517f08c379a0000000000000000000000000000000000000000000000000000000008152600401611f1b90613821565b60405180910390fd5b50505050565b606060405180602001604052806000815250905090565b60606000821415611f89576040518060400160405280600181526020017f3000000000000000000000000000000000000000000000000000000000000000815250905061209d565b600082905060005b60008214611fbb578080611fa490613399565b915050600a82611fb49190613870565b9150611f91565b60008167ffffffffffffffff811115611fd757611fd6612acc565b5b6040519080825280601f01601f1916602001820160405280156120095781602001600182028036833780820191505090505b5090505b600085146120965760018261202291906134d4565b9150600a8561203191906138a1565b603061203d91906136ed565b60f81b8183815181106120535761205261336a565b5b60200101907effffffffffffffffffffffffffffffffffffffffffffffffffffffffffffff1916908160001a905350600a8561208f9190613870565b945061200d565b8093505050505b919050565b505050565b505050565b60006120cd8473ffffffffffffffffffffffffffffffffffffffff1661171b565b15612227578373ffffffffffffffffffffffffffffffffffffffff1663150b7a026120f6611814565b8786866040518563ffffffff1660e01b81526004016121189493929190613927565b6020604051808303816000875af192505050801561215457506040513d601f19601f820116820180604052508101906121519190613988565b60015b6121d7573d8060008114612184576040519150601f19603f3d011682016040523d82523d6000602084013e612189565b606091505b506000815114156121cf576040517f08c379a00000000000000000000000000000000000000000000000000000000081526004016121c690613821565b60405180910390fd5b805181602001fd5b63150b7a0260e01b7bffffffffffffffffffffffffffffffffffffffffffffffffffffffff1916817bffffffffffffffffffffffffffffffffffffffffffffffffffffffff19161491505061222c565b600190505b949350505050565b6040518060c0016040528060008152602001600073ffffffffffffffffffffffffffffffffffffffff168152602001600081526020016000815260200160608152602001600081525090565b82805482825590600052602060002090601f016020900481019282156123255791602002820160005b838211156122f657835183826101000a81548160ff021916908360048111156122d5576122d461291d565b5b021790555092602001926001016020816000010492830192600103026122a9565b80156123235782816101000a81549060ff02191690556001016020816000010492830192600103026122f6565b505b5090506123329190612336565b5090565b5b8082111561234f576000816000905550600101612337565b5090565b6000604051905090565b600080fd5b600080fd5b60007fffffffff0000000000000000000000000000000000000000000000000000000082169050919050565b61239c81612367565b81146123a757600080fd5b50565b6000813590506123b981612393565b92915050565b6000602082840312156123d5576123d461235d565b5b60006123e3848285016123aa565b91505092915050565b60008115159050919050565b612401816123ec565b82525050565b600060208201905061241c60008301846123f8565b92915050565b600081519050919050565b600082825260208201905092915050565b60005b8381101561245c578082015181840152602081019050612441565b8381111561246b576000848401525b50505050565b6000601f19601f8301169050919050565b600061248d82612422565b612497818561242d565b93506124a781856020860161243e565b6124b081612471565b840191505092915050565b600060208201905081810360008301526124d58184612482565b905092915050565b6000819050919050565b6124f0816124dd565b81146124fb57600080fd5b50565b60008135905061250d816124e7565b92915050565b6000602082840312156125295761252861235d565b5b6000612537848285016124fe565b91505092915050565b600073ffffffffffffffffffffffffffffffffffffffff82169050919050565b600061256b82612540565b9050919050565b61257b81612560565b82525050565b60006020820190506125966000830184612572565b92915050565b6125a581612560565b81146125b057600080fd5b50565b6000813590506125c28161259c565b92915050565b600080604083850312156125df576125de61235d565b5b60006125ed858286016125b3565b92505060206125fe858286016124fe565b9150509250929050565b6005811061261557600080fd5b50565b60008135905061262781612608565b92915050565b600080604083850312156126445761264361235d565b5b6000612652858286016124fe565b925050602061266385828601612618565b9150509250929050565b6000806000606084860312156126865761268561235d565b5b6000612694868287016125b3565b93505060206126a5868287016125b3565b92505060406126b6868287016124fe565b9150509250925092565b600080604083850312156126d7576126d661235d565b5b60006126e5858286016124fe565b92505060206126f6858286016125b3565b9150509250929050565b6000819050919050565b61271381612700565b811461271e57600080fd5b50565b6000813590506127308161270a565b92915050565b60008060006060848603121561274f5761274e61235d565b5b600061275d868287016124fe565b935050602061276e86828701612721565b925050604061277f86828701612721565b9150509250925092565b61279281612700565b82525050565b60006040820190506127ad6000830185612789565b6127ba6020830184612789565b9392505050565b6000602082840312156127d7576127d661235d565b5b60006127e5848285016125b3565b91505092915050565b6127f7816124dd565b82525050565b600060208201905061281260008301846127ee565b92915050565b612821816123ec565b811461282c57600080fd5b50565b60008135905061283e81612818565b92915050565b6000806040838503121561285b5761285a61235d565b5b6000612869858286016125b3565b925050602061287a8582860161282f565b9150509250929050565b6000806040838503121561289b5761289a61235d565b5b60006128a9858286016124fe565b92505060206128ba858286016124fe565b9150509250929050565b6128cd816124dd565b82525050565b6128dc81612560565b82525050565b6128eb81612700565b82525050565b600081519050919050565b600082825260208201905092915050565b6000819050602082019050919050565b7f4e487b7100000000000000000000000000000000000000000000000000000000600052602160045260246000fd5b6005811061295d5761295c61291d565b5b50565b600081905061296e8261294c565b919050565b600061297e82612960565b9050919050565b61298e81612973565b82525050565b60006129a08383612985565b60208301905092915050565b6000602082019050919050565b60006129c4826128f1565b6129ce81856128fc565b93506129d98361290d565b8060005b83811015612a0a5781516129f18882612994565b97506129fc836129ac565b9250506001810190506129dd565b5085935050505092915050565b600060c083016000830151612a2f60008601826128c4565b506020830151612a4260208601826128d3565b506040830151612a5560408601826128e2565b506060830151612a6860608601826128e2565b5060808301518482036080860152612a8082826129b9565b91505060a0830151612a9560a08601826128c4565b508091505092915050565b60006020820190508181036000830152612aba8184612a17565b905092915050565b600080fd5b600080fd5b7f4e487b7100000000000000000000000000000000000000000000000000000000600052604160045260246000fd5b612b0482612471565b810181811067ffffffffffffffff82111715612b2357612b22612acc565b5b80604052505050565b6000612b36612353565b9050612b428282612afb565b919050565b600067ffffffffffffffff821115612b6257612b61612acc565b5b612b6b82612471565b9050602081019050919050565b82818337600083830152505050565b6000612b9a612b9584612b47565b612b2c565b905082815260208101848484011115612bb657612bb5612ac7565b5b612bc1848285612b78565b509392505050565b600082601f830112612bde57612bdd612ac2565b5b8135612bee848260208601612b87565b91505092915050565b60008060008060808587031215612c1157612c1061235d565b5b6000612c1f878288016125b3565b9450506020612c30878288016125b3565b9350506040612c41878288016124fe565b925050606085013567ffffffffffffffff811115612c6257612c61612362565b5b612c6e87828801612bc9565b91505092959194509250565b600080fd5b600080fd5b60008083601f840112612c9a57612c99612ac2565b5b8235905067ffffffffffffffff811115612cb757612cb6612c7a565b5b602083019150836020820283011115612cd357612cd2612c7f565b5b9250929050565b60008060008060008060a08789031215612cf757612cf661235d565b5b6000612d0589828a016125b3565b9650506020612d1689828a01612721565b9550506040612d2789828a01612721565b945050606087013567ffffffffffffffff811115612d4857612d47612362565b5b612d5489828a01612c84565b93509350506080612d6789828a016124fe565b9150509295509295509295565b60008060408385031215612d8b57612d8a61235d565b5b6000612d99858286016125b3565b9250506020612daa858286016125b3565b9150509250929050565b7f4e487b7100000000000000000000000000000000000000000000000000000000600052602260045260246000fd5b60006002820490506001821680612dfb57607f821691505b60208210811415612e0f57612e0e612db4565b5b50919050565b7f4552433732313a20617070726f76656420717565727920666f72206e6f6e657860008201527f697374656e7420746f6b656e0000000000000000000000000000000000000000602082015250565b6000612e71602c8361242d565b9150612e7c82612e15565b604082019050919050565b60006020820190508181036000830152612ea081612e64565b9050919050565b7f4552433732313a20617070726f76616c20746f2063757272656e74206f776e6560008201527f7200000000000000000000000000000000000000000000000000000000000000602082015250565b6000612f0360218361242d565b9150612f0e82612ea7565b604082019050919050565b60006020820190508181036000830152612f3281612ef6565b9050919050565b7f4552433732313a20617070726f76652063616c6c6572206973206e6f74206f7760008201527f6e6572206e6f7220617070726f76656420666f7220616c6c0000000000000000602082015250565b6000612f9560388361242d565b9150612fa082612f39565b604082019050919050565b60006020820190508181036000830152612fc481612f88565b9050919050565b7f4e487b7100000000000000000000000000000000000000000000000000000000600052601160045260246000fd5b6000613005826124dd565b9150600082141561301957613018612fcb565b5b600182039050919050565b7f4552433732313a207472616e736665722063616c6c6572206973206e6f74206f60008201527f776e6572206e6f7220617070726f766564000000000000000000000000000000602082015250565b600061308060318361242d565b915061308b82613024565b604082019050919050565b600060208201905081810360008301526130af81613073565b9050919050565b7f4552433732313a206f776e657220717565727920666f72206e6f6e657869737460008201527f656e7420746f6b656e0000000000000000000000000000000000000000000000602082015250565b600061311260298361242d565b915061311d826130b6565b604082019050919050565b6000602082019050818103600083015261314181613105565b9050919050565b7f454c2056414c4f5220444520414c5449545544204d494e494d4f20444542452060008201527f534552204d41594f522041203000000000000000000000000000000000000000602082015250565b60006131a4602d8361242d565b91506131af82613148565b604082019050919050565b600060208201905081810360008301526131d381613197565b9050919050565b7f454c2056414c4f5220444520414c5449545544204d4158494d4f20444542452060008201527f534552204d41594f52204f20494755414c20414c204d494e494d4f0000000000602082015250565b6000613236603b8361242d565b9150613241826131da565b604082019050919050565b6000602082019050818103600083015261326581613229565b9050919050565b7f4552433732313a2062616c616e636520717565727920666f7220746865207a6560008201527f726f206164647265737300000000000000000000000000000000000000000000602082015250565b60006132c8602a8361242d565b91506132d38261326c565b604082019050919050565b600060208201905081810360008301526132f7816132bb565b9050919050565b7f454c20434f535445204445424520534552204d41594f52204120300000000000600082015250565b6000613334601b8361242d565b915061333f826132fe565b602082019050919050565b6000602082019050818103600083015261336381613327565b9050919050565b7f4e487b7100000000000000000000000000000000000000000000000000000000600052603260045260246000fd5b60006133a4826124dd565b91507fffffffffffffffffffffffffffffffffffffffffffffffffffffffffffffffff8214156133d7576133d6612fcb565b5b600182019050919050565b7f4552433732314d657461646174613a2055524920717565727920666f72206e6f60008201527f6e6578697374656e7420746f6b656e0000000000000000000000000000000000602082015250565b600061343e602f8361242d565b9150613449826133e2565b604082019050919050565b6000602082019050818103600083015261346d81613431565b9050919050565b600081905092915050565b600061348a82612422565b6134948185613474565b93506134a481856020860161243e565b80840191505092915050565b60006134bc828561347f565b91506134c8828461347f565b91508190509392505050565b60006134df826124dd565b91506134ea836124dd565b9250828210156134fd576134fc612fcb565b5b828203905092915050565b7f4e487b7100000000000000000000000000000000000000000000000000000000600052603160045260246000fd5b7f4552433732313a206f70657261746f7220717565727920666f72206e6f6e657860008201527f697374656e7420746f6b656e0000000000000000000000000000000000000000602082015250565b6000613593602c8361242d565b915061359e82613537565b604082019050919050565b600060208201905081810360008301526135c281613586565b9050919050565b7f4552433732313a207472616e736665722066726f6d20696e636f72726563742060008201527f6f776e6572000000000000000000000000000000000000000000000000000000602082015250565b600061362560258361242d565b9150613630826135c9565b604082019050919050565b6000602082019050818103600083015261365481613618565b9050919050565b7f4552433732313a207472616e7366657220746f20746865207a65726f2061646460008201527f7265737300000000000000000000000000000000000000000000000000000000602082015250565b60006136b760248361242d565b91506136c28261365b565b604082019050919050565b600060208201905081810360008301526136e6816136aa565b9050919050565b60006136f8826124dd565b9150613703836124dd565b9250827fffffffffffffffffffffffffffffffffffffffffffffffffffffffffffffffff0382111561373857613737612fcb565b5b828201905092915050565b7f4552433732313a20617070726f766520746f2063616c6c657200000000000000600082015250565b600061377960198361242d565b915061378482613743565b602082019050919050565b600060208201905081810360008301526137a88161376c565b9050919050565b7f4552433732313a207472616e7366657220746f206e6f6e20455243373231526560008201527f63656976657220696d706c656d656e7465720000000000000000000000000000602082015250565b600061380b60328361242d565b9150613816826137af565b604082019050919050565b6000602082019050818103600083015261383a816137fe565b9050919050565b7f4e487b7100000000000000000000000000000000000000000000000000000000600052601260045260246000fd5b600061387b826124dd565b9150613886836124dd565b92508261389657613895613841565b5b828204905092915050565b60006138ac826124dd565b91506138b7836124dd565b9250826138c7576138c6613841565b5b828206905092915050565b600081519050919050565b600082825260208201905092915050565b60006138f9826138d2565b61390381856138dd565b935061391381856020860161243e565b61391c81612471565b840191505092915050565b600060808201905061393c6000830187612572565b6139496020830186612572565b61395660408301856127ee565b818103606083015261396881846138ee565b905095945050505050565b60008151905061398281612393565b92915050565b60006020828403121561399e5761399d61235d565b5b60006139ac84828501613973565b9150509291505056fea26469706673582212202e50c1250cf6e78c7d6522439bbed06e78277c39b0d752f926d0cc775c3048cd64736f6c634300080c0033",
  "immutableReferences": {},
  "source": "//SPDX-License-Identifier: UNLICENSED\r\npragma solidity ^0.8.0; \r\n\r\n//Importamos\r\nimport \"@openzeppelin/contracts/token/ERC721/ERC721.sol\";\r\nimport \"@openzeppelin/contracts/utils/Counters.sol\";\r\n\r\n//Extendemos del contrato ERC721 (Contrato destinado a Tokens no fungibles)\r\ncontract DronContract is ERC721 {\r\n    using Counters for Counters.Counter;\r\n    Counters.Counter UltimoID;\r\n\r\n    enum _Pesticidas{\r\n        Pesticida_A,\r\n        Pesticida_B,\r\n        Pesticida_C,\r\n        Pesticida_D,\r\n        Pesticida_E\r\n    }\r\n\r\n    //Creamos las variables propias del contrato\r\n    struct Dron {\r\n        uint256 _ID;\r\n        address _Empresa; \r\n        int256 _Altitud_MIN;\r\n        int256 _Altitud_MAX;\r\n        _Pesticidas[] _Pesticidas;\r\n        uint256 _Coste;\r\n    }\r\n\r\n    mapping(uint256 => Dron) private _Drones;\r\n\r\n    constructor() ERC721(\"MyDron\", \"MDron\") {\r\n\r\n        UltimoID.increment();\r\n        uint256 IDActual = UltimoID.current();\r\n        /*\r\n        Dron storage Primero = _Drones[IDActual];\r\n  \r\n        Primero._ID = IDActual;\r\n        Primero._Altitud_MIN = 0;\r\n        Primero._Altitud_MAX = 0;\r\n        Primero._Coste = 0;\r\n        */\r\n\r\n        _safeMint(msg.sender,IDActual);\r\n    }\r\n\r\n    //Modificador de permisos de acceso\r\n    modifier SoloPropietario(uint256 ID){\r\n        require(msg.sender == ownerOf(ID));\r\n        _;\r\n    }\r\n\r\n    //Modificador de permisos de acceso\r\n    modifier SoloEmpresa(uint256 ID){\r\n        require(msg.sender == _Drones[ID]._Empresa || msg.sender == ownerOf(ID));\r\n        _;\r\n    }\r\n\r\n    function CrearDron(address EMPRESA, int256 MIN, int256 MAX, _Pesticidas[] calldata PESTICIDA, uint256 COSTE) public returns (uint256){\r\n        UltimoID.increment();\r\n        uint256 IDActual = UltimoID.current();\r\n\r\n        Dron memory Dron_ = Dron({\r\n            _ID: IDActual,\r\n            _Empresa: EMPRESA,\r\n            _Altitud_MIN: MIN,\r\n            _Altitud_MAX: MAX,\r\n            _Pesticidas: PESTICIDA,\r\n            _Coste: COSTE\r\n        });\r\n\r\n        _Drones[IDActual] = Dron_;\r\n\r\n        return IDActual;\r\n    }\r\n\r\n    function ConfigurarEmpresa(uint256 ID, address EMPRESA) public SoloPropietario(ID) returns (bool)\r\n    {\r\n        _Drones[ID]._Empresa = EMPRESA;\r\n        return true;\r\n    }\r\n\r\n    function ConfigurarAltitud(uint256 ID, int256 MIN, int256 MAX) public SoloEmpresa(ID) returns (int256, int256)\r\n    {\r\n        require (MIN > 0, \"EL VALOR DE ALTITUD MINIMO DEBE SER MAYOR A 0\");\r\n        require (MAX >= MIN, \"EL VALOR DE ALTITUD MAXIMO DEBE SER MAYOR O IGUAL AL MINIMO\");\r\n        _Drones[ID]._Altitud_MIN = MIN;\r\n        _Drones[ID]._Altitud_MAX = MAX;\r\n        return (_Drones[ID]._Altitud_MIN, _Drones[ID]._Altitud_MAX);\r\n    }\r\n\r\n    function ConfigurarCoste(uint256 ID, uint256 COSTE) public SoloEmpresa(ID) returns (bool)\r\n    {\r\n        require (COSTE > 0, \"EL COSTE DEBE SER MAYOR A 0\");\r\n        _Drones[ID]._Coste = COSTE;\r\n        return true;\r\n    }\r\n\r\n    function BuscarPesticida(uint256 ID, _Pesticidas PESTICIDA) public view returns (uint)\r\n    {\r\n        for (uint i = 1; i <= _Drones[ID]._Pesticidas.length; i++) {\r\n            if (_Drones[ID]._Pesticidas[i--] == PESTICIDA) {\r\n                return i;\r\n            }\r\n        }\r\n        return 0;\r\n    }\r\n\r\n    function AltaPesticida(uint256 ID, _Pesticidas PESTICIDA) public SoloEmpresa(ID) returns (bool)\r\n    {\r\n        uint key = BuscarPesticida(ID, PESTICIDA);\r\n        if (key > 0) {\r\n            return true;\r\n        } else {\r\n            _Drones[ID]._Pesticidas.push(PESTICIDA);\r\n            return true;\r\n        }\r\n    }\r\n\r\n    function _QuitarPosicionArray(uint256 ID, uint key) internal {\r\n        require(key < _Drones[ID]._Pesticidas.length);\r\n        _Drones[ID]._Pesticidas[key] = _Drones[ID]._Pesticidas[_Drones[ID]._Pesticidas.length-1];\r\n        _Drones[ID]._Pesticidas.pop();\r\n    }\r\n\r\n    function BajaPesticida(uint256 ID, _Pesticidas PESTICIDA) public SoloEmpresa(ID) returns (bool)\r\n    {\r\n        uint key = BuscarPesticida(ID, PESTICIDA);\r\n        if (key > 0) {\r\n            _QuitarPosicionArray(ID, key--);\r\n            return true;\r\n        } else {\r\n            return true;\r\n        }\r\n    }\r\n\r\n    function ObtenerInfoDron(uint256 ID) public view returns (Dron memory) {\r\n        return _Drones[ID];\r\n    }\r\n\r\n    function ComprobarAltitud(uint256 ID, int256 MIN, int256 MAX) public view returns (bool)\r\n    {\r\n        if ((MAX < _Drones[ID]._Altitud_MIN) || (MIN > _Drones[ID]._Altitud_MAX) || (MIN > MAX)) {\r\n            return false;\r\n        } else {\r\n            if ((MAX >= _Drones[ID]._Altitud_MIN && MAX <= _Drones[ID]._Altitud_MAX) || (MIN <= _Drones[ID]._Altitud_MAX && MIN >= _Drones[ID]._Altitud_MIN)) {\r\n                return true;\r\n            } else {\r\n                if ((MAX >= _Drones[ID]._Altitud_MAX && MIN <= _Drones[ID]._Altitud_MIN) || (MAX <= _Drones[ID]._Altitud_MAX && MIN >= _Drones[ID]._Altitud_MIN)) {\r\n                    return true;\r\n                } else {\r\n                    return false;\r\n                }\r\n            }\r\n        }\r\n    }\r\n\r\n    function ComprobarPesticida(uint256 ID, _Pesticidas PESTICIDA) public view returns (bool)\r\n    {\r\n        uint key = BuscarPesticida(ID, PESTICIDA);\r\n        if (key > 0) {\r\n            return true;\r\n        } else {\r\n            return false;\r\n        }\r\n    }\r\n}",
  "sourcePath": "/Users/trabajo/Documents/apps/front_blockchain_tfe/contracts/Dron.sol",
  "compiler": {
    "name": "solc",
    "version": "0.8.12+commit.f00d7308.Emscripten.clang"
  },
  "schemaVersion": "3.4.6",
  "updatedAt": "2022-03-17T18:36:00.240Z",
  "networkType": "ethereum",
  "devdoc": {
    "kind": "dev",
    "methods": {
      "approve(address,uint256)": {
        "details": "See {IERC721-approve}."
      },
      "balanceOf(address)": {
        "details": "See {IERC721-balanceOf}."
      },
      "getApproved(uint256)": {
        "details": "See {IERC721-getApproved}."
      },
      "isApprovedForAll(address,address)": {
        "details": "See {IERC721-isApprovedForAll}."
      },
      "name()": {
        "details": "See {IERC721Metadata-name}."
      },
      "ownerOf(uint256)": {
        "details": "See {IERC721-ownerOf}."
      },
      "safeTransferFrom(address,address,uint256)": {
        "details": "See {IERC721-safeTransferFrom}."
      },
      "safeTransferFrom(address,address,uint256,bytes)": {
        "details": "See {IERC721-safeTransferFrom}."
      },
      "setApprovalForAll(address,bool)": {
        "details": "See {IERC721-setApprovalForAll}."
      },
      "supportsInterface(bytes4)": {
        "details": "See {IERC165-supportsInterface}."
      },
      "symbol()": {
        "details": "See {IERC721Metadata-symbol}."
      },
      "tokenURI(uint256)": {
        "details": "See {IERC721Metadata-tokenURI}."
      },
      "transferFrom(address,address,uint256)": {
        "details": "See {IERC721-transferFrom}."
      }
    },
    "version": 1
  },
  "userdoc": {
    "kind": "user",
    "methods": {},
    "version": 1
  }
}