{
  "contractName": "DronContract",
  "abi": [
    {
      "inputs": [],
      "stateMutability": "nonpayable",
      "type": "constructor"
    },
    {
      "anonymous": false,
      "inputs": [
        {
          "indexed": true,
          "internalType": "address",
          "name": "owner",
          "type": "address"
        },
        {
          "indexed": true,
          "internalType": "address",
          "name": "approved",
          "type": "address"
        },
        {
          "indexed": true,
          "internalType": "uint256",
          "name": "tokenId",
          "type": "uint256"
        }
      ],
      "name": "Approval",
      "type": "event"
    },
    {
      "anonymous": false,
      "inputs": [
        {
          "indexed": true,
          "internalType": "address",
          "name": "owner",
          "type": "address"
        },
        {
          "indexed": true,
          "internalType": "address",
          "name": "operator",
          "type": "address"
        },
        {
          "indexed": false,
          "internalType": "bool",
          "name": "approved",
          "type": "bool"
        }
      ],
      "name": "ApprovalForAll",
      "type": "event"
    },
    {
      "anonymous": false,
      "inputs": [
        {
          "indexed": true,
          "internalType": "address",
          "name": "from",
          "type": "address"
        },
        {
          "indexed": true,
          "internalType": "address",
          "name": "to",
          "type": "address"
        },
        {
          "indexed": true,
          "internalType": "uint256",
          "name": "tokenId",
          "type": "uint256"
        }
      ],
      "name": "Transfer",
      "type": "event"
    },
    {
      "inputs": [
        {
          "internalType": "address",
          "name": "to",
          "type": "address"
        },
        {
          "internalType": "uint256",
          "name": "tokenId",
          "type": "uint256"
        }
      ],
      "name": "approve",
      "outputs": [],
      "stateMutability": "nonpayable",
      "type": "function"
    },
    {
      "inputs": [
        {
          "internalType": "address",
          "name": "owner",
          "type": "address"
        }
      ],
      "name": "balanceOf",
      "outputs": [
        {
          "internalType": "uint256",
          "name": "",
          "type": "uint256"
        }
      ],
      "stateMutability": "view",
      "type": "function",
      "constant": true
    },
    {
      "inputs": [
        {
          "internalType": "uint256",
          "name": "tokenId",
          "type": "uint256"
        }
      ],
      "name": "getApproved",
      "outputs": [
        {
          "internalType": "address",
          "name": "",
          "type": "address"
        }
      ],
      "stateMutability": "view",
      "type": "function",
      "constant": true
    },
    {
      "inputs": [
        {
          "internalType": "address",
          "name": "owner",
          "type": "address"
        },
        {
          "internalType": "address",
          "name": "operator",
          "type": "address"
        }
      ],
      "name": "isApprovedForAll",
      "outputs": [
        {
          "internalType": "bool",
          "name": "",
          "type": "bool"
        }
      ],
      "stateMutability": "view",
      "type": "function",
      "constant": true
    },
    {
      "inputs": [],
      "name": "name",
      "outputs": [
        {
          "internalType": "string",
          "name": "",
          "type": "string"
        }
      ],
      "stateMutability": "view",
      "type": "function",
      "constant": true
    },
    {
      "inputs": [
        {
          "internalType": "uint256",
          "name": "tokenId",
          "type": "uint256"
        }
      ],
      "name": "ownerOf",
      "outputs": [
        {
          "internalType": "address",
          "name": "",
          "type": "address"
        }
      ],
      "stateMutability": "view",
      "type": "function",
      "constant": true
    },
    {
      "inputs": [
        {
          "internalType": "address",
          "name": "from",
          "type": "address"
        },
        {
          "internalType": "address",
          "name": "to",
          "type": "address"
        },
        {
          "internalType": "uint256",
          "name": "tokenId",
          "type": "uint256"
        }
      ],
      "name": "safeTransferFrom",
      "outputs": [],
      "stateMutability": "nonpayable",
      "type": "function"
    },
    {
      "inputs": [
        {
          "internalType": "address",
          "name": "from",
          "type": "address"
        },
        {
          "internalType": "address",
          "name": "to",
          "type": "address"
        },
        {
          "internalType": "uint256",
          "name": "tokenId",
          "type": "uint256"
        },
        {
          "internalType": "bytes",
          "name": "_data",
          "type": "bytes"
        }
      ],
      "name": "safeTransferFrom",
      "outputs": [],
      "stateMutability": "nonpayable",
      "type": "function"
    },
    {
      "inputs": [
        {
          "internalType": "address",
          "name": "operator",
          "type": "address"
        },
        {
          "internalType": "bool",
          "name": "approved",
          "type": "bool"
        }
      ],
      "name": "setApprovalForAll",
      "outputs": [],
      "stateMutability": "nonpayable",
      "type": "function"
    },
    {
      "inputs": [
        {
          "internalType": "bytes4",
          "name": "interfaceId",
          "type": "bytes4"
        }
      ],
      "name": "supportsInterface",
      "outputs": [
        {
          "internalType": "bool",
          "name": "",
          "type": "bool"
        }
      ],
      "stateMutability": "view",
      "type": "function",
      "constant": true
    },
    {
      "inputs": [],
      "name": "symbol",
      "outputs": [
        {
          "internalType": "string",
          "name": "",
          "type": "string"
        }
      ],
      "stateMutability": "view",
      "type": "function",
      "constant": true
    },
    {
      "inputs": [
        {
          "internalType": "uint256",
          "name": "tokenId",
          "type": "uint256"
        }
      ],
      "name": "tokenURI",
      "outputs": [
        {
          "internalType": "string",
          "name": "",
          "type": "string"
        }
      ],
      "stateMutability": "view",
      "type": "function",
      "constant": true
    },
    {
      "inputs": [
        {
          "internalType": "address",
          "name": "from",
          "type": "address"
        },
        {
          "internalType": "address",
          "name": "to",
          "type": "address"
        },
        {
          "internalType": "uint256",
          "name": "tokenId",
          "type": "uint256"
        }
      ],
      "name": "transferFrom",
      "outputs": [],
      "stateMutability": "nonpayable",
      "type": "function"
    },
    {
      "inputs": [
        {
          "internalType": "address",
          "name": "EMPRESA",
          "type": "address"
        },
        {
          "internalType": "int256",
          "name": "MIN",
          "type": "int256"
        },
        {
          "internalType": "int256",
          "name": "MAX",
          "type": "int256"
        },
        {
          "internalType": "uint256",
          "name": "COSTE",
          "type": "uint256"
        },
        {
          "internalType": "enum TiposContract._Pesticidas[]",
          "name": "PESTICIDA",
          "type": "uint8[]"
        }
      ],
      "name": "CrearDron",
      "outputs": [
        {
          "internalType": "uint256",
          "name": "",
          "type": "uint256"
        }
      ],
      "stateMutability": "nonpayable",
      "type": "function"
    },
    {
      "inputs": [
        {
          "internalType": "uint256",
          "name": "ID",
          "type": "uint256"
        },
        {
          "internalType": "address",
          "name": "EMPRESA",
          "type": "address"
        }
      ],
      "name": "ConfigurarEmpresa",
      "outputs": [
        {
          "internalType": "bool",
          "name": "",
          "type": "bool"
        }
      ],
      "stateMutability": "nonpayable",
      "type": "function"
    },
    {
      "inputs": [
        {
          "internalType": "uint256",
          "name": "ID",
          "type": "uint256"
        },
        {
          "internalType": "int256",
          "name": "MIN",
          "type": "int256"
        },
        {
          "internalType": "int256",
          "name": "MAX",
          "type": "int256"
        }
      ],
      "name": "ConfigurarAltitud",
      "outputs": [
        {
          "internalType": "int256",
          "name": "",
          "type": "int256"
        },
        {
          "internalType": "int256",
          "name": "",
          "type": "int256"
        }
      ],
      "stateMutability": "nonpayable",
      "type": "function"
    },
    {
      "inputs": [
        {
          "internalType": "uint256",
          "name": "ID",
          "type": "uint256"
        },
        {
          "internalType": "uint256",
          "name": "COSTE",
          "type": "uint256"
        }
      ],
      "name": "ConfigurarCoste",
      "outputs": [
        {
          "internalType": "bool",
          "name": "",
          "type": "bool"
        }
      ],
      "stateMutability": "nonpayable",
      "type": "function"
    },
    {
      "inputs": [
        {
          "internalType": "uint256",
          "name": "ID",
          "type": "uint256"
        },
        {
          "internalType": "enum TiposContract._Pesticidas",
          "name": "PESTICIDA",
          "type": "uint8"
        }
      ],
      "name": "BuscarPesticida",
      "outputs": [
        {
          "internalType": "int256",
          "name": "",
          "type": "int256"
        }
      ],
      "stateMutability": "view",
      "type": "function",
      "constant": true
    },
    {
      "inputs": [
        {
          "internalType": "uint256",
          "name": "ID",
          "type": "uint256"
        },
        {
          "internalType": "enum TiposContract._Pesticidas",
          "name": "PESTICIDA",
          "type": "uint8"
        }
      ],
      "name": "AltaPesticida",
      "outputs": [
        {
          "internalType": "bool",
          "name": "",
          "type": "bool"
        }
      ],
      "stateMutability": "nonpayable",
      "type": "function"
    },
    {
      "inputs": [
        {
          "internalType": "uint256",
          "name": "ID",
          "type": "uint256"
        },
        {
          "internalType": "enum TiposContract._Pesticidas",
          "name": "PESTICIDA",
          "type": "uint8"
        }
      ],
      "name": "BajaPesticida",
      "outputs": [
        {
          "internalType": "bool",
          "name": "",
          "type": "bool"
        }
      ],
      "stateMutability": "nonpayable",
      "type": "function"
    },
    {
      "inputs": [
        {
          "internalType": "uint256",
          "name": "ID",
          "type": "uint256"
        }
      ],
      "name": "ObtenerInfoDron",
      "outputs": [
        {
          "components": [
            {
              "internalType": "uint256",
              "name": "_ID",
              "type": "uint256"
            },
            {
              "internalType": "address",
              "name": "_Empresa",
              "type": "address"
            },
            {
              "internalType": "int256",
              "name": "_Altitud_MIN",
              "type": "int256"
            },
            {
              "internalType": "int256",
              "name": "_Altitud_MAX",
              "type": "int256"
            },
            {
              "internalType": "uint256",
              "name": "_Coste",
              "type": "uint256"
            },
            {
              "internalType": "enum TiposContract._Pesticidas[]",
              "name": "_Pesticidas",
              "type": "uint8[]"
            }
          ],
          "internalType": "struct DronContract.Dron",
          "name": "",
          "type": "tuple"
        }
      ],
      "stateMutability": "view",
      "type": "function",
      "constant": true
    },
    {
      "inputs": [],
      "name": "ObtenerInfoDrones",
      "outputs": [
        {
          "components": [
            {
              "internalType": "uint256",
              "name": "_ID",
              "type": "uint256"
            },
            {
              "internalType": "address",
              "name": "_Empresa",
              "type": "address"
            },
            {
              "internalType": "int256",
              "name": "_Altitud_MIN",
              "type": "int256"
            },
            {
              "internalType": "int256",
              "name": "_Altitud_MAX",
              "type": "int256"
            },
            {
              "internalType": "uint256",
              "name": "_Coste",
              "type": "uint256"
            },
            {
              "internalType": "enum TiposContract._Pesticidas[]",
              "name": "_Pesticidas",
              "type": "uint8[]"
            }
          ],
          "internalType": "struct DronContract.Dron[]",
          "name": "",
          "type": "tuple[]"
        }
      ],
      "stateMutability": "view",
      "type": "function",
      "constant": true
    },
    {
      "inputs": [
        {
          "internalType": "uint256",
          "name": "ID",
          "type": "uint256"
        },
        {
          "internalType": "int256",
          "name": "MIN",
          "type": "int256"
        },
        {
          "internalType": "int256",
          "name": "MAX",
          "type": "int256"
        }
      ],
      "name": "ComprobarAltitud",
      "outputs": [
        {
          "internalType": "bool",
          "name": "",
          "type": "bool"
        }
      ],
      "stateMutability": "view",
      "type": "function",
      "constant": true
    },
    {
      "inputs": [
        {
          "internalType": "uint256",
          "name": "ID",
          "type": "uint256"
        },
        {
          "internalType": "enum TiposContract._Pesticidas",
          "name": "PESTICIDA",
          "type": "uint8"
        }
      ],
      "name": "ComprobarPesticida",
      "outputs": [
        {
          "internalType": "bool",
          "name": "",
          "type": "bool"
        }
      ],
      "stateMutability": "view",
      "type": "function",
      "constant": true
    }
  ],
  "bytecode": "0x60806040523480156200001157600080fd5b506040518060400160405280600681526020017f4d7944726f6e00000000000000000000000000000000000000000000000000008152506040518060400160405280600581526020017f4d44726f6e000000000000000000000000000000000000000000000000000000815250816000908051906020019062000096929190620000b8565b508060019080519060200190620000af929190620000b8565b505050620001cd565b828054620000c69062000197565b90600052602060002090601f016020900481019282620000ea576000855562000136565b82601f106200010557805160ff191683800117855562000136565b8280016001018555821562000136579182015b828111156200013557825182559160200191906001019062000118565b5b50905062000145919062000149565b5090565b5b80821115620001645760008160009055506001016200014a565b5090565b7f4e487b7100000000000000000000000000000000000000000000000000000000600052602260045260246000fd5b60006002820490506001821680620001b057607f821691505b60208210811415620001c757620001c662000168565b5b50919050565b61434b80620001dd6000396000f3fe608060405234801561001057600080fd5b50600436106101585760003560e01c80636678fd0b116100c3578063b88d4fde1161007c578063b88d4fde14610438578063bfef828214610454578063c87b56dd14610484578063e985e9c5146104b4578063ed63a95d146104e4578063f4c54c241461051457610158565b80636678fd0b1461033d57806370a082311461036e57806395d89b411461039e578063a22cb465146103bc578063af3f9e03146103d8578063b45d6c121461040857610158565b806332e3e8071161011557806332e3e8071461024357806333ecfc411461027357806338a18c491461029157806342842e0e146102c1578063432feece146102dd5780636352211e1461030d57610158565b806301ffc9a71461015d57806306fdde031461018d578063081812fc146101ab578063095ea7b3146101db57806320804314146101f757806323b872dd14610227575b600080fd5b6101776004803603810190610172919061297c565b610544565b60405161018491906129c4565b60405180910390f35b610195610626565b6040516101a29190612a78565b60405180910390f35b6101c560048036038101906101c09190612ad0565b6106b8565b6040516101d29190612b3e565b60405180910390f35b6101f560048036038101906101f09190612b85565b61073d565b005b610211600480360381019061020c9190612bea565b610855565b60405161021e91906129c4565b60405180910390f35b610241600480360381019061023c9190612c2a565b61093b565b005b61025d60048036038101906102589190612c7d565b61099b565b60405161026a91906129c4565b60405180910390f35b61027b610a3e565b6040516102889190612f65565b60405180910390f35b6102ab60048036038101906102a69190612fb3565b610ba8565b6040516102b891906129c4565b60405180910390f35b6102db60048036038101906102d69190612c2a565b610d21565b005b6102f760048036038101906102f2919061306b565b610d41565b6040516103049190613114565b60405180910390f35b61032760048036038101906103229190612ad0565b611067565b6040516103349190612b3e565b60405180910390f35b61035760048036038101906103529190612fb3565b611119565b60405161036592919061313e565b60405180910390f35b61038860048036038101906103839190613167565b6112c0565b6040516103959190613114565b60405180910390f35b6103a6611378565b6040516103b39190612a78565b60405180910390f35b6103d660048036038101906103d191906131c0565b61140a565b005b6103f260048036038101906103ed9190613200565b611420565b6040516103ff91906129c4565b60405180910390f35b610422600480360381019061041d9190612ad0565b611538565b60405161042f91906132c9565b60405180910390f35b610452600480360381019061044d919061341b565b611670565b005b61046e60048036038101906104699190612bea565b6116d2565b60405161047b919061349e565b60405180910390f35b61049e60048036038101906104999190612ad0565b6117b5565b6040516104ab9190612a78565b60405180910390f35b6104ce60048036038101906104c991906134b9565b61185c565b6040516104db91906129c4565b60405180910390f35b6104fe60048036038101906104f99190612bea565b6118f0565b60405161050b91906129c4565b60405180910390f35b61052e60048036038101906105299190612bea565b611a34565b60405161053b91906129c4565b60405180910390f35b60007f80ac58cd000000000000000000000000000000000000000000000000000000007bffffffffffffffffffffffffffffffffffffffffffffffffffffffff1916827bffffffffffffffffffffffffffffffffffffffffffffffffffffffff1916148061060f57507f5b5e139f000000000000000000000000000000000000000000000000000000007bffffffffffffffffffffffffffffffffffffffffffffffffffffffff1916827bffffffffffffffffffffffffffffffffffffffffffffffffffffffff1916145b8061061f575061061e82611a61565b5b9050919050565b60606000805461063590613528565b80601f016020809104026020016040519081016040528092919081815260200182805461066190613528565b80156106ae5780601f10610683576101008083540402835291602001916106ae565b820191906000526020600020905b81548152906001019060200180831161069157829003601f168201915b5050505050905090565b60006106c382611acb565b610702576040517f08c379a00000000000000000000000000000000000000000000000000000000081526004016106f9906135cc565b60405180910390fd5b6004600083815260200190815260200160002060009054906101000a900473ffffffffffffffffffffffffffffffffffffffff169050919050565b600061074882611067565b90508073ffffffffffffffffffffffffffffffffffffffff168373ffffffffffffffffffffffffffffffffffffffff1614156107b9576040517f08c379a00000000000000000000000000000000000000000000000000000000081526004016107b09061365e565b60405180910390fd5b8073ffffffffffffffffffffffffffffffffffffffff166107d8611b37565b73ffffffffffffffffffffffffffffffffffffffff161480610807575061080681610801611b37565b61185c565b5b610846576040517f08c379a000000000000000000000000000000000000000000000000000000000815260040161083d906136f0565b60405180910390fd5b6108508383611b3f565b505050565b6000826007600082815260200190815260200160002060010160009054906101000a900473ffffffffffffffffffffffffffffffffffffffff1673ffffffffffffffffffffffffffffffffffffffff163373ffffffffffffffffffffffffffffffffffffffff1614806108fb57506108cc81611067565b73ffffffffffffffffffffffffffffffffffffffff163373ffffffffffffffffffffffffffffffffffffffff16145b61090457600080fd5b600061091085856116d2565b90506000811261092e576109248582611bf8565b6001925050610934565b60009250505b5092915050565b61094c610946611b37565b82611d3f565b61098b576040517f08c379a000000000000000000000000000000000000000000000000000000000815260040161098290613782565b60405180910390fd5b610996838383611e1d565b505050565b6000826109a781611067565b73ffffffffffffffffffffffffffffffffffffffff163373ffffffffffffffffffffffffffffffffffffffff16146109de57600080fd5b826007600086815260200190815260200160002060010160006101000a81548173ffffffffffffffffffffffffffffffffffffffff021916908373ffffffffffffffffffffffffffffffffffffffff160217905550600191505092915050565b60606008805480602002602001604051908101604052809291908181526020016000905b82821015610b9f57838290600052602060002090600602016040518060c0016040529081600082015481526020016001820160009054906101000a900473ffffffffffffffffffffffffffffffffffffffff1673ffffffffffffffffffffffffffffffffffffffff1673ffffffffffffffffffffffffffffffffffffffff16815260200160028201548152602001600382015481526020016004820154815260200160058201805480602002602001604051908101604052809291908181526020018280548015610b8757602002820191906000526020600020906000905b82829054906101000a900460ff166004811115610b6157610b60612d4c565b5b81526020019060010190602082600001049283019260010382029150808411610b415790505b50505050508152505081526020019060010190610a62565b50505050905090565b60006007600085815260200190815260200160002060020154821280610be35750600760008581526020019081526020016000206003015483135b80610bed57508183135b15610bfb5760009050610d1a565b60076000858152602001908152602001600020600201548212158015610c37575060076000858152602001908152602001600020600301548213155b80610c7a575060076000858152602001908152602001600020600301548313158015610c79575060076000858152602001908152602001600020600201548312155b5b15610c885760019050610d1a565b60076000858152602001908152602001600020600301548212158015610cc4575060076000858152602001908152602001600020600201548313155b80610d07575060076000858152602001908152602001600020600301548213158015610d06575060076000858152602001908152602001600020600201548312155b5b15610d155760019050610d1a565b600090505b9392505050565b610d3c83838360405180602001604052806000815250611670565b505050565b6000808613610d85576040517f08c379a0000000000000000000000000000000000000000000000000000000008152600401610d7c90613814565b60405180910390fd5b85851215610dc8576040517f08c379a0000000000000000000000000000000000000000000000000000000008152600401610dbf906138a6565b60405180910390fd5b60008411610e0b576040517f08c379a0000000000000000000000000000000000000000000000000000000008152600401610e0290613938565b60405180910390fd5b60008383905011610e51576040517f08c379a0000000000000000000000000000000000000000000000000000000008152600401610e48906139ca565b60405180910390fd5b610e5b6006612084565b6000610e67600661209a565b9050610e7333826120a8565b60006040518060c001604052808381526020018a73ffffffffffffffffffffffffffffffffffffffff168152602001898152602001888152602001878152602001868680806020026020016040519081016040528093929190818152602001838360200280828437600081840152601f19601f82011690508083019250505050505050815250905080600760008481526020019081526020016000206000820151816000015560208201518160010160006101000a81548173ffffffffffffffffffffffffffffffffffffffff021916908373ffffffffffffffffffffffffffffffffffffffff16021790555060408201518160020155606082015181600301556080820151816004015560a0820151816005019080519060200190610f9a9291906127f1565b5090505060088190806001815401808255809150506001900390600052602060002090600602016000909190919091506000820151816000015560208201518160010160006101000a81548173ffffffffffffffffffffffffffffffffffffffff021916908373ffffffffffffffffffffffffffffffffffffffff16021790555060408201518160020155606082015181600301556080820151816004015560a08201518160050190805190602001906110559291906127f1565b50505081925050509695505050505050565b6000806002600084815260200190815260200160002060009054906101000a900473ffffffffffffffffffffffffffffffffffffffff169050600073ffffffffffffffffffffffffffffffffffffffff168173ffffffffffffffffffffffffffffffffffffffff161415611110576040517f08c379a000000000000000000000000000000000000000000000000000000000815260040161110790613a5c565b60405180910390fd5b80915050919050565b600080846007600082815260200190815260200160002060010160009054906101000a900473ffffffffffffffffffffffffffffffffffffffff1673ffffffffffffffffffffffffffffffffffffffff163373ffffffffffffffffffffffffffffffffffffffff1614806111c0575061119181611067565b73ffffffffffffffffffffffffffffffffffffffff163373ffffffffffffffffffffffffffffffffffffffff16145b6111c957600080fd5b6000851361120c576040517f08c379a000000000000000000000000000000000000000000000000000000000815260040161120390613814565b60405180910390fd5b8484121561124f576040517f08c379a0000000000000000000000000000000000000000000000000000000008152600401611246906138a6565b60405180910390fd5b846007600088815260200190815260200160002060020181905550836007600088815260200190815260200160002060030181905550600760008781526020019081526020016000206002015460076000888152602001908152602001600020600301549250925050935093915050565b60008073ffffffffffffffffffffffffffffffffffffffff168273ffffffffffffffffffffffffffffffffffffffff161415611331576040517f08c379a000000000000000000000000000000000000000000000000000000000815260040161132890613aee565b60405180910390fd5b600360008373ffffffffffffffffffffffffffffffffffffffff1673ffffffffffffffffffffffffffffffffffffffff168152602001908152602001600020549050919050565b60606001805461138790613528565b80601f01602080910402602001604051908101604052809291908181526020018280546113b390613528565b80156114005780601f106113d557610100808354040283529160200191611400565b820191906000526020600020905b8154815290600101906020018083116113e357829003601f168201915b5050505050905090565b61141c611415611b37565b83836120c6565b5050565b6000826007600082815260200190815260200160002060010160009054906101000a900473ffffffffffffffffffffffffffffffffffffffff1673ffffffffffffffffffffffffffffffffffffffff163373ffffffffffffffffffffffffffffffffffffffff1614806114c6575061149781611067565b73ffffffffffffffffffffffffffffffffffffffff163373ffffffffffffffffffffffffffffffffffffffff16145b6114cf57600080fd5b60008311611512576040517f08c379a000000000000000000000000000000000000000000000000000000000815260040161150990613b5a565b60405180910390fd5b826007600086815260200190815260200160002060040181905550600191505092915050565b6115406128a7565b600760008381526020019081526020016000206040518060c0016040529081600082015481526020016001820160009054906101000a900473ffffffffffffffffffffffffffffffffffffffff1673ffffffffffffffffffffffffffffffffffffffff1673ffffffffffffffffffffffffffffffffffffffff1681526020016002820154815260200160038201548152602001600482015481526020016005820180548060200260200160405190810160405280929190818152602001828054801561166057602002820191906000526020600020906000905b82829054906101000a900460ff16600481111561163a57611639612d4c565b5b8152602001906001019060208260000104928301926001038202915080841161161a5790505b5050505050815250509050919050565b61168161167b611b37565b83611d3f565b6116c0576040517f08c379a00000000000000000000000000000000000000000000000000000000081526004016116b790613782565b60405180910390fd5b6116cc84848484612233565b50505050565b600080600090505b600760008581526020019081526020016000206005018054905081121561178a5782600481111561170e5761170d612d4c565b5b60076000868152602001908152602001600020600501828154811061173657611735613b7a565b5b90600052602060002090602091828204019190069054906101000a900460ff16600481111561176857611767612d4c565b5b141561177757809150506117af565b808061178290613bd8565b9150506116da565b507fffffffffffffffffffffffffffffffffffffffffffffffffffffffffffffffff90505b92915050565b60606117c082611acb565b6117ff576040517f08c379a00000000000000000000000000000000000000000000000000000000081526004016117f690613c93565b60405180910390fd5b600061180961228f565b905060008151116118295760405180602001604052806000815250611854565b80611833846122a6565b604051602001611844929190613cef565b6040516020818303038152906040525b915050919050565b6000600560008473ffffffffffffffffffffffffffffffffffffffff1673ffffffffffffffffffffffffffffffffffffffff16815260200190815260200160002060008373ffffffffffffffffffffffffffffffffffffffff1673ffffffffffffffffffffffffffffffffffffffff16815260200190815260200160002060009054906101000a900460ff16905092915050565b6000826007600082815260200190815260200160002060010160009054906101000a900473ffffffffffffffffffffffffffffffffffffffff1673ffffffffffffffffffffffffffffffffffffffff163373ffffffffffffffffffffffffffffffffffffffff161480611996575061196781611067565b73ffffffffffffffffffffffffffffffffffffffff163373ffffffffffffffffffffffffffffffffffffffff16145b61199f57600080fd5b60006119ab85856116d2565b9050600081126119bf576000925050611a2d565b600760008681526020019081526020016000206005018490806001815401808255809150506001900390600052602060002090602091828204019190069091909190916101000a81548160ff02191690836004811115611a2257611a21612d4c565b5b021790555060019250505b5092915050565b600080611a4184846116d2565b905060008112611a55576001915050611a5b565b60009150505b92915050565b60007f01ffc9a7000000000000000000000000000000000000000000000000000000007bffffffffffffffffffffffffffffffffffffffffffffffffffffffff1916827bffffffffffffffffffffffffffffffffffffffffffffffffffffffff1916149050919050565b60008073ffffffffffffffffffffffffffffffffffffffff166002600084815260200190815260200160002060009054906101000a900473ffffffffffffffffffffffffffffffffffffffff1673ffffffffffffffffffffffffffffffffffffffff1614159050919050565b600033905090565b816004600083815260200190815260200160002060006101000a81548173ffffffffffffffffffffffffffffffffffffffff021916908373ffffffffffffffffffffffffffffffffffffffff160217905550808273ffffffffffffffffffffffffffffffffffffffff16611bb283611067565b73ffffffffffffffffffffffffffffffffffffffff167f8c5be1e5ebec7d5bd14f71427d1e84f3dd0314c0f7b2291e5b200ac8c7c3b92560405160405180910390a45050565b60076000838152602001908152602001600020600501805490508110611c1d57600080fd5b6007600083815260200190815260200160002060050160016007600085815260200190815260200160002060050180549050611c599190613d13565b81548110611c6a57611c69613b7a565b5b90600052602060002090602091828204019190069054906101000a900460ff16600760008481526020019081526020016000206005018281548110611cb257611cb1613b7a565b5b90600052602060002090602091828204019190066101000a81548160ff02191690836004811115611ce657611ce5612d4c565b5b021790555060076000838152602001908152602001600020600501805480611d1157611d10613d47565b5b60019003818190600052602060002090602091828204019190066101000a81549060ff021916905590555050565b6000611d4a82611acb565b611d89576040517f08c379a0000000000000000000000000000000000000000000000000000000008152600401611d8090613de8565b60405180910390fd5b6000611d9483611067565b90508073ffffffffffffffffffffffffffffffffffffffff168473ffffffffffffffffffffffffffffffffffffffff161480611e0357508373ffffffffffffffffffffffffffffffffffffffff16611deb846106b8565b73ffffffffffffffffffffffffffffffffffffffff16145b80611e145750611e13818561185c565b5b91505092915050565b8273ffffffffffffffffffffffffffffffffffffffff16611e3d82611067565b73ffffffffffffffffffffffffffffffffffffffff1614611e93576040517f08c379a0000000000000000000000000000000000000000000000000000000008152600401611e8a90613e7a565b60405180910390fd5b600073ffffffffffffffffffffffffffffffffffffffff168273ffffffffffffffffffffffffffffffffffffffff161415611f03576040517f08c379a0000000000000000000000000000000000000000000000000000000008152600401611efa90613f0c565b60405180910390fd5b611f0e838383612407565b611f19600082611b3f565b6001600360008573ffffffffffffffffffffffffffffffffffffffff1673ffffffffffffffffffffffffffffffffffffffff1681526020019081526020016000206000828254611f699190613d13565b925050819055506001600360008473ffffffffffffffffffffffffffffffffffffffff1673ffffffffffffffffffffffffffffffffffffffff1681526020019081526020016000206000828254611fc09190613f2c565b92505081905550816002600083815260200190815260200160002060006101000a81548173ffffffffffffffffffffffffffffffffffffffff021916908373ffffffffffffffffffffffffffffffffffffffff160217905550808273ffffffffffffffffffffffffffffffffffffffff168473ffffffffffffffffffffffffffffffffffffffff167fddf252ad1be2c89b69c2b068fc378daa952ba7f163c4a11628f55a4df523b3ef60405160405180910390a461207f83838361240c565b505050565b6001816000016000828254019250508190555050565b600081600001549050919050565b6120c2828260405180602001604052806000815250612411565b5050565b8173ffffffffffffffffffffffffffffffffffffffff168373ffffffffffffffffffffffffffffffffffffffff161415612135576040517f08c379a000000000000000000000000000000000000000000000000000000000815260040161212c90613fce565b60405180910390fd5b80600560008573ffffffffffffffffffffffffffffffffffffffff1673ffffffffffffffffffffffffffffffffffffffff16815260200190815260200160002060008473ffffffffffffffffffffffffffffffffffffffff1673ffffffffffffffffffffffffffffffffffffffff16815260200190815260200160002060006101000a81548160ff0219169083151502179055508173ffffffffffffffffffffffffffffffffffffffff168373ffffffffffffffffffffffffffffffffffffffff167f17307eab39ab6107e8899845ad3d59bd9653f200f220920489ca2b5937696c318360405161222691906129c4565b60405180910390a3505050565b61223e848484611e1d565b61224a8484848461246c565b612289576040517f08c379a000000000000000000000000000000000000000000000000000000000815260040161228090614060565b60405180910390fd5b50505050565b606060405180602001604052806000815250905090565b606060008214156122ee576040518060400160405280600181526020017f30000000000000000000000000000000000000000000000000000000000000008152509050612402565b600082905060005b6000821461232057808061230990614080565b915050600a8261231991906140f8565b91506122f6565b60008167ffffffffffffffff81111561233c5761233b6132f0565b5b6040519080825280601f01601f19166020018201604052801561236e5781602001600182028036833780820191505090505b5090505b600085146123fb576001826123879190613d13565b9150600a856123969190614129565b60306123a29190613f2c565b60f81b8183815181106123b8576123b7613b7a565b5b60200101907effffffffffffffffffffffffffffffffffffffffffffffffffffffffffffff1916908160001a905350600a856123f491906140f8565b9450612372565b8093505050505b919050565b505050565b505050565b61241b83836125f4565b612428600084848461246c565b612467576040517f08c379a000000000000000000000000000000000000000000000000000000000815260040161245e90614060565b60405180910390fd5b505050565b600061248d8473ffffffffffffffffffffffffffffffffffffffff166127ce565b156125e7578373ffffffffffffffffffffffffffffffffffffffff1663150b7a026124b6611b37565b8786866040518563ffffffff1660e01b81526004016124d894939291906141af565b6020604051808303816000875af192505050801561251457506040513d601f19601f820116820180604052508101906125119190614210565b60015b612597573d8060008114612544576040519150601f19603f3d011682016040523d82523d6000602084013e612549565b606091505b5060008151141561258f576040517f08c379a000000000000000000000000000000000000000000000000000000000815260040161258690614060565b60405180910390fd5b805181602001fd5b63150b7a0260e01b7bffffffffffffffffffffffffffffffffffffffffffffffffffffffff1916817bffffffffffffffffffffffffffffffffffffffffffffffffffffffff1916149150506125ec565b600190505b949350505050565b600073ffffffffffffffffffffffffffffffffffffffff168273ffffffffffffffffffffffffffffffffffffffff161415612664576040517f08c379a000000000000000000000000000000000000000000000000000000000815260040161265b90614289565b60405180910390fd5b61266d81611acb565b156126ad576040517f08c379a00000000000000000000000000000000000000000000000000000000081526004016126a4906142f5565b60405180910390fd5b6126b960008383612407565b6001600360008473ffffffffffffffffffffffffffffffffffffffff1673ffffffffffffffffffffffffffffffffffffffff16815260200190815260200160002060008282546127099190613f2c565b92505081905550816002600083815260200190815260200160002060006101000a81548173ffffffffffffffffffffffffffffffffffffffff021916908373ffffffffffffffffffffffffffffffffffffffff160217905550808273ffffffffffffffffffffffffffffffffffffffff16600073ffffffffffffffffffffffffffffffffffffffff167fddf252ad1be2c89b69c2b068fc378daa952ba7f163c4a11628f55a4df523b3ef60405160405180910390a46127ca6000838361240c565b5050565b6000808273ffffffffffffffffffffffffffffffffffffffff163b119050919050565b82805482825590600052602060002090601f016020900481019282156128965791602002820160005b8382111561286757835183826101000a81548160ff0219169083600481111561284657612845612d4c565b5b0217905550926020019260010160208160000104928301926001030261281a565b80156128945782816101000a81549060ff0219169055600101602081600001049283019260010302612867565b505b5090506128a391906128f3565b5090565b6040518060c0016040528060008152602001600073ffffffffffffffffffffffffffffffffffffffff168152602001600081526020016000815260200160008152602001606081525090565b5b8082111561290c5760008160009055506001016128f4565b5090565b6000604051905090565b600080fd5b600080fd5b60007fffffffff0000000000000000000000000000000000000000000000000000000082169050919050565b61295981612924565b811461296457600080fd5b50565b60008135905061297681612950565b92915050565b6000602082840312156129925761299161291a565b5b60006129a084828501612967565b91505092915050565b60008115159050919050565b6129be816129a9565b82525050565b60006020820190506129d960008301846129b5565b92915050565b600081519050919050565b600082825260208201905092915050565b60005b83811015612a195780820151818401526020810190506129fe565b83811115612a28576000848401525b50505050565b6000601f19601f8301169050919050565b6000612a4a826129df565b612a5481856129ea565b9350612a648185602086016129fb565b612a6d81612a2e565b840191505092915050565b60006020820190508181036000830152612a928184612a3f565b905092915050565b6000819050919050565b612aad81612a9a565b8114612ab857600080fd5b50565b600081359050612aca81612aa4565b92915050565b600060208284031215612ae657612ae561291a565b5b6000612af484828501612abb565b91505092915050565b600073ffffffffffffffffffffffffffffffffffffffff82169050919050565b6000612b2882612afd565b9050919050565b612b3881612b1d565b82525050565b6000602082019050612b536000830184612b2f565b92915050565b612b6281612b1d565b8114612b6d57600080fd5b50565b600081359050612b7f81612b59565b92915050565b60008060408385031215612b9c57612b9b61291a565b5b6000612baa85828601612b70565b9250506020612bbb85828601612abb565b9150509250929050565b60058110612bd257600080fd5b50565b600081359050612be481612bc5565b92915050565b60008060408385031215612c0157612c0061291a565b5b6000612c0f85828601612abb565b9250506020612c2085828601612bd5565b9150509250929050565b600080600060608486031215612c4357612c4261291a565b5b6000612c5186828701612b70565b9350506020612c6286828701612b70565b9250506040612c7386828701612abb565b9150509250925092565b60008060408385031215612c9457612c9361291a565b5b6000612ca285828601612abb565b9250506020612cb385828601612b70565b9150509250929050565b600081519050919050565b600082825260208201905092915050565b6000819050602082019050919050565b612cf281612a9a565b82525050565b612d0181612b1d565b82525050565b6000819050919050565b612d1a81612d07565b82525050565b600081519050919050565b600082825260208201905092915050565b6000819050602082019050919050565b7f4e487b7100000000000000000000000000000000000000000000000000000000600052602160045260246000fd5b60058110612d8c57612d8b612d4c565b5b50565b6000819050612d9d82612d7b565b919050565b6000612dad82612d8f565b9050919050565b612dbd81612da2565b82525050565b6000612dcf8383612db4565b60208301905092915050565b6000602082019050919050565b6000612df382612d20565b612dfd8185612d2b565b9350612e0883612d3c565b8060005b83811015612e39578151612e208882612dc3565b9750612e2b83612ddb565b925050600181019050612e0c565b5085935050505092915050565b600060c083016000830151612e5e6000860182612ce9565b506020830151612e716020860182612cf8565b506040830151612e846040860182612d11565b506060830151612e976060860182612d11565b506080830151612eaa6080860182612ce9565b5060a083015184820360a0860152612ec28282612de8565b9150508091505092915050565b6000612edb8383612e46565b905092915050565b6000602082019050919050565b6000612efb82612cbd565b612f058185612cc8565b935083602082028501612f1785612cd9565b8060005b85811015612f535784840389528151612f348582612ecf565b9450612f3f83612ee3565b925060208a01995050600181019050612f1b565b50829750879550505050505092915050565b60006020820190508181036000830152612f7f8184612ef0565b905092915050565b612f9081612d07565b8114612f9b57600080fd5b50565b600081359050612fad81612f87565b92915050565b600080600060608486031215612fcc57612fcb61291a565b5b6000612fda86828701612abb565b9350506020612feb86828701612f9e565b9250506040612ffc86828701612f9e565b9150509250925092565b600080fd5b600080fd5b600080fd5b60008083601f84011261302b5761302a613006565b5b8235905067ffffffffffffffff8111156130485761304761300b565b5b60208301915083602082028301111561306457613063613010565b5b9250929050565b60008060008060008060a087890312156130885761308761291a565b5b600061309689828a01612b70565b96505060206130a789828a01612f9e565b95505060406130b889828a01612f9e565b94505060606130c989828a01612abb565b935050608087013567ffffffffffffffff8111156130ea576130e961291f565b5b6130f689828a01613015565b92509250509295509295509295565b61310e81612a9a565b82525050565b60006020820190506131296000830184613105565b92915050565b61313881612d07565b82525050565b6000604082019050613153600083018561312f565b613160602083018461312f565b9392505050565b60006020828403121561317d5761317c61291a565b5b600061318b84828501612b70565b91505092915050565b61319d816129a9565b81146131a857600080fd5b50565b6000813590506131ba81613194565b92915050565b600080604083850312156131d7576131d661291a565b5b60006131e585828601612b70565b92505060206131f6858286016131ab565b9150509250929050565b600080604083850312156132175761321661291a565b5b600061322585828601612abb565b925050602061323685828601612abb565b9150509250929050565b600060c0830160008301516132586000860182612ce9565b50602083015161326b6020860182612cf8565b50604083015161327e6040860182612d11565b5060608301516132916060860182612d11565b5060808301516132a46080860182612ce9565b5060a083015184820360a08601526132bc8282612de8565b9150508091505092915050565b600060208201905081810360008301526132e38184613240565b905092915050565b600080fd5b7f4e487b7100000000000000000000000000000000000000000000000000000000600052604160045260246000fd5b61332882612a2e565b810181811067ffffffffffffffff82111715613347576133466132f0565b5b80604052505050565b600061335a612910565b9050613366828261331f565b919050565b600067ffffffffffffffff821115613386576133856132f0565b5b61338f82612a2e565b9050602081019050919050565b82818337600083830152505050565b60006133be6133b98461336b565b613350565b9050828152602081018484840111156133da576133d96132eb565b5b6133e584828561339c565b509392505050565b600082601f83011261340257613401613006565b5b81356134128482602086016133ab565b91505092915050565b600080600080608085870312156134355761343461291a565b5b600061344387828801612b70565b945050602061345487828801612b70565b935050604061346587828801612abb565b925050606085013567ffffffffffffffff8111156134865761348561291f565b5b613492878288016133ed565b91505092959194509250565b60006020820190506134b3600083018461312f565b92915050565b600080604083850312156134d0576134cf61291a565b5b60006134de85828601612b70565b92505060206134ef85828601612b70565b9150509250929050565b7f4e487b7100000000000000000000000000000000000000000000000000000000600052602260045260246000fd5b6000600282049050600182168061354057607f821691505b60208210811415613554576135536134f9565b5b50919050565b7f4552433732313a20617070726f76656420717565727920666f72206e6f6e657860008201527f697374656e7420746f6b656e0000000000000000000000000000000000000000602082015250565b60006135b6602c836129ea565b91506135c18261355a565b604082019050919050565b600060208201905081810360008301526135e5816135a9565b9050919050565b7f4552433732313a20617070726f76616c20746f2063757272656e74206f776e6560008201527f7200000000000000000000000000000000000000000000000000000000000000602082015250565b60006136486021836129ea565b9150613653826135ec565b604082019050919050565b600060208201905081810360008301526136778161363b565b9050919050565b7f4552433732313a20617070726f76652063616c6c6572206973206e6f74206f7760008201527f6e6572206e6f7220617070726f76656420666f7220616c6c0000000000000000602082015250565b60006136da6038836129ea565b91506136e58261367e565b604082019050919050565b60006020820190508181036000830152613709816136cd565b9050919050565b7f4552433732313a207472616e736665722063616c6c6572206973206e6f74206f60008201527f776e6572206e6f7220617070726f766564000000000000000000000000000000602082015250565b600061376c6031836129ea565b915061377782613710565b604082019050919050565b6000602082019050818103600083015261379b8161375f565b9050919050565b7f454c2056414c4f5220444520414c5449545544204d494e494d4f20444542452060008201527f534552204d41594f522041203000000000000000000000000000000000000000602082015250565b60006137fe602d836129ea565b9150613809826137a2565b604082019050919050565b6000602082019050818103600083015261382d816137f1565b9050919050565b7f454c2056414c4f5220444520414c5449545544204d4158494d4f20444542452060008201527f534552204d41594f52204f20494755414c20414c204d494e494d4f0000000000602082015250565b6000613890603b836129ea565b915061389b82613834565b604082019050919050565b600060208201905081810360008301526138bf81613883565b9050919050565b7f454c2056414c4f5220444520434f535445204445424520534552204d41594f5260008201527f2041203000000000000000000000000000000000000000000000000000000000602082015250565b60006139226024836129ea565b915061392d826138c6565b604082019050919050565b6000602082019050818103600083015261395181613915565b9050919050565b7f454c2044524f4e204445424520434f4e54454e455220414c204d454e4f53205560008201527f4e20504553544943494441000000000000000000000000000000000000000000602082015250565b60006139b4602b836129ea565b91506139bf82613958565b604082019050919050565b600060208201905081810360008301526139e3816139a7565b9050919050565b7f4552433732313a206f776e657220717565727920666f72206e6f6e657869737460008201527f656e7420746f6b656e0000000000000000000000000000000000000000000000602082015250565b6000613a466029836129ea565b9150613a51826139ea565b604082019050919050565b60006020820190508181036000830152613a7581613a39565b9050919050565b7f4552433732313a2062616c616e636520717565727920666f7220746865207a6560008201527f726f206164647265737300000000000000000000000000000000000000000000602082015250565b6000613ad8602a836129ea565b9150613ae382613a7c565b604082019050919050565b60006020820190508181036000830152613b0781613acb565b9050919050565b7f454c20434f535445204445424520534552204d41594f52204120300000000000600082015250565b6000613b44601b836129ea565b9150613b4f82613b0e565b602082019050919050565b60006020820190508181036000830152613b7381613b37565b9050919050565b7f4e487b7100000000000000000000000000000000000000000000000000000000600052603260045260246000fd5b7f4e487b7100000000000000000000000000000000000000000000000000000000600052601160045260246000fd5b6000613be382612d07565b91507f7fffffffffffffffffffffffffffffffffffffffffffffffffffffffffffffff821415613c1657613c15613ba9565b5b600182019050919050565b7f4552433732314d657461646174613a2055524920717565727920666f72206e6f60008201527f6e6578697374656e7420746f6b656e0000000000000000000000000000000000602082015250565b6000613c7d602f836129ea565b9150613c8882613c21565b604082019050919050565b60006020820190508181036000830152613cac81613c70565b9050919050565b600081905092915050565b6000613cc9826129df565b613cd38185613cb3565b9350613ce38185602086016129fb565b80840191505092915050565b6000613cfb8285613cbe565b9150613d078284613cbe565b91508190509392505050565b6000613d1e82612a9a565b9150613d2983612a9a565b925082821015613d3c57613d3b613ba9565b5b828203905092915050565b7f4e487b7100000000000000000000000000000000000000000000000000000000600052603160045260246000fd5b7f4552433732313a206f70657261746f7220717565727920666f72206e6f6e657860008201527f697374656e7420746f6b656e0000000000000000000000000000000000000000602082015250565b6000613dd2602c836129ea565b9150613ddd82613d76565b604082019050919050565b60006020820190508181036000830152613e0181613dc5565b9050919050565b7f4552433732313a207472616e736665722066726f6d20696e636f72726563742060008201527f6f776e6572000000000000000000000000000000000000000000000000000000602082015250565b6000613e646025836129ea565b9150613e6f82613e08565b604082019050919050565b60006020820190508181036000830152613e9381613e57565b9050919050565b7f4552433732313a207472616e7366657220746f20746865207a65726f2061646460008201527f7265737300000000000000000000000000000000000000000000000000000000602082015250565b6000613ef66024836129ea565b9150613f0182613e9a565b604082019050919050565b60006020820190508181036000830152613f2581613ee9565b9050919050565b6000613f3782612a9a565b9150613f4283612a9a565b9250827fffffffffffffffffffffffffffffffffffffffffffffffffffffffffffffffff03821115613f7757613f76613ba9565b5b828201905092915050565b7f4552433732313a20617070726f766520746f2063616c6c657200000000000000600082015250565b6000613fb86019836129ea565b9150613fc382613f82565b602082019050919050565b60006020820190508181036000830152613fe781613fab565b9050919050565b7f4552433732313a207472616e7366657220746f206e6f6e20455243373231526560008201527f63656976657220696d706c656d656e7465720000000000000000000000000000602082015250565b600061404a6032836129ea565b915061405582613fee565b604082019050919050565b600060208201905081810360008301526140798161403d565b9050919050565b600061408b82612a9a565b91507fffffffffffffffffffffffffffffffffffffffffffffffffffffffffffffffff8214156140be576140bd613ba9565b5b600182019050919050565b7f4e487b7100000000000000000000000000000000000000000000000000000000600052601260045260246000fd5b600061410382612a9a565b915061410e83612a9a565b92508261411e5761411d6140c9565b5b828204905092915050565b600061413482612a9a565b915061413f83612a9a565b92508261414f5761414e6140c9565b5b828206905092915050565b600081519050919050565b600082825260208201905092915050565b60006141818261415a565b61418b8185614165565b935061419b8185602086016129fb565b6141a481612a2e565b840191505092915050565b60006080820190506141c46000830187612b2f565b6141d16020830186612b2f565b6141de6040830185613105565b81810360608301526141f08184614176565b905095945050505050565b60008151905061420a81612950565b92915050565b6000602082840312156142265761422561291a565b5b6000614234848285016141fb565b91505092915050565b7f4552433732313a206d696e7420746f20746865207a65726f2061646472657373600082015250565b60006142736020836129ea565b915061427e8261423d565b602082019050919050565b600060208201905081810360008301526142a281614266565b9050919050565b7f4552433732313a20746f6b656e20616c7265616479206d696e74656400000000600082015250565b60006142df601c836129ea565b91506142ea826142a9565b602082019050919050565b6000602082019050818103600083015261430e816142d2565b905091905056fea26469706673582212206036f0b69c1716ba599e39bc3d4e657eee7d65dc4eea34961570ab636eea655864736f6c634300080c0033",
  "immutableReferences": {},
  "source": "//SPDX-License-Identifier: UNLICENSED\r\npragma solidity ^0.8.0; \r\n\r\n//Importamos\r\nimport \"@openzeppelin/contracts/token/ERC721/ERC721.sol\";\r\nimport \"@openzeppelin/contracts/utils/Counters.sol\";\r\nimport \"./Tipos.sol\";\r\n\r\n//Extendemos del contrato ERC721 (Contrato destinado a Tokens no fungibles)\r\ncontract DronContract is ERC721 {\r\n    using Counters for Counters.Counter;\r\n    Counters.Counter UltimoID;\r\n\r\n    //Creamos las variables propias del contrato\r\n    struct Dron {\r\n        uint256 _ID;\r\n        address _Empresa; \r\n        int256 _Altitud_MIN;\r\n        int256 _Altitud_MAX;\r\n        uint256 _Coste;\r\n        TiposContract._Pesticidas[] _Pesticidas;\r\n    }\r\n\r\n    mapping(uint256 => Dron) private _Drones;\r\n    Dron[] DRONES;\r\n\r\n    constructor() ERC721(\"MyDron\", \"MDron\") {\r\n    }\r\n\r\n    //Modificador de permisos de acceso\r\n    modifier SoloPropietario(uint256 ID){\r\n        require(msg.sender == ownerOf(ID));\r\n        _;\r\n    }\r\n\r\n    //Modificador de permisos de acceso\r\n    modifier SoloEmpresa(uint256 ID){\r\n        require(msg.sender == _Drones[ID]._Empresa || msg.sender == ownerOf(ID));\r\n        _;\r\n    }\r\n\r\n    function CrearDron(address EMPRESA, int256 MIN, int256 MAX, uint256 COSTE, TiposContract._Pesticidas[] calldata PESTICIDA) public returns (uint256){\r\n        require (MIN > 0, \"EL VALOR DE ALTITUD MINIMO DEBE SER MAYOR A 0\");\r\n        require (MAX >= MIN, \"EL VALOR DE ALTITUD MAXIMO DEBE SER MAYOR O IGUAL AL MINIMO\");\r\n        require (COSTE > 0, \"EL VALOR DE COSTE DEBE SER MAYOR A 0\");\r\n        require (PESTICIDA.length > 0, \"EL DRON DEBE CONTENER AL MENOS UN PESTICIDA\");\r\n\r\n        UltimoID.increment();\r\n        uint256 IDActual = UltimoID.current();\r\n        _safeMint(msg.sender,IDActual);\r\n        Dron memory Dron_ = Dron({\r\n            _ID: IDActual,\r\n            _Empresa: EMPRESA,\r\n            _Altitud_MIN: MIN,\r\n            _Altitud_MAX: MAX,\r\n            _Coste: COSTE,\r\n            _Pesticidas: PESTICIDA            \r\n        });\r\n\r\n        _Drones[IDActual] = Dron_;\r\n        DRONES.push(Dron_);\r\n\r\n        return IDActual;\r\n    }\r\n\r\n    function ConfigurarEmpresa(uint256 ID, address EMPRESA) public SoloPropietario(ID) returns (bool)\r\n    {\r\n        _Drones[ID]._Empresa = EMPRESA;\r\n        return true;\r\n    }\r\n\r\n    function ConfigurarAltitud(uint256 ID, int256 MIN, int256 MAX) public SoloEmpresa(ID) returns (int256, int256)\r\n    {\r\n        require (MIN > 0, \"EL VALOR DE ALTITUD MINIMO DEBE SER MAYOR A 0\");\r\n        require (MAX >= MIN, \"EL VALOR DE ALTITUD MAXIMO DEBE SER MAYOR O IGUAL AL MINIMO\");\r\n        _Drones[ID]._Altitud_MIN = MIN;\r\n        _Drones[ID]._Altitud_MAX = MAX;\r\n        return (_Drones[ID]._Altitud_MIN, _Drones[ID]._Altitud_MAX);\r\n    }\r\n\r\n    function ConfigurarCoste(uint256 ID, uint256 COSTE) public SoloEmpresa(ID) returns (bool)\r\n    {\r\n        require (COSTE > 0, \"EL COSTE DEBE SER MAYOR A 0\");\r\n        _Drones[ID]._Coste = COSTE;\r\n        return true;\r\n    }\r\n\r\n    function BuscarPesticida(uint256 ID, TiposContract._Pesticidas PESTICIDA) public view returns (int)\r\n    {\r\n        for (int i = 0; i < int(_Drones[ID]._Pesticidas.length); i++) {\r\n            if (_Drones[ID]._Pesticidas[uint(i)] == PESTICIDA) {\r\n                return i;\r\n            }\r\n        }\r\n        return -1;\r\n    }\r\n\r\n    function AltaPesticida(uint256 ID, TiposContract._Pesticidas PESTICIDA) public SoloEmpresa(ID) returns (bool)\r\n    {\r\n        int key = BuscarPesticida(ID, PESTICIDA);\r\n        if (key >= 0) {\r\n            return false;\r\n        } else {\r\n            _Drones[ID]._Pesticidas.push(PESTICIDA);\r\n            return true;\r\n        }\r\n    }\r\n\r\n    function _QuitarPosicionArray(uint256 ID, uint key) internal {\r\n        require(key < _Drones[ID]._Pesticidas.length);\r\n        _Drones[ID]._Pesticidas[key] = _Drones[ID]._Pesticidas[_Drones[ID]._Pesticidas.length-1];\r\n        _Drones[ID]._Pesticidas.pop();\r\n    }\r\n\r\n    function BajaPesticida(uint256 ID, TiposContract._Pesticidas PESTICIDA) public SoloEmpresa(ID) returns (bool)\r\n    {\r\n        int key = BuscarPesticida(ID, PESTICIDA);\r\n        if (key >= 0) {\r\n            _QuitarPosicionArray(ID, uint(key));\r\n            return true;\r\n        } else {\r\n            return false;\r\n        }\r\n    }\r\n\r\n    function ObtenerInfoDron(uint256 ID) public view returns (Dron memory) {\r\n        return _Drones[ID];\r\n    }\r\n\r\n    function ObtenerInfoDrones() public view returns (Dron [] memory) {\r\n        return DRONES;\r\n    }\r\n\r\n    function ComprobarAltitud(uint256 ID, int256 MIN, int256 MAX) public view returns (bool)\r\n    {\r\n        if ((MAX < _Drones[ID]._Altitud_MIN) || (MIN > _Drones[ID]._Altitud_MAX) || (MIN > MAX)) {\r\n            return false;\r\n        } else {\r\n            if ((MAX >= _Drones[ID]._Altitud_MIN && MAX <= _Drones[ID]._Altitud_MAX) || (MIN <= _Drones[ID]._Altitud_MAX && MIN >= _Drones[ID]._Altitud_MIN)) {\r\n                return true;\r\n            } else {\r\n                if ((MAX >= _Drones[ID]._Altitud_MAX && MIN <= _Drones[ID]._Altitud_MIN) || (MAX <= _Drones[ID]._Altitud_MAX && MIN >= _Drones[ID]._Altitud_MIN)) {\r\n                    return true;\r\n                } else {\r\n                    return false;\r\n                }\r\n            }\r\n        }\r\n    }\r\n\r\n    function ComprobarPesticida(uint256 ID, TiposContract._Pesticidas PESTICIDA) public view returns (bool)\r\n    {\r\n        int key = BuscarPesticida(ID, PESTICIDA);\r\n        if (key >= 0) {\r\n            return true;\r\n        } else {\r\n            return false;\r\n        }\r\n    }\r\n}",
  "sourcePath": "/Users/trabajo/Documents/apps/front_blockchain_tfe/contracts/Dron.sol",
  "compiler": {
    "name": "solc",
    "version": "0.8.12+commit.f00d7308.Emscripten.clang"
  },
  "schemaVersion": "3.4.6",
  "updatedAt": "2022-03-22T11:18:53.688Z",
  "networkType": "ethereum",
  "devdoc": {
    "kind": "dev",
    "methods": {
      "approve(address,uint256)": {
        "details": "See {IERC721-approve}."
      },
      "balanceOf(address)": {
        "details": "See {IERC721-balanceOf}."
      },
      "getApproved(uint256)": {
        "details": "See {IERC721-getApproved}."
      },
      "isApprovedForAll(address,address)": {
        "details": "See {IERC721-isApprovedForAll}."
      },
      "name()": {
        "details": "See {IERC721Metadata-name}."
      },
      "ownerOf(uint256)": {
        "details": "See {IERC721-ownerOf}."
      },
      "safeTransferFrom(address,address,uint256)": {
        "details": "See {IERC721-safeTransferFrom}."
      },
      "safeTransferFrom(address,address,uint256,bytes)": {
        "details": "See {IERC721-safeTransferFrom}."
      },
      "setApprovalForAll(address,bool)": {
        "details": "See {IERC721-setApprovalForAll}."
      },
      "supportsInterface(bytes4)": {
        "details": "See {IERC165-supportsInterface}."
      },
      "symbol()": {
        "details": "See {IERC721Metadata-symbol}."
      },
      "tokenURI(uint256)": {
        "details": "See {IERC721Metadata-tokenURI}."
      },
      "transferFrom(address,address,uint256)": {
        "details": "See {IERC721-transferFrom}."
      }
    },
    "version": 1
  },
  "userdoc": {
    "kind": "user",
    "methods": {},
    "version": 1
  }
}