{
  "contractName": "DronContract",
  "abi": [
    {
      "inputs": [],
      "stateMutability": "nonpayable",
      "type": "constructor"
    },
    {
      "anonymous": false,
      "inputs": [
        {
          "indexed": true,
          "internalType": "address",
          "name": "owner",
          "type": "address"
        },
        {
          "indexed": true,
          "internalType": "address",
          "name": "approved",
          "type": "address"
        },
        {
          "indexed": true,
          "internalType": "uint256",
          "name": "tokenId",
          "type": "uint256"
        }
      ],
      "name": "Approval",
      "type": "event"
    },
    {
      "anonymous": false,
      "inputs": [
        {
          "indexed": true,
          "internalType": "address",
          "name": "owner",
          "type": "address"
        },
        {
          "indexed": true,
          "internalType": "address",
          "name": "operator",
          "type": "address"
        },
        {
          "indexed": false,
          "internalType": "bool",
          "name": "approved",
          "type": "bool"
        }
      ],
      "name": "ApprovalForAll",
      "type": "event"
    },
    {
      "anonymous": false,
      "inputs": [
        {
          "indexed": true,
          "internalType": "address",
          "name": "from",
          "type": "address"
        },
        {
          "indexed": true,
          "internalType": "address",
          "name": "to",
          "type": "address"
        },
        {
          "indexed": true,
          "internalType": "uint256",
          "name": "tokenId",
          "type": "uint256"
        }
      ],
      "name": "Transfer",
      "type": "event"
    },
    {
      "inputs": [
        {
          "internalType": "address",
          "name": "to",
          "type": "address"
        },
        {
          "internalType": "uint256",
          "name": "tokenId",
          "type": "uint256"
        }
      ],
      "name": "approve",
      "outputs": [],
      "stateMutability": "nonpayable",
      "type": "function"
    },
    {
      "inputs": [
        {
          "internalType": "address",
          "name": "owner",
          "type": "address"
        }
      ],
      "name": "balanceOf",
      "outputs": [
        {
          "internalType": "uint256",
          "name": "",
          "type": "uint256"
        }
      ],
      "stateMutability": "view",
      "type": "function",
      "constant": true
    },
    {
      "inputs": [
        {
          "internalType": "uint256",
          "name": "tokenId",
          "type": "uint256"
        }
      ],
      "name": "getApproved",
      "outputs": [
        {
          "internalType": "address",
          "name": "",
          "type": "address"
        }
      ],
      "stateMutability": "view",
      "type": "function",
      "constant": true
    },
    {
      "inputs": [
        {
          "internalType": "address",
          "name": "owner",
          "type": "address"
        },
        {
          "internalType": "address",
          "name": "operator",
          "type": "address"
        }
      ],
      "name": "isApprovedForAll",
      "outputs": [
        {
          "internalType": "bool",
          "name": "",
          "type": "bool"
        }
      ],
      "stateMutability": "view",
      "type": "function",
      "constant": true
    },
    {
      "inputs": [],
      "name": "name",
      "outputs": [
        {
          "internalType": "string",
          "name": "",
          "type": "string"
        }
      ],
      "stateMutability": "view",
      "type": "function",
      "constant": true
    },
    {
      "inputs": [
        {
          "internalType": "uint256",
          "name": "tokenId",
          "type": "uint256"
        }
      ],
      "name": "ownerOf",
      "outputs": [
        {
          "internalType": "address",
          "name": "",
          "type": "address"
        }
      ],
      "stateMutability": "view",
      "type": "function",
      "constant": true
    },
    {
      "inputs": [
        {
          "internalType": "address",
          "name": "from",
          "type": "address"
        },
        {
          "internalType": "address",
          "name": "to",
          "type": "address"
        },
        {
          "internalType": "uint256",
          "name": "tokenId",
          "type": "uint256"
        }
      ],
      "name": "safeTransferFrom",
      "outputs": [],
      "stateMutability": "nonpayable",
      "type": "function"
    },
    {
      "inputs": [
        {
          "internalType": "address",
          "name": "from",
          "type": "address"
        },
        {
          "internalType": "address",
          "name": "to",
          "type": "address"
        },
        {
          "internalType": "uint256",
          "name": "tokenId",
          "type": "uint256"
        },
        {
          "internalType": "bytes",
          "name": "_data",
          "type": "bytes"
        }
      ],
      "name": "safeTransferFrom",
      "outputs": [],
      "stateMutability": "nonpayable",
      "type": "function"
    },
    {
      "inputs": [
        {
          "internalType": "address",
          "name": "operator",
          "type": "address"
        },
        {
          "internalType": "bool",
          "name": "approved",
          "type": "bool"
        }
      ],
      "name": "setApprovalForAll",
      "outputs": [],
      "stateMutability": "nonpayable",
      "type": "function"
    },
    {
      "inputs": [
        {
          "internalType": "bytes4",
          "name": "interfaceId",
          "type": "bytes4"
        }
      ],
      "name": "supportsInterface",
      "outputs": [
        {
          "internalType": "bool",
          "name": "",
          "type": "bool"
        }
      ],
      "stateMutability": "view",
      "type": "function",
      "constant": true
    },
    {
      "inputs": [],
      "name": "symbol",
      "outputs": [
        {
          "internalType": "string",
          "name": "",
          "type": "string"
        }
      ],
      "stateMutability": "view",
      "type": "function",
      "constant": true
    },
    {
      "inputs": [
        {
          "internalType": "uint256",
          "name": "tokenId",
          "type": "uint256"
        }
      ],
      "name": "tokenURI",
      "outputs": [
        {
          "internalType": "string",
          "name": "",
          "type": "string"
        }
      ],
      "stateMutability": "view",
      "type": "function",
      "constant": true
    },
    {
      "inputs": [
        {
          "internalType": "address",
          "name": "from",
          "type": "address"
        },
        {
          "internalType": "address",
          "name": "to",
          "type": "address"
        },
        {
          "internalType": "uint256",
          "name": "tokenId",
          "type": "uint256"
        }
      ],
      "name": "transferFrom",
      "outputs": [],
      "stateMutability": "nonpayable",
      "type": "function"
    },
    {
      "inputs": [
        {
          "internalType": "address",
          "name": "EMPRESA",
          "type": "address"
        },
        {
          "internalType": "int256",
          "name": "MIN",
          "type": "int256"
        },
        {
          "internalType": "int256",
          "name": "MAX",
          "type": "int256"
        },
        {
          "internalType": "uint256",
          "name": "COSTE",
          "type": "uint256"
        },
        {
          "internalType": "enum TiposContract._Pesticidas[]",
          "name": "PESTICIDA",
          "type": "uint8[]"
        }
      ],
      "name": "CrearDron",
      "outputs": [
        {
          "internalType": "uint256",
          "name": "",
          "type": "uint256"
        }
      ],
      "stateMutability": "nonpayable",
      "type": "function"
    },
    {
      "inputs": [
        {
          "internalType": "uint256",
          "name": "ID",
          "type": "uint256"
        },
        {
          "internalType": "address",
          "name": "EMPRESA",
          "type": "address"
        }
      ],
      "name": "ConfigurarEmpresa",
      "outputs": [
        {
          "internalType": "bool",
          "name": "",
          "type": "bool"
        }
      ],
      "stateMutability": "nonpayable",
      "type": "function"
    },
    {
      "inputs": [
        {
          "internalType": "uint256",
          "name": "ID",
          "type": "uint256"
        },
        {
          "internalType": "int256",
          "name": "MIN",
          "type": "int256"
        },
        {
          "internalType": "int256",
          "name": "MAX",
          "type": "int256"
        }
      ],
      "name": "ConfigurarAltitud",
      "outputs": [
        {
          "internalType": "int256",
          "name": "",
          "type": "int256"
        },
        {
          "internalType": "int256",
          "name": "",
          "type": "int256"
        }
      ],
      "stateMutability": "nonpayable",
      "type": "function"
    },
    {
      "inputs": [
        {
          "internalType": "uint256",
          "name": "ID",
          "type": "uint256"
        },
        {
          "internalType": "uint256",
          "name": "COSTE",
          "type": "uint256"
        }
      ],
      "name": "ConfigurarCoste",
      "outputs": [
        {
          "internalType": "bool",
          "name": "",
          "type": "bool"
        }
      ],
      "stateMutability": "nonpayable",
      "type": "function"
    },
    {
      "inputs": [
        {
          "internalType": "uint256",
          "name": "ID",
          "type": "uint256"
        },
        {
          "internalType": "enum TiposContract._Pesticidas",
          "name": "PESTICIDA",
          "type": "uint8"
        }
      ],
      "name": "BuscarPesticida",
      "outputs": [
        {
          "internalType": "int256",
          "name": "",
          "type": "int256"
        }
      ],
      "stateMutability": "view",
      "type": "function",
      "constant": true
    },
    {
      "inputs": [
        {
          "internalType": "uint256",
          "name": "ID",
          "type": "uint256"
        },
        {
          "internalType": "enum TiposContract._Pesticidas",
          "name": "PESTICIDA",
          "type": "uint8"
        }
      ],
      "name": "AltaPesticida",
      "outputs": [
        {
          "internalType": "bool",
          "name": "result",
          "type": "bool"
        }
      ],
      "stateMutability": "nonpayable",
      "type": "function"
    },
    {
      "inputs": [
        {
          "internalType": "uint256",
          "name": "ID",
          "type": "uint256"
        },
        {
          "internalType": "enum TiposContract._Pesticidas",
          "name": "PESTICIDA",
          "type": "uint8"
        }
      ],
      "name": "BajaPesticida",
      "outputs": [
        {
          "internalType": "bool",
          "name": "result",
          "type": "bool"
        }
      ],
      "stateMutability": "nonpayable",
      "type": "function"
    },
    {
      "inputs": [
        {
          "internalType": "uint256",
          "name": "ID",
          "type": "uint256"
        }
      ],
      "name": "ObtenerInfoDron",
      "outputs": [
        {
          "components": [
            {
              "internalType": "uint256",
              "name": "_ID",
              "type": "uint256"
            },
            {
              "internalType": "address",
              "name": "_Empresa",
              "type": "address"
            },
            {
              "internalType": "int256",
              "name": "_Altitud_MIN",
              "type": "int256"
            },
            {
              "internalType": "int256",
              "name": "_Altitud_MAX",
              "type": "int256"
            },
            {
              "internalType": "uint256",
              "name": "_Coste",
              "type": "uint256"
            },
            {
              "internalType": "enum TiposContract._Pesticidas[]",
              "name": "_Pesticidas",
              "type": "uint8[]"
            }
          ],
          "internalType": "struct DronContract.Dron",
          "name": "",
          "type": "tuple"
        }
      ],
      "stateMutability": "view",
      "type": "function",
      "constant": true
    },
    {
      "inputs": [],
      "name": "ObtenerInfoDrones",
      "outputs": [
        {
          "components": [
            {
              "internalType": "uint256",
              "name": "_ID",
              "type": "uint256"
            },
            {
              "internalType": "address",
              "name": "_Empresa",
              "type": "address"
            },
            {
              "internalType": "int256",
              "name": "_Altitud_MIN",
              "type": "int256"
            },
            {
              "internalType": "int256",
              "name": "_Altitud_MAX",
              "type": "int256"
            },
            {
              "internalType": "uint256",
              "name": "_Coste",
              "type": "uint256"
            },
            {
              "internalType": "enum TiposContract._Pesticidas[]",
              "name": "_Pesticidas",
              "type": "uint8[]"
            }
          ],
          "internalType": "struct DronContract.Dron[]",
          "name": "",
          "type": "tuple[]"
        }
      ],
      "stateMutability": "view",
      "type": "function",
      "constant": true
    },
    {
      "inputs": [
        {
          "internalType": "uint256",
          "name": "ID",
          "type": "uint256"
        },
        {
          "internalType": "int256",
          "name": "MIN",
          "type": "int256"
        },
        {
          "internalType": "int256",
          "name": "MAX",
          "type": "int256"
        }
      ],
      "name": "ComprobarAltitud",
      "outputs": [
        {
          "internalType": "bool",
          "name": "result",
          "type": "bool"
        }
      ],
      "stateMutability": "view",
      "type": "function",
      "constant": true
    },
    {
      "inputs": [
        {
          "internalType": "uint256",
          "name": "ID",
          "type": "uint256"
        },
        {
          "internalType": "enum TiposContract._Pesticidas",
          "name": "PESTICIDA",
          "type": "uint8"
        }
      ],
      "name": "ComprobarPesticida",
      "outputs": [
        {
          "internalType": "bool",
          "name": "",
          "type": "bool"
        }
      ],
      "stateMutability": "view",
      "type": "function",
      "constant": true
    }
  ],
  "bytecode": "0x60806040523480156200001157600080fd5b506040518060400160405280600681526020017f4d7944726f6e00000000000000000000000000000000000000000000000000008152506040518060400160405280600581526020017f4d44726f6e000000000000000000000000000000000000000000000000000000815250816000908051906020019062000096929190620000b8565b508060019080519060200190620000af929190620000b8565b505050620001cd565b828054620000c69062000197565b90600052602060002090601f016020900481019282620000ea576000855562000136565b82601f106200010557805160ff191683800117855562000136565b8280016001018555821562000136579182015b828111156200013557825182559160200191906001019062000118565b5b50905062000145919062000149565b5090565b5b80821115620001645760008160009055506001016200014a565b5090565b7f4e487b7100000000000000000000000000000000000000000000000000000000600052602260045260246000fd5b60006002820490506001821680620001b057607f821691505b60208210811415620001c757620001c662000168565b5b50919050565b6144d680620001dd6000396000f3fe608060405234801561001057600080fd5b50600436106101585760003560e01c80636678fd0b116100c3578063b88d4fde1161007c578063b88d4fde14610438578063bfef828214610454578063c87b56dd14610484578063e985e9c5146104b4578063ed63a95d146104e4578063f4c54c241461051457610158565b80636678fd0b1461033d57806370a082311461036e57806395d89b411461039e578063a22cb465146103bc578063af3f9e03146103d8578063b45d6c121461040857610158565b806332e3e8071161011557806332e3e8071461024357806333ecfc411461027357806338a18c491461029157806342842e0e146102c1578063432feece146102dd5780636352211e1461030d57610158565b806301ffc9a71461015d57806306fdde031461018d578063081812fc146101ab578063095ea7b3146101db57806320804314146101f757806323b872dd14610227575b600080fd5b61017760048036038101906101729190612b9f565b610544565b6040516101849190612be7565b60405180910390f35b610195610626565b6040516101a29190612c9b565b60405180910390f35b6101c560048036038101906101c09190612cf3565b6106b8565b6040516101d29190612d61565b60405180910390f35b6101f560048036038101906101f09190612da8565b61073d565b005b610211600480360381019061020c9190612e0d565b610855565b60405161021e9190612be7565b60405180910390f35b610241600480360381019061023c9190612e4d565b61093b565b005b61025d60048036038101906102589190612ea0565b61099b565b60405161026a9190612be7565b60405180910390f35b61027b610aae565b6040516102889190613188565b60405180910390f35b6102ab60048036038101906102a691906131d6565b610c18565b6040516102b89190612be7565b60405180910390f35b6102db60048036038101906102d69190612e4d565b610cee565b005b6102f760048036038101906102f2919061328e565b610d0e565b6040516103049190613337565b60405180910390f35b61032760048036038101906103229190612cf3565b611034565b6040516103349190612d61565b60405180910390f35b610357600480360381019061035291906131d6565b6110e6565b604051610365929190613361565b60405180910390f35b6103886004803603810190610383919061338a565b6112f9565b6040516103959190613337565b60405180910390f35b6103a66113b1565b6040516103b39190612c9b565b60405180910390f35b6103d660048036038101906103d191906133e3565b611443565b005b6103f260048036038101906103ed9190613423565b611459565b6040516103ff9190612be7565b60405180910390f35b610422600480360381019061041d9190612cf3565b6115a7565b60405161042f91906134ec565b60405180910390f35b610452600480360381019061044d919061363e565b6116df565b005b61046e60048036038101906104699190612e0d565b611741565b60405161047b91906136c1565b60405180910390f35b61049e60048036038101906104999190612cf3565b611824565b6040516104ab9190612c9b565b60405180910390f35b6104ce60048036038101906104c991906136dc565b6118cb565b6040516104db9190612be7565b60405180910390f35b6104fe60048036038101906104f99190612e0d565b61195f565b60405161050b9190612be7565b60405180910390f35b61052e60048036038101906105299190612e0d565b611b27565b60405161053b9190612be7565b60405180910390f35b60007f80ac58cd000000000000000000000000000000000000000000000000000000007bffffffffffffffffffffffffffffffffffffffffffffffffffffffff1916827bffffffffffffffffffffffffffffffffffffffffffffffffffffffff1916148061060f57507f5b5e139f000000000000000000000000000000000000000000000000000000007bffffffffffffffffffffffffffffffffffffffffffffffffffffffff1916827bffffffffffffffffffffffffffffffffffffffffffffffffffffffff1916145b8061061f575061061e82611b54565b5b9050919050565b6060600080546106359061374b565b80601f01602080910402602001604051908101604052809291908181526020018280546106619061374b565b80156106ae5780601f10610683576101008083540402835291602001916106ae565b820191906000526020600020905b81548152906001019060200180831161069157829003601f168201915b5050505050905090565b60006106c382611bbe565b610702576040517f08c379a00000000000000000000000000000000000000000000000000000000081526004016106f9906137ef565b60405180910390fd5b6004600083815260200190815260200160002060009054906101000a900473ffffffffffffffffffffffffffffffffffffffff169050919050565b600061074882611034565b90508073ffffffffffffffffffffffffffffffffffffffff168373ffffffffffffffffffffffffffffffffffffffff1614156107b9576040517f08c379a00000000000000000000000000000000000000000000000000000000081526004016107b090613881565b60405180910390fd5b8073ffffffffffffffffffffffffffffffffffffffff166107d8611c2a565b73ffffffffffffffffffffffffffffffffffffffff161480610807575061080681610801611c2a565b6118cb565b5b610846576040517f08c379a000000000000000000000000000000000000000000000000000000000815260040161083d90613913565b60405180910390fd5b6108508383611c32565b505050565b6000826007600082815260200190815260200160002060010160009054906101000a900473ffffffffffffffffffffffffffffffffffffffff1673ffffffffffffffffffffffffffffffffffffffff163373ffffffffffffffffffffffffffffffffffffffff1614806108fb57506108cc81611034565b73ffffffffffffffffffffffffffffffffffffffff163373ffffffffffffffffffffffffffffffffffffffff16145b61090457600080fd5b60006109108585611741565b90506000811261092e576109248582611ceb565b6001925050610934565b60009250505b5092915050565b61094c610946611c2a565b82611f62565b61098b576040517f08c379a0000000000000000000000000000000000000000000000000000000008152600401610982906139a5565b60405180910390fd5b610996838383612040565b505050565b6000826109a781611034565b73ffffffffffffffffffffffffffffffffffffffff163373ffffffffffffffffffffffffffffffffffffffff16146109de57600080fd5b826007600086815260200190815260200160002060010160006101000a81548173ffffffffffffffffffffffffffffffffffffffff021916908373ffffffffffffffffffffffffffffffffffffffff160217905550826008600186610a4391906139f4565b81548110610a5457610a53613a28565b5b906000526020600020906006020160010160006101000a81548173ffffffffffffffffffffffffffffffffffffffff021916908373ffffffffffffffffffffffffffffffffffffffff160217905550600191505092915050565b60606008805480602002602001604051908101604052809291908181526020016000905b82821015610c0f57838290600052602060002090600602016040518060c0016040529081600082015481526020016001820160009054906101000a900473ffffffffffffffffffffffffffffffffffffffff1673ffffffffffffffffffffffffffffffffffffffff1673ffffffffffffffffffffffffffffffffffffffff16815260200160028201548152602001600382015481526020016004820154815260200160058201805480602002602001604051908101604052809291908181526020018280548015610bf757602002820191906000526020600020906000905b82829054906101000a900460ff166004811115610bd157610bd0612f6f565b5b81526020019060010190602082600001049283019260010382029150808411610bb15790505b50505050508152505081526020019060010190610ad2565b50505050905090565b6000806007600086815260200190815260200160002060030154905060006007600087815260200190815260200160002060020154905080841280610c5c57508185135b80610c6657508385135b15610c7657600092505050610ce7565b808412158015610c865750818413155b80610c9d5750818513158015610c9c5750808512155b5b15610cad57600192505050610ce7565b818412158015610cbd5750808513155b80610cd45750818413158015610cd35750808512155b5b15610ce457600192505050610ce7565b50505b9392505050565b610d09838383604051806020016040528060008152506116df565b505050565b6000808613610d52576040517f08c379a0000000000000000000000000000000000000000000000000000000008152600401610d4990613aa3565b60405180910390fd5b85851215610d95576040517f08c379a0000000000000000000000000000000000000000000000000000000008152600401610d8c90613b0f565b60405180910390fd5b60008411610dd8576040517f08c379a0000000000000000000000000000000000000000000000000000000008152600401610dcf90613b7b565b60405180910390fd5b60008383905011610e1e576040517f08c379a0000000000000000000000000000000000000000000000000000000008152600401610e1590613be7565b60405180910390fd5b610e2860066122a7565b6000610e3460066122bd565b9050610e4033826122cb565b60006040518060c001604052808381526020018a73ffffffffffffffffffffffffffffffffffffffff168152602001898152602001888152602001878152602001868680806020026020016040519081016040528093929190818152602001838360200280828437600081840152601f19601f82011690508083019250505050505050815250905080600760008481526020019081526020016000206000820151816000015560208201518160010160006101000a81548173ffffffffffffffffffffffffffffffffffffffff021916908373ffffffffffffffffffffffffffffffffffffffff16021790555060408201518160020155606082015181600301556080820151816004015560a0820151816005019080519060200190610f67929190612a14565b5090505060088190806001815401808255809150506001900390600052602060002090600602016000909190919091506000820151816000015560208201518160010160006101000a81548173ffffffffffffffffffffffffffffffffffffffff021916908373ffffffffffffffffffffffffffffffffffffffff16021790555060408201518160020155606082015181600301556080820151816004015560a0820151816005019080519060200190611022929190612a14565b50505081925050509695505050505050565b6000806002600084815260200190815260200160002060009054906101000a900473ffffffffffffffffffffffffffffffffffffffff169050600073ffffffffffffffffffffffffffffffffffffffff168173ffffffffffffffffffffffffffffffffffffffff1614156110dd576040517f08c379a00000000000000000000000000000000000000000000000000000000081526004016110d490613c79565b60405180910390fd5b80915050919050565b600080846007600082815260200190815260200160002060010160009054906101000a900473ffffffffffffffffffffffffffffffffffffffff1673ffffffffffffffffffffffffffffffffffffffff163373ffffffffffffffffffffffffffffffffffffffff16148061118d575061115e81611034565b73ffffffffffffffffffffffffffffffffffffffff163373ffffffffffffffffffffffffffffffffffffffff16145b61119657600080fd5b600085136111d9576040517f08c379a00000000000000000000000000000000000000000000000000000000081526004016111d090613aa3565b60405180910390fd5b8484121561121c576040517f08c379a000000000000000000000000000000000000000000000000000000000815260040161121390613b0f565b60405180910390fd5b84600760008881526020019081526020016000206002018190555083600760008881526020019081526020016000206003018190555084600860018861126291906139f4565b8154811061127357611272613a28565b5b90600052602060002090600602016002018190555083600860018861129891906139f4565b815481106112a9576112a8613a28565b5b906000526020600020906006020160030181905550600760008781526020019081526020016000206002015460076000888152602001908152602001600020600301549250925050935093915050565b60008073ffffffffffffffffffffffffffffffffffffffff168273ffffffffffffffffffffffffffffffffffffffff16141561136a576040517f08c379a000000000000000000000000000000000000000000000000000000000815260040161136190613d0b565b60405180910390fd5b600360008373ffffffffffffffffffffffffffffffffffffffff1673ffffffffffffffffffffffffffffffffffffffff168152602001908152602001600020549050919050565b6060600180546113c09061374b565b80601f01602080910402602001604051908101604052809291908181526020018280546113ec9061374b565b80156114395780601f1061140e57610100808354040283529160200191611439565b820191906000526020600020905b81548152906001019060200180831161141c57829003601f168201915b5050505050905090565b61145561144e611c2a565b83836122e9565b5050565b6000826007600082815260200190815260200160002060010160009054906101000a900473ffffffffffffffffffffffffffffffffffffffff1673ffffffffffffffffffffffffffffffffffffffff163373ffffffffffffffffffffffffffffffffffffffff1614806114ff57506114d081611034565b73ffffffffffffffffffffffffffffffffffffffff163373ffffffffffffffffffffffffffffffffffffffff16145b61150857600080fd5b6000831161154b576040517f08c379a000000000000000000000000000000000000000000000000000000000815260040161154290613d77565b60405180910390fd5b82600760008681526020019081526020016000206004018190555082600860018661157691906139f4565b8154811061158757611586613a28565b5b906000526020600020906006020160040181905550600191505092915050565b6115af612aca565b600760008381526020019081526020016000206040518060c0016040529081600082015481526020016001820160009054906101000a900473ffffffffffffffffffffffffffffffffffffffff1673ffffffffffffffffffffffffffffffffffffffff1673ffffffffffffffffffffffffffffffffffffffff168152602001600282015481526020016003820154815260200160048201548152602001600582018054806020026020016040519081016040528092919081815260200182805480156116cf57602002820191906000526020600020906000905b82829054906101000a900460ff1660048111156116a9576116a8612f6f565b5b815260200190600101906020826000010492830192600103820291508084116116895790505b5050505050815250509050919050565b6116f06116ea611c2a565b83611f62565b61172f576040517f08c379a0000000000000000000000000000000000000000000000000000000008152600401611726906139a5565b60405180910390fd5b61173b84848484612456565b50505050565b600080600090505b60076000858152602001908152602001600020600501805490508112156117f95782600481111561177d5761177c612f6f565b5b6007600086815260200190815260200160002060050182815481106117a5576117a4613a28565b5b90600052602060002090602091828204019190069054906101000a900460ff1660048111156117d7576117d6612f6f565b5b14156117e6578091505061181e565b80806117f190613d97565b915050611749565b507fffffffffffffffffffffffffffffffffffffffffffffffffffffffffffffffff90505b92915050565b606061182f82611bbe565b61186e576040517f08c379a000000000000000000000000000000000000000000000000000000000815260040161186590613e52565b60405180910390fd5b60006118786124b2565b9050600081511161189857604051806020016040528060008152506118c3565b806118a2846124c9565b6040516020016118b3929190613eae565b6040516020818303038152906040525b915050919050565b6000600560008473ffffffffffffffffffffffffffffffffffffffff1673ffffffffffffffffffffffffffffffffffffffff16815260200190815260200160002060008373ffffffffffffffffffffffffffffffffffffffff1673ffffffffffffffffffffffffffffffffffffffff16815260200190815260200160002060009054906101000a900460ff16905092915050565b6000826007600082815260200190815260200160002060010160009054906101000a900473ffffffffffffffffffffffffffffffffffffffff1673ffffffffffffffffffffffffffffffffffffffff163373ffffffffffffffffffffffffffffffffffffffff161480611a0557506119d681611034565b73ffffffffffffffffffffffffffffffffffffffff163373ffffffffffffffffffffffffffffffffffffffff16145b611a0e57600080fd5b6000611a1a8585611741565b90506000811215611b1a57600760008681526020019081526020016000206005018490806001815401808255809150506001900390600052602060002090602091828204019190069091909190916101000a81548160ff02191690836004811115611a8857611a87612f6f565b5b02179055506008600186611a9c91906139f4565b81548110611aad57611aac613a28565b5b90600052602060002090600602016005018490806001815401808255809150506001900390600052602060002090602091828204019190069091909190916101000a81548160ff02191690836004811115611b0b57611b0a612f6f565b5b02179055506001925050611b20565b60009250505b5092915050565b600080611b348484611741565b905060008112611b48576001915050611b4e565b60009150505b92915050565b60007f01ffc9a7000000000000000000000000000000000000000000000000000000007bffffffffffffffffffffffffffffffffffffffffffffffffffffffff1916827bffffffffffffffffffffffffffffffffffffffffffffffffffffffff1916149050919050565b60008073ffffffffffffffffffffffffffffffffffffffff166002600084815260200190815260200160002060009054906101000a900473ffffffffffffffffffffffffffffffffffffffff1673ffffffffffffffffffffffffffffffffffffffff1614159050919050565b600033905090565b816004600083815260200190815260200160002060006101000a81548173ffffffffffffffffffffffffffffffffffffffff021916908373ffffffffffffffffffffffffffffffffffffffff160217905550808273ffffffffffffffffffffffffffffffffffffffff16611ca583611034565b73ffffffffffffffffffffffffffffffffffffffff167f8c5be1e5ebec7d5bd14f71427d1e84f3dd0314c0f7b2291e5b200ac8c7c3b92560405160405180910390a45050565b6000600760008481526020019081526020016000206040518060c0016040529081600082015481526020016001820160009054906101000a900473ffffffffffffffffffffffffffffffffffffffff1673ffffffffffffffffffffffffffffffffffffffff1673ffffffffffffffffffffffffffffffffffffffff16815260200160028201548152602001600382015481526020016004820154815260200160058201805480602002602001604051908101604052809291908181526020018280548015611e0d57602002820191906000526020600020906000905b82829054906101000a900460ff166004811115611de757611de6612f6f565b5b81526020019060010190602082600001049283019260010382029150808411611dc75790505b50505050508152505090508060a00151518210611e2957600080fd5b8060a0015160018260a0015151611e4091906139f4565b81518110611e5157611e50613a28565b5b60200260200101518160a001518381518110611e7057611e6f613a28565b5b60200260200101906004811115611e8a57611e89612f6f565b5b90816004811115611e9e57611e9d612f6f565b5b8152505060076000848152602001908152602001600020600501805480611ec857611ec7613ed2565b5b60019003818190600052602060002090602091828204019190066101000a81549060ff021916905590556008600184611f0191906139f4565b81548110611f1257611f11613a28565b5b9060005260206000209060060201600501805480611f3357611f32613ed2565b5b60019003818190600052602060002090602091828204019190066101000a81549060ff02191690559055505050565b6000611f6d82611bbe565b611fac576040517f08c379a0000000000000000000000000000000000000000000000000000000008152600401611fa390613f73565b60405180910390fd5b6000611fb783611034565b90508073ffffffffffffffffffffffffffffffffffffffff168473ffffffffffffffffffffffffffffffffffffffff16148061202657508373ffffffffffffffffffffffffffffffffffffffff1661200e846106b8565b73ffffffffffffffffffffffffffffffffffffffff16145b80612037575061203681856118cb565b5b91505092915050565b8273ffffffffffffffffffffffffffffffffffffffff1661206082611034565b73ffffffffffffffffffffffffffffffffffffffff16146120b6576040517f08c379a00000000000000000000000000000000000000000000000000000000081526004016120ad90614005565b60405180910390fd5b600073ffffffffffffffffffffffffffffffffffffffff168273ffffffffffffffffffffffffffffffffffffffff161415612126576040517f08c379a000000000000000000000000000000000000000000000000000000000815260040161211d90614097565b60405180910390fd5b61213183838361262a565b61213c600082611c32565b6001600360008573ffffffffffffffffffffffffffffffffffffffff1673ffffffffffffffffffffffffffffffffffffffff168152602001908152602001600020600082825461218c91906139f4565b925050819055506001600360008473ffffffffffffffffffffffffffffffffffffffff1673ffffffffffffffffffffffffffffffffffffffff16815260200190815260200160002060008282546121e391906140b7565b92505081905550816002600083815260200190815260200160002060006101000a81548173ffffffffffffffffffffffffffffffffffffffff021916908373ffffffffffffffffffffffffffffffffffffffff160217905550808273ffffffffffffffffffffffffffffffffffffffff168473ffffffffffffffffffffffffffffffffffffffff167fddf252ad1be2c89b69c2b068fc378daa952ba7f163c4a11628f55a4df523b3ef60405160405180910390a46122a283838361262f565b505050565b6001816000016000828254019250508190555050565b600081600001549050919050565b6122e5828260405180602001604052806000815250612634565b5050565b8173ffffffffffffffffffffffffffffffffffffffff168373ffffffffffffffffffffffffffffffffffffffff161415612358576040517f08c379a000000000000000000000000000000000000000000000000000000000815260040161234f90614159565b60405180910390fd5b80600560008573ffffffffffffffffffffffffffffffffffffffff1673ffffffffffffffffffffffffffffffffffffffff16815260200190815260200160002060008473ffffffffffffffffffffffffffffffffffffffff1673ffffffffffffffffffffffffffffffffffffffff16815260200190815260200160002060006101000a81548160ff0219169083151502179055508173ffffffffffffffffffffffffffffffffffffffff168373ffffffffffffffffffffffffffffffffffffffff167f17307eab39ab6107e8899845ad3d59bd9653f200f220920489ca2b5937696c31836040516124499190612be7565b60405180910390a3505050565b612461848484612040565b61246d8484848461268f565b6124ac576040517f08c379a00000000000000000000000000000000000000000000000000000000081526004016124a3906141eb565b60405180910390fd5b50505050565b606060405180602001604052806000815250905090565b60606000821415612511576040518060400160405280600181526020017f30000000000000000000000000000000000000000000000000000000000000008152509050612625565b600082905060005b6000821461254357808061252c9061420b565b915050600a8261253c9190614283565b9150612519565b60008167ffffffffffffffff81111561255f5761255e613513565b5b6040519080825280601f01601f1916602001820160405280156125915781602001600182028036833780820191505090505b5090505b6000851461261e576001826125aa91906139f4565b9150600a856125b991906142b4565b60306125c591906140b7565b60f81b8183815181106125db576125da613a28565b5b60200101907effffffffffffffffffffffffffffffffffffffffffffffffffffffffffffff1916908160001a905350600a856126179190614283565b9450612595565b8093505050505b919050565b505050565b505050565b61263e8383612817565b61264b600084848461268f565b61268a576040517f08c379a0000000000000000000000000000000000000000000000000000000008152600401612681906141eb565b60405180910390fd5b505050565b60006126b08473ffffffffffffffffffffffffffffffffffffffff166129f1565b1561280a578373ffffffffffffffffffffffffffffffffffffffff1663150b7a026126d9611c2a565b8786866040518563ffffffff1660e01b81526004016126fb949392919061433a565b6020604051808303816000875af192505050801561273757506040513d601f19601f82011682018060405250810190612734919061439b565b60015b6127ba573d8060008114612767576040519150601f19603f3d011682016040523d82523d6000602084013e61276c565b606091505b506000815114156127b2576040517f08c379a00000000000000000000000000000000000000000000000000000000081526004016127a9906141eb565b60405180910390fd5b805181602001fd5b63150b7a0260e01b7bffffffffffffffffffffffffffffffffffffffffffffffffffffffff1916817bffffffffffffffffffffffffffffffffffffffffffffffffffffffff19161491505061280f565b600190505b949350505050565b600073ffffffffffffffffffffffffffffffffffffffff168273ffffffffffffffffffffffffffffffffffffffff161415612887576040517f08c379a000000000000000000000000000000000000000000000000000000000815260040161287e90614414565b60405180910390fd5b61289081611bbe565b156128d0576040517f08c379a00000000000000000000000000000000000000000000000000000000081526004016128c790614480565b60405180910390fd5b6128dc6000838361262a565b6001600360008473ffffffffffffffffffffffffffffffffffffffff1673ffffffffffffffffffffffffffffffffffffffff168152602001908152602001600020600082825461292c91906140b7565b92505081905550816002600083815260200190815260200160002060006101000a81548173ffffffffffffffffffffffffffffffffffffffff021916908373ffffffffffffffffffffffffffffffffffffffff160217905550808273ffffffffffffffffffffffffffffffffffffffff16600073ffffffffffffffffffffffffffffffffffffffff167fddf252ad1be2c89b69c2b068fc378daa952ba7f163c4a11628f55a4df523b3ef60405160405180910390a46129ed6000838361262f565b5050565b6000808273ffffffffffffffffffffffffffffffffffffffff163b119050919050565b82805482825590600052602060002090601f01602090048101928215612ab95791602002820160005b83821115612a8a57835183826101000a81548160ff02191690836004811115612a6957612a68612f6f565b5b02179055509260200192600101602081600001049283019260010302612a3d565b8015612ab75782816101000a81549060ff0219169055600101602081600001049283019260010302612a8a565b505b509050612ac69190612b16565b5090565b6040518060c0016040528060008152602001600073ffffffffffffffffffffffffffffffffffffffff168152602001600081526020016000815260200160008152602001606081525090565b5b80821115612b2f576000816000905550600101612b17565b5090565b6000604051905090565b600080fd5b600080fd5b60007fffffffff0000000000000000000000000000000000000000000000000000000082169050919050565b612b7c81612b47565b8114612b8757600080fd5b50565b600081359050612b9981612b73565b92915050565b600060208284031215612bb557612bb4612b3d565b5b6000612bc384828501612b8a565b91505092915050565b60008115159050919050565b612be181612bcc565b82525050565b6000602082019050612bfc6000830184612bd8565b92915050565b600081519050919050565b600082825260208201905092915050565b60005b83811015612c3c578082015181840152602081019050612c21565b83811115612c4b576000848401525b50505050565b6000601f19601f8301169050919050565b6000612c6d82612c02565b612c778185612c0d565b9350612c87818560208601612c1e565b612c9081612c51565b840191505092915050565b60006020820190508181036000830152612cb58184612c62565b905092915050565b6000819050919050565b612cd081612cbd565b8114612cdb57600080fd5b50565b600081359050612ced81612cc7565b92915050565b600060208284031215612d0957612d08612b3d565b5b6000612d1784828501612cde565b91505092915050565b600073ffffffffffffffffffffffffffffffffffffffff82169050919050565b6000612d4b82612d20565b9050919050565b612d5b81612d40565b82525050565b6000602082019050612d766000830184612d52565b92915050565b612d8581612d40565b8114612d9057600080fd5b50565b600081359050612da281612d7c565b92915050565b60008060408385031215612dbf57612dbe612b3d565b5b6000612dcd85828601612d93565b9250506020612dde85828601612cde565b9150509250929050565b60058110612df557600080fd5b50565b600081359050612e0781612de8565b92915050565b60008060408385031215612e2457612e23612b3d565b5b6000612e3285828601612cde565b9250506020612e4385828601612df8565b9150509250929050565b600080600060608486031215612e6657612e65612b3d565b5b6000612e7486828701612d93565b9350506020612e8586828701612d93565b9250506040612e9686828701612cde565b9150509250925092565b60008060408385031215612eb757612eb6612b3d565b5b6000612ec585828601612cde565b9250506020612ed685828601612d93565b9150509250929050565b600081519050919050565b600082825260208201905092915050565b6000819050602082019050919050565b612f1581612cbd565b82525050565b612f2481612d40565b82525050565b6000819050919050565b612f3d81612f2a565b82525050565b600081519050919050565b600082825260208201905092915050565b6000819050602082019050919050565b7f4e487b7100000000000000000000000000000000000000000000000000000000600052602160045260246000fd5b60058110612faf57612fae612f6f565b5b50565b6000819050612fc082612f9e565b919050565b6000612fd082612fb2565b9050919050565b612fe081612fc5565b82525050565b6000612ff28383612fd7565b60208301905092915050565b6000602082019050919050565b600061301682612f43565b6130208185612f4e565b935061302b83612f5f565b8060005b8381101561305c5781516130438882612fe6565b975061304e83612ffe565b92505060018101905061302f565b5085935050505092915050565b600060c0830160008301516130816000860182612f0c565b5060208301516130946020860182612f1b565b5060408301516130a76040860182612f34565b5060608301516130ba6060860182612f34565b5060808301516130cd6080860182612f0c565b5060a083015184820360a08601526130e5828261300b565b9150508091505092915050565b60006130fe8383613069565b905092915050565b6000602082019050919050565b600061311e82612ee0565b6131288185612eeb565b93508360208202850161313a85612efc565b8060005b85811015613176578484038952815161315785826130f2565b945061316283613106565b925060208a0199505060018101905061313e565b50829750879550505050505092915050565b600060208201905081810360008301526131a28184613113565b905092915050565b6131b381612f2a565b81146131be57600080fd5b50565b6000813590506131d0816131aa565b92915050565b6000806000606084860312156131ef576131ee612b3d565b5b60006131fd86828701612cde565b935050602061320e868287016131c1565b925050604061321f868287016131c1565b9150509250925092565b600080fd5b600080fd5b600080fd5b60008083601f84011261324e5761324d613229565b5b8235905067ffffffffffffffff81111561326b5761326a61322e565b5b60208301915083602082028301111561328757613286613233565b5b9250929050565b60008060008060008060a087890312156132ab576132aa612b3d565b5b60006132b989828a01612d93565b96505060206132ca89828a016131c1565b95505060406132db89828a016131c1565b94505060606132ec89828a01612cde565b935050608087013567ffffffffffffffff81111561330d5761330c612b42565b5b61331989828a01613238565b92509250509295509295509295565b61333181612cbd565b82525050565b600060208201905061334c6000830184613328565b92915050565b61335b81612f2a565b82525050565b60006040820190506133766000830185613352565b6133836020830184613352565b9392505050565b6000602082840312156133a05761339f612b3d565b5b60006133ae84828501612d93565b91505092915050565b6133c081612bcc565b81146133cb57600080fd5b50565b6000813590506133dd816133b7565b92915050565b600080604083850312156133fa576133f9612b3d565b5b600061340885828601612d93565b9250506020613419858286016133ce565b9150509250929050565b6000806040838503121561343a57613439612b3d565b5b600061344885828601612cde565b925050602061345985828601612cde565b9150509250929050565b600060c08301600083015161347b6000860182612f0c565b50602083015161348e6020860182612f1b565b5060408301516134a16040860182612f34565b5060608301516134b46060860182612f34565b5060808301516134c76080860182612f0c565b5060a083015184820360a08601526134df828261300b565b9150508091505092915050565b600060208201905081810360008301526135068184613463565b905092915050565b600080fd5b7f4e487b7100000000000000000000000000000000000000000000000000000000600052604160045260246000fd5b61354b82612c51565b810181811067ffffffffffffffff8211171561356a57613569613513565b5b80604052505050565b600061357d612b33565b90506135898282613542565b919050565b600067ffffffffffffffff8211156135a9576135a8613513565b5b6135b282612c51565b9050602081019050919050565b82818337600083830152505050565b60006135e16135dc8461358e565b613573565b9050828152602081018484840111156135fd576135fc61350e565b5b6136088482856135bf565b509392505050565b600082601f83011261362557613624613229565b5b81356136358482602086016135ce565b91505092915050565b6000806000806080858703121561365857613657612b3d565b5b600061366687828801612d93565b945050602061367787828801612d93565b935050604061368887828801612cde565b925050606085013567ffffffffffffffff8111156136a9576136a8612b42565b5b6136b587828801613610565b91505092959194509250565b60006020820190506136d66000830184613352565b92915050565b600080604083850312156136f3576136f2612b3d565b5b600061370185828601612d93565b925050602061371285828601612d93565b9150509250929050565b7f4e487b7100000000000000000000000000000000000000000000000000000000600052602260045260246000fd5b6000600282049050600182168061376357607f821691505b602082108114156137775761377661371c565b5b50919050565b7f4552433732313a20617070726f76656420717565727920666f72206e6f6e657860008201527f697374656e7420746f6b656e0000000000000000000000000000000000000000602082015250565b60006137d9602c83612c0d565b91506137e48261377d565b604082019050919050565b60006020820190508181036000830152613808816137cc565b9050919050565b7f4552433732313a20617070726f76616c20746f2063757272656e74206f776e6560008201527f7200000000000000000000000000000000000000000000000000000000000000602082015250565b600061386b602183612c0d565b91506138768261380f565b604082019050919050565b6000602082019050818103600083015261389a8161385e565b9050919050565b7f4552433732313a20617070726f76652063616c6c6572206973206e6f74206f7760008201527f6e6572206e6f7220617070726f76656420666f7220616c6c0000000000000000602082015250565b60006138fd603883612c0d565b9150613908826138a1565b604082019050919050565b6000602082019050818103600083015261392c816138f0565b9050919050565b7f4552433732313a207472616e736665722063616c6c6572206973206e6f74206f60008201527f776e6572206e6f7220617070726f766564000000000000000000000000000000602082015250565b600061398f603183612c0d565b915061399a82613933565b604082019050919050565b600060208201905081810360008301526139be81613982565b9050919050565b7f4e487b7100000000000000000000000000000000000000000000000000000000600052601160045260246000fd5b60006139ff82612cbd565b9150613a0a83612cbd565b925082821015613a1d57613a1c6139c5565b5b828203905092915050565b7f4e487b7100000000000000000000000000000000000000000000000000000000600052603260045260246000fd5b7f56414c4f52203c20300000000000000000000000000000000000000000000000600082015250565b6000613a8d600983612c0d565b9150613a9882613a57565b602082019050919050565b60006020820190508181036000830152613abc81613a80565b9050919050565b7f4d4158203c204d494e0000000000000000000000000000000000000000000000600082015250565b6000613af9600983612c0d565b9150613b0482613ac3565b602082019050919050565b60006020820190508181036000830152613b2881613aec565b9050919050565b7f56414c4f52203d20300000000000000000000000000000000000000000000000600082015250565b6000613b65600983612c0d565b9150613b7082613b2f565b602082019050919050565b60006020820190508181036000830152613b9481613b58565b9050919050565b7f53494e2050455354494349444100000000000000000000000000000000000000600082015250565b6000613bd1600d83612c0d565b9150613bdc82613b9b565b602082019050919050565b60006020820190508181036000830152613c0081613bc4565b9050919050565b7f4552433732313a206f776e657220717565727920666f72206e6f6e657869737460008201527f656e7420746f6b656e0000000000000000000000000000000000000000000000602082015250565b6000613c63602983612c0d565b9150613c6e82613c07565b604082019050919050565b60006020820190508181036000830152613c9281613c56565b9050919050565b7f4552433732313a2062616c616e636520717565727920666f7220746865207a6560008201527f726f206164647265737300000000000000000000000000000000000000000000602082015250565b6000613cf5602a83612c0d565b9150613d0082613c99565b604082019050919050565b60006020820190508181036000830152613d2481613ce8565b9050919050565b7f434f535445203d20300000000000000000000000000000000000000000000000600082015250565b6000613d61600983612c0d565b9150613d6c82613d2b565b602082019050919050565b60006020820190508181036000830152613d9081613d54565b9050919050565b6000613da282612f2a565b91507f7fffffffffffffffffffffffffffffffffffffffffffffffffffffffffffffff821415613dd557613dd46139c5565b5b600182019050919050565b7f4552433732314d657461646174613a2055524920717565727920666f72206e6f60008201527f6e6578697374656e7420746f6b656e0000000000000000000000000000000000602082015250565b6000613e3c602f83612c0d565b9150613e4782613de0565b604082019050919050565b60006020820190508181036000830152613e6b81613e2f565b9050919050565b600081905092915050565b6000613e8882612c02565b613e928185613e72565b9350613ea2818560208601612c1e565b80840191505092915050565b6000613eba8285613e7d565b9150613ec68284613e7d565b91508190509392505050565b7f4e487b7100000000000000000000000000000000000000000000000000000000600052603160045260246000fd5b7f4552433732313a206f70657261746f7220717565727920666f72206e6f6e657860008201527f697374656e7420746f6b656e0000000000000000000000000000000000000000602082015250565b6000613f5d602c83612c0d565b9150613f6882613f01565b604082019050919050565b60006020820190508181036000830152613f8c81613f50565b9050919050565b7f4552433732313a207472616e736665722066726f6d20696e636f72726563742060008201527f6f776e6572000000000000000000000000000000000000000000000000000000602082015250565b6000613fef602583612c0d565b9150613ffa82613f93565b604082019050919050565b6000602082019050818103600083015261401e81613fe2565b9050919050565b7f4552433732313a207472616e7366657220746f20746865207a65726f2061646460008201527f7265737300000000000000000000000000000000000000000000000000000000602082015250565b6000614081602483612c0d565b915061408c82614025565b604082019050919050565b600060208201905081810360008301526140b081614074565b9050919050565b60006140c282612cbd565b91506140cd83612cbd565b9250827fffffffffffffffffffffffffffffffffffffffffffffffffffffffffffffffff03821115614102576141016139c5565b5b828201905092915050565b7f4552433732313a20617070726f766520746f2063616c6c657200000000000000600082015250565b6000614143601983612c0d565b915061414e8261410d565b602082019050919050565b6000602082019050818103600083015261417281614136565b9050919050565b7f4552433732313a207472616e7366657220746f206e6f6e20455243373231526560008201527f63656976657220696d706c656d656e7465720000000000000000000000000000602082015250565b60006141d5603283612c0d565b91506141e082614179565b604082019050919050565b60006020820190508181036000830152614204816141c8565b9050919050565b600061421682612cbd565b91507fffffffffffffffffffffffffffffffffffffffffffffffffffffffffffffffff821415614249576142486139c5565b5b600182019050919050565b7f4e487b7100000000000000000000000000000000000000000000000000000000600052601260045260246000fd5b600061428e82612cbd565b915061429983612cbd565b9250826142a9576142a8614254565b5b828204905092915050565b60006142bf82612cbd565b91506142ca83612cbd565b9250826142da576142d9614254565b5b828206905092915050565b600081519050919050565b600082825260208201905092915050565b600061430c826142e5565b61431681856142f0565b9350614326818560208601612c1e565b61432f81612c51565b840191505092915050565b600060808201905061434f6000830187612d52565b61435c6020830186612d52565b6143696040830185613328565b818103606083015261437b8184614301565b905095945050505050565b60008151905061439581612b73565b92915050565b6000602082840312156143b1576143b0612b3d565b5b60006143bf84828501614386565b91505092915050565b7f4552433732313a206d696e7420746f20746865207a65726f2061646472657373600082015250565b60006143fe602083612c0d565b9150614409826143c8565b602082019050919050565b6000602082019050818103600083015261442d816143f1565b9050919050565b7f4552433732313a20746f6b656e20616c7265616479206d696e74656400000000600082015250565b600061446a601c83612c0d565b915061447582614434565b602082019050919050565b600060208201905081810360008301526144998161445d565b905091905056fea2646970667358221220ca4958333f77d6ec8ae3b60707f489d32f1fb908096ba2f55921686d5dc6244d64736f6c634300080c0033",
  "immutableReferences": {},
  "source": "//SPDX-License-Identifier: UNLICENSED\r\npragma solidity ^0.8.0; \r\n\r\n//Importamos\r\nimport \"@openzeppelin/contracts/token/ERC721/ERC721.sol\";\r\nimport \"@openzeppelin/contracts/utils/Counters.sol\";\r\nimport \"./Tipos.sol\";\r\n\r\n//Extendemos del contrato ERC721 (Contrato destinado a Tokens no fungibles)\r\ncontract DronContract is ERC721 {\r\n    using Counters for Counters.Counter;\r\n    Counters.Counter UltimoID;\r\n\r\n    //Creamos las variables propias del contrato\r\n    struct Dron {\r\n        uint256 _ID;\r\n        address _Empresa; \r\n        int256 _Altitud_MIN;\r\n        int256 _Altitud_MAX;\r\n        uint256 _Coste;\r\n        TiposContract._Pesticidas[] _Pesticidas;\r\n    }\r\n\r\n    mapping(uint256 => Dron) private _Drones;\r\n    Dron[] DRONES;\r\n\r\n    constructor() ERC721(\"MyDron\", \"MDron\") {\r\n    }\r\n\r\n    //Modificador de permisos de acceso\r\n    modifier SoloPropietario(uint256 ID){\r\n        require(msg.sender == ownerOf(ID));\r\n        _;\r\n    }\r\n\r\n    //Modificador de permisos de acceso\r\n    modifier SoloEmpresa(uint256 ID){\r\n        require(msg.sender == _Drones[ID]._Empresa || msg.sender == ownerOf(ID));\r\n        _;\r\n    }\r\n\r\n    function CrearDron(address EMPRESA, int256 MIN, int256 MAX, uint256 COSTE, TiposContract._Pesticidas[] calldata PESTICIDA) public returns (uint256){\r\n        require (MIN > 0, \"VALOR < 0\");\r\n        require (MAX >= MIN, \"MAX < MIN\");\r\n        require (COSTE > 0, \"VALOR = 0\");\r\n        require (PESTICIDA.length > 0, \"SIN PESTICIDA\");\r\n\r\n        UltimoID.increment();\r\n        uint256 IDActual = UltimoID.current();\r\n        _safeMint(msg.sender,IDActual);\r\n        Dron memory Dron_ = Dron({\r\n            _ID: IDActual,\r\n            _Empresa: EMPRESA,\r\n            _Altitud_MIN: MIN,\r\n            _Altitud_MAX: MAX,\r\n            _Coste: COSTE,\r\n            _Pesticidas: PESTICIDA            \r\n        });\r\n\r\n        _Drones[IDActual] = Dron_;\r\n        DRONES.push(Dron_);\r\n\r\n        return IDActual;\r\n    }\r\n\r\n    function ConfigurarEmpresa(uint256 ID, address EMPRESA) public SoloPropietario(ID) returns (bool)\r\n    {\r\n        _Drones[ID]._Empresa = EMPRESA;\r\n        DRONES[ID-1]._Empresa = EMPRESA;\r\n        return true;\r\n    }\r\n\r\n    function ConfigurarAltitud(uint256 ID, int256 MIN, int256 MAX) public SoloEmpresa(ID) returns (int256, int256)\r\n    {\r\n        require (MIN > 0, \"VALOR < 0\");\r\n        require (MAX >= MIN, \"MAX < MIN\");\r\n\r\n        // uint256 IDd;\r\n        // IDd = ID - 1;\r\n        _Drones[ID]._Altitud_MIN = MIN;\r\n        _Drones[ID]._Altitud_MAX = MAX;\r\n        DRONES[ID - 1]._Altitud_MIN = MIN;\r\n        DRONES[ID - 1]._Altitud_MAX = MAX;\r\n        return (_Drones[ID]._Altitud_MIN, _Drones[ID]._Altitud_MAX);\r\n    }\r\n\r\n    function ConfigurarCoste(uint256 ID, uint256 COSTE) public SoloEmpresa(ID) returns (bool)\r\n    {\r\n        require (COSTE > 0, \"COSTE = 0\");\r\n        _Drones[ID]._Coste = COSTE;\r\n        DRONES[ID-1]._Coste = COSTE;\r\n        return true;\r\n    }\r\n\r\n    function BuscarPesticida(uint256 ID, TiposContract._Pesticidas PESTICIDA) public view returns (int)\r\n    {\r\n        for (int i = 0; i < int(_Drones[ID]._Pesticidas.length); i++) {\r\n            if (_Drones[ID]._Pesticidas[uint(i)] == PESTICIDA) {\r\n                return i;\r\n            }\r\n        }\r\n        return -1;\r\n    }\r\n\r\n    function AltaPesticida(uint256 ID, TiposContract._Pesticidas PESTICIDA) public SoloEmpresa(ID) returns (bool result)\r\n    {\r\n        int key = BuscarPesticida(ID, PESTICIDA);\r\n        if (key < 0) {\r\n            _Drones[ID]._Pesticidas.push(PESTICIDA);\r\n            DRONES[ID-1]._Pesticidas.push(PESTICIDA);\r\n            return true;\r\n        }\r\n        return false;\r\n    }\r\n\r\n    function _QuitarPosicionArray(uint256 ID, uint key) internal {\r\n        Dron memory dron = _Drones[ID];\r\n        require(key < dron._Pesticidas.length);\r\n        dron._Pesticidas[key] = dron._Pesticidas[dron._Pesticidas.length-1];\r\n        _Drones[ID]._Pesticidas.pop();\r\n        DRONES[ID-1]._Pesticidas.pop();\r\n    }\r\n\r\n    function BajaPesticida(uint256 ID, TiposContract._Pesticidas PESTICIDA) public SoloEmpresa(ID) returns (bool result)\r\n    {\r\n        int key = BuscarPesticida(ID, PESTICIDA);\r\n        if (key >= 0) {\r\n            _QuitarPosicionArray(ID, uint(key));\r\n            return true;\r\n        }\r\n        return false;\r\n    }\r\n\r\n    function ObtenerInfoDron(uint256 ID) public view returns (Dron memory) {\r\n        return _Drones[ID];\r\n    }\r\n\r\n    function ObtenerInfoDrones() public view returns (Dron [] memory) {\r\n        return DRONES;\r\n    }\r\n\r\n    function ComprobarAltitud(uint256 ID, int256 MIN, int256 MAX) public view returns (bool result)\r\n    {\r\n        int256 DMAX = _Drones[ID]._Altitud_MAX;\r\n        int256 DMIN = _Drones[ID]._Altitud_MIN;\r\n\r\n        if ((MAX < DMIN) || (MIN > DMAX) || (MIN > MAX)) {\r\n            return false;\r\n        } else {\r\n            if ((MAX >= DMIN && MAX <= DMAX) || (MIN <= DMAX && MIN >= DMIN)) {\r\n                return true;\r\n            } else {\r\n                if ((MAX >= DMAX && MIN <= DMIN) || (MAX <= DMAX && MIN >= DMIN)) {\r\n                    return true;\r\n                }\r\n            }\r\n        }\r\n    }\r\n\r\n    function ComprobarPesticida(uint256 ID, TiposContract._Pesticidas PESTICIDA) public view returns (bool)\r\n    {\r\n        int key = BuscarPesticida(ID, PESTICIDA);\r\n        if (key >= 0) {\r\n            return true;\r\n        } else {\r\n            return false;\r\n        }\r\n    }\r\n}",
  "sourcePath": "/Users/trabajo/Documents/apps/front_blockchain_tfe/contracts/Dron.sol",
  "compiler": {
    "name": "solc",
    "version": "0.8.12+commit.f00d7308.Emscripten.clang"
  },
  "schemaVersion": "3.4.6",
  "updatedAt": "2022-03-25T16:40:11.378Z",
  "networkType": "ethereum",
  "devdoc": {
    "kind": "dev",
    "methods": {
      "approve(address,uint256)": {
        "details": "See {IERC721-approve}."
      },
      "balanceOf(address)": {
        "details": "See {IERC721-balanceOf}."
      },
      "getApproved(uint256)": {
        "details": "See {IERC721-getApproved}."
      },
      "isApprovedForAll(address,address)": {
        "details": "See {IERC721-isApprovedForAll}."
      },
      "name()": {
        "details": "See {IERC721Metadata-name}."
      },
      "ownerOf(uint256)": {
        "details": "See {IERC721-ownerOf}."
      },
      "safeTransferFrom(address,address,uint256)": {
        "details": "See {IERC721-safeTransferFrom}."
      },
      "safeTransferFrom(address,address,uint256,bytes)": {
        "details": "See {IERC721-safeTransferFrom}."
      },
      "setApprovalForAll(address,bool)": {
        "details": "See {IERC721-setApprovalForAll}."
      },
      "supportsInterface(bytes4)": {
        "details": "See {IERC165-supportsInterface}."
      },
      "symbol()": {
        "details": "See {IERC721Metadata-symbol}."
      },
      "tokenURI(uint256)": {
        "details": "See {IERC721Metadata-tokenURI}."
      },
      "transferFrom(address,address,uint256)": {
        "details": "See {IERC721-transferFrom}."
      }
    },
    "version": 1
  },
  "userdoc": {
    "kind": "user",
    "methods": {},
    "version": 1
  }
}