{
  "contractName": "DronContract",
  "abi": [
    {
      "inputs": [],
      "stateMutability": "nonpayable",
      "type": "constructor"
    },
    {
      "anonymous": false,
      "inputs": [
        {
          "indexed": true,
          "internalType": "address",
          "name": "owner",
          "type": "address"
        },
        {
          "indexed": true,
          "internalType": "address",
          "name": "approved",
          "type": "address"
        },
        {
          "indexed": true,
          "internalType": "uint256",
          "name": "tokenId",
          "type": "uint256"
        }
      ],
      "name": "Approval",
      "type": "event"
    },
    {
      "anonymous": false,
      "inputs": [
        {
          "indexed": true,
          "internalType": "address",
          "name": "owner",
          "type": "address"
        },
        {
          "indexed": true,
          "internalType": "address",
          "name": "operator",
          "type": "address"
        },
        {
          "indexed": false,
          "internalType": "bool",
          "name": "approved",
          "type": "bool"
        }
      ],
      "name": "ApprovalForAll",
      "type": "event"
    },
    {
      "anonymous": false,
      "inputs": [
        {
          "indexed": true,
          "internalType": "address",
          "name": "from",
          "type": "address"
        },
        {
          "indexed": true,
          "internalType": "address",
          "name": "to",
          "type": "address"
        },
        {
          "indexed": true,
          "internalType": "uint256",
          "name": "tokenId",
          "type": "uint256"
        }
      ],
      "name": "Transfer",
      "type": "event"
    },
    {
      "inputs": [
        {
          "internalType": "address",
          "name": "to",
          "type": "address"
        },
        {
          "internalType": "uint256",
          "name": "tokenId",
          "type": "uint256"
        }
      ],
      "name": "approve",
      "outputs": [],
      "stateMutability": "nonpayable",
      "type": "function"
    },
    {
      "inputs": [
        {
          "internalType": "address",
          "name": "owner",
          "type": "address"
        }
      ],
      "name": "balanceOf",
      "outputs": [
        {
          "internalType": "uint256",
          "name": "",
          "type": "uint256"
        }
      ],
      "stateMutability": "view",
      "type": "function",
      "constant": true
    },
    {
      "inputs": [
        {
          "internalType": "uint256",
          "name": "tokenId",
          "type": "uint256"
        }
      ],
      "name": "getApproved",
      "outputs": [
        {
          "internalType": "address",
          "name": "",
          "type": "address"
        }
      ],
      "stateMutability": "view",
      "type": "function",
      "constant": true
    },
    {
      "inputs": [
        {
          "internalType": "address",
          "name": "owner",
          "type": "address"
        },
        {
          "internalType": "address",
          "name": "operator",
          "type": "address"
        }
      ],
      "name": "isApprovedForAll",
      "outputs": [
        {
          "internalType": "bool",
          "name": "",
          "type": "bool"
        }
      ],
      "stateMutability": "view",
      "type": "function",
      "constant": true
    },
    {
      "inputs": [],
      "name": "name",
      "outputs": [
        {
          "internalType": "string",
          "name": "",
          "type": "string"
        }
      ],
      "stateMutability": "view",
      "type": "function",
      "constant": true
    },
    {
      "inputs": [
        {
          "internalType": "uint256",
          "name": "tokenId",
          "type": "uint256"
        }
      ],
      "name": "ownerOf",
      "outputs": [
        {
          "internalType": "address",
          "name": "",
          "type": "address"
        }
      ],
      "stateMutability": "view",
      "type": "function",
      "constant": true
    },
    {
      "inputs": [
        {
          "internalType": "address",
          "name": "from",
          "type": "address"
        },
        {
          "internalType": "address",
          "name": "to",
          "type": "address"
        },
        {
          "internalType": "uint256",
          "name": "tokenId",
          "type": "uint256"
        }
      ],
      "name": "safeTransferFrom",
      "outputs": [],
      "stateMutability": "nonpayable",
      "type": "function"
    },
    {
      "inputs": [
        {
          "internalType": "address",
          "name": "from",
          "type": "address"
        },
        {
          "internalType": "address",
          "name": "to",
          "type": "address"
        },
        {
          "internalType": "uint256",
          "name": "tokenId",
          "type": "uint256"
        },
        {
          "internalType": "bytes",
          "name": "_data",
          "type": "bytes"
        }
      ],
      "name": "safeTransferFrom",
      "outputs": [],
      "stateMutability": "nonpayable",
      "type": "function"
    },
    {
      "inputs": [
        {
          "internalType": "address",
          "name": "operator",
          "type": "address"
        },
        {
          "internalType": "bool",
          "name": "approved",
          "type": "bool"
        }
      ],
      "name": "setApprovalForAll",
      "outputs": [],
      "stateMutability": "nonpayable",
      "type": "function"
    },
    {
      "inputs": [
        {
          "internalType": "bytes4",
          "name": "interfaceId",
          "type": "bytes4"
        }
      ],
      "name": "supportsInterface",
      "outputs": [
        {
          "internalType": "bool",
          "name": "",
          "type": "bool"
        }
      ],
      "stateMutability": "view",
      "type": "function",
      "constant": true
    },
    {
      "inputs": [],
      "name": "symbol",
      "outputs": [
        {
          "internalType": "string",
          "name": "",
          "type": "string"
        }
      ],
      "stateMutability": "view",
      "type": "function",
      "constant": true
    },
    {
      "inputs": [
        {
          "internalType": "uint256",
          "name": "tokenId",
          "type": "uint256"
        }
      ],
      "name": "tokenURI",
      "outputs": [
        {
          "internalType": "string",
          "name": "",
          "type": "string"
        }
      ],
      "stateMutability": "view",
      "type": "function",
      "constant": true
    },
    {
      "inputs": [
        {
          "internalType": "address",
          "name": "from",
          "type": "address"
        },
        {
          "internalType": "address",
          "name": "to",
          "type": "address"
        },
        {
          "internalType": "uint256",
          "name": "tokenId",
          "type": "uint256"
        }
      ],
      "name": "transferFrom",
      "outputs": [],
      "stateMutability": "nonpayable",
      "type": "function"
    },
    {
      "inputs": [
        {
          "internalType": "address",
          "name": "EMPRESA",
          "type": "address"
        },
        {
          "internalType": "int256",
          "name": "MIN",
          "type": "int256"
        },
        {
          "internalType": "int256",
          "name": "MAX",
          "type": "int256"
        },
        {
          "internalType": "uint256",
          "name": "COSTE",
          "type": "uint256"
        },
        {
          "internalType": "enum DronContract._Pesticidas[]",
          "name": "PESTICIDA",
          "type": "uint8[]"
        }
      ],
      "name": "CrearDron",
      "outputs": [
        {
          "internalType": "uint256",
          "name": "",
          "type": "uint256"
        }
      ],
      "stateMutability": "nonpayable",
      "type": "function"
    },
    {
      "inputs": [
        {
          "internalType": "uint256",
          "name": "ID",
          "type": "uint256"
        },
        {
          "internalType": "address",
          "name": "EMPRESA",
          "type": "address"
        }
      ],
      "name": "ConfigurarEmpresa",
      "outputs": [
        {
          "internalType": "bool",
          "name": "",
          "type": "bool"
        }
      ],
      "stateMutability": "nonpayable",
      "type": "function"
    },
    {
      "inputs": [
        {
          "internalType": "uint256",
          "name": "ID",
          "type": "uint256"
        },
        {
          "internalType": "int256",
          "name": "MIN",
          "type": "int256"
        },
        {
          "internalType": "int256",
          "name": "MAX",
          "type": "int256"
        }
      ],
      "name": "ConfigurarAltitud",
      "outputs": [
        {
          "internalType": "int256",
          "name": "",
          "type": "int256"
        },
        {
          "internalType": "int256",
          "name": "",
          "type": "int256"
        }
      ],
      "stateMutability": "nonpayable",
      "type": "function"
    },
    {
      "inputs": [
        {
          "internalType": "uint256",
          "name": "ID",
          "type": "uint256"
        },
        {
          "internalType": "uint256",
          "name": "COSTE",
          "type": "uint256"
        }
      ],
      "name": "ConfigurarCoste",
      "outputs": [
        {
          "internalType": "bool",
          "name": "",
          "type": "bool"
        }
      ],
      "stateMutability": "nonpayable",
      "type": "function"
    },
    {
      "inputs": [
        {
          "internalType": "uint256",
          "name": "ID",
          "type": "uint256"
        },
        {
          "internalType": "enum DronContract._Pesticidas",
          "name": "PESTICIDA",
          "type": "uint8"
        }
      ],
      "name": "BuscarPesticida",
      "outputs": [
        {
          "internalType": "int256",
          "name": "",
          "type": "int256"
        }
      ],
      "stateMutability": "view",
      "type": "function",
      "constant": true
    },
    {
      "inputs": [
        {
          "internalType": "uint256",
          "name": "ID",
          "type": "uint256"
        },
        {
          "internalType": "enum DronContract._Pesticidas",
          "name": "PESTICIDA",
          "type": "uint8"
        }
      ],
      "name": "AltaPesticida",
      "outputs": [
        {
          "internalType": "bool",
          "name": "",
          "type": "bool"
        }
      ],
      "stateMutability": "nonpayable",
      "type": "function"
    },
    {
      "inputs": [
        {
          "internalType": "uint256",
          "name": "ID",
          "type": "uint256"
        },
        {
          "internalType": "enum DronContract._Pesticidas",
          "name": "PESTICIDA",
          "type": "uint8"
        }
      ],
      "name": "BajaPesticida",
      "outputs": [
        {
          "internalType": "int256",
          "name": "",
          "type": "int256"
        }
      ],
      "stateMutability": "nonpayable",
      "type": "function"
    },
    {
      "inputs": [
        {
          "internalType": "uint256",
          "name": "ID",
          "type": "uint256"
        }
      ],
      "name": "ObtenerInfoDron",
      "outputs": [
        {
          "components": [
            {
              "internalType": "uint256",
              "name": "_ID",
              "type": "uint256"
            },
            {
              "internalType": "address",
              "name": "_Empresa",
              "type": "address"
            },
            {
              "internalType": "int256",
              "name": "_Altitud_MIN",
              "type": "int256"
            },
            {
              "internalType": "int256",
              "name": "_Altitud_MAX",
              "type": "int256"
            },
            {
              "internalType": "uint256",
              "name": "_Coste",
              "type": "uint256"
            },
            {
              "internalType": "enum DronContract._Pesticidas[]",
              "name": "_Pesticidas",
              "type": "uint8[]"
            }
          ],
          "internalType": "struct DronContract.Dron",
          "name": "",
          "type": "tuple"
        }
      ],
      "stateMutability": "view",
      "type": "function",
      "constant": true
    },
    {
      "inputs": [
        {
          "internalType": "uint256",
          "name": "ID",
          "type": "uint256"
        },
        {
          "internalType": "int256",
          "name": "MIN",
          "type": "int256"
        },
        {
          "internalType": "int256",
          "name": "MAX",
          "type": "int256"
        }
      ],
      "name": "ComprobarAltitud",
      "outputs": [
        {
          "internalType": "bool",
          "name": "",
          "type": "bool"
        }
      ],
      "stateMutability": "view",
      "type": "function",
      "constant": true
    },
    {
      "inputs": [
        {
          "internalType": "uint256",
          "name": "ID",
          "type": "uint256"
        },
        {
          "internalType": "enum DronContract._Pesticidas",
          "name": "PESTICIDA",
          "type": "uint8"
        }
      ],
      "name": "ComprobarPesticida",
      "outputs": [
        {
          "internalType": "bool",
          "name": "",
          "type": "bool"
        }
      ],
      "stateMutability": "view",
      "type": "function",
      "constant": true
    }
  ],
  "bytecode": "0x60806040523480156200001157600080fd5b506040518060400160405280600681526020017f4d7944726f6e00000000000000000000000000000000000000000000000000008152506040518060400160405280600581526020017f4d44726f6e000000000000000000000000000000000000000000000000000000815250816000908051906020019062000096929190620005fa565b508060019080519060200190620000af929190620005fa565b505050620000c96006620000fd60201b620017041760201c565b6000620000e260066200011360201b6200171a1760201c565b9050620000f633826200012160201b60201c565b5062000b14565b6001816000016000828254019250508190555050565b600081600001549050919050565b620001438282604051806020016040528060008152506200014760201b60201c565b5050565b620001598383620001b560201b60201c565b6200016e6000848484620003af60201b60201c565b620001b0576040517f08c379a0000000000000000000000000000000000000000000000000000000008152600401620001a79062000731565b60405180910390fd5b505050565b600073ffffffffffffffffffffffffffffffffffffffff168273ffffffffffffffffffffffffffffffffffffffff16141562000228576040517f08c379a00000000000000000000000000000000000000000000000000000000081526004016200021f90620007a3565b60405180910390fd5b62000239816200055960201b60201c565b156200027c576040517f08c379a0000000000000000000000000000000000000000000000000000000008152600401620002739062000815565b60405180910390fd5b6200029060008383620005c560201b60201c565b6001600360008473ffffffffffffffffffffffffffffffffffffffff1673ffffffffffffffffffffffffffffffffffffffff1681526020019081526020016000206000828254620002e2919062000870565b92505081905550816002600083815260200190815260200160002060006101000a81548173ffffffffffffffffffffffffffffffffffffffff021916908373ffffffffffffffffffffffffffffffffffffffff160217905550808273ffffffffffffffffffffffffffffffffffffffff16600073ffffffffffffffffffffffffffffffffffffffff167fddf252ad1be2c89b69c2b068fc378daa952ba7f163c4a11628f55a4df523b3ef60405160405180910390a4620003ab60008383620005ca60201b60201c565b5050565b6000620003dd8473ffffffffffffffffffffffffffffffffffffffff16620005cf60201b620017281760201c565b156200054c578373ffffffffffffffffffffffffffffffffffffffff1663150b7a026200040f620005f260201b60201c565b8786866040518563ffffffff1660e01b8152600401620004339493929190620009c7565b6020604051808303816000875af19250505080156200047257506040513d601f19601f820116820180604052508101906200046f919062000a7d565b60015b620004fb573d8060008114620004a5576040519150601f19603f3d011682016040523d82523d6000602084013e620004aa565b606091505b50600081511415620004f3576040517f08c379a0000000000000000000000000000000000000000000000000000000008152600401620004ea9062000731565b60405180910390fd5b805181602001fd5b63150b7a0260e01b7bffffffffffffffffffffffffffffffffffffffffffffffffffffffff1916817bffffffffffffffffffffffffffffffffffffffffffffffffffffffff19161491505062000551565b600190505b949350505050565b60008073ffffffffffffffffffffffffffffffffffffffff166002600084815260200190815260200160002060009054906101000a900473ffffffffffffffffffffffffffffffffffffffff1673ffffffffffffffffffffffffffffffffffffffff1614159050919050565b505050565b505050565b6000808273ffffffffffffffffffffffffffffffffffffffff163b119050919050565b600033905090565b828054620006089062000ade565b90600052602060002090601f0160209004810192826200062c576000855562000678565b82601f106200064757805160ff191683800117855562000678565b8280016001018555821562000678579182015b82811115620006775782518255916020019190600101906200065a565b5b5090506200068791906200068b565b5090565b5b80821115620006a65760008160009055506001016200068c565b5090565b600082825260208201905092915050565b7f4552433732313a207472616e7366657220746f206e6f6e20455243373231526560008201527f63656976657220696d706c656d656e7465720000000000000000000000000000602082015250565b600062000719603283620006aa565b91506200072682620006bb565b604082019050919050565b600060208201905081810360008301526200074c816200070a565b9050919050565b7f4552433732313a206d696e7420746f20746865207a65726f2061646472657373600082015250565b60006200078b602083620006aa565b9150620007988262000753565b602082019050919050565b60006020820190508181036000830152620007be816200077c565b9050919050565b7f4552433732313a20746f6b656e20616c7265616479206d696e74656400000000600082015250565b6000620007fd601c83620006aa565b91506200080a82620007c5565b602082019050919050565b600060208201905081810360008301526200083081620007ee565b9050919050565b6000819050919050565b7f4e487b7100000000000000000000000000000000000000000000000000000000600052601160045260246000fd5b60006200087d8262000837565b91506200088a8362000837565b9250827fffffffffffffffffffffffffffffffffffffffffffffffffffffffffffffffff03821115620008c257620008c162000841565b5b828201905092915050565b600073ffffffffffffffffffffffffffffffffffffffff82169050919050565b6000620008fa82620008cd565b9050919050565b6200090c81620008ed565b82525050565b6200091d8162000837565b82525050565b600081519050919050565b600082825260208201905092915050565b60005b838110156200095f57808201518184015260208101905062000942565b838111156200096f576000848401525b50505050565b6000601f19601f8301169050919050565b6000620009938262000923565b6200099f81856200092e565b9350620009b18185602086016200093f565b620009bc8162000975565b840191505092915050565b6000608082019050620009de600083018762000901565b620009ed602083018662000901565b620009fc604083018562000912565b818103606083015262000a10818462000986565b905095945050505050565b600080fd5b60007fffffffff0000000000000000000000000000000000000000000000000000000082169050919050565b62000a578162000a20565b811462000a6357600080fd5b50565b60008151905062000a778162000a4c565b92915050565b60006020828403121562000a965762000a9562000a1b565b5b600062000aa68482850162000a66565b91505092915050565b7f4e487b7100000000000000000000000000000000000000000000000000000000600052602260045260246000fd5b6000600282049050600182168062000af757607f821691505b6020821081141562000b0e5762000b0d62000aaf565b5b50919050565b613d5d8062000b246000396000f3fe608060405234801561001057600080fd5b506004361061014d5760003560e01c80636678fd0b116100c3578063b88d4fde1161007c578063b88d4fde1461040f578063bfef82821461042b578063c87b56dd1461045b578063e985e9c51461048b578063ed63a95d146104bb578063f4c54c24146104eb5761014d565b80636678fd0b1461031457806370a082311461034557806395d89b4114610375578063a22cb46514610393578063af3f9e03146103af578063b45d6c12146103df5761014d565b806323b872dd1161011557806323b872dd1461021c57806332e3e8071461023857806338a18c491461026857806342842e0e14610298578063432feece146102b45780636352211e146102e45761014d565b806301ffc9a71461015257806306fdde0314610182578063081812fc146101a0578063095ea7b3146101d057806320804314146101ec575b600080fd5b61016c6004803603810190610167919061261f565b61051b565b6040516101799190612667565b60405180910390f35b61018a6105fd565b604051610197919061271b565b60405180910390f35b6101ba60048036038101906101b59190612773565b61068f565b6040516101c791906127e1565b60405180910390f35b6101ea60048036038101906101e59190612828565b610714565b005b6102066004803603810190610201919061288d565b61082c565b60405161021391906128e6565b60405180910390f35b61023660048036038101906102319190612901565b610910565b005b610252600480360381019061024d9190612954565b610970565b60405161025f9190612667565b60405180910390f35b610282600480360381019061027d91906129c0565b610a13565b60405161028f9190612667565b60405180910390f35b6102b260048036038101906102ad9190612901565b610b8c565b005b6102ce60048036038101906102c99190612a78565b610bac565b6040516102db9190612b21565b60405180910390f35b6102fe60048036038101906102f99190612773565b610d0a565b60405161030b91906127e1565b60405180910390f35b61032e600480360381019061032991906129c0565b610dbc565b60405161033c929190612b3c565b60405180910390f35b61035f600480360381019061035a9190612b65565b610f63565b60405161036c9190612b21565b60405180910390f35b61037d61101b565b60405161038a919061271b565b60405180910390f35b6103ad60048036038101906103a89190612bbe565b6110ad565b005b6103c960048036038101906103c49190612bfe565b6110c3565b6040516103d69190612667565b60405180910390f35b6103f960048036038101906103f49190612773565b6111db565b6040516104069190612e1a565b60405180910390f35b61042960048036038101906104249190612f6c565b611313565b005b6104456004803603810190610440919061288d565b611375565b60405161045291906128e6565b60405180910390f35b61047560048036038101906104709190612773565b611458565b604051610482919061271b565b60405180910390f35b6104a560048036038101906104a09190612fef565b6114ff565b6040516104b29190612667565b60405180910390f35b6104d560048036038101906104d0919061288d565b611593565b6040516104e29190612667565b60405180910390f35b6105056004803603810190610500919061288d565b6116d7565b6040516105129190612667565b60405180910390f35b60007f80ac58cd000000000000000000000000000000000000000000000000000000007bffffffffffffffffffffffffffffffffffffffffffffffffffffffff1916827bffffffffffffffffffffffffffffffffffffffffffffffffffffffff191614806105e657507f5b5e139f000000000000000000000000000000000000000000000000000000007bffffffffffffffffffffffffffffffffffffffffffffffffffffffff1916827bffffffffffffffffffffffffffffffffffffffffffffffffffffffff1916145b806105f657506105f58261174b565b5b9050919050565b60606000805461060c9061305e565b80601f01602080910402602001604051908101604052809291908181526020018280546106389061305e565b80156106855780601f1061065a57610100808354040283529160200191610685565b820191906000526020600020905b81548152906001019060200180831161066857829003601f168201915b5050505050905090565b600061069a826117b5565b6106d9576040517f08c379a00000000000000000000000000000000000000000000000000000000081526004016106d090613102565b60405180910390fd5b6004600083815260200190815260200160002060009054906101000a900473ffffffffffffffffffffffffffffffffffffffff169050919050565b600061071f82610d0a565b90508073ffffffffffffffffffffffffffffffffffffffff168373ffffffffffffffffffffffffffffffffffffffff161415610790576040517f08c379a000000000000000000000000000000000000000000000000000000000815260040161078790613194565b60405180910390fd5b8073ffffffffffffffffffffffffffffffffffffffff166107af611821565b73ffffffffffffffffffffffffffffffffffffffff1614806107de57506107dd816107d8611821565b6114ff565b5b61081d576040517f08c379a000000000000000000000000000000000000000000000000000000000815260040161081490613226565b60405180910390fd5b6108278383611829565b505050565b6000826007600082815260200190815260200160002060010160009054906101000a900473ffffffffffffffffffffffffffffffffffffffff1673ffffffffffffffffffffffffffffffffffffffff163373ffffffffffffffffffffffffffffffffffffffff1614806108d257506108a381610d0a565b73ffffffffffffffffffffffffffffffffffffffff163373ffffffffffffffffffffffffffffffffffffffff16145b6108db57600080fd5b60006108e78585611375565b905060008112610904576108fb85826118e2565b80925050610909565b809250505b5092915050565b61092161091b611821565b82611a29565b610960576040517f08c379a0000000000000000000000000000000000000000000000000000000008152600401610957906132b8565b60405180910390fd5b61096b838383611b07565b505050565b60008261097c81610d0a565b73ffffffffffffffffffffffffffffffffffffffff163373ffffffffffffffffffffffffffffffffffffffff16146109b357600080fd5b826007600086815260200190815260200160002060010160006101000a81548173ffffffffffffffffffffffffffffffffffffffff021916908373ffffffffffffffffffffffffffffffffffffffff160217905550600191505092915050565b60006007600085815260200190815260200160002060020154821280610a4e5750600760008581526020019081526020016000206003015483135b80610a5857508183135b15610a665760009050610b85565b60076000858152602001908152602001600020600201548212158015610aa2575060076000858152602001908152602001600020600301548213155b80610ae5575060076000858152602001908152602001600020600301548313158015610ae4575060076000858152602001908152602001600020600201548312155b5b15610af35760019050610b85565b60076000858152602001908152602001600020600301548212158015610b2f575060076000858152602001908152602001600020600201548313155b80610b72575060076000858152602001908152602001600020600301548213158015610b71575060076000858152602001908152602001600020600201548312155b5b15610b805760019050610b85565b600090505b9392505050565b610ba783838360405180602001604052806000815250611313565b505050565b6000610bb86006611704565b6000610bc4600661171a565b9050610bd03382611d6e565b60006040518060c001604052808381526020018a73ffffffffffffffffffffffffffffffffffffffff168152602001898152602001888152602001878152602001868680806020026020016040519081016040528093929190818152602001838360200280828437600081840152601f19601f82011690508083019250505050505050815250905080600760008481526020019081526020016000206000820151816000015560208201518160010160006101000a81548173ffffffffffffffffffffffffffffffffffffffff021916908373ffffffffffffffffffffffffffffffffffffffff16021790555060408201518160020155606082015181600301556080820151816004015560a0820151816005019080519060200190610cf7929190612494565b5090505081925050509695505050505050565b6000806002600084815260200190815260200160002060009054906101000a900473ffffffffffffffffffffffffffffffffffffffff169050600073ffffffffffffffffffffffffffffffffffffffff168173ffffffffffffffffffffffffffffffffffffffff161415610db3576040517f08c379a0000000000000000000000000000000000000000000000000000000008152600401610daa9061334a565b60405180910390fd5b80915050919050565b600080846007600082815260200190815260200160002060010160009054906101000a900473ffffffffffffffffffffffffffffffffffffffff1673ffffffffffffffffffffffffffffffffffffffff163373ffffffffffffffffffffffffffffffffffffffff161480610e635750610e3481610d0a565b73ffffffffffffffffffffffffffffffffffffffff163373ffffffffffffffffffffffffffffffffffffffff16145b610e6c57600080fd5b60008513610eaf576040517f08c379a0000000000000000000000000000000000000000000000000000000008152600401610ea6906133dc565b60405180910390fd5b84841215610ef2576040517f08c379a0000000000000000000000000000000000000000000000000000000008152600401610ee99061346e565b60405180910390fd5b846007600088815260200190815260200160002060020181905550836007600088815260200190815260200160002060030181905550600760008781526020019081526020016000206002015460076000888152602001908152602001600020600301549250925050935093915050565b60008073ffffffffffffffffffffffffffffffffffffffff168273ffffffffffffffffffffffffffffffffffffffff161415610fd4576040517f08c379a0000000000000000000000000000000000000000000000000000000008152600401610fcb90613500565b60405180910390fd5b600360008373ffffffffffffffffffffffffffffffffffffffff1673ffffffffffffffffffffffffffffffffffffffff168152602001908152602001600020549050919050565b60606001805461102a9061305e565b80601f01602080910402602001604051908101604052809291908181526020018280546110569061305e565b80156110a35780601f10611078576101008083540402835291602001916110a3565b820191906000526020600020905b81548152906001019060200180831161108657829003601f168201915b5050505050905090565b6110bf6110b8611821565b8383611d8c565b5050565b6000826007600082815260200190815260200160002060010160009054906101000a900473ffffffffffffffffffffffffffffffffffffffff1673ffffffffffffffffffffffffffffffffffffffff163373ffffffffffffffffffffffffffffffffffffffff161480611169575061113a81610d0a565b73ffffffffffffffffffffffffffffffffffffffff163373ffffffffffffffffffffffffffffffffffffffff16145b61117257600080fd5b600083116111b5576040517f08c379a00000000000000000000000000000000000000000000000000000000081526004016111ac9061356c565b60405180910390fd5b826007600086815260200190815260200160002060040181905550600191505092915050565b6111e361254a565b600760008381526020019081526020016000206040518060c0016040529081600082015481526020016001820160009054906101000a900473ffffffffffffffffffffffffffffffffffffffff1673ffffffffffffffffffffffffffffffffffffffff1673ffffffffffffffffffffffffffffffffffffffff1681526020016002820154815260200160038201548152602001600482015481526020016005820180548060200260200160405190810160405280929190818152602001828054801561130357602002820191906000526020600020906000905b82829054906101000a900460ff1660048111156112dd576112dc612c97565b5b815260200190600101906020826000010492830192600103820291508084116112bd5790505b5050505050815250509050919050565b61132461131e611821565b83611a29565b611363576040517f08c379a000000000000000000000000000000000000000000000000000000000815260040161135a906132b8565b60405180910390fd5b61136f84848484611ef9565b50505050565b600080600090505b600760008581526020019081526020016000206005018054905081121561142d578260048111156113b1576113b0612c97565b5b6007600086815260200190815260200160002060050182815481106113d9576113d861358c565b5b90600052602060002090602091828204019190069054906101000a900460ff16600481111561140b5761140a612c97565b5b141561141a5780915050611452565b8080611425906135ea565b91505061137d565b507fffffffffffffffffffffffffffffffffffffffffffffffffffffffffffffffff90505b92915050565b6060611463826117b5565b6114a2576040517f08c379a0000000000000000000000000000000000000000000000000000000008152600401611499906136a5565b60405180910390fd5b60006114ac611f55565b905060008151116114cc57604051806020016040528060008152506114f7565b806114d684611f6c565b6040516020016114e7929190613701565b6040516020818303038152906040525b915050919050565b6000600560008473ffffffffffffffffffffffffffffffffffffffff1673ffffffffffffffffffffffffffffffffffffffff16815260200190815260200160002060008373ffffffffffffffffffffffffffffffffffffffff1673ffffffffffffffffffffffffffffffffffffffff16815260200190815260200160002060009054906101000a900460ff16905092915050565b6000826007600082815260200190815260200160002060010160009054906101000a900473ffffffffffffffffffffffffffffffffffffffff1673ffffffffffffffffffffffffffffffffffffffff163373ffffffffffffffffffffffffffffffffffffffff161480611639575061160a81610d0a565b73ffffffffffffffffffffffffffffffffffffffff163373ffffffffffffffffffffffffffffffffffffffff16145b61164257600080fd5b600061164e8585611375565b9050600081126116625760019250506116d0565b600760008681526020019081526020016000206005018490806001815401808255809150506001900390600052602060002090602091828204019190069091909190916101000a81548160ff021916908360048111156116c5576116c4612c97565b5b021790555060019250505b5092915050565b6000806116e48484611375565b9050600081126116f85760019150506116fe565b60009150505b92915050565b6001816000016000828254019250508190555050565b600081600001549050919050565b6000808273ffffffffffffffffffffffffffffffffffffffff163b119050919050565b60007f01ffc9a7000000000000000000000000000000000000000000000000000000007bffffffffffffffffffffffffffffffffffffffffffffffffffffffff1916827bffffffffffffffffffffffffffffffffffffffffffffffffffffffff1916149050919050565b60008073ffffffffffffffffffffffffffffffffffffffff166002600084815260200190815260200160002060009054906101000a900473ffffffffffffffffffffffffffffffffffffffff1673ffffffffffffffffffffffffffffffffffffffff1614159050919050565b600033905090565b816004600083815260200190815260200160002060006101000a81548173ffffffffffffffffffffffffffffffffffffffff021916908373ffffffffffffffffffffffffffffffffffffffff160217905550808273ffffffffffffffffffffffffffffffffffffffff1661189c83610d0a565b73ffffffffffffffffffffffffffffffffffffffff167f8c5be1e5ebec7d5bd14f71427d1e84f3dd0314c0f7b2291e5b200ac8c7c3b92560405160405180910390a45050565b6007600083815260200190815260200160002060050180549050811061190757600080fd5b60076000838152602001908152602001600020600501600160076000858152602001908152602001600020600501805490506119439190613725565b815481106119545761195361358c565b5b90600052602060002090602091828204019190069054906101000a900460ff1660076000848152602001908152602001600020600501828154811061199c5761199b61358c565b5b90600052602060002090602091828204019190066101000a81548160ff021916908360048111156119d0576119cf612c97565b5b0217905550600760008381526020019081526020016000206005018054806119fb576119fa613759565b5b60019003818190600052602060002090602091828204019190066101000a81549060ff021916905590555050565b6000611a34826117b5565b611a73576040517f08c379a0000000000000000000000000000000000000000000000000000000008152600401611a6a906137fa565b60405180910390fd5b6000611a7e83610d0a565b90508073ffffffffffffffffffffffffffffffffffffffff168473ffffffffffffffffffffffffffffffffffffffff161480611aed57508373ffffffffffffffffffffffffffffffffffffffff16611ad58461068f565b73ffffffffffffffffffffffffffffffffffffffff16145b80611afe5750611afd81856114ff565b5b91505092915050565b8273ffffffffffffffffffffffffffffffffffffffff16611b2782610d0a565b73ffffffffffffffffffffffffffffffffffffffff1614611b7d576040517f08c379a0000000000000000000000000000000000000000000000000000000008152600401611b749061388c565b60405180910390fd5b600073ffffffffffffffffffffffffffffffffffffffff168273ffffffffffffffffffffffffffffffffffffffff161415611bed576040517f08c379a0000000000000000000000000000000000000000000000000000000008152600401611be49061391e565b60405180910390fd5b611bf88383836120cd565b611c03600082611829565b6001600360008573ffffffffffffffffffffffffffffffffffffffff1673ffffffffffffffffffffffffffffffffffffffff1681526020019081526020016000206000828254611c539190613725565b925050819055506001600360008473ffffffffffffffffffffffffffffffffffffffff1673ffffffffffffffffffffffffffffffffffffffff1681526020019081526020016000206000828254611caa919061393e565b92505081905550816002600083815260200190815260200160002060006101000a81548173ffffffffffffffffffffffffffffffffffffffff021916908373ffffffffffffffffffffffffffffffffffffffff160217905550808273ffffffffffffffffffffffffffffffffffffffff168473ffffffffffffffffffffffffffffffffffffffff167fddf252ad1be2c89b69c2b068fc378daa952ba7f163c4a11628f55a4df523b3ef60405160405180910390a4611d698383836120d2565b505050565b611d888282604051806020016040528060008152506120d7565b5050565b8173ffffffffffffffffffffffffffffffffffffffff168373ffffffffffffffffffffffffffffffffffffffff161415611dfb576040517f08c379a0000000000000000000000000000000000000000000000000000000008152600401611df2906139e0565b60405180910390fd5b80600560008573ffffffffffffffffffffffffffffffffffffffff1673ffffffffffffffffffffffffffffffffffffffff16815260200190815260200160002060008473ffffffffffffffffffffffffffffffffffffffff1673ffffffffffffffffffffffffffffffffffffffff16815260200190815260200160002060006101000a81548160ff0219169083151502179055508173ffffffffffffffffffffffffffffffffffffffff168373ffffffffffffffffffffffffffffffffffffffff167f17307eab39ab6107e8899845ad3d59bd9653f200f220920489ca2b5937696c3183604051611eec9190612667565b60405180910390a3505050565b611f04848484611b07565b611f1084848484612132565b611f4f576040517f08c379a0000000000000000000000000000000000000000000000000000000008152600401611f4690613a72565b60405180910390fd5b50505050565b606060405180602001604052806000815250905090565b60606000821415611fb4576040518060400160405280600181526020017f300000000000000000000000000000000000000000000000000000000000000081525090506120c8565b600082905060005b60008214611fe6578080611fcf90613a92565b915050600a82611fdf9190613b0a565b9150611fbc565b60008167ffffffffffffffff81111561200257612001612e41565b5b6040519080825280601f01601f1916602001820160405280156120345781602001600182028036833780820191505090505b5090505b600085146120c15760018261204d9190613725565b9150600a8561205c9190613b3b565b6030612068919061393e565b60f81b81838151811061207e5761207d61358c565b5b60200101907effffffffffffffffffffffffffffffffffffffffffffffffffffffffffffff1916908160001a905350600a856120ba9190613b0a565b9450612038565b8093505050505b919050565b505050565b505050565b6120e183836122ba565b6120ee6000848484612132565b61212d576040517f08c379a000000000000000000000000000000000000000000000000000000000815260040161212490613a72565b60405180910390fd5b505050565b60006121538473ffffffffffffffffffffffffffffffffffffffff16611728565b156122ad578373ffffffffffffffffffffffffffffffffffffffff1663150b7a0261217c611821565b8786866040518563ffffffff1660e01b815260040161219e9493929190613bc1565b6020604051808303816000875af19250505080156121da57506040513d601f19601f820116820180604052508101906121d79190613c22565b60015b61225d573d806000811461220a576040519150601f19603f3d011682016040523d82523d6000602084013e61220f565b606091505b50600081511415612255576040517f08c379a000000000000000000000000000000000000000000000000000000000815260040161224c90613a72565b60405180910390fd5b805181602001fd5b63150b7a0260e01b7bffffffffffffffffffffffffffffffffffffffffffffffffffffffff1916817bffffffffffffffffffffffffffffffffffffffffffffffffffffffff1916149150506122b2565b600190505b949350505050565b600073ffffffffffffffffffffffffffffffffffffffff168273ffffffffffffffffffffffffffffffffffffffff16141561232a576040517f08c379a000000000000000000000000000000000000000000000000000000000815260040161232190613c9b565b60405180910390fd5b612333816117b5565b15612373576040517f08c379a000000000000000000000000000000000000000000000000000000000815260040161236a90613d07565b60405180910390fd5b61237f600083836120cd565b6001600360008473ffffffffffffffffffffffffffffffffffffffff1673ffffffffffffffffffffffffffffffffffffffff16815260200190815260200160002060008282546123cf919061393e565b92505081905550816002600083815260200190815260200160002060006101000a81548173ffffffffffffffffffffffffffffffffffffffff021916908373ffffffffffffffffffffffffffffffffffffffff160217905550808273ffffffffffffffffffffffffffffffffffffffff16600073ffffffffffffffffffffffffffffffffffffffff167fddf252ad1be2c89b69c2b068fc378daa952ba7f163c4a11628f55a4df523b3ef60405160405180910390a4612490600083836120d2565b5050565b82805482825590600052602060002090601f016020900481019282156125395791602002820160005b8382111561250a57835183826101000a81548160ff021916908360048111156124e9576124e8612c97565b5b021790555092602001926001016020816000010492830192600103026124bd565b80156125375782816101000a81549060ff021916905560010160208160000104928301926001030261250a565b505b5090506125469190612596565b5090565b6040518060c0016040528060008152602001600073ffffffffffffffffffffffffffffffffffffffff168152602001600081526020016000815260200160008152602001606081525090565b5b808211156125af576000816000905550600101612597565b5090565b6000604051905090565b600080fd5b600080fd5b60007fffffffff0000000000000000000000000000000000000000000000000000000082169050919050565b6125fc816125c7565b811461260757600080fd5b50565b600081359050612619816125f3565b92915050565b600060208284031215612635576126346125bd565b5b60006126438482850161260a565b91505092915050565b60008115159050919050565b6126618161264c565b82525050565b600060208201905061267c6000830184612658565b92915050565b600081519050919050565b600082825260208201905092915050565b60005b838110156126bc5780820151818401526020810190506126a1565b838111156126cb576000848401525b50505050565b6000601f19601f8301169050919050565b60006126ed82612682565b6126f7818561268d565b935061270781856020860161269e565b612710816126d1565b840191505092915050565b6000602082019050818103600083015261273581846126e2565b905092915050565b6000819050919050565b6127508161273d565b811461275b57600080fd5b50565b60008135905061276d81612747565b92915050565b600060208284031215612789576127886125bd565b5b60006127978482850161275e565b91505092915050565b600073ffffffffffffffffffffffffffffffffffffffff82169050919050565b60006127cb826127a0565b9050919050565b6127db816127c0565b82525050565b60006020820190506127f660008301846127d2565b92915050565b612805816127c0565b811461281057600080fd5b50565b600081359050612822816127fc565b92915050565b6000806040838503121561283f5761283e6125bd565b5b600061284d85828601612813565b925050602061285e8582860161275e565b9150509250929050565b6005811061287557600080fd5b50565b60008135905061288781612868565b92915050565b600080604083850312156128a4576128a36125bd565b5b60006128b28582860161275e565b92505060206128c385828601612878565b9150509250929050565b6000819050919050565b6128e0816128cd565b82525050565b60006020820190506128fb60008301846128d7565b92915050565b60008060006060848603121561291a576129196125bd565b5b600061292886828701612813565b935050602061293986828701612813565b925050604061294a8682870161275e565b9150509250925092565b6000806040838503121561296b5761296a6125bd565b5b60006129798582860161275e565b925050602061298a85828601612813565b9150509250929050565b61299d816128cd565b81146129a857600080fd5b50565b6000813590506129ba81612994565b92915050565b6000806000606084860312156129d9576129d86125bd565b5b60006129e78682870161275e565b93505060206129f8868287016129ab565b9250506040612a09868287016129ab565b9150509250925092565b600080fd5b600080fd5b600080fd5b60008083601f840112612a3857612a37612a13565b5b8235905067ffffffffffffffff811115612a5557612a54612a18565b5b602083019150836020820283011115612a7157612a70612a1d565b5b9250929050565b60008060008060008060a08789031215612a9557612a946125bd565b5b6000612aa389828a01612813565b9650506020612ab489828a016129ab565b9550506040612ac589828a016129ab565b9450506060612ad689828a0161275e565b935050608087013567ffffffffffffffff811115612af757612af66125c2565b5b612b0389828a01612a22565b92509250509295509295509295565b612b1b8161273d565b82525050565b6000602082019050612b366000830184612b12565b92915050565b6000604082019050612b5160008301856128d7565b612b5e60208301846128d7565b9392505050565b600060208284031215612b7b57612b7a6125bd565b5b6000612b8984828501612813565b91505092915050565b612b9b8161264c565b8114612ba657600080fd5b50565b600081359050612bb881612b92565b92915050565b60008060408385031215612bd557612bd46125bd565b5b6000612be385828601612813565b9250506020612bf485828601612ba9565b9150509250929050565b60008060408385031215612c1557612c146125bd565b5b6000612c238582860161275e565b9250506020612c348582860161275e565b9150509250929050565b612c478161273d565b82525050565b612c56816127c0565b82525050565b612c65816128cd565b82525050565b600081519050919050565b600082825260208201905092915050565b6000819050602082019050919050565b7f4e487b7100000000000000000000000000000000000000000000000000000000600052602160045260246000fd5b60058110612cd757612cd6612c97565b5b50565b6000819050612ce882612cc6565b919050565b6000612cf882612cda565b9050919050565b612d0881612ced565b82525050565b6000612d1a8383612cff565b60208301905092915050565b6000602082019050919050565b6000612d3e82612c6b565b612d488185612c76565b9350612d5383612c87565b8060005b83811015612d84578151612d6b8882612d0e565b9750612d7683612d26565b925050600181019050612d57565b5085935050505092915050565b600060c083016000830151612da96000860182612c3e565b506020830151612dbc6020860182612c4d565b506040830151612dcf6040860182612c5c565b506060830151612de26060860182612c5c565b506080830151612df56080860182612c3e565b5060a083015184820360a0860152612e0d8282612d33565b9150508091505092915050565b60006020820190508181036000830152612e348184612d91565b905092915050565b600080fd5b7f4e487b7100000000000000000000000000000000000000000000000000000000600052604160045260246000fd5b612e79826126d1565b810181811067ffffffffffffffff82111715612e9857612e97612e41565b5b80604052505050565b6000612eab6125b3565b9050612eb78282612e70565b919050565b600067ffffffffffffffff821115612ed757612ed6612e41565b5b612ee0826126d1565b9050602081019050919050565b82818337600083830152505050565b6000612f0f612f0a84612ebc565b612ea1565b905082815260208101848484011115612f2b57612f2a612e3c565b5b612f36848285612eed565b509392505050565b600082601f830112612f5357612f52612a13565b5b8135612f63848260208601612efc565b91505092915050565b60008060008060808587031215612f8657612f856125bd565b5b6000612f9487828801612813565b9450506020612fa587828801612813565b9350506040612fb68782880161275e565b925050606085013567ffffffffffffffff811115612fd757612fd66125c2565b5b612fe387828801612f3e565b91505092959194509250565b60008060408385031215613006576130056125bd565b5b600061301485828601612813565b925050602061302585828601612813565b9150509250929050565b7f4e487b7100000000000000000000000000000000000000000000000000000000600052602260045260246000fd5b6000600282049050600182168061307657607f821691505b6020821081141561308a5761308961302f565b5b50919050565b7f4552433732313a20617070726f76656420717565727920666f72206e6f6e657860008201527f697374656e7420746f6b656e0000000000000000000000000000000000000000602082015250565b60006130ec602c8361268d565b91506130f782613090565b604082019050919050565b6000602082019050818103600083015261311b816130df565b9050919050565b7f4552433732313a20617070726f76616c20746f2063757272656e74206f776e6560008201527f7200000000000000000000000000000000000000000000000000000000000000602082015250565b600061317e60218361268d565b915061318982613122565b604082019050919050565b600060208201905081810360008301526131ad81613171565b9050919050565b7f4552433732313a20617070726f76652063616c6c6572206973206e6f74206f7760008201527f6e6572206e6f7220617070726f76656420666f7220616c6c0000000000000000602082015250565b600061321060388361268d565b915061321b826131b4565b604082019050919050565b6000602082019050818103600083015261323f81613203565b9050919050565b7f4552433732313a207472616e736665722063616c6c6572206973206e6f74206f60008201527f776e6572206e6f7220617070726f766564000000000000000000000000000000602082015250565b60006132a260318361268d565b91506132ad82613246565b604082019050919050565b600060208201905081810360008301526132d181613295565b9050919050565b7f4552433732313a206f776e657220717565727920666f72206e6f6e657869737460008201527f656e7420746f6b656e0000000000000000000000000000000000000000000000602082015250565b600061333460298361268d565b915061333f826132d8565b604082019050919050565b6000602082019050818103600083015261336381613327565b9050919050565b7f454c2056414c4f5220444520414c5449545544204d494e494d4f20444542452060008201527f534552204d41594f522041203000000000000000000000000000000000000000602082015250565b60006133c6602d8361268d565b91506133d18261336a565b604082019050919050565b600060208201905081810360008301526133f5816133b9565b9050919050565b7f454c2056414c4f5220444520414c5449545544204d4158494d4f20444542452060008201527f534552204d41594f52204f20494755414c20414c204d494e494d4f0000000000602082015250565b6000613458603b8361268d565b9150613463826133fc565b604082019050919050565b600060208201905081810360008301526134878161344b565b9050919050565b7f4552433732313a2062616c616e636520717565727920666f7220746865207a6560008201527f726f206164647265737300000000000000000000000000000000000000000000602082015250565b60006134ea602a8361268d565b91506134f58261348e565b604082019050919050565b60006020820190508181036000830152613519816134dd565b9050919050565b7f454c20434f535445204445424520534552204d41594f52204120300000000000600082015250565b6000613556601b8361268d565b915061356182613520565b602082019050919050565b6000602082019050818103600083015261358581613549565b9050919050565b7f4e487b7100000000000000000000000000000000000000000000000000000000600052603260045260246000fd5b7f4e487b7100000000000000000000000000000000000000000000000000000000600052601160045260246000fd5b60006135f5826128cd565b91507f7fffffffffffffffffffffffffffffffffffffffffffffffffffffffffffffff821415613628576136276135bb565b5b600182019050919050565b7f4552433732314d657461646174613a2055524920717565727920666f72206e6f60008201527f6e6578697374656e7420746f6b656e0000000000000000000000000000000000602082015250565b600061368f602f8361268d565b915061369a82613633565b604082019050919050565b600060208201905081810360008301526136be81613682565b9050919050565b600081905092915050565b60006136db82612682565b6136e581856136c5565b93506136f581856020860161269e565b80840191505092915050565b600061370d82856136d0565b915061371982846136d0565b91508190509392505050565b60006137308261273d565b915061373b8361273d565b92508282101561374e5761374d6135bb565b5b828203905092915050565b7f4e487b7100000000000000000000000000000000000000000000000000000000600052603160045260246000fd5b7f4552433732313a206f70657261746f7220717565727920666f72206e6f6e657860008201527f697374656e7420746f6b656e0000000000000000000000000000000000000000602082015250565b60006137e4602c8361268d565b91506137ef82613788565b604082019050919050565b60006020820190508181036000830152613813816137d7565b9050919050565b7f4552433732313a207472616e736665722066726f6d20696e636f72726563742060008201527f6f776e6572000000000000000000000000000000000000000000000000000000602082015250565b600061387660258361268d565b91506138818261381a565b604082019050919050565b600060208201905081810360008301526138a581613869565b9050919050565b7f4552433732313a207472616e7366657220746f20746865207a65726f2061646460008201527f7265737300000000000000000000000000000000000000000000000000000000602082015250565b600061390860248361268d565b9150613913826138ac565b604082019050919050565b60006020820190508181036000830152613937816138fb565b9050919050565b60006139498261273d565b91506139548361273d565b9250827fffffffffffffffffffffffffffffffffffffffffffffffffffffffffffffffff03821115613989576139886135bb565b5b828201905092915050565b7f4552433732313a20617070726f766520746f2063616c6c657200000000000000600082015250565b60006139ca60198361268d565b91506139d582613994565b602082019050919050565b600060208201905081810360008301526139f9816139bd565b9050919050565b7f4552433732313a207472616e7366657220746f206e6f6e20455243373231526560008201527f63656976657220696d706c656d656e7465720000000000000000000000000000602082015250565b6000613a5c60328361268d565b9150613a6782613a00565b604082019050919050565b60006020820190508181036000830152613a8b81613a4f565b9050919050565b6000613a9d8261273d565b91507fffffffffffffffffffffffffffffffffffffffffffffffffffffffffffffffff821415613ad057613acf6135bb565b5b600182019050919050565b7f4e487b7100000000000000000000000000000000000000000000000000000000600052601260045260246000fd5b6000613b158261273d565b9150613b208361273d565b925082613b3057613b2f613adb565b5b828204905092915050565b6000613b468261273d565b9150613b518361273d565b925082613b6157613b60613adb565b5b828206905092915050565b600081519050919050565b600082825260208201905092915050565b6000613b9382613b6c565b613b9d8185613b77565b9350613bad81856020860161269e565b613bb6816126d1565b840191505092915050565b6000608082019050613bd660008301876127d2565b613be360208301866127d2565b613bf06040830185612b12565b8181036060830152613c028184613b88565b905095945050505050565b600081519050613c1c816125f3565b92915050565b600060208284031215613c3857613c376125bd565b5b6000613c4684828501613c0d565b91505092915050565b7f4552433732313a206d696e7420746f20746865207a65726f2061646472657373600082015250565b6000613c8560208361268d565b9150613c9082613c4f565b602082019050919050565b60006020820190508181036000830152613cb481613c78565b9050919050565b7f4552433732313a20746f6b656e20616c7265616479206d696e74656400000000600082015250565b6000613cf1601c8361268d565b9150613cfc82613cbb565b602082019050919050565b60006020820190508181036000830152613d2081613ce4565b905091905056fea26469706673582212204b210045055cd4ce9b0d9a4f019b56c7b5cb65661cd024c42def239f509e37cd64736f6c634300080c0033",
  "immutableReferences": {},
  "source": "//SPDX-License-Identifier: UNLICENSED\r\npragma solidity ^0.8.0; \r\n\r\n//Importamos\r\nimport \"@openzeppelin/contracts/token/ERC721/ERC721.sol\";\r\nimport \"@openzeppelin/contracts/utils/Counters.sol\";\r\n\r\n//Extendemos del contrato ERC721 (Contrato destinado a Tokens no fungibles)\r\ncontract DronContract is ERC721 {\r\n    using Counters for Counters.Counter;\r\n    Counters.Counter UltimoID;\r\n\r\n    enum _Pesticidas{\r\n        Pesticida_A,\r\n        Pesticida_B,\r\n        Pesticida_C,\r\n        Pesticida_D,\r\n        Pesticida_E\r\n    }\r\n\r\n    //Creamos las variables propias del contrato\r\n    struct Dron {\r\n        uint256 _ID;\r\n        address _Empresa; \r\n        int256 _Altitud_MIN;\r\n        int256 _Altitud_MAX;\r\n        uint256 _Coste;\r\n        _Pesticidas[] _Pesticidas;\r\n    }\r\n\r\n    mapping(uint256 => Dron) private _Drones;\r\n\r\n    constructor() ERC721(\"MyDron\", \"MDron\") {\r\n\r\n        UltimoID.increment();\r\n        uint256 IDActual = UltimoID.current();\r\n        /*\r\n        Dron storage Primero = _Drones[IDActual];\r\n  \r\n        Primero._ID = IDActual;\r\n        Primero._Altitud_MIN = 0;\r\n        Primero._Altitud_MAX = 0;\r\n        Primero._Coste = 0;\r\n        */\r\n\r\n        _safeMint(msg.sender,IDActual);\r\n    }\r\n\r\n    //Modificador de permisos de acceso\r\n    modifier SoloPropietario(uint256 ID){\r\n        require(msg.sender == ownerOf(ID));\r\n        _;\r\n    }\r\n\r\n    //Modificador de permisos de acceso\r\n    modifier SoloEmpresa(uint256 ID){\r\n        require(msg.sender == _Drones[ID]._Empresa || msg.sender == ownerOf(ID));\r\n        _;\r\n    }\r\n\r\n    function CrearDron(address EMPRESA, int256 MIN, int256 MAX, uint256 COSTE, _Pesticidas[] calldata PESTICIDA) public returns (uint256){\r\n        UltimoID.increment();\r\n        uint256 IDActual = UltimoID.current();\r\n        _safeMint(msg.sender,IDActual);\r\n        Dron memory Dron_ = Dron({\r\n            _ID: IDActual,\r\n            _Empresa: EMPRESA,\r\n            _Altitud_MIN: MIN,\r\n            _Altitud_MAX: MAX,\r\n            _Coste: COSTE,\r\n            _Pesticidas: PESTICIDA            \r\n        });\r\n\r\n        _Drones[IDActual] = Dron_;\r\n\r\n        return IDActual;\r\n    }\r\n\r\n    function ConfigurarEmpresa(uint256 ID, address EMPRESA) public SoloPropietario(ID) returns (bool)\r\n    {\r\n        _Drones[ID]._Empresa = EMPRESA;\r\n        return true;\r\n    }\r\n\r\n    function ConfigurarAltitud(uint256 ID, int256 MIN, int256 MAX) public SoloEmpresa(ID) returns (int256, int256)\r\n    {\r\n        require (MIN > 0, \"EL VALOR DE ALTITUD MINIMO DEBE SER MAYOR A 0\");\r\n        require (MAX >= MIN, \"EL VALOR DE ALTITUD MAXIMO DEBE SER MAYOR O IGUAL AL MINIMO\");\r\n        _Drones[ID]._Altitud_MIN = MIN;\r\n        _Drones[ID]._Altitud_MAX = MAX;\r\n        return (_Drones[ID]._Altitud_MIN, _Drones[ID]._Altitud_MAX);\r\n    }\r\n\r\n    function ConfigurarCoste(uint256 ID, uint256 COSTE) public SoloEmpresa(ID) returns (bool)\r\n    {\r\n        require (COSTE > 0, \"EL COSTE DEBE SER MAYOR A 0\");\r\n        _Drones[ID]._Coste = COSTE;\r\n        return true;\r\n    }\r\n\r\n    function BuscarPesticida(uint256 ID, _Pesticidas PESTICIDA) public view returns (int)\r\n    {\r\n        for (int i = 0; i < int(_Drones[ID]._Pesticidas.length); i++) {\r\n            if (_Drones[ID]._Pesticidas[uint(i)] == PESTICIDA) {\r\n                return i;\r\n            }\r\n        }\r\n        return -1;\r\n    }\r\n\r\n    function AltaPesticida(uint256 ID, _Pesticidas PESTICIDA) public SoloEmpresa(ID) returns (bool)\r\n    {\r\n        int key = BuscarPesticida(ID, PESTICIDA);\r\n        if (key >= 0) {\r\n            return true;\r\n        } else {\r\n            _Drones[ID]._Pesticidas.push(PESTICIDA);\r\n            return true;\r\n        }\r\n    }\r\n\r\n    function _QuitarPosicionArray(uint256 ID, uint key) internal {\r\n        require(key < _Drones[ID]._Pesticidas.length);\r\n        _Drones[ID]._Pesticidas[key] = _Drones[ID]._Pesticidas[_Drones[ID]._Pesticidas.length-1];\r\n        _Drones[ID]._Pesticidas.pop();\r\n    }\r\n\r\n    function BajaPesticida(uint256 ID, _Pesticidas PESTICIDA) public SoloEmpresa(ID) returns (int)\r\n    {\r\n        int key = BuscarPesticida(ID, PESTICIDA);\r\n        if (key >= 0) {\r\n            _QuitarPosicionArray(ID, uint(key));\r\n            return key;\r\n        } else {\r\n            return key;\r\n        }\r\n    }\r\n\r\n    function ObtenerInfoDron(uint256 ID) public view returns (Dron memory) {\r\n        return _Drones[ID];\r\n    }\r\n\r\n    function ComprobarAltitud(uint256 ID, int256 MIN, int256 MAX) public view returns (bool)\r\n    {\r\n        if ((MAX < _Drones[ID]._Altitud_MIN) || (MIN > _Drones[ID]._Altitud_MAX) || (MIN > MAX)) {\r\n            return false;\r\n        } else {\r\n            if ((MAX >= _Drones[ID]._Altitud_MIN && MAX <= _Drones[ID]._Altitud_MAX) || (MIN <= _Drones[ID]._Altitud_MAX && MIN >= _Drones[ID]._Altitud_MIN)) {\r\n                return true;\r\n            } else {\r\n                if ((MAX >= _Drones[ID]._Altitud_MAX && MIN <= _Drones[ID]._Altitud_MIN) || (MAX <= _Drones[ID]._Altitud_MAX && MIN >= _Drones[ID]._Altitud_MIN)) {\r\n                    return true;\r\n                } else {\r\n                    return false;\r\n                }\r\n            }\r\n        }\r\n    }\r\n\r\n    function ComprobarPesticida(uint256 ID, _Pesticidas PESTICIDA) public view returns (bool)\r\n    {\r\n        int key = BuscarPesticida(ID, PESTICIDA);\r\n        if (key >= 0) {\r\n            return true;\r\n        } else {\r\n            return false;\r\n        }\r\n    }\r\n}",
  "sourcePath": "/Users/trabajo/Documents/apps/front_blockchain_tfe/contracts/DronContract.sol",
  "compiler": {
    "name": "solc",
    "version": "0.8.12+commit.f00d7308.Emscripten.clang"
  },
  "schemaVersion": "3.4.6",
  "updatedAt": "2022-03-18T13:21:55.121Z",
  "networkType": "ethereum",
  "devdoc": {
    "kind": "dev",
    "methods": {
      "approve(address,uint256)": {
        "details": "See {IERC721-approve}."
      },
      "balanceOf(address)": {
        "details": "See {IERC721-balanceOf}."
      },
      "getApproved(uint256)": {
        "details": "See {IERC721-getApproved}."
      },
      "isApprovedForAll(address,address)": {
        "details": "See {IERC721-isApprovedForAll}."
      },
      "name()": {
        "details": "See {IERC721Metadata-name}."
      },
      "ownerOf(uint256)": {
        "details": "See {IERC721-ownerOf}."
      },
      "safeTransferFrom(address,address,uint256)": {
        "details": "See {IERC721-safeTransferFrom}."
      },
      "safeTransferFrom(address,address,uint256,bytes)": {
        "details": "See {IERC721-safeTransferFrom}."
      },
      "setApprovalForAll(address,bool)": {
        "details": "See {IERC721-setApprovalForAll}."
      },
      "supportsInterface(bytes4)": {
        "details": "See {IERC165-supportsInterface}."
      },
      "symbol()": {
        "details": "See {IERC721Metadata-symbol}."
      },
      "tokenURI(uint256)": {
        "details": "See {IERC721Metadata-tokenURI}."
      },
      "transferFrom(address,address,uint256)": {
        "details": "See {IERC721-transferFrom}."
      }
    },
    "version": 1
  },
  "userdoc": {
    "kind": "user",
    "methods": {},
    "version": 1
  }
}