{
  "contractName": "FumigacionContract",
  "abi": [
    {
      "inputs": [
        {
          "internalType": "contract ERC20",
          "name": "FumiToken",
          "type": "address"
        },
        {
          "internalType": "contract DronContract",
          "name": "Dron_",
          "type": "address"
        },
        {
          "internalType": "contract ParcelaContract",
          "name": "Parcela_",
          "type": "address"
        }
      ],
      "stateMutability": "nonpayable",
      "type": "constructor"
    },
    {
      "anonymous": false,
      "inputs": [
        {
          "indexed": false,
          "internalType": "uint256",
          "name": "IDParcela",
          "type": "uint256"
        }
      ],
      "name": "FumigacionRealizada",
      "type": "event"
    },
    {
      "anonymous": false,
      "inputs": [
        {
          "indexed": true,
          "internalType": "address",
          "name": "previousOwner",
          "type": "address"
        },
        {
          "indexed": true,
          "internalType": "address",
          "name": "newOwner",
          "type": "address"
        }
      ],
      "name": "OwnershipTransferred",
      "type": "event"
    },
    {
      "inputs": [],
      "name": "owner",
      "outputs": [
        {
          "internalType": "address",
          "name": "",
          "type": "address"
        }
      ],
      "stateMutability": "view",
      "type": "function",
      "constant": true
    },
    {
      "inputs": [],
      "name": "renounceOwnership",
      "outputs": [],
      "stateMutability": "nonpayable",
      "type": "function"
    },
    {
      "inputs": [
        {
          "internalType": "address",
          "name": "newOwner",
          "type": "address"
        }
      ],
      "name": "transferOwnership",
      "outputs": [],
      "stateMutability": "nonpayable",
      "type": "function"
    },
    {
      "inputs": [
        {
          "internalType": "uint256",
          "name": "IDSolicitud_Fumigacion",
          "type": "uint256"
        }
      ],
      "name": "RealizarFumigacion",
      "outputs": [],
      "stateMutability": "nonpayable",
      "type": "function"
    },
    {
      "inputs": [
        {
          "internalType": "uint256",
          "name": "IDDron",
          "type": "uint256"
        },
        {
          "internalType": "uint256",
          "name": "IDParcela",
          "type": "uint256"
        }
      ],
      "name": "SolicitarFumigacion",
      "outputs": [
        {
          "internalType": "uint256",
          "name": "",
          "type": "uint256"
        }
      ],
      "stateMutability": "nonpayable",
      "type": "function"
    },
    {
      "inputs": [
        {
          "internalType": "uint256",
          "name": "IDSolicitud_Fumigacion",
          "type": "uint256"
        }
      ],
      "name": "PagarFumigacion",
      "outputs": [],
      "stateMutability": "nonpayable",
      "type": "function"
    },
    {
      "inputs": [
        {
          "internalType": "uint256",
          "name": "ID",
          "type": "uint256"
        }
      ],
      "name": "ObtenerInfoFumigacion",
      "outputs": [
        {
          "components": [
            {
              "internalType": "uint256",
              "name": "_ID",
              "type": "uint256"
            },
            {
              "internalType": "uint256",
              "name": "_IDParcela",
              "type": "uint256"
            },
            {
              "internalType": "uint256",
              "name": "_IDDron",
              "type": "uint256"
            },
            {
              "internalType": "bool",
              "name": "_Pagada",
              "type": "bool"
            },
            {
              "internalType": "bool",
              "name": "_Finalizada",
              "type": "bool"
            }
          ],
          "internalType": "struct FumigacionContract.Solicitud_Fumigacion",
          "name": "",
          "type": "tuple"
        }
      ],
      "stateMutability": "view",
      "type": "function",
      "constant": true
    }
  ],
  "bytecode": "0x60806040523480156200001157600080fd5b50604051620016df380380620016df8339818101604052810190620000379190620002f7565b620000576200004b6200012360201b60201c565b6200012b60201b60201c565b82600360006101000a81548173ffffffffffffffffffffffffffffffffffffffff021916908373ffffffffffffffffffffffffffffffffffffffff16021790555081600460006101000a81548173ffffffffffffffffffffffffffffffffffffffff021916908373ffffffffffffffffffffffffffffffffffffffff16021790555080600560006101000a81548173ffffffffffffffffffffffffffffffffffffffff021916908373ffffffffffffffffffffffffffffffffffffffff16021790555050505062000353565b600033905090565b60008060009054906101000a900473ffffffffffffffffffffffffffffffffffffffff169050816000806101000a81548173ffffffffffffffffffffffffffffffffffffffff021916908373ffffffffffffffffffffffffffffffffffffffff1602179055508173ffffffffffffffffffffffffffffffffffffffff168173ffffffffffffffffffffffffffffffffffffffff167f8be0079c531659141344cd1fd0a4f28419497f9722a3daafe3b4186f6b6457e060405160405180910390a35050565b600080fd5b600073ffffffffffffffffffffffffffffffffffffffff82169050919050565b60006200022182620001f4565b9050919050565b6000620002358262000214565b9050919050565b620002478162000228565b81146200025357600080fd5b50565b60008151905062000267816200023c565b92915050565b60006200027a8262000214565b9050919050565b6200028c816200026d565b81146200029857600080fd5b50565b600081519050620002ac8162000281565b92915050565b6000620002bf8262000214565b9050919050565b620002d181620002b2565b8114620002dd57600080fd5b50565b600081519050620002f181620002c6565b92915050565b600080600060608486031215620003135762000312620001ef565b5b6000620003238682870162000256565b935050602062000336868287016200029b565b92505060406200034986828701620002e0565b9150509250925092565b61137c80620003636000396000f3fe608060405234801561001057600080fd5b506004361061007d5760003560e01c8063715018a61161005b578063715018a6146100fe5780638da5cb5b14610108578063c1f8255914610126578063f2fde38b146101425761007d565b806317967b9b1461008257806343726b0b1461009e57806346256d07146100ce575b600080fd5b61009c60048036038101906100979190610a53565b61015e565b005b6100b860048036038101906100b39190610a53565b610429565b6040516100c59190610b12565b60405180910390f35b6100e860048036038101906100e39190610b2d565b6104aa565b6040516100f59190610b7c565b60405180910390f35b610106610575565b005b6101106105fd565b60405161011d9190610bd8565b60405180910390f35b610140600480360381019061013b9190610a53565b610626565b005b61015c60048036038101906101579190610c1f565b6107ee565b005b6000600460009054906101000a900473ffffffffffffffffffffffffffffffffffffffff1673ffffffffffffffffffffffffffffffffffffffff1663b45d6c1260026000858152602001908152602001600020600201546040518263ffffffff1660e01b81526004016101d19190610b7c565b600060405180830381865afa1580156101ee573d6000803e3d6000fd5b505050506040513d6000823e3d601f19601f820116820180604052508101906102179190610ef0565b90506000600560009054906101000a900473ffffffffffffffffffffffffffffffffffffffff1673ffffffffffffffffffffffffffffffffffffffff1663d5f8d1df60026000868152602001908152602001600020600101546040518263ffffffff1660e01b815260040161028c9190610b7c565b60a060405180830381865afa1580156102a9573d6000803e3d6000fd5b505050506040513d601f19601f820116820180604052508101906102cd9190610fea565b9050806080015173ffffffffffffffffffffffffffffffffffffffff163373ffffffffffffffffffffffffffffffffffffffff1614610341576040517f08c379a00000000000000000000000000000000000000000000000000000000081526004016103389061109a565b60405180910390fd5b600360009054906101000a900473ffffffffffffffffffffffffffffffffffffffff1673ffffffffffffffffffffffffffffffffffffffff166323b872dd8260800151846020015185608001516040518463ffffffff1660e01b81526004016103ac939291906110ba565b6020604051808303816000875af11580156103cb573d6000803e3d6000fd5b505050506040513d601f19601f820116820180604052508101906103ef919061111d565b156104245760016002600085815260200190815260200160002060030160006101000a81548160ff0219169083151502179055505b505050565b6104316109d6565b600260008381526020019081526020016000206040518060a00160405290816000820154815260200160018201548152602001600282015481526020016003820160009054906101000a900460ff161515151581526020016003820160019054906101000a900460ff1615151515815250509050919050565b60006104b660016108e6565b60006104c260016108fc565b905060006040518060a00160405280838152602001858152602001868152602001600015158152602001600015158152509050806002600084815260200190815260200160002060008201518160000155602082015181600101556040820151816002015560608201518160030160006101000a81548160ff02191690831515021790555060808201518160030160016101000a81548160ff021916908315150217905550905050819250505092915050565b61057d61090a565b73ffffffffffffffffffffffffffffffffffffffff1661059b6105fd565b73ffffffffffffffffffffffffffffffffffffffff16146105f1576040517f08c379a00000000000000000000000000000000000000000000000000000000081526004016105e890611196565b60405180910390fd5b6105fb6000610912565b565b60008060009054906101000a900473ffffffffffffffffffffffffffffffffffffffff16905090565b61062e61090a565b73ffffffffffffffffffffffffffffffffffffffff1661064c6105fd565b73ffffffffffffffffffffffffffffffffffffffff16146106a2576040517f08c379a000000000000000000000000000000000000000000000000000000000815260040161069990611196565b60405180910390fd5b6002600082815260200190815260200160002060030160009054906101000a900460ff16610705576040517f08c379a00000000000000000000000000000000000000000000000000000000081526004016106fc90611202565b60405180910390fd5b600015156002600083815260200190815260200160002060030160019054906101000a900460ff1615151461076f576040517f08c379a000000000000000000000000000000000000000000000000000000000815260040161076690611294565b60405180910390fd5b60016002600083815260200190815260200160002060030160016101000a81548160ff0219169083151502179055507f633e02450bf391046ad2a44e361e07e48a816ffe06eb04f58da249be1608f9f860026000838152602001908152602001600020600101546040516107e39190610b7c565b60405180910390a150565b6107f661090a565b73ffffffffffffffffffffffffffffffffffffffff166108146105fd565b73ffffffffffffffffffffffffffffffffffffffff161461086a576040517f08c379a000000000000000000000000000000000000000000000000000000000815260040161086190611196565b60405180910390fd5b600073ffffffffffffffffffffffffffffffffffffffff168173ffffffffffffffffffffffffffffffffffffffff1614156108da576040517f08c379a00000000000000000000000000000000000000000000000000000000081526004016108d190611326565b60405180910390fd5b6108e381610912565b50565b6001816000016000828254019250508190555050565b600081600001549050919050565b600033905090565b60008060009054906101000a900473ffffffffffffffffffffffffffffffffffffffff169050816000806101000a81548173ffffffffffffffffffffffffffffffffffffffff021916908373ffffffffffffffffffffffffffffffffffffffff1602179055508173ffffffffffffffffffffffffffffffffffffffff168173ffffffffffffffffffffffffffffffffffffffff167f8be0079c531659141344cd1fd0a4f28419497f9722a3daafe3b4186f6b6457e060405160405180910390a35050565b6040518060a001604052806000815260200160008152602001600081526020016000151581526020016000151581525090565b6000604051905090565b600080fd5b600080fd5b6000819050919050565b610a3081610a1d565b8114610a3b57600080fd5b50565b600081359050610a4d81610a27565b92915050565b600060208284031215610a6957610a68610a13565b5b6000610a7784828501610a3e565b91505092915050565b610a8981610a1d565b82525050565b60008115159050919050565b610aa481610a8f565b82525050565b60a082016000820151610ac06000850182610a80565b506020820151610ad36020850182610a80565b506040820151610ae66040850182610a80565b506060820151610af96060850182610a9b565b506080820151610b0c6080850182610a9b565b50505050565b600060a082019050610b276000830184610aaa565b92915050565b60008060408385031215610b4457610b43610a13565b5b6000610b5285828601610a3e565b9250506020610b6385828601610a3e565b9150509250929050565b610b7681610a1d565b82525050565b6000602082019050610b916000830184610b6d565b92915050565b600073ffffffffffffffffffffffffffffffffffffffff82169050919050565b6000610bc282610b97565b9050919050565b610bd281610bb7565b82525050565b6000602082019050610bed6000830184610bc9565b92915050565b610bfc81610bb7565b8114610c0757600080fd5b50565b600081359050610c1981610bf3565b92915050565b600060208284031215610c3557610c34610a13565b5b6000610c4384828501610c0a565b91505092915050565b600080fd5b6000601f19601f8301169050919050565b7f4e487b7100000000000000000000000000000000000000000000000000000000600052604160045260246000fd5b610c9a82610c51565b810181811067ffffffffffffffff82111715610cb957610cb8610c62565b5b80604052505050565b6000610ccc610a09565b9050610cd88282610c91565b919050565b600080fd5b600081519050610cf181610a27565b92915050565b600081519050610d0681610bf3565b92915050565b6000819050919050565b610d1f81610d0c565b8114610d2a57600080fd5b50565b600081519050610d3c81610d16565b92915050565b600080fd5b600067ffffffffffffffff821115610d6257610d61610c62565b5b602082029050602081019050919050565b600080fd5b60058110610d8557600080fd5b50565b600081519050610d9781610d78565b92915050565b6000610db0610dab84610d47565b610cc2565b90508083825260208201905060208402830185811115610dd357610dd2610d73565b5b835b81811015610dfc5780610de88882610d88565b845260208401935050602081019050610dd5565b5050509392505050565b600082601f830112610e1b57610e1a610d42565b5b8151610e2b848260208601610d9d565b91505092915050565b600060c08284031215610e4a57610e49610c4c565b5b610e5460c0610cc2565b90506000610e6484828501610ce2565b6000830152506020610e7884828501610cf7565b6020830152506040610e8c84828501610d2d565b6040830152506060610ea084828501610d2d565b6060830152506080610eb484828501610ce2565b60808301525060a082015167ffffffffffffffff811115610ed857610ed7610cdd565b5b610ee484828501610e06565b60a08301525092915050565b600060208284031215610f0657610f05610a13565b5b600082015167ffffffffffffffff811115610f2457610f23610a18565b5b610f3084828501610e34565b91505092915050565b60058110610f4657600080fd5b50565b600081519050610f5881610f39565b92915050565b600060a08284031215610f7457610f73610c4c565b5b610f7e60a0610cc2565b90506000610f8e84828501610ce2565b6000830152506020610fa284828501610d2d565b6020830152506040610fb684828501610d2d565b6040830152506060610fca84828501610f49565b6060830152506080610fde84828501610cf7565b60808301525092915050565b600060a0828403121561100057610fff610a13565b5b600061100e84828501610f5e565b91505092915050565b600082825260208201905092915050565b7f536f6c6f20656c2070726f706965746172696f206465206c612070617263656c60008201527f6120707565646520706167617200000000000000000000000000000000000000602082015250565b6000611084602d83611017565b915061108f82611028565b604082019050919050565b600060208201905081810360008301526110b381611077565b9050919050565b60006060820190506110cf6000830186610bc9565b6110dc6020830185610bc9565b6110e96040830184610b6d565b949350505050565b6110fa81610a8f565b811461110557600080fd5b50565b600081519050611117816110f1565b92915050565b60006020828403121561113357611132610a13565b5b600061114184828501611108565b91505092915050565b7f4f776e61626c653a2063616c6c6572206973206e6f7420746865206f776e6572600082015250565b6000611180602083611017565b915061118b8261114a565b602082019050919050565b600060208201905081810360008301526111af81611173565b9050919050565b7f4c412046554d49474143494f4e204e4f204841205349444f2041424f4e414441600082015250565b60006111ec602083611017565b91506111f7826111b6565b602082019050919050565b6000602082019050818103600083015261121b816111df565b9050919050565b7f4c412046554d49474143494f4e205941204841205349444f205245414c495a4160008201527f4441000000000000000000000000000000000000000000000000000000000000602082015250565b600061127e602283611017565b915061128982611222565b604082019050919050565b600060208201905081810360008301526112ad81611271565b9050919050565b7f4f776e61626c653a206e6577206f776e657220697320746865207a65726f206160008201527f6464726573730000000000000000000000000000000000000000000000000000602082015250565b6000611310602683611017565b915061131b826112b4565b604082019050919050565b6000602082019050818103600083015261133f81611303565b905091905056fea2646970667358221220ed45e36feed55a70e6f9e50897c919d1134d8c00fd397d6125e1e4ba99c4e99a64736f6c634300080c0033",
  "immutableReferences": {},
  "source": "//SPDX-License-Identifier: UNLICENSED\r\npragma solidity ^0.8.0; \r\n\r\n//Importamos\r\nimport \"@openzeppelin/contracts/access/Ownable.sol\";\r\nimport \"@openzeppelin/contracts/utils/structs/EnumerableSet.sol\";\r\nimport \"@openzeppelin/contracts/utils/Address.sol\";\r\nimport \"@openzeppelin/contracts/utils/Counters.sol\";\r\nimport \"@openzeppelin/contracts/token/ERC20/ERC20.sol\";\r\n\r\nimport \"./DronContract.sol\";\r\nimport \"./ParcelaContract.sol\";\r\n\r\n//Extendemos del contrato ERC721 (Contrato destinado a Tokens no fungibles)\r\ncontract FumigacionContract is Ownable {\r\n    using EnumerableSet for EnumerableSet.AddressSet;\r\n    using Counters for Counters.Counter;\r\n    Counters.Counter UltimoID;\r\n\r\n    //Creamos las variables propias del contrato\r\n    struct Solicitud_Fumigacion {\r\n        uint256 _ID;\r\n        uint256 _IDParcela;\r\n        uint256 _IDDron;\r\n        bool _Pagada;\r\n        bool _Finalizada;\r\n    }\r\n\r\n    mapping(uint256 => Solicitud_Fumigacion) private _Solicitudes_Fumigacion;\r\n\r\n    ERC20 _FumiToken;\r\n    DronContract _Dron;\r\n    ParcelaContract _Parcela;\r\n\r\n    constructor(ERC20 FumiToken, DronContract Dron_, ParcelaContract Parcela_) {\r\n        _FumiToken = FumiToken;\r\n        _Dron = Dron_;\r\n        _Parcela = Parcela_;\r\n    }\r\n\r\n    /*\r\n    function _QuitarPosicionArray(uint key) internal {\r\n        require(key < Solicitudes_Fumigacion.length);\r\n        Solicitudes_Fumigacion[key] = Solicitudes_Fumigacion[Solicitudes_Fumigacion.length-1];\r\n        Solicitudes_Fumigacion.pop();\r\n    }\r\n    */\r\n\r\n    event FumigacionRealizada(uint256 IDParcela);\r\n    function RealizarFumigacion(uint256 IDSolicitud_Fumigacion) public onlyOwner {\r\n        require (_Solicitudes_Fumigacion[IDSolicitud_Fumigacion]._Pagada, \"LA FUMIGACION NO HA SIDO ABONADA\");\r\n        require (_Solicitudes_Fumigacion[IDSolicitud_Fumigacion]._Finalizada == false, \"LA FUMIGACION YA HA SIDO REALIZADA\");\r\n        //Enciar al dron a fumigar\r\n        _Solicitudes_Fumigacion[IDSolicitud_Fumigacion]._Finalizada = true;\r\n        emit FumigacionRealizada(_Solicitudes_Fumigacion[IDSolicitud_Fumigacion]._IDParcela);\r\n    }\r\n\r\n    function SolicitarFumigacion(uint256 IDDron, uint256 IDParcela) public returns (uint256){\r\n        UltimoID.increment();\r\n        uint256 IDActual = UltimoID.current();\r\n\r\n        Solicitud_Fumigacion memory Fumigacion = Solicitud_Fumigacion({\r\n            _ID: IDActual,\r\n            _IDParcela: IDParcela,\r\n            _IDDron: IDDron,\r\n            _Pagada: false,\r\n            _Finalizada: false\r\n        });\r\n\r\n        _Solicitudes_Fumigacion[IDActual] = Fumigacion;\r\n\r\n        return IDActual;\r\n    }\r\n\r\n    function PagarFumigacion(uint256 IDSolicitud_Fumigacion) public {\r\n        //solicitar info Dron\r\n        DronContract.Dron memory Dron_ = _Dron.ObtenerInfoDron(_Solicitudes_Fumigacion[IDSolicitud_Fumigacion]._IDDron);\r\n        //solicitar info Parcela\r\n        ParcelaContract.Parcela memory Parcela_ = _Parcela.ObtenerInfoParcela(_Solicitudes_Fumigacion[IDSolicitud_Fumigacion]._IDParcela);\r\n\r\n        require (msg.sender == Parcela_._Owner, \"Solo el propietario de la parcela puede pagar\");\r\n        \r\n        //realizar transferencia\r\n        if (_FumiToken.transferFrom(Parcela_._Owner, Dron_._Empresa, Dron_._Coste)) {\r\n            _Solicitudes_Fumigacion[IDSolicitud_Fumigacion]._Pagada = true;\r\n        }\r\n    }\r\n\r\n    function ObtenerInfoFumigacion(uint256 ID) public view returns (Solicitud_Fumigacion memory) {\r\n        return _Solicitudes_Fumigacion[ID];\r\n    }\r\n}",
  "sourcePath": "/Users/trabajo/Documents/apps/front_blockchain_tfe/contracts/FumigacionContract.sol",
  "compiler": {
    "name": "solc",
    "version": "0.8.12+commit.f00d7308.Emscripten.clang"
  },
  "schemaVersion": "3.4.6",
  "updatedAt": "2022-03-18T13:21:55.265Z",
  "networkType": "ethereum",
  "devdoc": {
    "kind": "dev",
    "methods": {
      "owner()": {
        "details": "Returns the address of the current owner."
      },
      "renounceOwnership()": {
        "details": "Leaves the contract without owner. It will not be possible to call `onlyOwner` functions anymore. Can only be called by the current owner. NOTE: Renouncing ownership will leave the contract without an owner, thereby removing any functionality that is only available to the owner."
      },
      "transferOwnership(address)": {
        "details": "Transfers ownership of the contract to a new account (`newOwner`). Can only be called by the current owner."
      }
    },
    "version": 1
  },
  "userdoc": {
    "kind": "user",
    "methods": {},
    "version": 1
  }
}