{
  "contractName": "FumigacionContract",
  "abi": [
    {
      "inputs": [
        {
          "internalType": "contract ERC20",
          "name": "FumiToken",
          "type": "address"
        },
        {
          "internalType": "contract DronContract",
          "name": "Dron_",
          "type": "address"
        },
        {
          "internalType": "contract ParcelaContract",
          "name": "Parcela_",
          "type": "address"
        }
      ],
      "stateMutability": "nonpayable",
      "type": "constructor"
    },
    {
      "anonymous": false,
      "inputs": [
        {
          "indexed": false,
          "internalType": "uint256",
          "name": "IDParcela",
          "type": "uint256"
        }
      ],
      "name": "FumigacionRealizada",
      "type": "event"
    },
    {
      "anonymous": false,
      "inputs": [
        {
          "indexed": true,
          "internalType": "address",
          "name": "previousOwner",
          "type": "address"
        },
        {
          "indexed": true,
          "internalType": "address",
          "name": "newOwner",
          "type": "address"
        }
      ],
      "name": "OwnershipTransferred",
      "type": "event"
    },
    {
      "inputs": [],
      "name": "owner",
      "outputs": [
        {
          "internalType": "address",
          "name": "",
          "type": "address"
        }
      ],
      "stateMutability": "view",
      "type": "function",
      "constant": true
    },
    {
      "inputs": [],
      "name": "renounceOwnership",
      "outputs": [],
      "stateMutability": "nonpayable",
      "type": "function"
    },
    {
      "inputs": [
        {
          "internalType": "address",
          "name": "newOwner",
          "type": "address"
        }
      ],
      "name": "transferOwnership",
      "outputs": [],
      "stateMutability": "nonpayable",
      "type": "function"
    },
    {
      "inputs": [
        {
          "internalType": "uint256",
          "name": "IDSolicitud_Fumigacion",
          "type": "uint256"
        }
      ],
      "name": "RealizarFumigacion",
      "outputs": [],
      "stateMutability": "nonpayable",
      "type": "function"
    },
    {
      "inputs": [
        {
          "internalType": "uint256",
          "name": "IDDron",
          "type": "uint256"
        },
        {
          "internalType": "uint256",
          "name": "IDParcela",
          "type": "uint256"
        }
      ],
      "name": "SolicitarFumigacion",
      "outputs": [
        {
          "internalType": "uint256",
          "name": "",
          "type": "uint256"
        }
      ],
      "stateMutability": "nonpayable",
      "type": "function"
    },
    {
      "inputs": [
        {
          "internalType": "uint256",
          "name": "IDDron",
          "type": "uint256"
        },
        {
          "internalType": "uint256",
          "name": "IDParcela",
          "type": "uint256"
        }
      ],
      "name": "ComprobarCompatibilidad",
      "outputs": [
        {
          "internalType": "bool",
          "name": "",
          "type": "bool"
        }
      ],
      "stateMutability": "view",
      "type": "function",
      "constant": true
    },
    {
      "inputs": [
        {
          "internalType": "uint256",
          "name": "IDSolicitud_Fumigacion",
          "type": "uint256"
        }
      ],
      "name": "PagarFumigacion",
      "outputs": [],
      "stateMutability": "nonpayable",
      "type": "function"
    },
    {
      "inputs": [
        {
          "internalType": "uint256",
          "name": "ID",
          "type": "uint256"
        }
      ],
      "name": "ObtenerInfoFumigacion",
      "outputs": [
        {
          "components": [
            {
              "internalType": "uint256",
              "name": "_ID",
              "type": "uint256"
            },
            {
              "internalType": "uint256",
              "name": "_IDParcela",
              "type": "uint256"
            },
            {
              "internalType": "uint256",
              "name": "_IDDron",
              "type": "uint256"
            },
            {
              "internalType": "bool",
              "name": "_Pagada",
              "type": "bool"
            },
            {
              "internalType": "bool",
              "name": "_Finalizada",
              "type": "bool"
            }
          ],
          "internalType": "struct FumigacionContract.Solicitud_Fumigacion",
          "name": "",
          "type": "tuple"
        }
      ],
      "stateMutability": "view",
      "type": "function",
      "constant": true
    },
    {
      "inputs": [],
      "name": "ObtenerInfoFumigaciones",
      "outputs": [
        {
          "components": [
            {
              "internalType": "uint256",
              "name": "_ID",
              "type": "uint256"
            },
            {
              "internalType": "uint256",
              "name": "_IDParcela",
              "type": "uint256"
            },
            {
              "internalType": "uint256",
              "name": "_IDDron",
              "type": "uint256"
            },
            {
              "internalType": "bool",
              "name": "_Pagada",
              "type": "bool"
            },
            {
              "internalType": "bool",
              "name": "_Finalizada",
              "type": "bool"
            }
          ],
          "internalType": "struct FumigacionContract.Solicitud_Fumigacion[]",
          "name": "",
          "type": "tuple[]"
        }
      ],
      "stateMutability": "view",
      "type": "function",
      "constant": true
    }
  ],
  "bytecode": "0x60806040523480156200001157600080fd5b5060405162002071380380620020718339818101604052810190620000379190620002f7565b620000576200004b6200012360201b60201c565b6200012b60201b60201c565b82600460006101000a81548173ffffffffffffffffffffffffffffffffffffffff021916908373ffffffffffffffffffffffffffffffffffffffff16021790555081600560006101000a81548173ffffffffffffffffffffffffffffffffffffffff021916908373ffffffffffffffffffffffffffffffffffffffff16021790555080600660006101000a81548173ffffffffffffffffffffffffffffffffffffffff021916908373ffffffffffffffffffffffffffffffffffffffff16021790555050505062000353565b600033905090565b60008060009054906101000a900473ffffffffffffffffffffffffffffffffffffffff169050816000806101000a81548173ffffffffffffffffffffffffffffffffffffffff021916908373ffffffffffffffffffffffffffffffffffffffff1602179055508173ffffffffffffffffffffffffffffffffffffffff168173ffffffffffffffffffffffffffffffffffffffff167f8be0079c531659141344cd1fd0a4f28419497f9722a3daafe3b4186f6b6457e060405160405180910390a35050565b600080fd5b600073ffffffffffffffffffffffffffffffffffffffff82169050919050565b60006200022182620001f4565b9050919050565b6000620002358262000214565b9050919050565b620002478162000228565b81146200025357600080fd5b50565b60008151905062000267816200023c565b92915050565b60006200027a8262000214565b9050919050565b6200028c816200026d565b81146200029857600080fd5b50565b600081519050620002ac8162000281565b92915050565b6000620002bf8262000214565b9050919050565b620002d181620002b2565b8114620002dd57600080fd5b50565b600081519050620002f181620002c6565b92915050565b600080600060608486031215620003135762000312620001ef565b5b6000620003238682870162000256565b935050602062000336868287016200029b565b92505060406200034986828701620002e0565b9150509250925092565b611d0e80620003636000396000f3fe608060405234801561001057600080fd5b50600436106100935760003560e01c8063715018a611610066578063715018a6146101325780638da5cb5b1461013c578063c1f825591461015a578063f2fde38b14610176578063f7d8b09a1461019257610093565b806317967b9b14610098578063315b4d60146100b457806343726b0b146100d257806346256d0714610102575b600080fd5b6100b260048036038101906100ad9190610f53565b6101c2565b005b6100bc6104d7565b6040516100c991906110c1565b60405180910390f35b6100ec60048036038101906100e79190610f53565b61058a565b6040516100f9919061114b565b60405180910390f35b61011c60048036038101906101179190611166565b61060b565b60405161012991906111b5565b60405180910390f35b61013a6107ab565b005b610144610833565b6040516101519190611211565b60405180910390f35b610174600480360381019061016f9190610f53565b61085c565b005b610190600480360381019061018b9190611258565b610a6e565b005b6101ac60048036038101906101a79190611166565b610b66565b6040516101b99190611294565b60405180910390f35b6000600560009054906101000a900473ffffffffffffffffffffffffffffffffffffffff1673ffffffffffffffffffffffffffffffffffffffff1663b45d6c1260026000858152602001908152602001600020600201546040518263ffffffff1660e01b815260040161023591906111b5565b600060405180830381865afa158015610252573d6000803e3d6000fd5b505050506040513d6000823e3d601f19601f8201168201806040525081019061027b9190611553565b90506000600660009054906101000a900473ffffffffffffffffffffffffffffffffffffffff1673ffffffffffffffffffffffffffffffffffffffff1663d5f8d1df60026000868152602001908152602001600020600101546040518263ffffffff1660e01b81526004016102f091906111b5565b60a060405180830381865afa15801561030d573d6000803e3d6000fd5b505050506040513d601f19601f820116820180604052508101906103319190611628565b9050806080015173ffffffffffffffffffffffffffffffffffffffff163373ffffffffffffffffffffffffffffffffffffffff16146103a5576040517f08c379a000000000000000000000000000000000000000000000000000000000815260040161039c906116d8565b60405180910390fd5b600460009054906101000a900473ffffffffffffffffffffffffffffffffffffffff1673ffffffffffffffffffffffffffffffffffffffff166323b872dd8260800151846020015185608001516040518463ffffffff1660e01b8152600401610410939291906116f8565b6020604051808303816000875af115801561042f573d6000803e3d6000fd5b505050506040513d601f19601f82011682018060405250810190610453919061175b565b156104d25760016002600085815260200190815260200160002060030160006101000a81548160ff0219169083151502179055506001600360018561049891906117b7565b815481106104a9576104a86117eb565b5b906000526020600020906004020160030160006101000a81548160ff0219169083151502179055505b505050565b60606003805480602002602001604051908101604052809291908181526020016000905b8282101561058157838290600052602060002090600402016040518060a00160405290816000820154815260200160018201548152602001600282015481526020016003820160009054906101000a900460ff161515151581526020016003820160019054906101000a900460ff161515151581525050815260200190600101906104fb565b50505050905090565b610592610ed6565b600260008381526020019081526020016000206040518060a00160405290816000820154815260200160018201548152602001600282015481526020016003820160009054906101000a900460ff161515151581526020016003820160019054906101000a900460ff1615151515815250509050919050565b60006106178383610b66565b610656576040517f08c379a000000000000000000000000000000000000000000000000000000000815260040161064d9061188c565b60405180910390fd5b6106606001610de6565b600061066c6001610dfc565b905060006040518060a00160405280838152602001858152602001868152602001600015158152602001600015158152509050806002600084815260200190815260200160002060008201518160000155602082015181600101556040820151816002015560608201518160030160006101000a81548160ff02191690831515021790555060808201518160030160016101000a81548160ff021916908315150217905550905050600381908060018154018082558091505060019003906000526020600020906004020160009091909190915060008201518160000155602082015181600101556040820151816002015560608201518160030160006101000a81548160ff02191690831515021790555060808201518160030160016101000a81548160ff0219169083151502179055505050819250505092915050565b6107b3610e0a565b73ffffffffffffffffffffffffffffffffffffffff166107d1610833565b73ffffffffffffffffffffffffffffffffffffffff1614610827576040517f08c379a000000000000000000000000000000000000000000000000000000000815260040161081e906118f8565b60405180910390fd5b6108316000610e12565b565b60008060009054906101000a900473ffffffffffffffffffffffffffffffffffffffff16905090565b610864610e0a565b73ffffffffffffffffffffffffffffffffffffffff16610882610833565b73ffffffffffffffffffffffffffffffffffffffff16146108d8576040517f08c379a00000000000000000000000000000000000000000000000000000000081526004016108cf906118f8565b60405180910390fd5b6002600082815260200190815260200160002060030160009054906101000a900460ff1661093b576040517f08c379a000000000000000000000000000000000000000000000000000000000815260040161093290611964565b60405180910390fd5b600015156002600083815260200190815260200160002060030160019054906101000a900460ff161515146109a5576040517f08c379a000000000000000000000000000000000000000000000000000000000815260040161099c906119f6565b60405180910390fd5b60016002600083815260200190815260200160002060030160016101000a81548160ff021916908315150217905550600160036001836109e591906117b7565b815481106109f6576109f56117eb565b5b906000526020600020906004020160030160016101000a81548160ff0219169083151502179055507f633e02450bf391046ad2a44e361e07e48a816ffe06eb04f58da249be1608f9f86002600083815260200190815260200160002060010154604051610a6391906111b5565b60405180910390a150565b610a76610e0a565b73ffffffffffffffffffffffffffffffffffffffff16610a94610833565b73ffffffffffffffffffffffffffffffffffffffff1614610aea576040517f08c379a0000000000000000000000000000000000000000000000000000000008152600401610ae1906118f8565b60405180910390fd5b600073ffffffffffffffffffffffffffffffffffffffff168173ffffffffffffffffffffffffffffffffffffffff161415610b5a576040517f08c379a0000000000000000000000000000000000000000000000000000000008152600401610b5190611a88565b60405180910390fd5b610b6381610e12565b50565b600080600660009054906101000a900473ffffffffffffffffffffffffffffffffffffffff1673ffffffffffffffffffffffffffffffffffffffff1663d5f8d1df846040518263ffffffff1660e01b8152600401610bc491906111b5565b60a060405180830381865afa158015610be1573d6000803e3d6000fd5b505050506040513d601f19601f82011682018060405250810190610c059190611628565b90506000600560009054906101000a900473ffffffffffffffffffffffffffffffffffffffff1673ffffffffffffffffffffffffffffffffffffffff1663f4c54c248684606001516040518363ffffffff1660e01b8152600401610c6a929190611b1f565b602060405180830381865afa158015610c87573d6000803e3d6000fd5b505050506040513d601f19601f82011682018060405250810190610cab919061175b565b905080610ced576040517f08c379a0000000000000000000000000000000000000000000000000000000008152600401610ce490611be0565b60405180910390fd5b6000600560009054906101000a900473ffffffffffffffffffffffffffffffffffffffff1673ffffffffffffffffffffffffffffffffffffffff166338a18c4987856020015186604001516040518463ffffffff1660e01b8152600401610d5693929190611c0f565b602060405180830381865afa158015610d73573d6000803e3d6000fd5b505050506040513d601f19601f82011682018060405250810190610d97919061175b565b905080610dd9576040517f08c379a0000000000000000000000000000000000000000000000000000000008152600401610dd090611cb8565b60405180910390fd5b6001935050505092915050565b6001816000016000828254019250508190555050565b600081600001549050919050565b600033905090565b60008060009054906101000a900473ffffffffffffffffffffffffffffffffffffffff169050816000806101000a81548173ffffffffffffffffffffffffffffffffffffffff021916908373ffffffffffffffffffffffffffffffffffffffff1602179055508173ffffffffffffffffffffffffffffffffffffffff168173ffffffffffffffffffffffffffffffffffffffff167f8be0079c531659141344cd1fd0a4f28419497f9722a3daafe3b4186f6b6457e060405160405180910390a35050565b6040518060a001604052806000815260200160008152602001600081526020016000151581526020016000151581525090565b6000604051905090565b600080fd5b600080fd5b6000819050919050565b610f3081610f1d565b8114610f3b57600080fd5b50565b600081359050610f4d81610f27565b92915050565b600060208284031215610f6957610f68610f13565b5b6000610f7784828501610f3e565b91505092915050565b600081519050919050565b600082825260208201905092915050565b6000819050602082019050919050565b610fb581610f1d565b82525050565b60008115159050919050565b610fd081610fbb565b82525050565b60a082016000820151610fec6000850182610fac565b506020820151610fff6020850182610fac565b5060408201516110126040850182610fac565b5060608201516110256060850182610fc7565b5060808201516110386080850182610fc7565b50505050565b600061104a8383610fd6565b60a08301905092915050565b6000602082019050919050565b600061106e82610f80565b6110788185610f8b565b935061108383610f9c565b8060005b838110156110b457815161109b888261103e565b97506110a683611056565b925050600181019050611087565b5085935050505092915050565b600060208201905081810360008301526110db8184611063565b905092915050565b60a0820160008201516110f96000850182610fac565b50602082015161110c6020850182610fac565b50604082015161111f6040850182610fac565b5060608201516111326060850182610fc7565b5060808201516111456080850182610fc7565b50505050565b600060a08201905061116060008301846110e3565b92915050565b6000806040838503121561117d5761117c610f13565b5b600061118b85828601610f3e565b925050602061119c85828601610f3e565b9150509250929050565b6111af81610f1d565b82525050565b60006020820190506111ca60008301846111a6565b92915050565b600073ffffffffffffffffffffffffffffffffffffffff82169050919050565b60006111fb826111d0565b9050919050565b61120b816111f0565b82525050565b60006020820190506112266000830184611202565b92915050565b611235816111f0565b811461124057600080fd5b50565b6000813590506112528161122c565b92915050565b60006020828403121561126e5761126d610f13565b5b600061127c84828501611243565b91505092915050565b61128e81610fbb565b82525050565b60006020820190506112a96000830184611285565b92915050565b600080fd5b6000601f19601f8301169050919050565b7f4e487b7100000000000000000000000000000000000000000000000000000000600052604160045260246000fd5b6112fd826112b4565b810181811067ffffffffffffffff8211171561131c5761131b6112c5565b5b80604052505050565b600061132f610f09565b905061133b82826112f4565b919050565b600080fd5b60008151905061135481610f27565b92915050565b6000815190506113698161122c565b92915050565b6000819050919050565b6113828161136f565b811461138d57600080fd5b50565b60008151905061139f81611379565b92915050565b600080fd5b600067ffffffffffffffff8211156113c5576113c46112c5565b5b602082029050602081019050919050565b600080fd5b600581106113e857600080fd5b50565b6000815190506113fa816113db565b92915050565b600061141361140e846113aa565b611325565b90508083825260208201905060208402830185811115611436576114356113d6565b5b835b8181101561145f578061144b88826113eb565b845260208401935050602081019050611438565b5050509392505050565b600082601f83011261147e5761147d6113a5565b5b815161148e848260208601611400565b91505092915050565b600060c082840312156114ad576114ac6112af565b5b6114b760c0611325565b905060006114c784828501611345565b60008301525060206114db8482850161135a565b60208301525060406114ef84828501611390565b604083015250606061150384828501611390565b606083015250608061151784828501611345565b60808301525060a082015167ffffffffffffffff81111561153b5761153a611340565b5b61154784828501611469565b60a08301525092915050565b60006020828403121561156957611568610f13565b5b600082015167ffffffffffffffff81111561158757611586610f18565b5b61159384828501611497565b91505092915050565b600060a082840312156115b2576115b16112af565b5b6115bc60a0611325565b905060006115cc84828501611345565b60008301525060206115e084828501611390565b60208301525060406115f484828501611390565b6040830152506060611608848285016113eb565b606083015250608061161c8482850161135a565b60808301525092915050565b600060a0828403121561163e5761163d610f13565b5b600061164c8482850161159c565b91505092915050565b600082825260208201905092915050565b7f536f6c6f20656c2070726f706965746172696f206465206c612070617263656c60008201527f6120707565646520706167617200000000000000000000000000000000000000602082015250565b60006116c2602d83611655565b91506116cd82611666565b604082019050919050565b600060208201905081810360008301526116f1816116b5565b9050919050565b600060608201905061170d6000830186611202565b61171a6020830185611202565b61172760408301846111a6565b949350505050565b61173881610fbb565b811461174357600080fd5b50565b6000815190506117558161172f565b92915050565b60006020828403121561177157611770610f13565b5b600061177f84828501611746565b91505092915050565b7f4e487b7100000000000000000000000000000000000000000000000000000000600052601160045260246000fd5b60006117c282610f1d565b91506117cd83610f1d565b9250828210156117e0576117df611788565b5b828203905092915050565b7f4e487b7100000000000000000000000000000000000000000000000000000000600052603260045260246000fd5b7f454c2044524f4e204e4f20455320434f4d50415449424c4520434f4e204c412060008201527f50415243454c4100000000000000000000000000000000000000000000000000602082015250565b6000611876602783611655565b91506118818261181a565b604082019050919050565b600060208201905081810360008301526118a581611869565b9050919050565b7f4f776e61626c653a2063616c6c6572206973206e6f7420746865206f776e6572600082015250565b60006118e2602083611655565b91506118ed826118ac565b602082019050919050565b60006020820190508181036000830152611911816118d5565b9050919050565b7f4c412046554d49474143494f4e204e4f204841205349444f2041424f4e414441600082015250565b600061194e602083611655565b915061195982611918565b602082019050919050565b6000602082019050818103600083015261197d81611941565b9050919050565b7f4c412046554d49474143494f4e205941204841205349444f205245414c495a4160008201527f4441000000000000000000000000000000000000000000000000000000000000602082015250565b60006119e0602283611655565b91506119eb82611984565b604082019050919050565b60006020820190508181036000830152611a0f816119d3565b9050919050565b7f4f776e61626c653a206e6577206f776e657220697320746865207a65726f206160008201527f6464726573730000000000000000000000000000000000000000000000000000602082015250565b6000611a72602683611655565b9150611a7d82611a16565b604082019050919050565b60006020820190508181036000830152611aa181611a65565b9050919050565b7f4e487b7100000000000000000000000000000000000000000000000000000000600052602160045260246000fd5b60058110611ae857611ae7611aa8565b5b50565b6000819050611af982611ad7565b919050565b6000611b0982611aeb565b9050919050565b611b1981611afe565b82525050565b6000604082019050611b3460008301856111a6565b611b416020830184611b10565b9392505050565b7f454c2044524f4e204e4f2050554544452053554d494e49535452415220454c2060008201527f504553544943494441204e454345534152494f2050415241204c41205041524360208201527f454c410000000000000000000000000000000000000000000000000000000000604082015250565b6000611bca604383611655565b9150611bd582611b48565b606082019050919050565b60006020820190508181036000830152611bf981611bbd565b9050919050565b611c098161136f565b82525050565b6000606082019050611c2460008301866111a6565b611c316020830185611c00565b611c3e6040830184611c00565b949350505050565b7f454c2044524f4e204e4f2050554544452054524142414a41522041204c41204160008201527f4c54495455442052455155455249444100000000000000000000000000000000602082015250565b6000611ca2603083611655565b9150611cad82611c46565b604082019050919050565b60006020820190508181036000830152611cd181611c95565b905091905056fea2646970667358221220864eb403abfbb9223c3aded4d8f1b07ca368992b59980d83c4d42ec7083880a364736f6c634300080c0033",
  "immutableReferences": {},
  "source": "//SPDX-License-Identifier: UNLICENSED\r\npragma solidity ^0.8.0; \r\n\r\n//Importamos\r\nimport \"@openzeppelin/contracts/access/Ownable.sol\";\r\nimport \"@openzeppelin/contracts/utils/structs/EnumerableSet.sol\";\r\nimport \"@openzeppelin/contracts/utils/Address.sol\";\r\nimport \"@openzeppelin/contracts/utils/Counters.sol\";\r\nimport \"@openzeppelin/contracts/token/ERC20/ERC20.sol\";\r\n\r\nimport \"./Dron.sol\";\r\nimport \"./Parcela.sol\";\r\n\r\n//Extendemos del contrato ERC721 (Contrato destinado a Tokens no fungibles)\r\ncontract FumigacionContract is Ownable {\r\n    using EnumerableSet for EnumerableSet.AddressSet;\r\n    using Counters for Counters.Counter;\r\n    Counters.Counter UltimoID;\r\n\r\n    //Creamos las variables propias del contrato\r\n    struct Solicitud_Fumigacion {\r\n        uint256 _ID;\r\n        uint256 _IDParcela;\r\n        uint256 _IDDron;\r\n        bool _Pagada;\r\n        bool _Finalizada;\r\n    }\r\n\r\n    mapping(uint256 => Solicitud_Fumigacion) private _Solicitudes_Fumigacion;\r\n\r\n    Solicitud_Fumigacion[] FUMIGACIONES;\r\n\r\n    ERC20 _FumiToken;\r\n    DronContract _Dron;\r\n    ParcelaContract _Parcela;\r\n\r\n    constructor(ERC20 FumiToken, DronContract Dron_, ParcelaContract Parcela_) {\r\n        _FumiToken = FumiToken;\r\n        _Dron = Dron_;\r\n        _Parcela = Parcela_;\r\n    }\r\n\r\n    /*\r\n    function _QuitarPosicionArray(uint key) internal {\r\n        require(key < Solicitudes_Fumigacion.length);\r\n        Solicitudes_Fumigacion[key] = Solicitudes_Fumigacion[Solicitudes_Fumigacion.length-1];\r\n        Solicitudes_Fumigacion.pop();\r\n    }\r\n    */\r\n\r\n    event FumigacionRealizada(uint256 IDParcela);\r\n    function RealizarFumigacion(uint256 IDSolicitud_Fumigacion) public onlyOwner {\r\n        require (_Solicitudes_Fumigacion[IDSolicitud_Fumigacion]._Pagada, \"LA FUMIGACION NO HA SIDO ABONADA\");\r\n        require (_Solicitudes_Fumigacion[IDSolicitud_Fumigacion]._Finalizada == false, \"LA FUMIGACION YA HA SIDO REALIZADA\");\r\n        //Enciar al dron a fumigar\r\n        _Solicitudes_Fumigacion[IDSolicitud_Fumigacion]._Finalizada = true;\r\n        FUMIGACIONES[IDSolicitud_Fumigacion-1]._Finalizada = true;\r\n        emit FumigacionRealizada(_Solicitudes_Fumigacion[IDSolicitud_Fumigacion]._IDParcela);\r\n    }\r\n\r\n    function SolicitarFumigacion(uint256 IDDron, uint256 IDParcela) public returns (uint256){\r\n        \r\n        require (ComprobarCompatibilidad(IDDron,IDParcela),\"EL DRON NO ES COMPATIBLE CON LA PARCELA\");\r\n        \r\n        UltimoID.increment();\r\n        uint256 IDActual = UltimoID.current();\r\n\r\n        Solicitud_Fumigacion memory Fumigacion = Solicitud_Fumigacion({\r\n            _ID: IDActual,\r\n            _IDParcela: IDParcela,\r\n            _IDDron: IDDron,\r\n            _Pagada: false,\r\n            _Finalizada: false\r\n        });\r\n\r\n        _Solicitudes_Fumigacion[IDActual] = Fumigacion;\r\n        FUMIGACIONES.push(Fumigacion);\r\n\r\n        return IDActual;\r\n    }\r\n\r\n    function ComprobarCompatibilidad(uint256 IDDron, uint256 IDParcela) public view returns (bool){\r\n        //solicitar info Parcela\r\n        ParcelaContract.Parcela memory Parcela_ = _Parcela.ObtenerInfoParcela(IDParcela);\r\n\r\n        bool DronPesticida_ = _Dron.ComprobarPesticida(IDDron,Parcela_._Pesticida);\r\n        require (DronPesticida_, \"EL DRON NO PUEDE SUMINISTRAR EL PESTICIDA NECESARIO PARA LA PARCELA\");\r\n\r\n        bool DronAltitud_ = _Dron.ComprobarAltitud(IDDron,Parcela_._Altitud_MIN,Parcela_._Altitud_MAX);\r\n        require (DronAltitud_, \"EL DRON NO PUEDE TRABAJAR A LA ALTITUD REQUERIDA\");\r\n        \r\n        return true;\r\n    }\r\n\r\n    function PagarFumigacion(uint256 IDSolicitud_Fumigacion) public {\r\n        //solicitar info Dron\r\n        DronContract.Dron memory Dron_ = _Dron.ObtenerInfoDron(_Solicitudes_Fumigacion[IDSolicitud_Fumigacion]._IDDron);\r\n        //solicitar info Parcela\r\n        ParcelaContract.Parcela memory Parcela_ = _Parcela.ObtenerInfoParcela(_Solicitudes_Fumigacion[IDSolicitud_Fumigacion]._IDParcela);\r\n\r\n        require (msg.sender == Parcela_._Owner, \"Solo el propietario de la parcela puede pagar\");\r\n        \r\n        //realizar transferencia\r\n        if (_FumiToken.transferFrom(Parcela_._Owner, Dron_._Empresa, Dron_._Coste)) {\r\n            _Solicitudes_Fumigacion[IDSolicitud_Fumigacion]._Pagada = true;\r\n            FUMIGACIONES[IDSolicitud_Fumigacion-1]._Pagada = true;\r\n        }\r\n    }\r\n\r\n    function ObtenerInfoFumigacion(uint256 ID) public view returns (Solicitud_Fumigacion memory) {\r\n        return _Solicitudes_Fumigacion[ID];\r\n    }\r\n\r\n    function ObtenerInfoFumigaciones() public view returns (Solicitud_Fumigacion [] memory) {\r\n        return FUMIGACIONES;\r\n    }\r\n}",
  "sourcePath": "/Users/trabajo/Documents/apps/front_blockchain_tfe/contracts/Fumigacion.sol",
  "compiler": {
    "name": "solc",
    "version": "0.8.12+commit.f00d7308.Emscripten.clang"
  },
  "schemaVersion": "3.4.6",
  "updatedAt": "2022-03-25T16:40:11.410Z",
  "networkType": "ethereum",
  "devdoc": {
    "kind": "dev",
    "methods": {
      "owner()": {
        "details": "Returns the address of the current owner."
      },
      "renounceOwnership()": {
        "details": "Leaves the contract without owner. It will not be possible to call `onlyOwner` functions anymore. Can only be called by the current owner. NOTE: Renouncing ownership will leave the contract without an owner, thereby removing any functionality that is only available to the owner."
      },
      "transferOwnership(address)": {
        "details": "Transfers ownership of the contract to a new account (`newOwner`). Can only be called by the current owner."
      }
    },
    "version": 1
  },
  "userdoc": {
    "kind": "user",
    "methods": {},
    "version": 1
  }
}