{
  "contractName": "FumigacionContract",
  "abi": [
    {
      "inputs": [
        {
          "internalType": "contract ERC20",
          "name": "FumiToken",
          "type": "address"
        },
        {
          "internalType": "contract DronContract",
          "name": "Dron_",
          "type": "address"
        },
        {
          "internalType": "contract ParcelaContract",
          "name": "Parcela_",
          "type": "address"
        }
      ],
      "stateMutability": "nonpayable",
      "type": "constructor"
    },
    {
      "anonymous": false,
      "inputs": [
        {
          "indexed": false,
          "internalType": "uint256",
          "name": "IDParcela",
          "type": "uint256"
        }
      ],
      "name": "FumigacionRealizada",
      "type": "event"
    },
    {
      "anonymous": false,
      "inputs": [
        {
          "indexed": true,
          "internalType": "address",
          "name": "previousOwner",
          "type": "address"
        },
        {
          "indexed": true,
          "internalType": "address",
          "name": "newOwner",
          "type": "address"
        }
      ],
      "name": "OwnershipTransferred",
      "type": "event"
    },
    {
      "inputs": [],
      "name": "owner",
      "outputs": [
        {
          "internalType": "address",
          "name": "",
          "type": "address"
        }
      ],
      "stateMutability": "view",
      "type": "function",
      "constant": true
    },
    {
      "inputs": [],
      "name": "renounceOwnership",
      "outputs": [],
      "stateMutability": "nonpayable",
      "type": "function"
    },
    {
      "inputs": [
        {
          "internalType": "address",
          "name": "newOwner",
          "type": "address"
        }
      ],
      "name": "transferOwnership",
      "outputs": [],
      "stateMutability": "nonpayable",
      "type": "function"
    },
    {
      "inputs": [
        {
          "internalType": "uint256",
          "name": "IDSolicitud_Fumigacion",
          "type": "uint256"
        }
      ],
      "name": "RealizarFumigacion",
      "outputs": [],
      "stateMutability": "nonpayable",
      "type": "function"
    },
    {
      "inputs": [
        {
          "internalType": "uint256",
          "name": "IDDron",
          "type": "uint256"
        },
        {
          "internalType": "uint256",
          "name": "IDParcela",
          "type": "uint256"
        }
      ],
      "name": "SolicitarFumigacion",
      "outputs": [
        {
          "internalType": "uint256",
          "name": "",
          "type": "uint256"
        }
      ],
      "stateMutability": "nonpayable",
      "type": "function"
    },
    {
      "inputs": [
        {
          "internalType": "uint256",
          "name": "IDSolicitud_Fumigacion",
          "type": "uint256"
        }
      ],
      "name": "PagarFumigacion",
      "outputs": [],
      "stateMutability": "nonpayable",
      "type": "function"
    }
  ],
  "bytecode": "0x60806040523480156200001157600080fd5b506040516200153f3803806200153f8339818101604052810190620000379190620002f7565b620000576200004b6200012360201b60201c565b6200012b60201b60201c565b82600360006101000a81548173ffffffffffffffffffffffffffffffffffffffff021916908373ffffffffffffffffffffffffffffffffffffffff16021790555081600460006101000a81548173ffffffffffffffffffffffffffffffffffffffff021916908373ffffffffffffffffffffffffffffffffffffffff16021790555080600560006101000a81548173ffffffffffffffffffffffffffffffffffffffff021916908373ffffffffffffffffffffffffffffffffffffffff16021790555050505062000353565b600033905090565b60008060009054906101000a900473ffffffffffffffffffffffffffffffffffffffff169050816000806101000a81548173ffffffffffffffffffffffffffffffffffffffff021916908373ffffffffffffffffffffffffffffffffffffffff1602179055508173ffffffffffffffffffffffffffffffffffffffff168173ffffffffffffffffffffffffffffffffffffffff167f8be0079c531659141344cd1fd0a4f28419497f9722a3daafe3b4186f6b6457e060405160405180910390a35050565b600080fd5b600073ffffffffffffffffffffffffffffffffffffffff82169050919050565b60006200022182620001f4565b9050919050565b6000620002358262000214565b9050919050565b620002478162000228565b81146200025357600080fd5b50565b60008151905062000267816200023c565b92915050565b60006200027a8262000214565b9050919050565b6200028c816200026d565b81146200029857600080fd5b50565b600081519050620002ac8162000281565b92915050565b6000620002bf8262000214565b9050919050565b620002d181620002b2565b8114620002dd57600080fd5b50565b600081519050620002f181620002c6565b92915050565b600080600060608486031215620003135762000312620001ef565b5b6000620003238682870162000256565b935050602062000336868287016200029b565b92505060406200034986828701620002e0565b9150509250925092565b6111dc80620003636000396000f3fe608060405234801561001057600080fd5b50600436106100625760003560e01c806317967b9b1461006757806346256d0714610083578063715018a6146100b35780638da5cb5b146100bd578063c1f82559146100db578063f2fde38b146100f7575b600080fd5b610081600480360381019061007c9190610954565b610113565b005b61009d60048036038101906100989190610981565b6103de565b6040516100aa91906109d0565b60405180910390f35b6100bb6104a9565b005b6100c5610531565b6040516100d29190610a2c565b60405180910390f35b6100f560048036038101906100f09190610954565b61055a565b005b610111600480360381019061010c9190610a73565b610722565b005b6000600460009054906101000a900473ffffffffffffffffffffffffffffffffffffffff1673ffffffffffffffffffffffffffffffffffffffff1663b45d6c1260026000858152602001908152602001600020600201546040518263ffffffff1660e01b815260040161018691906109d0565b600060405180830381865afa1580156101a3573d6000803e3d6000fd5b505050506040513d6000823e3d601f19601f820116820180604052508101906101cc9190610d44565b90506000600560009054906101000a900473ffffffffffffffffffffffffffffffffffffffff1673ffffffffffffffffffffffffffffffffffffffff1663d5f8d1df60026000868152602001908152602001600020600101546040518263ffffffff1660e01b815260040161024191906109d0565b60a060405180830381865afa15801561025e573d6000803e3d6000fd5b505050506040513d601f19601f820116820180604052508101906102829190610e3e565b9050806080015173ffffffffffffffffffffffffffffffffffffffff163373ffffffffffffffffffffffffffffffffffffffff16146102f6576040517f08c379a00000000000000000000000000000000000000000000000000000000081526004016102ed90610eee565b60405180910390fd5b600360009054906101000a900473ffffffffffffffffffffffffffffffffffffffff1673ffffffffffffffffffffffffffffffffffffffff166323b872dd826080015184602001518560a001516040518463ffffffff1660e01b815260040161036193929190610f0e565b6020604051808303816000875af1158015610380573d6000803e3d6000fd5b505050506040513d601f19601f820116820180604052508101906103a49190610f7d565b156103d95760016002600085815260200190815260200160002060030160006101000a81548160ff0219169083151502179055505b505050565b60006103ea600161081a565b60006103f66001610830565b905060006040518060a00160405280838152602001858152602001868152602001600015158152602001600015158152509050806002600084815260200190815260200160002060008201518160000155602082015181600101556040820151816002015560608201518160030160006101000a81548160ff02191690831515021790555060808201518160030160016101000a81548160ff021916908315150217905550905050819250505092915050565b6104b161083e565b73ffffffffffffffffffffffffffffffffffffffff166104cf610531565b73ffffffffffffffffffffffffffffffffffffffff1614610525576040517f08c379a000000000000000000000000000000000000000000000000000000000815260040161051c90610ff6565b60405180910390fd5b61052f6000610846565b565b60008060009054906101000a900473ffffffffffffffffffffffffffffffffffffffff16905090565b61056261083e565b73ffffffffffffffffffffffffffffffffffffffff16610580610531565b73ffffffffffffffffffffffffffffffffffffffff16146105d6576040517f08c379a00000000000000000000000000000000000000000000000000000000081526004016105cd90610ff6565b60405180910390fd5b6002600082815260200190815260200160002060030160009054906101000a900460ff16610639576040517f08c379a000000000000000000000000000000000000000000000000000000000815260040161063090611062565b60405180910390fd5b600015156002600083815260200190815260200160002060030160019054906101000a900460ff161515146106a3576040517f08c379a000000000000000000000000000000000000000000000000000000000815260040161069a906110f4565b60405180910390fd5b60016002600083815260200190815260200160002060030160016101000a81548160ff0219169083151502179055507f633e02450bf391046ad2a44e361e07e48a816ffe06eb04f58da249be1608f9f8600260008381526020019081526020016000206001015460405161071791906109d0565b60405180910390a150565b61072a61083e565b73ffffffffffffffffffffffffffffffffffffffff16610748610531565b73ffffffffffffffffffffffffffffffffffffffff161461079e576040517f08c379a000000000000000000000000000000000000000000000000000000000815260040161079590610ff6565b60405180910390fd5b600073ffffffffffffffffffffffffffffffffffffffff168173ffffffffffffffffffffffffffffffffffffffff16141561080e576040517f08c379a000000000000000000000000000000000000000000000000000000000815260040161080590611186565b60405180910390fd5b61081781610846565b50565b6001816000016000828254019250508190555050565b600081600001549050919050565b600033905090565b60008060009054906101000a900473ffffffffffffffffffffffffffffffffffffffff169050816000806101000a81548173ffffffffffffffffffffffffffffffffffffffff021916908373ffffffffffffffffffffffffffffffffffffffff1602179055508173ffffffffffffffffffffffffffffffffffffffff168173ffffffffffffffffffffffffffffffffffffffff167f8be0079c531659141344cd1fd0a4f28419497f9722a3daafe3b4186f6b6457e060405160405180910390a35050565b6000604051905090565b600080fd5b600080fd5b6000819050919050565b6109318161091e565b811461093c57600080fd5b50565b60008135905061094e81610928565b92915050565b60006020828403121561096a57610969610914565b5b60006109788482850161093f565b91505092915050565b6000806040838503121561099857610997610914565b5b60006109a68582860161093f565b92505060206109b78582860161093f565b9150509250929050565b6109ca8161091e565b82525050565b60006020820190506109e560008301846109c1565b92915050565b600073ffffffffffffffffffffffffffffffffffffffff82169050919050565b6000610a16826109eb565b9050919050565b610a2681610a0b565b82525050565b6000602082019050610a416000830184610a1d565b92915050565b610a5081610a0b565b8114610a5b57600080fd5b50565b600081359050610a6d81610a47565b92915050565b600060208284031215610a8957610a88610914565b5b6000610a9784828501610a5e565b91505092915050565b600080fd5b6000601f19601f8301169050919050565b7f4e487b7100000000000000000000000000000000000000000000000000000000600052604160045260246000fd5b610aee82610aa5565b810181811067ffffffffffffffff82111715610b0d57610b0c610ab6565b5b80604052505050565b6000610b2061090a565b9050610b2c8282610ae5565b919050565b600080fd5b600081519050610b4581610928565b92915050565b600081519050610b5a81610a47565b92915050565b6000819050919050565b610b7381610b60565b8114610b7e57600080fd5b50565b600081519050610b9081610b6a565b92915050565b600080fd5b600067ffffffffffffffff821115610bb657610bb5610ab6565b5b602082029050602081019050919050565b600080fd5b60058110610bd957600080fd5b50565b600081519050610beb81610bcc565b92915050565b6000610c04610bff84610b9b565b610b16565b90508083825260208201905060208402830185811115610c2757610c26610bc7565b5b835b81811015610c505780610c3c8882610bdc565b845260208401935050602081019050610c29565b5050509392505050565b600082601f830112610c6f57610c6e610b96565b5b8151610c7f848260208601610bf1565b91505092915050565b600060c08284031215610c9e57610c9d610aa0565b5b610ca860c0610b16565b90506000610cb884828501610b36565b6000830152506020610ccc84828501610b4b565b6020830152506040610ce084828501610b81565b6040830152506060610cf484828501610b81565b606083015250608082015167ffffffffffffffff811115610d1857610d17610b31565b5b610d2484828501610c5a565b60808301525060a0610d3884828501610b36565b60a08301525092915050565b600060208284031215610d5a57610d59610914565b5b600082015167ffffffffffffffff811115610d7857610d77610919565b5b610d8484828501610c88565b91505092915050565b60058110610d9a57600080fd5b50565b600081519050610dac81610d8d565b92915050565b600060a08284031215610dc857610dc7610aa0565b5b610dd260a0610b16565b90506000610de284828501610b36565b6000830152506020610df684828501610b81565b6020830152506040610e0a84828501610b81565b6040830152506060610e1e84828501610d9d565b6060830152506080610e3284828501610b4b565b60808301525092915050565b600060a08284031215610e5457610e53610914565b5b6000610e6284828501610db2565b91505092915050565b600082825260208201905092915050565b7f536f6c6f20656c2070726f706965746172696f206465206c612070617263656c60008201527f6120707565646520706167617200000000000000000000000000000000000000602082015250565b6000610ed8602d83610e6b565b9150610ee382610e7c565b604082019050919050565b60006020820190508181036000830152610f0781610ecb565b9050919050565b6000606082019050610f236000830186610a1d565b610f306020830185610a1d565b610f3d60408301846109c1565b949350505050565b60008115159050919050565b610f5a81610f45565b8114610f6557600080fd5b50565b600081519050610f7781610f51565b92915050565b600060208284031215610f9357610f92610914565b5b6000610fa184828501610f68565b91505092915050565b7f4f776e61626c653a2063616c6c6572206973206e6f7420746865206f776e6572600082015250565b6000610fe0602083610e6b565b9150610feb82610faa565b602082019050919050565b6000602082019050818103600083015261100f81610fd3565b9050919050565b7f4c412046554d49474143494f4e204e4f204841205349444f2041424f4e414441600082015250565b600061104c602083610e6b565b915061105782611016565b602082019050919050565b6000602082019050818103600083015261107b8161103f565b9050919050565b7f4c412046554d49474143494f4e205941204841205349444f205245414c495a4160008201527f4441000000000000000000000000000000000000000000000000000000000000602082015250565b60006110de602283610e6b565b91506110e982611082565b604082019050919050565b6000602082019050818103600083015261110d816110d1565b9050919050565b7f4f776e61626c653a206e6577206f776e657220697320746865207a65726f206160008201527f6464726573730000000000000000000000000000000000000000000000000000602082015250565b6000611170602683610e6b565b915061117b82611114565b604082019050919050565b6000602082019050818103600083015261119f81611163565b905091905056fea26469706673582212203ee5723e4a44edef961d963d91bce04b1cb437b0da0c1ca7658ea4d439c867fa64736f6c634300080c0033",
  "immutableReferences": {},
  "source": "//SPDX-License-Identifier: UNLICENSED\r\npragma solidity ^0.8.0; \r\n\r\n//Importamos\r\nimport \"@openzeppelin/contracts/access/Ownable.sol\";\r\nimport \"@openzeppelin/contracts/utils/structs/EnumerableSet.sol\";\r\nimport \"@openzeppelin/contracts/utils/Address.sol\";\r\nimport \"@openzeppelin/contracts/utils/Counters.sol\";\r\nimport \"@openzeppelin/contracts/token/ERC20/ERC20.sol\";\r\n\r\nimport \"./Dron.sol\";\r\nimport \"./Parcela.sol\";\r\n\r\n//Extendemos del contrato ERC721 (Contrato destinado a Tokens no fungibles)\r\ncontract FumigacionContract is Ownable {\r\n    using EnumerableSet for EnumerableSet.AddressSet;\r\n    using Counters for Counters.Counter;\r\n    Counters.Counter UltimoID;\r\n\r\n    //Creamos las variables propias del contrato\r\n    struct Solicitud_Fumigacion {\r\n        uint256 _ID;\r\n        uint256 _IDParcela;\r\n        uint256 _IDDron;\r\n        bool _Pagada;\r\n        bool _Finalizada;\r\n    }\r\n\r\n    mapping(uint256 => Solicitud_Fumigacion) private _Solicitudes_Fumigacion;\r\n\r\n    ERC20 _FumiToken;\r\n    DronContract _Dron;\r\n    ParcelaContract _Parcela;\r\n\r\n    constructor(ERC20 FumiToken, DronContract Dron_, ParcelaContract Parcela_) {\r\n        _FumiToken = FumiToken;\r\n        _Dron = Dron_;\r\n        _Parcela = Parcela_;\r\n    }\r\n\r\n    /*\r\n    function _QuitarPosicionArray(uint key) internal {\r\n        require(key < Solicitudes_Fumigacion.length);\r\n        Solicitudes_Fumigacion[key] = Solicitudes_Fumigacion[Solicitudes_Fumigacion.length-1];\r\n        Solicitudes_Fumigacion.pop();\r\n    }\r\n    */\r\n\r\n    event FumigacionRealizada(uint256 IDParcela);\r\n    function RealizarFumigacion(uint256 IDSolicitud_Fumigacion) public onlyOwner {\r\n        require (_Solicitudes_Fumigacion[IDSolicitud_Fumigacion]._Pagada, \"LA FUMIGACION NO HA SIDO ABONADA\");\r\n        require (_Solicitudes_Fumigacion[IDSolicitud_Fumigacion]._Finalizada == false, \"LA FUMIGACION YA HA SIDO REALIZADA\");\r\n        //Enciar al dron a fumigar\r\n        _Solicitudes_Fumigacion[IDSolicitud_Fumigacion]._Finalizada = true;\r\n        emit FumigacionRealizada(_Solicitudes_Fumigacion[IDSolicitud_Fumigacion]._IDParcela);\r\n    }\r\n\r\n    function SolicitarFumigacion(uint256 IDDron, uint256 IDParcela) public returns (uint256){\r\n        UltimoID.increment();\r\n        uint256 IDActual = UltimoID.current();\r\n\r\n        Solicitud_Fumigacion memory Fumigacion = Solicitud_Fumigacion({\r\n            _ID: IDActual,\r\n            _IDParcela: IDParcela,\r\n            _IDDron: IDDron,\r\n            _Pagada: false,\r\n            _Finalizada: false\r\n        });\r\n\r\n        _Solicitudes_Fumigacion[IDActual] = Fumigacion;\r\n\r\n        return IDActual;\r\n    }\r\n\r\n    function PagarFumigacion(uint256 IDSolicitud_Fumigacion) public {\r\n        //solicitar info Dron\r\n        DronContract.Dron memory Dron_ = _Dron.ObtenerInfoDron(_Solicitudes_Fumigacion[IDSolicitud_Fumigacion]._IDDron);\r\n        //solicitar info Parcela\r\n        ParcelaContract.Parcela memory Parcela_ = _Parcela.ObtenerInfoParcela(_Solicitudes_Fumigacion[IDSolicitud_Fumigacion]._IDParcela);\r\n\r\n        require (msg.sender == Parcela_._Owner, \"Solo el propietario de la parcela puede pagar\");\r\n        \r\n        //realizar transferencia\r\n        if (_FumiToken.transferFrom(Parcela_._Owner, Dron_._Empresa, Dron_._Coste)) {\r\n            _Solicitudes_Fumigacion[IDSolicitud_Fumigacion]._Pagada = true;\r\n        }\r\n    }\r\n}",
  "sourcePath": "/Users/trabajo/Documents/apps/front_blockchain_tfe/contracts/Fumigacion.sol",
  "compiler": {
    "name": "solc",
    "version": "0.8.12+commit.f00d7308.Emscripten.clang"
  },
  "schemaVersion": "3.4.6",
  "updatedAt": "2022-03-17T18:36:00.273Z",
  "networkType": "ethereum",
  "devdoc": {
    "kind": "dev",
    "methods": {
      "owner()": {
        "details": "Returns the address of the current owner."
      },
      "renounceOwnership()": {
        "details": "Leaves the contract without owner. It will not be possible to call `onlyOwner` functions anymore. Can only be called by the current owner. NOTE: Renouncing ownership will leave the contract without an owner, thereby removing any functionality that is only available to the owner."
      },
      "transferOwnership(address)": {
        "details": "Transfers ownership of the contract to a new account (`newOwner`). Can only be called by the current owner."
      }
    },
    "version": 1
  },
  "userdoc": {
    "kind": "user",
    "methods": {},
    "version": 1
  }
}