{
  "contractName": "FumigacionContract",
  "abi": [
    {
      "inputs": [
        {
          "internalType": "contract ERC20",
          "name": "FumiToken",
          "type": "address"
        },
        {
          "internalType": "contract DronContract",
          "name": "Dron_",
          "type": "address"
        },
        {
          "internalType": "contract ParcelaContract",
          "name": "Parcela_",
          "type": "address"
        }
      ],
      "stateMutability": "nonpayable",
      "type": "constructor"
    },
    {
      "anonymous": false,
      "inputs": [
        {
          "indexed": false,
          "internalType": "uint256",
          "name": "IDParcela",
          "type": "uint256"
        }
      ],
      "name": "FumigacionRealizada",
      "type": "event"
    },
    {
      "anonymous": false,
      "inputs": [
        {
          "indexed": true,
          "internalType": "address",
          "name": "previousOwner",
          "type": "address"
        },
        {
          "indexed": true,
          "internalType": "address",
          "name": "newOwner",
          "type": "address"
        }
      ],
      "name": "OwnershipTransferred",
      "type": "event"
    },
    {
      "inputs": [],
      "name": "owner",
      "outputs": [
        {
          "internalType": "address",
          "name": "",
          "type": "address"
        }
      ],
      "stateMutability": "view",
      "type": "function"
    },
    {
      "inputs": [],
      "name": "renounceOwnership",
      "outputs": [],
      "stateMutability": "nonpayable",
      "type": "function"
    },
    {
      "inputs": [
        {
          "internalType": "address",
          "name": "newOwner",
          "type": "address"
        }
      ],
      "name": "transferOwnership",
      "outputs": [],
      "stateMutability": "nonpayable",
      "type": "function"
    },
    {
      "inputs": [
        {
          "internalType": "uint256",
          "name": "IDSolicitud_Fumigacion",
          "type": "uint256"
        }
      ],
      "name": "RealizarFumigacion",
      "outputs": [],
      "stateMutability": "nonpayable",
      "type": "function"
    },
    {
      "inputs": [
        {
          "internalType": "uint256",
          "name": "IDDron",
          "type": "uint256"
        },
        {
          "internalType": "uint256",
          "name": "IDParcela",
          "type": "uint256"
        }
      ],
      "name": "SolicitarFumigacion",
      "outputs": [
        {
          "internalType": "uint256",
          "name": "",
          "type": "uint256"
        }
      ],
      "stateMutability": "nonpayable",
      "type": "function"
    },
    {
      "inputs": [
        {
          "internalType": "uint256",
          "name": "IDDron",
          "type": "uint256"
        },
        {
          "internalType": "uint256",
          "name": "IDParcela",
          "type": "uint256"
        }
      ],
      "name": "ComprobarCompatibilidad",
      "outputs": [
        {
          "internalType": "bool",
          "name": "",
          "type": "bool"
        }
      ],
      "stateMutability": "view",
      "type": "function"
    },
    {
      "inputs": [
        {
          "internalType": "uint256",
          "name": "IDSolicitud_Fumigacion",
          "type": "uint256"
        }
      ],
      "name": "PagarFumigacion",
      "outputs": [],
      "stateMutability": "nonpayable",
      "type": "function"
    },
    {
      "inputs": [
        {
          "internalType": "uint256",
          "name": "ID",
          "type": "uint256"
        }
      ],
      "name": "ObtenerInfoFumigacion",
      "outputs": [
        {
          "components": [
            {
              "internalType": "uint256",
              "name": "_ID",
              "type": "uint256"
            },
            {
              "internalType": "uint256",
              "name": "_IDParcela",
              "type": "uint256"
            },
            {
              "internalType": "uint256",
              "name": "_IDDron",
              "type": "uint256"
            },
            {
              "internalType": "bool",
              "name": "_Pagada",
              "type": "bool"
            },
            {
              "internalType": "bool",
              "name": "_Finalizada",
              "type": "bool"
            }
          ],
          "internalType": "struct FumigacionContract.Solicitud_Fumigacion",
          "name": "",
          "type": "tuple"
        }
      ],
      "stateMutability": "view",
      "type": "function"
    },
    {
      "inputs": [],
      "name": "ObtenerInfoFumigaciones",
      "outputs": [
        {
          "components": [
            {
              "internalType": "uint256",
              "name": "_ID",
              "type": "uint256"
            },
            {
              "internalType": "uint256",
              "name": "_IDParcela",
              "type": "uint256"
            },
            {
              "internalType": "uint256",
              "name": "_IDDron",
              "type": "uint256"
            },
            {
              "internalType": "bool",
              "name": "_Pagada",
              "type": "bool"
            },
            {
              "internalType": "bool",
              "name": "_Finalizada",
              "type": "bool"
            }
          ],
          "internalType": "struct FumigacionContract.Solicitud_Fumigacion[]",
          "name": "",
          "type": "tuple[]"
        }
      ],
      "stateMutability": "view",
      "type": "function"
    }
  ],
  "bytecode": "0x60806040523480156200001157600080fd5b5060405162001e7038038062001e708339818101604052810190620000379190620002f7565b620000576200004b6200012360201b60201c565b6200012b60201b60201c565b82600460006101000a81548173ffffffffffffffffffffffffffffffffffffffff021916908373ffffffffffffffffffffffffffffffffffffffff16021790555081600560006101000a81548173ffffffffffffffffffffffffffffffffffffffff021916908373ffffffffffffffffffffffffffffffffffffffff16021790555080600660006101000a81548173ffffffffffffffffffffffffffffffffffffffff021916908373ffffffffffffffffffffffffffffffffffffffff16021790555050505062000353565b600033905090565b60008060009054906101000a900473ffffffffffffffffffffffffffffffffffffffff169050816000806101000a81548173ffffffffffffffffffffffffffffffffffffffff021916908373ffffffffffffffffffffffffffffffffffffffff1602179055508173ffffffffffffffffffffffffffffffffffffffff168173ffffffffffffffffffffffffffffffffffffffff167f8be0079c531659141344cd1fd0a4f28419497f9722a3daafe3b4186f6b6457e060405160405180910390a35050565b600080fd5b600073ffffffffffffffffffffffffffffffffffffffff82169050919050565b60006200022182620001f4565b9050919050565b6000620002358262000214565b9050919050565b620002478162000228565b81146200025357600080fd5b50565b60008151905062000267816200023c565b92915050565b60006200027a8262000214565b9050919050565b6200028c816200026d565b81146200029857600080fd5b50565b600081519050620002ac8162000281565b92915050565b6000620002bf8262000214565b9050919050565b620002d181620002b2565b8114620002dd57600080fd5b50565b600081519050620002f181620002c6565b92915050565b600080600060608486031215620003135762000312620001ef565b5b6000620003238682870162000256565b935050602062000336868287016200029b565b92505060406200034986828701620002e0565b9150509250925092565b611b0d80620003636000396000f3fe608060405234801561001057600080fd5b50600436106100935760003560e01c8063715018a611610066578063715018a6146101325780638da5cb5b1461013c578063c1f825591461015a578063f2fde38b14610176578063f7d8b09a1461019257610093565b806317967b9b14610098578063315b4d60146100b457806343726b0b146100d257806346256d0714610102575b600080fd5b6100b260048036038101906100ad9190610e76565b6101c2565b005b6100bc61048d565b6040516100c99190610fe4565b60405180910390f35b6100ec60048036038101906100e79190610e76565b610540565b6040516100f9919061106e565b60405180910390f35b61011c60048036038101906101179190611089565b6105c1565b60405161012991906110d8565b60405180910390f35b61013a610718565b005b6101446107a0565b6040516101519190611134565b60405180910390f35b610174600480360381019061016f9190610e76565b6107c9565b005b610190600480360381019061018b919061117b565b610991565b005b6101ac60048036038101906101a79190611089565b610a89565b6040516101b991906111b7565b60405180910390f35b6000600560009054906101000a900473ffffffffffffffffffffffffffffffffffffffff1673ffffffffffffffffffffffffffffffffffffffff1663b45d6c1260026000858152602001908152602001600020600201546040518263ffffffff1660e01b815260040161023591906110d8565b600060405180830381865afa158015610252573d6000803e3d6000fd5b505050506040513d6000823e3d601f19601f8201168201806040525081019061027b9190611476565b90506000600660009054906101000a900473ffffffffffffffffffffffffffffffffffffffff1673ffffffffffffffffffffffffffffffffffffffff1663d5f8d1df60026000868152602001908152602001600020600101546040518263ffffffff1660e01b81526004016102f091906110d8565b60a060405180830381865afa15801561030d573d6000803e3d6000fd5b505050506040513d601f19601f82011682018060405250810190610331919061154b565b9050806080015173ffffffffffffffffffffffffffffffffffffffff163373ffffffffffffffffffffffffffffffffffffffff16146103a5576040517f08c379a000000000000000000000000000000000000000000000000000000000815260040161039c906115fb565b60405180910390fd5b600460009054906101000a900473ffffffffffffffffffffffffffffffffffffffff1673ffffffffffffffffffffffffffffffffffffffff166323b872dd8260800151846020015185608001516040518463ffffffff1660e01b81526004016104109392919061161b565b6020604051808303816000875af115801561042f573d6000803e3d6000fd5b505050506040513d601f19601f82011682018060405250810190610453919061167e565b156104885760016002600085815260200190815260200160002060030160006101000a81548160ff0219169083151502179055505b505050565b60606003805480602002602001604051908101604052809291908181526020016000905b8282101561053757838290600052602060002090600402016040518060a00160405290816000820154815260200160018201548152602001600282015481526020016003820160009054906101000a900460ff161515151581526020016003820160019054906101000a900460ff161515151581525050815260200190600101906104b1565b50505050905090565b610548610df9565b600260008381526020019081526020016000206040518060a00160405290816000820154815260200160018201548152602001600282015481526020016003820160009054906101000a900460ff161515151581526020016003820160019054906101000a900460ff1615151515815250509050919050565b60006105cd6001610d09565b60006105d96001610d1f565b905060006040518060a00160405280838152602001858152602001868152602001600015158152602001600015158152509050806002600084815260200190815260200160002060008201518160000155602082015181600101556040820151816002015560608201518160030160006101000a81548160ff02191690831515021790555060808201518160030160016101000a81548160ff021916908315150217905550905050600381908060018154018082558091505060019003906000526020600020906004020160009091909190915060008201518160000155602082015181600101556040820151816002015560608201518160030160006101000a81548160ff02191690831515021790555060808201518160030160016101000a81548160ff0219169083151502179055505050819250505092915050565b610720610d2d565b73ffffffffffffffffffffffffffffffffffffffff1661073e6107a0565b73ffffffffffffffffffffffffffffffffffffffff1614610794576040517f08c379a000000000000000000000000000000000000000000000000000000000815260040161078b906116f7565b60405180910390fd5b61079e6000610d35565b565b60008060009054906101000a900473ffffffffffffffffffffffffffffffffffffffff16905090565b6107d1610d2d565b73ffffffffffffffffffffffffffffffffffffffff166107ef6107a0565b73ffffffffffffffffffffffffffffffffffffffff1614610845576040517f08c379a000000000000000000000000000000000000000000000000000000000815260040161083c906116f7565b60405180910390fd5b6002600082815260200190815260200160002060030160009054906101000a900460ff166108a8576040517f08c379a000000000000000000000000000000000000000000000000000000000815260040161089f90611763565b60405180910390fd5b600015156002600083815260200190815260200160002060030160019054906101000a900460ff16151514610912576040517f08c379a0000000000000000000000000000000000000000000000000000000008152600401610909906117f5565b60405180910390fd5b60016002600083815260200190815260200160002060030160016101000a81548160ff0219169083151502179055507f633e02450bf391046ad2a44e361e07e48a816ffe06eb04f58da249be1608f9f8600260008381526020019081526020016000206001015460405161098691906110d8565b60405180910390a150565b610999610d2d565b73ffffffffffffffffffffffffffffffffffffffff166109b76107a0565b73ffffffffffffffffffffffffffffffffffffffff1614610a0d576040517f08c379a0000000000000000000000000000000000000000000000000000000008152600401610a04906116f7565b60405180910390fd5b600073ffffffffffffffffffffffffffffffffffffffff168173ffffffffffffffffffffffffffffffffffffffff161415610a7d576040517f08c379a0000000000000000000000000000000000000000000000000000000008152600401610a7490611887565b60405180910390fd5b610a8681610d35565b50565b600080600660009054906101000a900473ffffffffffffffffffffffffffffffffffffffff1673ffffffffffffffffffffffffffffffffffffffff1663d5f8d1df846040518263ffffffff1660e01b8152600401610ae791906110d8565b60a060405180830381865afa158015610b04573d6000803e3d6000fd5b505050506040513d601f19601f82011682018060405250810190610b28919061154b565b90506000600560009054906101000a900473ffffffffffffffffffffffffffffffffffffffff1673ffffffffffffffffffffffffffffffffffffffff1663f4c54c248684606001516040518363ffffffff1660e01b8152600401610b8d92919061191e565b602060405180830381865afa158015610baa573d6000803e3d6000fd5b505050506040513d601f19601f82011682018060405250810190610bce919061167e565b905080610c10576040517f08c379a0000000000000000000000000000000000000000000000000000000008152600401610c07906119df565b60405180910390fd5b6000600560009054906101000a900473ffffffffffffffffffffffffffffffffffffffff1673ffffffffffffffffffffffffffffffffffffffff166338a18c4987856020015186604001516040518463ffffffff1660e01b8152600401610c7993929190611a0e565b602060405180830381865afa158015610c96573d6000803e3d6000fd5b505050506040513d601f19601f82011682018060405250810190610cba919061167e565b905080610cfc576040517f08c379a0000000000000000000000000000000000000000000000000000000008152600401610cf390611ab7565b60405180910390fd5b6001935050505092915050565b6001816000016000828254019250508190555050565b600081600001549050919050565b600033905090565b60008060009054906101000a900473ffffffffffffffffffffffffffffffffffffffff169050816000806101000a81548173ffffffffffffffffffffffffffffffffffffffff021916908373ffffffffffffffffffffffffffffffffffffffff1602179055508173ffffffffffffffffffffffffffffffffffffffff168173ffffffffffffffffffffffffffffffffffffffff167f8be0079c531659141344cd1fd0a4f28419497f9722a3daafe3b4186f6b6457e060405160405180910390a35050565b6040518060a001604052806000815260200160008152602001600081526020016000151581526020016000151581525090565b6000604051905090565b600080fd5b600080fd5b6000819050919050565b610e5381610e40565b8114610e5e57600080fd5b50565b600081359050610e7081610e4a565b92915050565b600060208284031215610e8c57610e8b610e36565b5b6000610e9a84828501610e61565b91505092915050565b600081519050919050565b600082825260208201905092915050565b6000819050602082019050919050565b610ed881610e40565b82525050565b60008115159050919050565b610ef381610ede565b82525050565b60a082016000820151610f0f6000850182610ecf565b506020820151610f226020850182610ecf565b506040820151610f356040850182610ecf565b506060820151610f486060850182610eea565b506080820151610f5b6080850182610eea565b50505050565b6000610f6d8383610ef9565b60a08301905092915050565b6000602082019050919050565b6000610f9182610ea3565b610f9b8185610eae565b9350610fa683610ebf565b8060005b83811015610fd7578151610fbe8882610f61565b9750610fc983610f79565b925050600181019050610faa565b5085935050505092915050565b60006020820190508181036000830152610ffe8184610f86565b905092915050565b60a08201600082015161101c6000850182610ecf565b50602082015161102f6020850182610ecf565b5060408201516110426040850182610ecf565b5060608201516110556060850182610eea565b5060808201516110686080850182610eea565b50505050565b600060a0820190506110836000830184611006565b92915050565b600080604083850312156110a05761109f610e36565b5b60006110ae85828601610e61565b92505060206110bf85828601610e61565b9150509250929050565b6110d281610e40565b82525050565b60006020820190506110ed60008301846110c9565b92915050565b600073ffffffffffffffffffffffffffffffffffffffff82169050919050565b600061111e826110f3565b9050919050565b61112e81611113565b82525050565b60006020820190506111496000830184611125565b92915050565b61115881611113565b811461116357600080fd5b50565b6000813590506111758161114f565b92915050565b60006020828403121561119157611190610e36565b5b600061119f84828501611166565b91505092915050565b6111b181610ede565b82525050565b60006020820190506111cc60008301846111a8565b92915050565b600080fd5b6000601f19601f8301169050919050565b7f4e487b7100000000000000000000000000000000000000000000000000000000600052604160045260246000fd5b611220826111d7565b810181811067ffffffffffffffff8211171561123f5761123e6111e8565b5b80604052505050565b6000611252610e2c565b905061125e8282611217565b919050565b600080fd5b60008151905061127781610e4a565b92915050565b60008151905061128c8161114f565b92915050565b6000819050919050565b6112a581611292565b81146112b057600080fd5b50565b6000815190506112c28161129c565b92915050565b600080fd5b600067ffffffffffffffff8211156112e8576112e76111e8565b5b602082029050602081019050919050565b600080fd5b6005811061130b57600080fd5b50565b60008151905061131d816112fe565b92915050565b6000611336611331846112cd565b611248565b90508083825260208201905060208402830185811115611359576113586112f9565b5b835b81811015611382578061136e888261130e565b84526020840193505060208101905061135b565b5050509392505050565b600082601f8301126113a1576113a06112c8565b5b81516113b1848260208601611323565b91505092915050565b600060c082840312156113d0576113cf6111d2565b5b6113da60c0611248565b905060006113ea84828501611268565b60008301525060206113fe8482850161127d565b6020830152506040611412848285016112b3565b6040830152506060611426848285016112b3565b606083015250608061143a84828501611268565b60808301525060a082015167ffffffffffffffff81111561145e5761145d611263565b5b61146a8482850161138c565b60a08301525092915050565b60006020828403121561148c5761148b610e36565b5b600082015167ffffffffffffffff8111156114aa576114a9610e3b565b5b6114b6848285016113ba565b91505092915050565b600060a082840312156114d5576114d46111d2565b5b6114df60a0611248565b905060006114ef84828501611268565b6000830152506020611503848285016112b3565b6020830152506040611517848285016112b3565b604083015250606061152b8482850161130e565b606083015250608061153f8482850161127d565b60808301525092915050565b600060a0828403121561156157611560610e36565b5b600061156f848285016114bf565b91505092915050565b600082825260208201905092915050565b7f536f6c6f20656c2070726f706965746172696f206465206c612070617263656c60008201527f6120707565646520706167617200000000000000000000000000000000000000602082015250565b60006115e5602d83611578565b91506115f082611589565b604082019050919050565b60006020820190508181036000830152611614816115d8565b9050919050565b60006060820190506116306000830186611125565b61163d6020830185611125565b61164a60408301846110c9565b949350505050565b61165b81610ede565b811461166657600080fd5b50565b60008151905061167881611652565b92915050565b60006020828403121561169457611693610e36565b5b60006116a284828501611669565b91505092915050565b7f4f776e61626c653a2063616c6c6572206973206e6f7420746865206f776e6572600082015250565b60006116e1602083611578565b91506116ec826116ab565b602082019050919050565b60006020820190508181036000830152611710816116d4565b9050919050565b7f4c412046554d49474143494f4e204e4f204841205349444f2041424f4e414441600082015250565b600061174d602083611578565b915061175882611717565b602082019050919050565b6000602082019050818103600083015261177c81611740565b9050919050565b7f4c412046554d49474143494f4e205941204841205349444f205245414c495a4160008201527f4441000000000000000000000000000000000000000000000000000000000000602082015250565b60006117df602283611578565b91506117ea82611783565b604082019050919050565b6000602082019050818103600083015261180e816117d2565b9050919050565b7f4f776e61626c653a206e6577206f776e657220697320746865207a65726f206160008201527f6464726573730000000000000000000000000000000000000000000000000000602082015250565b6000611871602683611578565b915061187c82611815565b604082019050919050565b600060208201905081810360008301526118a081611864565b9050919050565b7f4e487b7100000000000000000000000000000000000000000000000000000000600052602160045260246000fd5b600581106118e7576118e66118a7565b5b50565b60008190506118f8826118d6565b919050565b6000611908826118ea565b9050919050565b611918816118fd565b82525050565b600060408201905061193360008301856110c9565b611940602083018461190f565b9392505050565b7f454c2044524f4e204e4f2050554544452053554d494e49535452415220454c2060008201527f504553544943494441204e454345534152494f2050415241204c41205041524360208201527f454c410000000000000000000000000000000000000000000000000000000000604082015250565b60006119c9604383611578565b91506119d482611947565b606082019050919050565b600060208201905081810360008301526119f8816119bc565b9050919050565b611a0881611292565b82525050565b6000606082019050611a2360008301866110c9565b611a3060208301856119ff565b611a3d60408301846119ff565b949350505050565b7f454c2044524f4e204e4f2050554544452054524142414a41522041204c41204160008201527f4c54495455442052455155455249444100000000000000000000000000000000602082015250565b6000611aa1603083611578565b9150611aac82611a45565b604082019050919050565b60006020820190508181036000830152611ad081611a94565b905091905056fea264697066735822122065e7248af21fa2f4c79976cd141e0dee06c6af131d9f843cbb11581ca121ad2e64736f6c634300080c0033",
  "immutableReferences": {},
  "source": "//SPDX-License-Identifier: UNLICENSED\r\npragma solidity ^0.8.0; \r\n\r\n//Importamos\r\nimport \"@openzeppelin/contracts/access/Ownable.sol\";\r\nimport \"@openzeppelin/contracts/utils/structs/EnumerableSet.sol\";\r\nimport \"@openzeppelin/contracts/utils/Address.sol\";\r\nimport \"@openzeppelin/contracts/utils/Counters.sol\";\r\nimport \"@openzeppelin/contracts/token/ERC20/ERC20.sol\";\r\n\r\nimport \"./Dron.sol\";\r\nimport \"./Parcela.sol\";\r\n\r\n//Extendemos del contrato ERC721 (Contrato destinado a Tokens no fungibles)\r\ncontract FumigacionContract is Ownable {\r\n    using EnumerableSet for EnumerableSet.AddressSet;\r\n    using Counters for Counters.Counter;\r\n    Counters.Counter UltimoID;\r\n\r\n    //Creamos las variables propias del contrato\r\n    struct Solicitud_Fumigacion {\r\n        uint256 _ID;\r\n        uint256 _IDParcela;\r\n        uint256 _IDDron;\r\n        bool _Pagada;\r\n        bool _Finalizada;\r\n    }\r\n\r\n    mapping(uint256 => Solicitud_Fumigacion) private _Solicitudes_Fumigacion;\r\n\r\n    Solicitud_Fumigacion[] FUMIGACIONES;\r\n\r\n    ERC20 _FumiToken;\r\n    DronContract _Dron;\r\n    ParcelaContract _Parcela;\r\n\r\n    constructor(ERC20 FumiToken, DronContract Dron_, ParcelaContract Parcela_) {\r\n        _FumiToken = FumiToken;\r\n        _Dron = Dron_;\r\n        _Parcela = Parcela_;\r\n    }\r\n\r\n    /*\r\n    function _QuitarPosicionArray(uint key) internal {\r\n        require(key < Solicitudes_Fumigacion.length);\r\n        Solicitudes_Fumigacion[key] = Solicitudes_Fumigacion[Solicitudes_Fumigacion.length-1];\r\n        Solicitudes_Fumigacion.pop();\r\n    }\r\n    */\r\n\r\n    event FumigacionRealizada(uint256 IDParcela);\r\n    function RealizarFumigacion(uint256 IDSolicitud_Fumigacion) public onlyOwner {\r\n        require (_Solicitudes_Fumigacion[IDSolicitud_Fumigacion]._Pagada, \"LA FUMIGACION NO HA SIDO ABONADA\");\r\n        require (_Solicitudes_Fumigacion[IDSolicitud_Fumigacion]._Finalizada == false, \"LA FUMIGACION YA HA SIDO REALIZADA\");\r\n        //Enciar al dron a fumigar\r\n        _Solicitudes_Fumigacion[IDSolicitud_Fumigacion]._Finalizada = true;\r\n        emit FumigacionRealizada(_Solicitudes_Fumigacion[IDSolicitud_Fumigacion]._IDParcela);\r\n    }\r\n\r\n    function SolicitarFumigacion(uint256 IDDron, uint256 IDParcela) public returns (uint256){\r\n        UltimoID.increment();\r\n        uint256 IDActual = UltimoID.current();\r\n\r\n        Solicitud_Fumigacion memory Fumigacion = Solicitud_Fumigacion({\r\n            _ID: IDActual,\r\n            _IDParcela: IDParcela,\r\n            _IDDron: IDDron,\r\n            _Pagada: false,\r\n            _Finalizada: false\r\n        });\r\n\r\n        _Solicitudes_Fumigacion[IDActual] = Fumigacion;\r\n        FUMIGACIONES.push(Fumigacion);\r\n\r\n        return IDActual;\r\n    }\r\n\r\n    function ComprobarCompatibilidad(uint256 IDDron, uint256 IDParcela) public view returns (bool){\r\n        //solicitar info Parcela\r\n        ParcelaContract.Parcela memory Parcela_ = _Parcela.ObtenerInfoParcela(IDParcela);\r\n\r\n        bool DronPesticida_ = _Dron.ComprobarPesticida(IDDron,Parcela_._Pesticida);\r\n        require (DronPesticida_, \"EL DRON NO PUEDE SUMINISTRAR EL PESTICIDA NECESARIO PARA LA PARCELA\");\r\n\r\n        bool DronAltitud_ = _Dron.ComprobarAltitud(IDDron,Parcela_._Altitud_MIN,Parcela_._Altitud_MAX);\r\n        require (DronAltitud_, \"EL DRON NO PUEDE TRABAJAR A LA ALTITUD REQUERIDA\");\r\n        \r\n        return true;\r\n    }\r\n\r\n    function PagarFumigacion(uint256 IDSolicitud_Fumigacion) public {\r\n        //solicitar info Dron\r\n        DronContract.Dron memory Dron_ = _Dron.ObtenerInfoDron(_Solicitudes_Fumigacion[IDSolicitud_Fumigacion]._IDDron);\r\n        //solicitar info Parcela\r\n        ParcelaContract.Parcela memory Parcela_ = _Parcela.ObtenerInfoParcela(_Solicitudes_Fumigacion[IDSolicitud_Fumigacion]._IDParcela);\r\n\r\n        require (msg.sender == Parcela_._Owner, \"Solo el propietario de la parcela puede pagar\");\r\n        \r\n        //realizar transferencia\r\n        if (_FumiToken.transferFrom(Parcela_._Owner, Dron_._Empresa, Dron_._Coste)) {\r\n            _Solicitudes_Fumigacion[IDSolicitud_Fumigacion]._Pagada = true;\r\n        }\r\n    }\r\n\r\n    function ObtenerInfoFumigacion(uint256 ID) public view returns (Solicitud_Fumigacion memory) {\r\n        return _Solicitudes_Fumigacion[ID];\r\n    }\r\n\r\n    function ObtenerInfoFumigaciones() public view returns (Solicitud_Fumigacion [] memory) {\r\n        return FUMIGACIONES;\r\n    }\r\n}",
  "sourcePath": "/Users/trabajo/Documents/apps/front_blockchain_tfe/contracts/Fumigacion.sol",
  "compiler": {
    "name": "solc",
    "version": "0.8.12+commit.f00d7308.Emscripten.clang"
  },
  "schemaVersion": "3.4.6",
  "updatedAt": "2022-03-18T20:47:12.405Z",
  "devdoc": {
    "kind": "dev",
    "methods": {
      "owner()": {
        "details": "Returns the address of the current owner."
      },
      "renounceOwnership()": {
        "details": "Leaves the contract without owner. It will not be possible to call `onlyOwner` functions anymore. Can only be called by the current owner. NOTE: Renouncing ownership will leave the contract without an owner, thereby removing any functionality that is only available to the owner."
      },
      "transferOwnership(address)": {
        "details": "Transfers ownership of the contract to a new account (`newOwner`). Can only be called by the current owner."
      }
    },
    "version": 1
  },
  "userdoc": {
    "kind": "user",
    "methods": {},
    "version": 1
  }
}