{
  "contractName": "ParcelaContract",
  "abi": [
    {
      "inputs": [],
      "stateMutability": "nonpayable",
      "type": "constructor"
    },
    {
      "anonymous": false,
      "inputs": [
        {
          "indexed": true,
          "internalType": "address",
          "name": "owner",
          "type": "address"
        },
        {
          "indexed": true,
          "internalType": "address",
          "name": "approved",
          "type": "address"
        },
        {
          "indexed": true,
          "internalType": "uint256",
          "name": "tokenId",
          "type": "uint256"
        }
      ],
      "name": "Approval",
      "type": "event"
    },
    {
      "anonymous": false,
      "inputs": [
        {
          "indexed": true,
          "internalType": "address",
          "name": "owner",
          "type": "address"
        },
        {
          "indexed": true,
          "internalType": "address",
          "name": "operator",
          "type": "address"
        },
        {
          "indexed": false,
          "internalType": "bool",
          "name": "approved",
          "type": "bool"
        }
      ],
      "name": "ApprovalForAll",
      "type": "event"
    },
    {
      "anonymous": false,
      "inputs": [
        {
          "indexed": true,
          "internalType": "address",
          "name": "from",
          "type": "address"
        },
        {
          "indexed": true,
          "internalType": "address",
          "name": "to",
          "type": "address"
        },
        {
          "indexed": true,
          "internalType": "uint256",
          "name": "tokenId",
          "type": "uint256"
        }
      ],
      "name": "Transfer",
      "type": "event"
    },
    {
      "inputs": [
        {
          "internalType": "address",
          "name": "to",
          "type": "address"
        },
        {
          "internalType": "uint256",
          "name": "tokenId",
          "type": "uint256"
        }
      ],
      "name": "approve",
      "outputs": [],
      "stateMutability": "nonpayable",
      "type": "function"
    },
    {
      "inputs": [
        {
          "internalType": "address",
          "name": "owner",
          "type": "address"
        }
      ],
      "name": "balanceOf",
      "outputs": [
        {
          "internalType": "uint256",
          "name": "",
          "type": "uint256"
        }
      ],
      "stateMutability": "view",
      "type": "function",
      "constant": true
    },
    {
      "inputs": [
        {
          "internalType": "uint256",
          "name": "tokenId",
          "type": "uint256"
        }
      ],
      "name": "getApproved",
      "outputs": [
        {
          "internalType": "address",
          "name": "",
          "type": "address"
        }
      ],
      "stateMutability": "view",
      "type": "function",
      "constant": true
    },
    {
      "inputs": [
        {
          "internalType": "address",
          "name": "owner",
          "type": "address"
        },
        {
          "internalType": "address",
          "name": "operator",
          "type": "address"
        }
      ],
      "name": "isApprovedForAll",
      "outputs": [
        {
          "internalType": "bool",
          "name": "",
          "type": "bool"
        }
      ],
      "stateMutability": "view",
      "type": "function",
      "constant": true
    },
    {
      "inputs": [],
      "name": "name",
      "outputs": [
        {
          "internalType": "string",
          "name": "",
          "type": "string"
        }
      ],
      "stateMutability": "view",
      "type": "function",
      "constant": true
    },
    {
      "inputs": [
        {
          "internalType": "uint256",
          "name": "tokenId",
          "type": "uint256"
        }
      ],
      "name": "ownerOf",
      "outputs": [
        {
          "internalType": "address",
          "name": "",
          "type": "address"
        }
      ],
      "stateMutability": "view",
      "type": "function",
      "constant": true
    },
    {
      "inputs": [
        {
          "internalType": "address",
          "name": "from",
          "type": "address"
        },
        {
          "internalType": "address",
          "name": "to",
          "type": "address"
        },
        {
          "internalType": "uint256",
          "name": "tokenId",
          "type": "uint256"
        }
      ],
      "name": "safeTransferFrom",
      "outputs": [],
      "stateMutability": "nonpayable",
      "type": "function"
    },
    {
      "inputs": [
        {
          "internalType": "address",
          "name": "from",
          "type": "address"
        },
        {
          "internalType": "address",
          "name": "to",
          "type": "address"
        },
        {
          "internalType": "uint256",
          "name": "tokenId",
          "type": "uint256"
        },
        {
          "internalType": "bytes",
          "name": "_data",
          "type": "bytes"
        }
      ],
      "name": "safeTransferFrom",
      "outputs": [],
      "stateMutability": "nonpayable",
      "type": "function"
    },
    {
      "inputs": [
        {
          "internalType": "address",
          "name": "operator",
          "type": "address"
        },
        {
          "internalType": "bool",
          "name": "approved",
          "type": "bool"
        }
      ],
      "name": "setApprovalForAll",
      "outputs": [],
      "stateMutability": "nonpayable",
      "type": "function"
    },
    {
      "inputs": [
        {
          "internalType": "bytes4",
          "name": "interfaceId",
          "type": "bytes4"
        }
      ],
      "name": "supportsInterface",
      "outputs": [
        {
          "internalType": "bool",
          "name": "",
          "type": "bool"
        }
      ],
      "stateMutability": "view",
      "type": "function",
      "constant": true
    },
    {
      "inputs": [],
      "name": "symbol",
      "outputs": [
        {
          "internalType": "string",
          "name": "",
          "type": "string"
        }
      ],
      "stateMutability": "view",
      "type": "function",
      "constant": true
    },
    {
      "inputs": [
        {
          "internalType": "uint256",
          "name": "tokenId",
          "type": "uint256"
        }
      ],
      "name": "tokenURI",
      "outputs": [
        {
          "internalType": "string",
          "name": "",
          "type": "string"
        }
      ],
      "stateMutability": "view",
      "type": "function",
      "constant": true
    },
    {
      "inputs": [
        {
          "internalType": "address",
          "name": "from",
          "type": "address"
        },
        {
          "internalType": "address",
          "name": "to",
          "type": "address"
        },
        {
          "internalType": "uint256",
          "name": "tokenId",
          "type": "uint256"
        }
      ],
      "name": "transferFrom",
      "outputs": [],
      "stateMutability": "nonpayable",
      "type": "function"
    },
    {
      "inputs": [
        {
          "internalType": "int256",
          "name": "MIN",
          "type": "int256"
        },
        {
          "internalType": "int256",
          "name": "MAX",
          "type": "int256"
        },
        {
          "internalType": "enum TiposContract._Pesticidas",
          "name": "PESTICIDA",
          "type": "uint8"
        }
      ],
      "name": "CrearParcela",
      "outputs": [
        {
          "internalType": "uint256",
          "name": "",
          "type": "uint256"
        }
      ],
      "stateMutability": "nonpayable",
      "type": "function"
    },
    {
      "inputs": [
        {
          "internalType": "uint256",
          "name": "ID",
          "type": "uint256"
        },
        {
          "internalType": "int256",
          "name": "MIN",
          "type": "int256"
        },
        {
          "internalType": "int256",
          "name": "MAX",
          "type": "int256"
        }
      ],
      "name": "ConfigurarAltitud",
      "outputs": [
        {
          "internalType": "int256",
          "name": "",
          "type": "int256"
        },
        {
          "internalType": "int256",
          "name": "",
          "type": "int256"
        }
      ],
      "stateMutability": "nonpayable",
      "type": "function"
    },
    {
      "inputs": [
        {
          "internalType": "uint256",
          "name": "ID",
          "type": "uint256"
        },
        {
          "internalType": "enum TiposContract._Pesticidas",
          "name": "PESTICIDA",
          "type": "uint8"
        }
      ],
      "name": "ConfigurarPesticida",
      "outputs": [
        {
          "internalType": "bool",
          "name": "",
          "type": "bool"
        }
      ],
      "stateMutability": "nonpayable",
      "type": "function"
    },
    {
      "inputs": [
        {
          "internalType": "uint256",
          "name": "ID",
          "type": "uint256"
        }
      ],
      "name": "ObtenerInfoParcela",
      "outputs": [
        {
          "components": [
            {
              "internalType": "uint256",
              "name": "_ID",
              "type": "uint256"
            },
            {
              "internalType": "int256",
              "name": "_Altitud_MIN",
              "type": "int256"
            },
            {
              "internalType": "int256",
              "name": "_Altitud_MAX",
              "type": "int256"
            },
            {
              "internalType": "enum TiposContract._Pesticidas",
              "name": "_Pesticida",
              "type": "uint8"
            },
            {
              "internalType": "address",
              "name": "_Owner",
              "type": "address"
            }
          ],
          "internalType": "struct ParcelaContract.Parcela",
          "name": "",
          "type": "tuple"
        }
      ],
      "stateMutability": "view",
      "type": "function",
      "constant": true
    },
    {
      "inputs": [],
      "name": "ObtenerInfoParcelas",
      "outputs": [
        {
          "components": [
            {
              "internalType": "uint256",
              "name": "_ID",
              "type": "uint256"
            },
            {
              "internalType": "int256",
              "name": "_Altitud_MIN",
              "type": "int256"
            },
            {
              "internalType": "int256",
              "name": "_Altitud_MAX",
              "type": "int256"
            },
            {
              "internalType": "enum TiposContract._Pesticidas",
              "name": "_Pesticida",
              "type": "uint8"
            },
            {
              "internalType": "address",
              "name": "_Owner",
              "type": "address"
            }
          ],
          "internalType": "struct ParcelaContract.Parcela[]",
          "name": "",
          "type": "tuple[]"
        }
      ],
      "stateMutability": "view",
      "type": "function",
      "constant": true
    },
    {
      "inputs": [
        {
          "internalType": "uint256",
          "name": "ID",
          "type": "uint256"
        },
        {
          "internalType": "int256",
          "name": "MIN",
          "type": "int256"
        },
        {
          "internalType": "int256",
          "name": "MAX",
          "type": "int256"
        }
      ],
      "name": "ComprobarAltitud",
      "outputs": [
        {
          "internalType": "bool",
          "name": "result",
          "type": "bool"
        }
      ],
      "stateMutability": "view",
      "type": "function",
      "constant": true
    }
  ],
  "bytecode": "0x60806040523480156200001157600080fd5b506040518060400160405280600981526020017f4d7950617263656c6100000000000000000000000000000000000000000000008152506040518060400160405280600881526020017f4d50617263656c61000000000000000000000000000000000000000000000000815250816000908051906020019062000096929190620000b8565b508060019080519060200190620000af929190620000b8565b505050620001cd565b828054620000c69062000197565b90600052602060002090601f016020900481019282620000ea576000855562000136565b82601f106200010557805160ff191683800117855562000136565b8280016001018555821562000136579182015b828111156200013557825182559160200191906001019062000118565b5b50905062000145919062000149565b5090565b5b80821115620001645760008160009055506001016200014a565b5090565b7f4e487b7100000000000000000000000000000000000000000000000000000000600052602260045260246000fd5b60006002820490506001821680620001b057607f821691505b60208210811415620001c757620001c662000168565b5b50919050565b6135a680620001dd6000396000f3fe608060405234801561001057600080fd5b50600436106101215760003560e01c80636678fd0b116100ad578063b88d4fde11610071578063b88d4fde14610353578063c87489fb1461036f578063c87b56dd1461038d578063d5f8d1df146103bd578063e985e9c5146103ed57610121565b80636678fd0b1461028857806370a08231146102b9578063896b4d8f146102e957806395d89b4114610319578063a22cb4651461033757610121565b806323b872dd116100f457806323b872dd146101c057806338a18c49146101dc57806342842e0e1461020c5780635191f06a146102285780636352211e1461025857610121565b806301ffc9a71461012657806306fdde0314610156578063081812fc14610174578063095ea7b3146101a4575b600080fd5b610140600480360381019061013b919061202c565b61041d565b60405161014d9190612074565b60405180910390f35b61015e6104ff565b60405161016b9190612128565b60405180910390f35b61018e60048036038101906101899190612180565b610591565b60405161019b91906121ee565b60405180910390f35b6101be60048036038101906101b99190612235565b610616565b005b6101da60048036038101906101d59190612275565b61072e565b005b6101f660048036038101906101f191906122fe565b61078e565b6040516102039190612074565b60405180910390f35b61022660048036038101906102219190612275565b610864565b005b610242600480360381019061023d9190612376565b610884565b60405161024f91906123d8565b60405180910390f35b610272600480360381019061026d9190612180565b610afb565b60405161027f91906121ee565b60405180910390f35b6102a2600480360381019061029d91906122fe565b610bad565b6040516102b0929190612402565b60405180910390f35b6102d360048036038101906102ce919061242b565b610d54565b6040516102e091906123d8565b60405180910390f35b61030360048036038101906102fe9190612458565b610e0c565b6040516103109190612074565b60405180910390f35b610321610ef1565b60405161032e9190612128565b60405180910390f35b610351600480360381019061034c91906124c4565b610f83565b005b61036d60048036038101906103689190612639565b610f99565b005b610377610ffb565b6040516103849190612877565b60405180910390f35b6103a760048036038101906103a29190612180565b611109565b6040516103b49190612128565b60405180910390f35b6103d760048036038101906103d29190612180565b6111b0565b6040516103e49190612901565b60405180910390f35b6104076004803603810190610402919061291c565b61128c565b6040516104149190612074565b60405180910390f35b60007f80ac58cd000000000000000000000000000000000000000000000000000000007bffffffffffffffffffffffffffffffffffffffffffffffffffffffff1916827bffffffffffffffffffffffffffffffffffffffffffffffffffffffff191614806104e857507f5b5e139f000000000000000000000000000000000000000000000000000000007bffffffffffffffffffffffffffffffffffffffffffffffffffffffff1916827bffffffffffffffffffffffffffffffffffffffffffffffffffffffff1916145b806104f857506104f782611320565b5b9050919050565b60606000805461050e9061298b565b80601f016020809104026020016040519081016040528092919081815260200182805461053a9061298b565b80156105875780601f1061055c57610100808354040283529160200191610587565b820191906000526020600020905b81548152906001019060200180831161056a57829003601f168201915b5050505050905090565b600061059c8261138a565b6105db576040517f08c379a00000000000000000000000000000000000000000000000000000000081526004016105d290612a2f565b60405180910390fd5b6004600083815260200190815260200160002060009054906101000a900473ffffffffffffffffffffffffffffffffffffffff169050919050565b600061062182610afb565b90508073ffffffffffffffffffffffffffffffffffffffff168373ffffffffffffffffffffffffffffffffffffffff161415610692576040517f08c379a000000000000000000000000000000000000000000000000000000000815260040161068990612ac1565b60405180910390fd5b8073ffffffffffffffffffffffffffffffffffffffff166106b16113f6565b73ffffffffffffffffffffffffffffffffffffffff1614806106e057506106df816106da6113f6565b61128c565b5b61071f576040517f08c379a000000000000000000000000000000000000000000000000000000000815260040161071690612b53565b60405180910390fd5b61072983836113fe565b505050565b61073f6107396113f6565b826114b7565b61077e576040517f08c379a000000000000000000000000000000000000000000000000000000000815260040161077590612be5565b60405180910390fd5b610789838383611595565b505050565b60008060076000868152602001908152602001600020600201549050600060076000878152602001908152602001600020600101549050808412806107d257508185135b806107dc57508385135b156107ec5760009250505061085d565b8084121580156107fc5750818413155b8061081357508185131580156108125750808512155b5b156108235760019250505061085d565b8184121580156108335750808513155b8061084a57508184131580156108495750808512155b5b1561085a5760019250505061085d565b50505b9392505050565b61087f83838360405180602001604052806000815250610f99565b505050565b60008084136108c8576040517f08c379a00000000000000000000000000000000000000000000000000000000081526004016108bf90612c77565b60405180910390fd5b8383121561090b576040517f08c379a000000000000000000000000000000000000000000000000000000000815260040161090290612d09565b60405180910390fd5b61091560066117fc565b60006109216006611812565b905061092d3382611820565b60006040518060a0016040528083815260200187815260200186815260200185600481111561095f5761095e612706565b5b81526020013373ffffffffffffffffffffffffffffffffffffffff168152509050806007600084815260200190815260200160002060008201518160000155602082015181600101556040820151816002015560608201518160030160006101000a81548160ff021916908360048111156109dd576109dc612706565b5b021790555060808201518160030160016101000a81548173ffffffffffffffffffffffffffffffffffffffff021916908373ffffffffffffffffffffffffffffffffffffffff160217905550905050600881908060018154018082558091505060019003906000526020600020906004020160009091909190915060008201518160000155602082015181600101556040820151816002015560608201518160030160006101000a81548160ff02191690836004811115610aa157610aa0612706565b5b021790555060808201518160030160016101000a81548173ffffffffffffffffffffffffffffffffffffffff021916908373ffffffffffffffffffffffffffffffffffffffff160217905550505081925050509392505050565b6000806002600084815260200190815260200160002060009054906101000a900473ffffffffffffffffffffffffffffffffffffffff169050600073ffffffffffffffffffffffffffffffffffffffff168173ffffffffffffffffffffffffffffffffffffffff161415610ba4576040517f08c379a0000000000000000000000000000000000000000000000000000000008152600401610b9b90612d9b565b60405180910390fd5b80915050919050565b60008084610bba81610afb565b73ffffffffffffffffffffffffffffffffffffffff163373ffffffffffffffffffffffffffffffffffffffff1614610bf157600080fd5b60008513610c34576040517f08c379a0000000000000000000000000000000000000000000000000000000008152600401610c2b90612c77565b60405180910390fd5b84841215610c77576040517f08c379a0000000000000000000000000000000000000000000000000000000008152600401610c6e90612d09565b60405180910390fd5b846007600088815260200190815260200160002060010181905550836007600088815260200190815260200160002060020181905550846008600188610cbd9190612dea565b81548110610cce57610ccd612e1e565b5b906000526020600020906004020160010181905550836008600188610cf39190612dea565b81548110610d0457610d03612e1e565b5b906000526020600020906004020160020181905550600760008781526020019081526020016000206001015460076000888152602001908152602001600020600201549250925050935093915050565b60008073ffffffffffffffffffffffffffffffffffffffff168273ffffffffffffffffffffffffffffffffffffffff161415610dc5576040517f08c379a0000000000000000000000000000000000000000000000000000000008152600401610dbc90612ebf565b60405180910390fd5b600360008373ffffffffffffffffffffffffffffffffffffffff1673ffffffffffffffffffffffffffffffffffffffff168152602001908152602001600020549050919050565b600082610e1881610afb565b73ffffffffffffffffffffffffffffffffffffffff163373ffffffffffffffffffffffffffffffffffffffff1614610e4f57600080fd5b826007600086815260200190815260200160002060030160006101000a81548160ff02191690836004811115610e8857610e87612706565b5b0217905550826008600186610e9d9190612dea565b81548110610eae57610ead612e1e565b5b906000526020600020906004020160030160006101000a81548160ff02191690836004811115610ee157610ee0612706565b5b0217905550600191505092915050565b606060018054610f009061298b565b80601f0160208091040260200160405190810160405280929190818152602001828054610f2c9061298b565b8015610f795780601f10610f4e57610100808354040283529160200191610f79565b820191906000526020600020905b815481529060010190602001808311610f5c57829003601f168201915b5050505050905090565b610f95610f8e6113f6565b838361183e565b5050565b610faa610fa46113f6565b836114b7565b610fe9576040517f08c379a0000000000000000000000000000000000000000000000000000000008152600401610fe090612be5565b60405180910390fd5b610ff5848484846119ab565b50505050565b60606008805480602002602001604051908101604052809291908181526020016000905b8282101561110057838290600052602060002090600402016040518060a00160405290816000820154815260200160018201548152602001600282015481526020016003820160009054906101000a900460ff16600481111561108557611084612706565b5b600481111561109757611096612706565b5b81526020016003820160019054906101000a900473ffffffffffffffffffffffffffffffffffffffff1673ffffffffffffffffffffffffffffffffffffffff1673ffffffffffffffffffffffffffffffffffffffff16815250508152602001906001019061101f565b50505050905090565b60606111148261138a565b611153576040517f08c379a000000000000000000000000000000000000000000000000000000000815260040161114a90612f51565b60405180910390fd5b600061115d611a07565b9050600081511161117d57604051806020016040528060008152506111a8565b8061118784611a1e565b604051602001611198929190612fad565b6040516020818303038152906040525b915050919050565b6111b8611f69565b600760008381526020019081526020016000206040518060a00160405290816000820154815260200160018201548152602001600282015481526020016003820160009054906101000a900460ff16600481111561121957611218612706565b5b600481111561122b5761122a612706565b5b81526020016003820160019054906101000a900473ffffffffffffffffffffffffffffffffffffffff1673ffffffffffffffffffffffffffffffffffffffff1673ffffffffffffffffffffffffffffffffffffffff16815250509050919050565b6000600560008473ffffffffffffffffffffffffffffffffffffffff1673ffffffffffffffffffffffffffffffffffffffff16815260200190815260200160002060008373ffffffffffffffffffffffffffffffffffffffff1673ffffffffffffffffffffffffffffffffffffffff16815260200190815260200160002060009054906101000a900460ff16905092915050565b60007f01ffc9a7000000000000000000000000000000000000000000000000000000007bffffffffffffffffffffffffffffffffffffffffffffffffffffffff1916827bffffffffffffffffffffffffffffffffffffffffffffffffffffffff1916149050919050565b60008073ffffffffffffffffffffffffffffffffffffffff166002600084815260200190815260200160002060009054906101000a900473ffffffffffffffffffffffffffffffffffffffff1673ffffffffffffffffffffffffffffffffffffffff1614159050919050565b600033905090565b816004600083815260200190815260200160002060006101000a81548173ffffffffffffffffffffffffffffffffffffffff021916908373ffffffffffffffffffffffffffffffffffffffff160217905550808273ffffffffffffffffffffffffffffffffffffffff1661147183610afb565b73ffffffffffffffffffffffffffffffffffffffff167f8c5be1e5ebec7d5bd14f71427d1e84f3dd0314c0f7b2291e5b200ac8c7c3b92560405160405180910390a45050565b60006114c28261138a565b611501576040517f08c379a00000000000000000000000000000000000000000000000000000000081526004016114f890613043565b60405180910390fd5b600061150c83610afb565b90508073ffffffffffffffffffffffffffffffffffffffff168473ffffffffffffffffffffffffffffffffffffffff16148061157b57508373ffffffffffffffffffffffffffffffffffffffff1661156384610591565b73ffffffffffffffffffffffffffffffffffffffff16145b8061158c575061158b818561128c565b5b91505092915050565b8273ffffffffffffffffffffffffffffffffffffffff166115b582610afb565b73ffffffffffffffffffffffffffffffffffffffff161461160b576040517f08c379a0000000000000000000000000000000000000000000000000000000008152600401611602906130d5565b60405180910390fd5b600073ffffffffffffffffffffffffffffffffffffffff168273ffffffffffffffffffffffffffffffffffffffff16141561167b576040517f08c379a000000000000000000000000000000000000000000000000000000000815260040161167290613167565b60405180910390fd5b611686838383611b7f565b6116916000826113fe565b6001600360008573ffffffffffffffffffffffffffffffffffffffff1673ffffffffffffffffffffffffffffffffffffffff16815260200190815260200160002060008282546116e19190612dea565b925050819055506001600360008473ffffffffffffffffffffffffffffffffffffffff1673ffffffffffffffffffffffffffffffffffffffff16815260200190815260200160002060008282546117389190613187565b92505081905550816002600083815260200190815260200160002060006101000a81548173ffffffffffffffffffffffffffffffffffffffff021916908373ffffffffffffffffffffffffffffffffffffffff160217905550808273ffffffffffffffffffffffffffffffffffffffff168473ffffffffffffffffffffffffffffffffffffffff167fddf252ad1be2c89b69c2b068fc378daa952ba7f163c4a11628f55a4df523b3ef60405160405180910390a46117f7838383611b84565b505050565b6001816000016000828254019250508190555050565b600081600001549050919050565b61183a828260405180602001604052806000815250611b89565b5050565b8173ffffffffffffffffffffffffffffffffffffffff168373ffffffffffffffffffffffffffffffffffffffff1614156118ad576040517f08c379a00000000000000000000000000000000000000000000000000000000081526004016118a490613229565b60405180910390fd5b80600560008573ffffffffffffffffffffffffffffffffffffffff1673ffffffffffffffffffffffffffffffffffffffff16815260200190815260200160002060008473ffffffffffffffffffffffffffffffffffffffff1673ffffffffffffffffffffffffffffffffffffffff16815260200190815260200160002060006101000a81548160ff0219169083151502179055508173ffffffffffffffffffffffffffffffffffffffff168373ffffffffffffffffffffffffffffffffffffffff167f17307eab39ab6107e8899845ad3d59bd9653f200f220920489ca2b5937696c318360405161199e9190612074565b60405180910390a3505050565b6119b6848484611595565b6119c284848484611be4565b611a01576040517f08c379a00000000000000000000000000000000000000000000000000000000081526004016119f8906132bb565b60405180910390fd5b50505050565b606060405180602001604052806000815250905090565b60606000821415611a66576040518060400160405280600181526020017f30000000000000000000000000000000000000000000000000000000000000008152509050611b7a565b600082905060005b60008214611a98578080611a81906132db565b915050600a82611a919190613353565b9150611a6e565b60008167ffffffffffffffff811115611ab457611ab361250e565b5b6040519080825280601f01601f191660200182016040528015611ae65781602001600182028036833780820191505090505b5090505b60008514611b7357600182611aff9190612dea565b9150600a85611b0e9190613384565b6030611b1a9190613187565b60f81b818381518110611b3057611b2f612e1e565b5b60200101907effffffffffffffffffffffffffffffffffffffffffffffffffffffffffffff1916908160001a905350600a85611b6c9190613353565b9450611aea565b8093505050505b919050565b505050565b505050565b611b938383611d6c565b611ba06000848484611be4565b611bdf576040517f08c379a0000000000000000000000000000000000000000000000000000000008152600401611bd6906132bb565b60405180910390fd5b505050565b6000611c058473ffffffffffffffffffffffffffffffffffffffff16611f46565b15611d5f578373ffffffffffffffffffffffffffffffffffffffff1663150b7a02611c2e6113f6565b8786866040518563ffffffff1660e01b8152600401611c50949392919061340a565b6020604051808303816000875af1925050508015611c8c57506040513d601f19601f82011682018060405250810190611c89919061346b565b60015b611d0f573d8060008114611cbc576040519150601f19603f3d011682016040523d82523d6000602084013e611cc1565b606091505b50600081511415611d07576040517f08c379a0000000000000000000000000000000000000000000000000000000008152600401611cfe906132bb565b60405180910390fd5b805181602001fd5b63150b7a0260e01b7bffffffffffffffffffffffffffffffffffffffffffffffffffffffff1916817bffffffffffffffffffffffffffffffffffffffffffffffffffffffff191614915050611d64565b600190505b949350505050565b600073ffffffffffffffffffffffffffffffffffffffff168273ffffffffffffffffffffffffffffffffffffffff161415611ddc576040517f08c379a0000000000000000000000000000000000000000000000000000000008152600401611dd3906134e4565b60405180910390fd5b611de58161138a565b15611e25576040517f08c379a0000000000000000000000000000000000000000000000000000000008152600401611e1c90613550565b60405180910390fd5b611e3160008383611b7f565b6001600360008473ffffffffffffffffffffffffffffffffffffffff1673ffffffffffffffffffffffffffffffffffffffff1681526020019081526020016000206000828254611e819190613187565b92505081905550816002600083815260200190815260200160002060006101000a81548173ffffffffffffffffffffffffffffffffffffffff021916908373ffffffffffffffffffffffffffffffffffffffff160217905550808273ffffffffffffffffffffffffffffffffffffffff16600073ffffffffffffffffffffffffffffffffffffffff167fddf252ad1be2c89b69c2b068fc378daa952ba7f163c4a11628f55a4df523b3ef60405160405180910390a4611f4260008383611b84565b5050565b6000808273ffffffffffffffffffffffffffffffffffffffff163b119050919050565b6040518060a0016040528060008152602001600081526020016000815260200160006004811115611f9d57611f9c612706565b5b8152602001600073ffffffffffffffffffffffffffffffffffffffff1681525090565b6000604051905090565b600080fd5b600080fd5b60007fffffffff0000000000000000000000000000000000000000000000000000000082169050919050565b61200981611fd4565b811461201457600080fd5b50565b60008135905061202681612000565b92915050565b60006020828403121561204257612041611fca565b5b600061205084828501612017565b91505092915050565b60008115159050919050565b61206e81612059565b82525050565b60006020820190506120896000830184612065565b92915050565b600081519050919050565b600082825260208201905092915050565b60005b838110156120c95780820151818401526020810190506120ae565b838111156120d8576000848401525b50505050565b6000601f19601f8301169050919050565b60006120fa8261208f565b612104818561209a565b93506121148185602086016120ab565b61211d816120de565b840191505092915050565b6000602082019050818103600083015261214281846120ef565b905092915050565b6000819050919050565b61215d8161214a565b811461216857600080fd5b50565b60008135905061217a81612154565b92915050565b60006020828403121561219657612195611fca565b5b60006121a48482850161216b565b91505092915050565b600073ffffffffffffffffffffffffffffffffffffffff82169050919050565b60006121d8826121ad565b9050919050565b6121e8816121cd565b82525050565b600060208201905061220360008301846121df565b92915050565b612212816121cd565b811461221d57600080fd5b50565b60008135905061222f81612209565b92915050565b6000806040838503121561224c5761224b611fca565b5b600061225a85828601612220565b925050602061226b8582860161216b565b9150509250929050565b60008060006060848603121561228e5761228d611fca565b5b600061229c86828701612220565b93505060206122ad86828701612220565b92505060406122be8682870161216b565b9150509250925092565b6000819050919050565b6122db816122c8565b81146122e657600080fd5b50565b6000813590506122f8816122d2565b92915050565b60008060006060848603121561231757612316611fca565b5b60006123258682870161216b565b9350506020612336868287016122e9565b9250506040612347868287016122e9565b9150509250925092565b6005811061235e57600080fd5b50565b60008135905061237081612351565b92915050565b60008060006060848603121561238f5761238e611fca565b5b600061239d868287016122e9565b93505060206123ae868287016122e9565b92505060406123bf86828701612361565b9150509250925092565b6123d28161214a565b82525050565b60006020820190506123ed60008301846123c9565b92915050565b6123fc816122c8565b82525050565b600060408201905061241760008301856123f3565b61242460208301846123f3565b9392505050565b60006020828403121561244157612440611fca565b5b600061244f84828501612220565b91505092915050565b6000806040838503121561246f5761246e611fca565b5b600061247d8582860161216b565b925050602061248e85828601612361565b9150509250929050565b6124a181612059565b81146124ac57600080fd5b50565b6000813590506124be81612498565b92915050565b600080604083850312156124db576124da611fca565b5b60006124e985828601612220565b92505060206124fa858286016124af565b9150509250929050565b600080fd5b600080fd5b7f4e487b7100000000000000000000000000000000000000000000000000000000600052604160045260246000fd5b612546826120de565b810181811067ffffffffffffffff821117156125655761256461250e565b5b80604052505050565b6000612578611fc0565b9050612584828261253d565b919050565b600067ffffffffffffffff8211156125a4576125a361250e565b5b6125ad826120de565b9050602081019050919050565b82818337600083830152505050565b60006125dc6125d784612589565b61256e565b9050828152602081018484840111156125f8576125f7612509565b5b6126038482856125ba565b509392505050565b600082601f8301126126205761261f612504565b5b81356126308482602086016125c9565b91505092915050565b6000806000806080858703121561265357612652611fca565b5b600061266187828801612220565b945050602061267287828801612220565b93505060406126838782880161216b565b925050606085013567ffffffffffffffff8111156126a4576126a3611fcf565b5b6126b08782880161260b565b91505092959194509250565b600081519050919050565b600082825260208201905092915050565b6000819050602082019050919050565b6126f18161214a565b82525050565b612700816122c8565b82525050565b7f4e487b7100000000000000000000000000000000000000000000000000000000600052602160045260246000fd5b6005811061274657612745612706565b5b50565b600081905061275782612735565b919050565b600061276782612749565b9050919050565b6127778161275c565b82525050565b612786816121cd565b82525050565b60a0820160008201516127a260008501826126e8565b5060208201516127b560208501826126f7565b5060408201516127c860408501826126f7565b5060608201516127db606085018261276e565b5060808201516127ee608085018261277d565b50505050565b6000612800838361278c565b60a08301905092915050565b6000602082019050919050565b6000612824826126bc565b61282e81856126c7565b9350612839836126d8565b8060005b8381101561286a57815161285188826127f4565b975061285c8361280c565b92505060018101905061283d565b5085935050505092915050565b600060208201905081810360008301526128918184612819565b905092915050565b60a0820160008201516128af60008501826126e8565b5060208201516128c260208501826126f7565b5060408201516128d560408501826126f7565b5060608201516128e8606085018261276e565b5060808201516128fb608085018261277d565b50505050565b600060a0820190506129166000830184612899565b92915050565b6000806040838503121561293357612932611fca565b5b600061294185828601612220565b925050602061295285828601612220565b9150509250929050565b7f4e487b7100000000000000000000000000000000000000000000000000000000600052602260045260246000fd5b600060028204905060018216806129a357607f821691505b602082108114156129b7576129b661295c565b5b50919050565b7f4552433732313a20617070726f76656420717565727920666f72206e6f6e657860008201527f697374656e7420746f6b656e0000000000000000000000000000000000000000602082015250565b6000612a19602c8361209a565b9150612a24826129bd565b604082019050919050565b60006020820190508181036000830152612a4881612a0c565b9050919050565b7f4552433732313a20617070726f76616c20746f2063757272656e74206f776e6560008201527f7200000000000000000000000000000000000000000000000000000000000000602082015250565b6000612aab60218361209a565b9150612ab682612a4f565b604082019050919050565b60006020820190508181036000830152612ada81612a9e565b9050919050565b7f4552433732313a20617070726f76652063616c6c6572206973206e6f74206f7760008201527f6e6572206e6f7220617070726f76656420666f7220616c6c0000000000000000602082015250565b6000612b3d60388361209a565b9150612b4882612ae1565b604082019050919050565b60006020820190508181036000830152612b6c81612b30565b9050919050565b7f4552433732313a207472616e736665722063616c6c6572206973206e6f74206f60008201527f776e6572206e6f7220617070726f766564000000000000000000000000000000602082015250565b6000612bcf60318361209a565b9150612bda82612b73565b604082019050919050565b60006020820190508181036000830152612bfe81612bc2565b9050919050565b7f454c2056414c4f5220444520414c5449545544204d494e494d4f20444542452060008201527f534552204d41594f522041203000000000000000000000000000000000000000602082015250565b6000612c61602d8361209a565b9150612c6c82612c05565b604082019050919050565b60006020820190508181036000830152612c9081612c54565b9050919050565b7f454c2056414c4f5220444520414c5449545544204d4158494d4f20444542452060008201527f534552204d41594f52204f20494755414c20414c204d494e494d4f0000000000602082015250565b6000612cf3603b8361209a565b9150612cfe82612c97565b604082019050919050565b60006020820190508181036000830152612d2281612ce6565b9050919050565b7f4552433732313a206f776e657220717565727920666f72206e6f6e657869737460008201527f656e7420746f6b656e0000000000000000000000000000000000000000000000602082015250565b6000612d8560298361209a565b9150612d9082612d29565b604082019050919050565b60006020820190508181036000830152612db481612d78565b9050919050565b7f4e487b7100000000000000000000000000000000000000000000000000000000600052601160045260246000fd5b6000612df58261214a565b9150612e008361214a565b925082821015612e1357612e12612dbb565b5b828203905092915050565b7f4e487b7100000000000000000000000000000000000000000000000000000000600052603260045260246000fd5b7f4552433732313a2062616c616e636520717565727920666f7220746865207a6560008201527f726f206164647265737300000000000000000000000000000000000000000000602082015250565b6000612ea9602a8361209a565b9150612eb482612e4d565b604082019050919050565b60006020820190508181036000830152612ed881612e9c565b9050919050565b7f4552433732314d657461646174613a2055524920717565727920666f72206e6f60008201527f6e6578697374656e7420746f6b656e0000000000000000000000000000000000602082015250565b6000612f3b602f8361209a565b9150612f4682612edf565b604082019050919050565b60006020820190508181036000830152612f6a81612f2e565b9050919050565b600081905092915050565b6000612f878261208f565b612f918185612f71565b9350612fa18185602086016120ab565b80840191505092915050565b6000612fb98285612f7c565b9150612fc58284612f7c565b91508190509392505050565b7f4552433732313a206f70657261746f7220717565727920666f72206e6f6e657860008201527f697374656e7420746f6b656e0000000000000000000000000000000000000000602082015250565b600061302d602c8361209a565b915061303882612fd1565b604082019050919050565b6000602082019050818103600083015261305c81613020565b9050919050565b7f4552433732313a207472616e736665722066726f6d20696e636f72726563742060008201527f6f776e6572000000000000000000000000000000000000000000000000000000602082015250565b60006130bf60258361209a565b91506130ca82613063565b604082019050919050565b600060208201905081810360008301526130ee816130b2565b9050919050565b7f4552433732313a207472616e7366657220746f20746865207a65726f2061646460008201527f7265737300000000000000000000000000000000000000000000000000000000602082015250565b600061315160248361209a565b915061315c826130f5565b604082019050919050565b6000602082019050818103600083015261318081613144565b9050919050565b60006131928261214a565b915061319d8361214a565b9250827fffffffffffffffffffffffffffffffffffffffffffffffffffffffffffffffff038211156131d2576131d1612dbb565b5b828201905092915050565b7f4552433732313a20617070726f766520746f2063616c6c657200000000000000600082015250565b600061321360198361209a565b915061321e826131dd565b602082019050919050565b6000602082019050818103600083015261324281613206565b9050919050565b7f4552433732313a207472616e7366657220746f206e6f6e20455243373231526560008201527f63656976657220696d706c656d656e7465720000000000000000000000000000602082015250565b60006132a560328361209a565b91506132b082613249565b604082019050919050565b600060208201905081810360008301526132d481613298565b9050919050565b60006132e68261214a565b91507fffffffffffffffffffffffffffffffffffffffffffffffffffffffffffffffff82141561331957613318612dbb565b5b600182019050919050565b7f4e487b7100000000000000000000000000000000000000000000000000000000600052601260045260246000fd5b600061335e8261214a565b91506133698361214a565b92508261337957613378613324565b5b828204905092915050565b600061338f8261214a565b915061339a8361214a565b9250826133aa576133a9613324565b5b828206905092915050565b600081519050919050565b600082825260208201905092915050565b60006133dc826133b5565b6133e681856133c0565b93506133f68185602086016120ab565b6133ff816120de565b840191505092915050565b600060808201905061341f60008301876121df565b61342c60208301866121df565b61343960408301856123c9565b818103606083015261344b81846133d1565b905095945050505050565b60008151905061346581612000565b92915050565b60006020828403121561348157613480611fca565b5b600061348f84828501613456565b91505092915050565b7f4552433732313a206d696e7420746f20746865207a65726f2061646472657373600082015250565b60006134ce60208361209a565b91506134d982613498565b602082019050919050565b600060208201905081810360008301526134fd816134c1565b9050919050565b7f4552433732313a20746f6b656e20616c7265616479206d696e74656400000000600082015250565b600061353a601c8361209a565b915061354582613504565b602082019050919050565b600060208201905081810360008301526135698161352d565b905091905056fea264697066735822122065252b1283dabe7a624d95c049eb2b14de3b2a441d51fd85093570507a02741e64736f6c634300080c0033",
  "immutableReferences": {},
  "source": "//SPDX-License-Identifier: UNLICENSED\r\npragma solidity ^0.8.0; \r\n\r\n//Importamos\r\nimport \"@openzeppelin/contracts/token/ERC721/ERC721.sol\";\r\nimport \"@openzeppelin/contracts/utils/Counters.sol\";\r\nimport \"./Tipos.sol\";\r\n\r\n//Extendemos del contrato ERC721 (Contrato destinado a Tokens no fungibles)\r\ncontract ParcelaContract is ERC721 {\r\n    using Counters for Counters.Counter;\r\n    Counters.Counter UltimoID;\r\n\r\n    //Creamos las variables propias del contrato\r\n    struct Parcela {\r\n        uint256 _ID;\r\n        int256 _Altitud_MIN;\r\n        int256 _Altitud_MAX;\r\n        TiposContract._Pesticidas _Pesticida;\r\n        address _Owner;\r\n    }\r\n\r\n    mapping(uint256 => Parcela) private _Parcelas;\r\n\r\n    Parcela[] PARCELAS;\r\n\r\n    constructor() ERC721(\"MyParcela\", \"MParcela\") {\r\n    }\r\n\r\n    //Modificador de permisos de acceso\r\n    modifier SoloPropietario(uint256 ID){\r\n        require(msg.sender == ownerOf(ID));\r\n        _;\r\n    }\r\n\r\n    function CrearParcela(int256 MIN, int256 MAX, TiposContract._Pesticidas PESTICIDA) public returns (uint256){\r\n        require (MIN > 0, \"EL VALOR DE ALTITUD MINIMO DEBE SER MAYOR A 0\");\r\n        require (MAX >= MIN, \"EL VALOR DE ALTITUD MAXIMO DEBE SER MAYOR O IGUAL AL MINIMO\");\r\n\r\n        UltimoID.increment();\r\n        uint256 IDActual = UltimoID.current();\r\n        _safeMint(msg.sender,IDActual);\r\n\r\n        Parcela memory Parcela_ = Parcela({\r\n            _ID: IDActual,\r\n            _Altitud_MIN: MIN,\r\n            _Altitud_MAX: MAX,\r\n            _Pesticida: PESTICIDA,\r\n            _Owner: msg.sender\r\n        });\r\n\r\n        _Parcelas[IDActual] = Parcela_;\r\n        PARCELAS.push(Parcela_);\r\n\r\n        return IDActual;\r\n    }\r\n\r\n    function ConfigurarAltitud(uint256 ID, int256 MIN, int256 MAX) public SoloPropietario(ID) returns (int256, int256)\r\n    {\r\n        require (MIN > 0, \"EL VALOR DE ALTITUD MINIMO DEBE SER MAYOR A 0\");\r\n        require (MAX >= MIN, \"EL VALOR DE ALTITUD MAXIMO DEBE SER MAYOR O IGUAL AL MINIMO\");\r\n        _Parcelas[ID]._Altitud_MIN = MIN;\r\n        _Parcelas[ID]._Altitud_MAX = MAX;\r\n        PARCELAS[ID-1]._Altitud_MIN = MIN;\r\n        PARCELAS[ID-1]._Altitud_MAX = MAX;\r\n        return ( _Parcelas[ID]._Altitud_MIN,  _Parcelas[ID]._Altitud_MAX);\r\n    }\r\n\r\n    function ConfigurarPesticida(uint256 ID, TiposContract._Pesticidas PESTICIDA) public SoloPropietario(ID) returns (bool)\r\n    {\r\n        _Parcelas[ID]._Pesticida = PESTICIDA;\r\n        PARCELAS[ID-1]._Pesticida = PESTICIDA;\r\n        return true;\r\n    }\r\n\r\n    function ObtenerInfoParcela(uint256 ID) public view returns (Parcela memory) {\r\n        return _Parcelas[ID];\r\n    }\r\n\r\n    function ObtenerInfoParcelas() public view returns (Parcela [] memory) {\r\n        return PARCELAS;\r\n    }\r\n\r\n    function ComprobarAltitud(uint256 ID, int256 MIN, int256 MAX) public view returns (bool result)\r\n    {\r\n        int256 DMAX = _Parcelas[ID]._Altitud_MAX;\r\n        int256 DMIN = _Parcelas[ID]._Altitud_MIN;\r\n\r\n        if ((MAX < DMIN) || (MIN > DMAX) || (MIN > MAX)) {\r\n            return false;\r\n        } else {\r\n            if ((MAX >= DMIN && MAX <= DMAX) || (MIN <= DMAX && MIN >= DMIN)) {\r\n                return true;\r\n            } else {\r\n                if ((MAX >= DMAX && MIN <= DMIN) || (MAX <= DMAX && MIN >= DMIN)) {\r\n                    return true;\r\n                }\r\n            }\r\n        }\r\n    }\r\n}",
  "sourcePath": "/Users/trabajo/Documents/apps/front_blockchain_tfe/contracts/Parcela.sol",
  "compiler": {
    "name": "solc",
    "version": "0.8.12+commit.f00d7308.Emscripten.clang"
  },
  "schemaVersion": "3.4.6",
  "updatedAt": "2022-03-25T18:05:29.600Z",
  "networkType": "ethereum",
  "devdoc": {
    "kind": "dev",
    "methods": {
      "approve(address,uint256)": {
        "details": "See {IERC721-approve}."
      },
      "balanceOf(address)": {
        "details": "See {IERC721-balanceOf}."
      },
      "getApproved(uint256)": {
        "details": "See {IERC721-getApproved}."
      },
      "isApprovedForAll(address,address)": {
        "details": "See {IERC721-isApprovedForAll}."
      },
      "name()": {
        "details": "See {IERC721Metadata-name}."
      },
      "ownerOf(uint256)": {
        "details": "See {IERC721-ownerOf}."
      },
      "safeTransferFrom(address,address,uint256)": {
        "details": "See {IERC721-safeTransferFrom}."
      },
      "safeTransferFrom(address,address,uint256,bytes)": {
        "details": "See {IERC721-safeTransferFrom}."
      },
      "setApprovalForAll(address,bool)": {
        "details": "See {IERC721-setApprovalForAll}."
      },
      "supportsInterface(bytes4)": {
        "details": "See {IERC165-supportsInterface}."
      },
      "symbol()": {
        "details": "See {IERC721Metadata-symbol}."
      },
      "tokenURI(uint256)": {
        "details": "See {IERC721Metadata-tokenURI}."
      },
      "transferFrom(address,address,uint256)": {
        "details": "See {IERC721-transferFrom}."
      }
    },
    "version": 1
  },
  "userdoc": {
    "kind": "user",
    "methods": {},
    "version": 1
  }
}