{
  "contractName": "ParcelaContract",
  "abi": [
    {
      "inputs": [],
      "stateMutability": "nonpayable",
      "type": "constructor"
    },
    {
      "anonymous": false,
      "inputs": [
        {
          "indexed": true,
          "internalType": "address",
          "name": "owner",
          "type": "address"
        },
        {
          "indexed": true,
          "internalType": "address",
          "name": "approved",
          "type": "address"
        },
        {
          "indexed": true,
          "internalType": "uint256",
          "name": "tokenId",
          "type": "uint256"
        }
      ],
      "name": "Approval",
      "type": "event"
    },
    {
      "anonymous": false,
      "inputs": [
        {
          "indexed": true,
          "internalType": "address",
          "name": "owner",
          "type": "address"
        },
        {
          "indexed": true,
          "internalType": "address",
          "name": "operator",
          "type": "address"
        },
        {
          "indexed": false,
          "internalType": "bool",
          "name": "approved",
          "type": "bool"
        }
      ],
      "name": "ApprovalForAll",
      "type": "event"
    },
    {
      "anonymous": false,
      "inputs": [
        {
          "indexed": true,
          "internalType": "address",
          "name": "from",
          "type": "address"
        },
        {
          "indexed": true,
          "internalType": "address",
          "name": "to",
          "type": "address"
        },
        {
          "indexed": true,
          "internalType": "uint256",
          "name": "tokenId",
          "type": "uint256"
        }
      ],
      "name": "Transfer",
      "type": "event"
    },
    {
      "inputs": [
        {
          "internalType": "address",
          "name": "to",
          "type": "address"
        },
        {
          "internalType": "uint256",
          "name": "tokenId",
          "type": "uint256"
        }
      ],
      "name": "approve",
      "outputs": [],
      "stateMutability": "nonpayable",
      "type": "function"
    },
    {
      "inputs": [
        {
          "internalType": "address",
          "name": "owner",
          "type": "address"
        }
      ],
      "name": "balanceOf",
      "outputs": [
        {
          "internalType": "uint256",
          "name": "",
          "type": "uint256"
        }
      ],
      "stateMutability": "view",
      "type": "function",
      "constant": true
    },
    {
      "inputs": [
        {
          "internalType": "uint256",
          "name": "tokenId",
          "type": "uint256"
        }
      ],
      "name": "getApproved",
      "outputs": [
        {
          "internalType": "address",
          "name": "",
          "type": "address"
        }
      ],
      "stateMutability": "view",
      "type": "function",
      "constant": true
    },
    {
      "inputs": [
        {
          "internalType": "address",
          "name": "owner",
          "type": "address"
        },
        {
          "internalType": "address",
          "name": "operator",
          "type": "address"
        }
      ],
      "name": "isApprovedForAll",
      "outputs": [
        {
          "internalType": "bool",
          "name": "",
          "type": "bool"
        }
      ],
      "stateMutability": "view",
      "type": "function",
      "constant": true
    },
    {
      "inputs": [],
      "name": "name",
      "outputs": [
        {
          "internalType": "string",
          "name": "",
          "type": "string"
        }
      ],
      "stateMutability": "view",
      "type": "function",
      "constant": true
    },
    {
      "inputs": [
        {
          "internalType": "uint256",
          "name": "tokenId",
          "type": "uint256"
        }
      ],
      "name": "ownerOf",
      "outputs": [
        {
          "internalType": "address",
          "name": "",
          "type": "address"
        }
      ],
      "stateMutability": "view",
      "type": "function",
      "constant": true
    },
    {
      "inputs": [
        {
          "internalType": "address",
          "name": "from",
          "type": "address"
        },
        {
          "internalType": "address",
          "name": "to",
          "type": "address"
        },
        {
          "internalType": "uint256",
          "name": "tokenId",
          "type": "uint256"
        }
      ],
      "name": "safeTransferFrom",
      "outputs": [],
      "stateMutability": "nonpayable",
      "type": "function"
    },
    {
      "inputs": [
        {
          "internalType": "address",
          "name": "from",
          "type": "address"
        },
        {
          "internalType": "address",
          "name": "to",
          "type": "address"
        },
        {
          "internalType": "uint256",
          "name": "tokenId",
          "type": "uint256"
        },
        {
          "internalType": "bytes",
          "name": "_data",
          "type": "bytes"
        }
      ],
      "name": "safeTransferFrom",
      "outputs": [],
      "stateMutability": "nonpayable",
      "type": "function"
    },
    {
      "inputs": [
        {
          "internalType": "address",
          "name": "operator",
          "type": "address"
        },
        {
          "internalType": "bool",
          "name": "approved",
          "type": "bool"
        }
      ],
      "name": "setApprovalForAll",
      "outputs": [],
      "stateMutability": "nonpayable",
      "type": "function"
    },
    {
      "inputs": [
        {
          "internalType": "bytes4",
          "name": "interfaceId",
          "type": "bytes4"
        }
      ],
      "name": "supportsInterface",
      "outputs": [
        {
          "internalType": "bool",
          "name": "",
          "type": "bool"
        }
      ],
      "stateMutability": "view",
      "type": "function",
      "constant": true
    },
    {
      "inputs": [],
      "name": "symbol",
      "outputs": [
        {
          "internalType": "string",
          "name": "",
          "type": "string"
        }
      ],
      "stateMutability": "view",
      "type": "function",
      "constant": true
    },
    {
      "inputs": [
        {
          "internalType": "uint256",
          "name": "tokenId",
          "type": "uint256"
        }
      ],
      "name": "tokenURI",
      "outputs": [
        {
          "internalType": "string",
          "name": "",
          "type": "string"
        }
      ],
      "stateMutability": "view",
      "type": "function",
      "constant": true
    },
    {
      "inputs": [
        {
          "internalType": "address",
          "name": "from",
          "type": "address"
        },
        {
          "internalType": "address",
          "name": "to",
          "type": "address"
        },
        {
          "internalType": "uint256",
          "name": "tokenId",
          "type": "uint256"
        }
      ],
      "name": "transferFrom",
      "outputs": [],
      "stateMutability": "nonpayable",
      "type": "function"
    },
    {
      "inputs": [
        {
          "internalType": "int256",
          "name": "MIN",
          "type": "int256"
        },
        {
          "internalType": "int256",
          "name": "MAX",
          "type": "int256"
        },
        {
          "internalType": "enum ParcelaContract._Pesticidas",
          "name": "PESTICIDA",
          "type": "uint8"
        }
      ],
      "name": "CrearParcela",
      "outputs": [
        {
          "internalType": "uint256",
          "name": "",
          "type": "uint256"
        }
      ],
      "stateMutability": "nonpayable",
      "type": "function"
    },
    {
      "inputs": [
        {
          "internalType": "uint256",
          "name": "ID",
          "type": "uint256"
        },
        {
          "internalType": "int256",
          "name": "MIN",
          "type": "int256"
        },
        {
          "internalType": "int256",
          "name": "MAX",
          "type": "int256"
        }
      ],
      "name": "ConfigurarAltitud",
      "outputs": [
        {
          "internalType": "int256",
          "name": "",
          "type": "int256"
        },
        {
          "internalType": "int256",
          "name": "",
          "type": "int256"
        }
      ],
      "stateMutability": "nonpayable",
      "type": "function"
    },
    {
      "inputs": [
        {
          "internalType": "uint256",
          "name": "ID",
          "type": "uint256"
        },
        {
          "internalType": "enum ParcelaContract._Pesticidas",
          "name": "PESTICIDA",
          "type": "uint8"
        }
      ],
      "name": "ConfigurarPesticida",
      "outputs": [
        {
          "internalType": "bool",
          "name": "",
          "type": "bool"
        }
      ],
      "stateMutability": "nonpayable",
      "type": "function"
    },
    {
      "inputs": [
        {
          "internalType": "uint256",
          "name": "ID",
          "type": "uint256"
        }
      ],
      "name": "ObtenerInfoParcela",
      "outputs": [
        {
          "components": [
            {
              "internalType": "uint256",
              "name": "_ID",
              "type": "uint256"
            },
            {
              "internalType": "int256",
              "name": "_Altitud_MIN",
              "type": "int256"
            },
            {
              "internalType": "int256",
              "name": "_Altitud_MAX",
              "type": "int256"
            },
            {
              "internalType": "enum ParcelaContract._Pesticidas",
              "name": "_Pesticida",
              "type": "uint8"
            },
            {
              "internalType": "address",
              "name": "_Owner",
              "type": "address"
            }
          ],
          "internalType": "struct ParcelaContract.Parcela",
          "name": "",
          "type": "tuple"
        }
      ],
      "stateMutability": "view",
      "type": "function",
      "constant": true
    },
    {
      "inputs": [],
      "name": "ObtenerInfoParcelas",
      "outputs": [
        {
          "components": [
            {
              "internalType": "uint256",
              "name": "_ID",
              "type": "uint256"
            },
            {
              "internalType": "int256",
              "name": "_Altitud_MIN",
              "type": "int256"
            },
            {
              "internalType": "int256",
              "name": "_Altitud_MAX",
              "type": "int256"
            },
            {
              "internalType": "enum ParcelaContract._Pesticidas",
              "name": "_Pesticida",
              "type": "uint8"
            },
            {
              "internalType": "address",
              "name": "_Owner",
              "type": "address"
            }
          ],
          "internalType": "struct ParcelaContract.Parcela[]",
          "name": "",
          "type": "tuple[]"
        }
      ],
      "stateMutability": "view",
      "type": "function",
      "constant": true
    },
    {
      "inputs": [
        {
          "internalType": "uint256",
          "name": "ID",
          "type": "uint256"
        },
        {
          "internalType": "int256",
          "name": "MIN",
          "type": "int256"
        },
        {
          "internalType": "int256",
          "name": "MAX",
          "type": "int256"
        }
      ],
      "name": "ComprobarAltitud",
      "outputs": [
        {
          "internalType": "bool",
          "name": "",
          "type": "bool"
        }
      ],
      "stateMutability": "view",
      "type": "function",
      "constant": true
    }
  ],
  "bytecode": "0x60806040523480156200001157600080fd5b506040518060400160405280600981526020017f4d7950617263656c6100000000000000000000000000000000000000000000008152506040518060400160405280600881526020017f4d50617263656c61000000000000000000000000000000000000000000000000815250816000908051906020019062000096929190620005fa565b508060019080519060200190620000af929190620005fa565b505050620000c96006620000fd60201b620012791760201c565b6000620000e260066200011360201b6200128f1760201c565b9050620000f633826200012160201b60201c565b5062000b14565b6001816000016000828254019250508190555050565b600081600001549050919050565b620001438282604051806020016040528060008152506200014760201b60201c565b5050565b620001598383620001b560201b60201c565b6200016e6000848484620003af60201b60201c565b620001b0576040517f08c379a0000000000000000000000000000000000000000000000000000000008152600401620001a79062000731565b60405180910390fd5b505050565b600073ffffffffffffffffffffffffffffffffffffffff168273ffffffffffffffffffffffffffffffffffffffff16141562000228576040517f08c379a00000000000000000000000000000000000000000000000000000000081526004016200021f90620007a3565b60405180910390fd5b62000239816200055960201b60201c565b156200027c576040517f08c379a0000000000000000000000000000000000000000000000000000000008152600401620002739062000815565b60405180910390fd5b6200029060008383620005c560201b60201c565b6001600360008473ffffffffffffffffffffffffffffffffffffffff1673ffffffffffffffffffffffffffffffffffffffff1681526020019081526020016000206000828254620002e2919062000870565b92505081905550816002600083815260200190815260200160002060006101000a81548173ffffffffffffffffffffffffffffffffffffffff021916908373ffffffffffffffffffffffffffffffffffffffff160217905550808273ffffffffffffffffffffffffffffffffffffffff16600073ffffffffffffffffffffffffffffffffffffffff167fddf252ad1be2c89b69c2b068fc378daa952ba7f163c4a11628f55a4df523b3ef60405160405180910390a4620003ab60008383620005ca60201b60201c565b5050565b6000620003dd8473ffffffffffffffffffffffffffffffffffffffff16620005cf60201b6200129d1760201c565b156200054c578373ffffffffffffffffffffffffffffffffffffffff1663150b7a026200040f620005f260201b60201c565b8786866040518563ffffffff1660e01b8152600401620004339493929190620009c7565b6020604051808303816000875af19250505080156200047257506040513d601f19601f820116820180604052508101906200046f919062000a7d565b60015b620004fb573d8060008114620004a5576040519150601f19603f3d011682016040523d82523d6000602084013e620004aa565b606091505b50600081511415620004f3576040517f08c379a0000000000000000000000000000000000000000000000000000000008152600401620004ea9062000731565b60405180910390fd5b805181602001fd5b63150b7a0260e01b7bffffffffffffffffffffffffffffffffffffffffffffffffffffffff1916817bffffffffffffffffffffffffffffffffffffffffffffffffffffffff19161491505062000551565b600190505b949350505050565b60008073ffffffffffffffffffffffffffffffffffffffff166002600084815260200190815260200160002060009054906101000a900473ffffffffffffffffffffffffffffffffffffffff1673ffffffffffffffffffffffffffffffffffffffff1614159050919050565b505050565b505050565b6000808273ffffffffffffffffffffffffffffffffffffffff163b119050919050565b600033905090565b828054620006089062000ade565b90600052602060002090601f0160209004810192826200062c576000855562000678565b82601f106200064757805160ff191683800117855562000678565b8280016001018555821562000678579182015b82811115620006775782518255916020019190600101906200065a565b5b5090506200068791906200068b565b5090565b5b80821115620006a65760008160009055506001016200068c565b5090565b600082825260208201905092915050565b7f4552433732313a207472616e7366657220746f206e6f6e20455243373231526560008201527f63656976657220696d706c656d656e7465720000000000000000000000000000602082015250565b600062000719603283620006aa565b91506200072682620006bb565b604082019050919050565b600060208201905081810360008301526200074c816200070a565b9050919050565b7f4552433732313a206d696e7420746f20746865207a65726f2061646472657373600082015250565b60006200078b602083620006aa565b9150620007988262000753565b602082019050919050565b60006020820190508181036000830152620007be816200077c565b9050919050565b7f4552433732313a20746f6b656e20616c7265616479206d696e74656400000000600082015250565b6000620007fd601c83620006aa565b91506200080a82620007c5565b602082019050919050565b600060208201905081810360008301526200083081620007ee565b9050919050565b6000819050919050565b7f4e487b7100000000000000000000000000000000000000000000000000000000600052601160045260246000fd5b60006200087d8262000837565b91506200088a8362000837565b9250827fffffffffffffffffffffffffffffffffffffffffffffffffffffffffffffffff03821115620008c257620008c162000841565b5b828201905092915050565b600073ffffffffffffffffffffffffffffffffffffffff82169050919050565b6000620008fa82620008cd565b9050919050565b6200090c81620008ed565b82525050565b6200091d8162000837565b82525050565b600081519050919050565b600082825260208201905092915050565b60005b838110156200095f57808201518184015260208101905062000942565b838111156200096f576000848401525b50505050565b6000601f19601f8301169050919050565b6000620009938262000923565b6200099f81856200092e565b9350620009b18185602086016200093f565b620009bc8162000975565b840191505092915050565b6000608082019050620009de600083018762000901565b620009ed602083018662000901565b620009fc604083018562000912565b818103606083015262000a10818462000986565b905095945050505050565b600080fd5b60007fffffffff0000000000000000000000000000000000000000000000000000000082169050919050565b62000a578162000a20565b811462000a6357600080fd5b50565b60008151905062000a778162000a4c565b92915050565b60006020828403121562000a965762000a9562000a1b565b5b600062000aa68482850162000a66565b91505092915050565b7f4e487b7100000000000000000000000000000000000000000000000000000000600052602260045260246000fd5b6000600282049050600182168062000af757607f821691505b6020821081141562000b0e5762000b0d62000aaf565b5b50919050565b6134ff8062000b246000396000f3fe608060405234801561001057600080fd5b50600436106101215760003560e01c80636678fd0b116100ad578063b88d4fde11610071578063b88d4fde14610353578063c87489fb1461036f578063c87b56dd1461038d578063d5f8d1df146103bd578063e985e9c5146103ed57610121565b80636678fd0b1461028857806370a08231146102b9578063896b4d8f146102e957806395d89b4114610319578063a22cb4651461033757610121565b806323b872dd116100f457806323b872dd146101c057806338a18c49146101dc57806342842e0e1461020c5780635191f06a146102285780636352211e1461025857610121565b806301ffc9a71461012657806306fdde0314610156578063081812fc14610174578063095ea7b3146101a4575b600080fd5b610140600480360381019061013b9190611f85565b61041d565b60405161014d9190611fcd565b60405180910390f35b61015e6104ff565b60405161016b9190612081565b60405180910390f35b61018e600480360381019061018991906120d9565b610591565b60405161019b9190612147565b60405180910390f35b6101be60048036038101906101b9919061218e565b610616565b005b6101da60048036038101906101d591906121ce565b61072e565b005b6101f660048036038101906101f19190612257565b61078e565b6040516102039190611fcd565b60405180910390f35b610226600480360381019061022191906121ce565b610907565b005b610242600480360381019061023d91906122cf565b610927565b60405161024f9190612331565b60405180910390f35b610272600480360381019061026d91906120d9565b610b19565b60405161027f9190612147565b60405180910390f35b6102a2600480360381019061029d9190612257565b610bcb565b6040516102b092919061235b565b60405180910390f35b6102d360048036038101906102ce9190612384565b610d06565b6040516102e09190612331565b60405180910390f35b61030360048036038101906102fe91906123b1565b610dbe565b6040516103109190611fcd565b60405180910390f35b610321610e4a565b60405161032e9190612081565b60405180910390f35b610351600480360381019061034c919061241d565b610edc565b005b61036d60048036038101906103689190612592565b610ef2565b005b610377610f54565b60405161038491906127d0565b60405180910390f35b6103a760048036038101906103a291906120d9565b611062565b6040516103b49190612081565b60405180910390f35b6103d760048036038101906103d291906120d9565b611109565b6040516103e4919061285a565b60405180910390f35b61040760048036038101906104029190612875565b6111e5565b6040516104149190611fcd565b60405180910390f35b60007f80ac58cd000000000000000000000000000000000000000000000000000000007bffffffffffffffffffffffffffffffffffffffffffffffffffffffff1916827bffffffffffffffffffffffffffffffffffffffffffffffffffffffff191614806104e857507f5b5e139f000000000000000000000000000000000000000000000000000000007bffffffffffffffffffffffffffffffffffffffffffffffffffffffff1916827bffffffffffffffffffffffffffffffffffffffffffffffffffffffff1916145b806104f857506104f7826112c0565b5b9050919050565b60606000805461050e906128e4565b80601f016020809104026020016040519081016040528092919081815260200182805461053a906128e4565b80156105875780601f1061055c57610100808354040283529160200191610587565b820191906000526020600020905b81548152906001019060200180831161056a57829003601f168201915b5050505050905090565b600061059c8261132a565b6105db576040517f08c379a00000000000000000000000000000000000000000000000000000000081526004016105d290612988565b60405180910390fd5b6004600083815260200190815260200160002060009054906101000a900473ffffffffffffffffffffffffffffffffffffffff169050919050565b600061062182610b19565b90508073ffffffffffffffffffffffffffffffffffffffff168373ffffffffffffffffffffffffffffffffffffffff161415610692576040517f08c379a000000000000000000000000000000000000000000000000000000000815260040161068990612a1a565b60405180910390fd5b8073ffffffffffffffffffffffffffffffffffffffff166106b1611396565b73ffffffffffffffffffffffffffffffffffffffff1614806106e057506106df816106da611396565b6111e5565b5b61071f576040517f08c379a000000000000000000000000000000000000000000000000000000000815260040161071690612aac565b60405180910390fd5b610729838361139e565b505050565b61073f610739611396565b82611457565b61077e576040517f08c379a000000000000000000000000000000000000000000000000000000000815260040161077590612b3e565b60405180910390fd5b610789838383611535565b505050565b600060076000858152602001908152602001600020600101548212806107c95750600760008581526020019081526020016000206002015483135b806107d357508183135b156107e15760009050610900565b6007600085815260200190815260200160002060010154821215801561081d575060076000858152602001908152602001600020600201548213155b8061086057506007600085815260200190815260200160002060020154831315801561085f575060076000858152602001908152602001600020600101548312155b5b1561086e5760019050610900565b600760008581526020019081526020016000206002015482121580156108aa575060076000858152602001908152602001600020600101548313155b806108ed5750600760008581526020019081526020016000206002015482131580156108ec575060076000858152602001908152602001600020600101548312155b5b156108fb5760019050610900565b600090505b9392505050565b61092283838360405180602001604052806000815250610ef2565b505050565b60006109336006611279565b600061093f600661128f565b905061094b338261179c565b60006040518060a0016040528083815260200187815260200186815260200185600481111561097d5761097c61265f565b5b81526020013373ffffffffffffffffffffffffffffffffffffffff168152509050806007600084815260200190815260200160002060008201518160000155602082015181600101556040820151816002015560608201518160030160006101000a81548160ff021916908360048111156109fb576109fa61265f565b5b021790555060808201518160030160016101000a81548173ffffffffffffffffffffffffffffffffffffffff021916908373ffffffffffffffffffffffffffffffffffffffff160217905550905050600881908060018154018082558091505060019003906000526020600020906004020160009091909190915060008201518160000155602082015181600101556040820151816002015560608201518160030160006101000a81548160ff02191690836004811115610abf57610abe61265f565b5b021790555060808201518160030160016101000a81548173ffffffffffffffffffffffffffffffffffffffff021916908373ffffffffffffffffffffffffffffffffffffffff160217905550505081925050509392505050565b6000806002600084815260200190815260200160002060009054906101000a900473ffffffffffffffffffffffffffffffffffffffff169050600073ffffffffffffffffffffffffffffffffffffffff168173ffffffffffffffffffffffffffffffffffffffff161415610bc2576040517f08c379a0000000000000000000000000000000000000000000000000000000008152600401610bb990612bd0565b60405180910390fd5b80915050919050565b60008084610bd881610b19565b73ffffffffffffffffffffffffffffffffffffffff163373ffffffffffffffffffffffffffffffffffffffff1614610c0f57600080fd5b60008513610c52576040517f08c379a0000000000000000000000000000000000000000000000000000000008152600401610c4990612c62565b60405180910390fd5b84841215610c95576040517f08c379a0000000000000000000000000000000000000000000000000000000008152600401610c8c90612cf4565b60405180910390fd5b846007600088815260200190815260200160002060010181905550836007600088815260200190815260200160002060020181905550600760008781526020019081526020016000206001015460076000888152602001908152602001600020600201549250925050935093915050565b60008073ffffffffffffffffffffffffffffffffffffffff168273ffffffffffffffffffffffffffffffffffffffff161415610d77576040517f08c379a0000000000000000000000000000000000000000000000000000000008152600401610d6e90612d86565b60405180910390fd5b600360008373ffffffffffffffffffffffffffffffffffffffff1673ffffffffffffffffffffffffffffffffffffffff168152602001908152602001600020549050919050565b600082610dca81610b19565b73ffffffffffffffffffffffffffffffffffffffff163373ffffffffffffffffffffffffffffffffffffffff1614610e0157600080fd5b826007600086815260200190815260200160002060030160006101000a81548160ff02191690836004811115610e3a57610e3961265f565b5b0217905550600191505092915050565b606060018054610e59906128e4565b80601f0160208091040260200160405190810160405280929190818152602001828054610e85906128e4565b8015610ed25780601f10610ea757610100808354040283529160200191610ed2565b820191906000526020600020905b815481529060010190602001808311610eb557829003601f168201915b5050505050905090565b610eee610ee7611396565b83836117ba565b5050565b610f03610efd611396565b83611457565b610f42576040517f08c379a0000000000000000000000000000000000000000000000000000000008152600401610f3990612b3e565b60405180910390fd5b610f4e84848484611927565b50505050565b60606008805480602002602001604051908101604052809291908181526020016000905b8282101561105957838290600052602060002090600402016040518060a00160405290816000820154815260200160018201548152602001600282015481526020016003820160009054906101000a900460ff166004811115610fde57610fdd61265f565b5b6004811115610ff057610fef61265f565b5b81526020016003820160019054906101000a900473ffffffffffffffffffffffffffffffffffffffff1673ffffffffffffffffffffffffffffffffffffffff1673ffffffffffffffffffffffffffffffffffffffff168152505081526020019060010190610f78565b50505050905090565b606061106d8261132a565b6110ac576040517f08c379a00000000000000000000000000000000000000000000000000000000081526004016110a390612e18565b60405180910390fd5b60006110b6611983565b905060008151116110d65760405180602001604052806000815250611101565b806110e08461199a565b6040516020016110f1929190612e74565b6040516020818303038152906040525b915050919050565b611111611ec2565b600760008381526020019081526020016000206040518060a00160405290816000820154815260200160018201548152602001600282015481526020016003820160009054906101000a900460ff1660048111156111725761117161265f565b5b60048111156111845761118361265f565b5b81526020016003820160019054906101000a900473ffffffffffffffffffffffffffffffffffffffff1673ffffffffffffffffffffffffffffffffffffffff1673ffffffffffffffffffffffffffffffffffffffff16815250509050919050565b6000600560008473ffffffffffffffffffffffffffffffffffffffff1673ffffffffffffffffffffffffffffffffffffffff16815260200190815260200160002060008373ffffffffffffffffffffffffffffffffffffffff1673ffffffffffffffffffffffffffffffffffffffff16815260200190815260200160002060009054906101000a900460ff16905092915050565b6001816000016000828254019250508190555050565b600081600001549050919050565b6000808273ffffffffffffffffffffffffffffffffffffffff163b119050919050565b60007f01ffc9a7000000000000000000000000000000000000000000000000000000007bffffffffffffffffffffffffffffffffffffffffffffffffffffffff1916827bffffffffffffffffffffffffffffffffffffffffffffffffffffffff1916149050919050565b60008073ffffffffffffffffffffffffffffffffffffffff166002600084815260200190815260200160002060009054906101000a900473ffffffffffffffffffffffffffffffffffffffff1673ffffffffffffffffffffffffffffffffffffffff1614159050919050565b600033905090565b816004600083815260200190815260200160002060006101000a81548173ffffffffffffffffffffffffffffffffffffffff021916908373ffffffffffffffffffffffffffffffffffffffff160217905550808273ffffffffffffffffffffffffffffffffffffffff1661141183610b19565b73ffffffffffffffffffffffffffffffffffffffff167f8c5be1e5ebec7d5bd14f71427d1e84f3dd0314c0f7b2291e5b200ac8c7c3b92560405160405180910390a45050565b60006114628261132a565b6114a1576040517f08c379a000000000000000000000000000000000000000000000000000000000815260040161149890612f0a565b60405180910390fd5b60006114ac83610b19565b90508073ffffffffffffffffffffffffffffffffffffffff168473ffffffffffffffffffffffffffffffffffffffff16148061151b57508373ffffffffffffffffffffffffffffffffffffffff1661150384610591565b73ffffffffffffffffffffffffffffffffffffffff16145b8061152c575061152b81856111e5565b5b91505092915050565b8273ffffffffffffffffffffffffffffffffffffffff1661155582610b19565b73ffffffffffffffffffffffffffffffffffffffff16146115ab576040517f08c379a00000000000000000000000000000000000000000000000000000000081526004016115a290612f9c565b60405180910390fd5b600073ffffffffffffffffffffffffffffffffffffffff168273ffffffffffffffffffffffffffffffffffffffff16141561161b576040517f08c379a00000000000000000000000000000000000000000000000000000000081526004016116129061302e565b60405180910390fd5b611626838383611afb565b61163160008261139e565b6001600360008573ffffffffffffffffffffffffffffffffffffffff1673ffffffffffffffffffffffffffffffffffffffff1681526020019081526020016000206000828254611681919061307d565b925050819055506001600360008473ffffffffffffffffffffffffffffffffffffffff1673ffffffffffffffffffffffffffffffffffffffff16815260200190815260200160002060008282546116d891906130b1565b92505081905550816002600083815260200190815260200160002060006101000a81548173ffffffffffffffffffffffffffffffffffffffff021916908373ffffffffffffffffffffffffffffffffffffffff160217905550808273ffffffffffffffffffffffffffffffffffffffff168473ffffffffffffffffffffffffffffffffffffffff167fddf252ad1be2c89b69c2b068fc378daa952ba7f163c4a11628f55a4df523b3ef60405160405180910390a4611797838383611b00565b505050565b6117b6828260405180602001604052806000815250611b05565b5050565b8173ffffffffffffffffffffffffffffffffffffffff168373ffffffffffffffffffffffffffffffffffffffff161415611829576040517f08c379a000000000000000000000000000000000000000000000000000000000815260040161182090613153565b60405180910390fd5b80600560008573ffffffffffffffffffffffffffffffffffffffff1673ffffffffffffffffffffffffffffffffffffffff16815260200190815260200160002060008473ffffffffffffffffffffffffffffffffffffffff1673ffffffffffffffffffffffffffffffffffffffff16815260200190815260200160002060006101000a81548160ff0219169083151502179055508173ffffffffffffffffffffffffffffffffffffffff168373ffffffffffffffffffffffffffffffffffffffff167f17307eab39ab6107e8899845ad3d59bd9653f200f220920489ca2b5937696c318360405161191a9190611fcd565b60405180910390a3505050565b611932848484611535565b61193e84848484611b60565b61197d576040517f08c379a0000000000000000000000000000000000000000000000000000000008152600401611974906131e5565b60405180910390fd5b50505050565b606060405180602001604052806000815250905090565b606060008214156119e2576040518060400160405280600181526020017f30000000000000000000000000000000000000000000000000000000000000008152509050611af6565b600082905060005b60008214611a145780806119fd90613205565b915050600a82611a0d919061327d565b91506119ea565b60008167ffffffffffffffff811115611a3057611a2f612467565b5b6040519080825280601f01601f191660200182016040528015611a625781602001600182028036833780820191505090505b5090505b60008514611aef57600182611a7b919061307d565b9150600a85611a8a91906132ae565b6030611a9691906130b1565b60f81b818381518110611aac57611aab6132df565b5b60200101907effffffffffffffffffffffffffffffffffffffffffffffffffffffffffffff1916908160001a905350600a85611ae8919061327d565b9450611a66565b8093505050505b919050565b505050565b505050565b611b0f8383611ce8565b611b1c6000848484611b60565b611b5b576040517f08c379a0000000000000000000000000000000000000000000000000000000008152600401611b52906131e5565b60405180910390fd5b505050565b6000611b818473ffffffffffffffffffffffffffffffffffffffff1661129d565b15611cdb578373ffffffffffffffffffffffffffffffffffffffff1663150b7a02611baa611396565b8786866040518563ffffffff1660e01b8152600401611bcc9493929190613363565b6020604051808303816000875af1925050508015611c0857506040513d601f19601f82011682018060405250810190611c0591906133c4565b60015b611c8b573d8060008114611c38576040519150601f19603f3d011682016040523d82523d6000602084013e611c3d565b606091505b50600081511415611c83576040517f08c379a0000000000000000000000000000000000000000000000000000000008152600401611c7a906131e5565b60405180910390fd5b805181602001fd5b63150b7a0260e01b7bffffffffffffffffffffffffffffffffffffffffffffffffffffffff1916817bffffffffffffffffffffffffffffffffffffffffffffffffffffffff191614915050611ce0565b600190505b949350505050565b600073ffffffffffffffffffffffffffffffffffffffff168273ffffffffffffffffffffffffffffffffffffffff161415611d58576040517f08c379a0000000000000000000000000000000000000000000000000000000008152600401611d4f9061343d565b60405180910390fd5b611d618161132a565b15611da1576040517f08c379a0000000000000000000000000000000000000000000000000000000008152600401611d98906134a9565b60405180910390fd5b611dad60008383611afb565b6001600360008473ffffffffffffffffffffffffffffffffffffffff1673ffffffffffffffffffffffffffffffffffffffff1681526020019081526020016000206000828254611dfd91906130b1565b92505081905550816002600083815260200190815260200160002060006101000a81548173ffffffffffffffffffffffffffffffffffffffff021916908373ffffffffffffffffffffffffffffffffffffffff160217905550808273ffffffffffffffffffffffffffffffffffffffff16600073ffffffffffffffffffffffffffffffffffffffff167fddf252ad1be2c89b69c2b068fc378daa952ba7f163c4a11628f55a4df523b3ef60405160405180910390a4611ebe60008383611b00565b5050565b6040518060a0016040528060008152602001600081526020016000815260200160006004811115611ef657611ef561265f565b5b8152602001600073ffffffffffffffffffffffffffffffffffffffff1681525090565b6000604051905090565b600080fd5b600080fd5b60007fffffffff0000000000000000000000000000000000000000000000000000000082169050919050565b611f6281611f2d565b8114611f6d57600080fd5b50565b600081359050611f7f81611f59565b92915050565b600060208284031215611f9b57611f9a611f23565b5b6000611fa984828501611f70565b91505092915050565b60008115159050919050565b611fc781611fb2565b82525050565b6000602082019050611fe26000830184611fbe565b92915050565b600081519050919050565b600082825260208201905092915050565b60005b83811015612022578082015181840152602081019050612007565b83811115612031576000848401525b50505050565b6000601f19601f8301169050919050565b600061205382611fe8565b61205d8185611ff3565b935061206d818560208601612004565b61207681612037565b840191505092915050565b6000602082019050818103600083015261209b8184612048565b905092915050565b6000819050919050565b6120b6816120a3565b81146120c157600080fd5b50565b6000813590506120d3816120ad565b92915050565b6000602082840312156120ef576120ee611f23565b5b60006120fd848285016120c4565b91505092915050565b600073ffffffffffffffffffffffffffffffffffffffff82169050919050565b600061213182612106565b9050919050565b61214181612126565b82525050565b600060208201905061215c6000830184612138565b92915050565b61216b81612126565b811461217657600080fd5b50565b60008135905061218881612162565b92915050565b600080604083850312156121a5576121a4611f23565b5b60006121b385828601612179565b92505060206121c4858286016120c4565b9150509250929050565b6000806000606084860312156121e7576121e6611f23565b5b60006121f586828701612179565b935050602061220686828701612179565b9250506040612217868287016120c4565b9150509250925092565b6000819050919050565b61223481612221565b811461223f57600080fd5b50565b6000813590506122518161222b565b92915050565b6000806000606084860312156122705761226f611f23565b5b600061227e868287016120c4565b935050602061228f86828701612242565b92505060406122a086828701612242565b9150509250925092565b600581106122b757600080fd5b50565b6000813590506122c9816122aa565b92915050565b6000806000606084860312156122e8576122e7611f23565b5b60006122f686828701612242565b935050602061230786828701612242565b9250506040612318868287016122ba565b9150509250925092565b61232b816120a3565b82525050565b60006020820190506123466000830184612322565b92915050565b61235581612221565b82525050565b6000604082019050612370600083018561234c565b61237d602083018461234c565b9392505050565b60006020828403121561239a57612399611f23565b5b60006123a884828501612179565b91505092915050565b600080604083850312156123c8576123c7611f23565b5b60006123d6858286016120c4565b92505060206123e7858286016122ba565b9150509250929050565b6123fa81611fb2565b811461240557600080fd5b50565b600081359050612417816123f1565b92915050565b6000806040838503121561243457612433611f23565b5b600061244285828601612179565b925050602061245385828601612408565b9150509250929050565b600080fd5b600080fd5b7f4e487b7100000000000000000000000000000000000000000000000000000000600052604160045260246000fd5b61249f82612037565b810181811067ffffffffffffffff821117156124be576124bd612467565b5b80604052505050565b60006124d1611f19565b90506124dd8282612496565b919050565b600067ffffffffffffffff8211156124fd576124fc612467565b5b61250682612037565b9050602081019050919050565b82818337600083830152505050565b6000612535612530846124e2565b6124c7565b90508281526020810184848401111561255157612550612462565b5b61255c848285612513565b509392505050565b600082601f8301126125795761257861245d565b5b8135612589848260208601612522565b91505092915050565b600080600080608085870312156125ac576125ab611f23565b5b60006125ba87828801612179565b94505060206125cb87828801612179565b93505060406125dc878288016120c4565b925050606085013567ffffffffffffffff8111156125fd576125fc611f28565b5b61260987828801612564565b91505092959194509250565b600081519050919050565b600082825260208201905092915050565b6000819050602082019050919050565b61264a816120a3565b82525050565b61265981612221565b82525050565b7f4e487b7100000000000000000000000000000000000000000000000000000000600052602160045260246000fd5b6005811061269f5761269e61265f565b5b50565b60008190506126b08261268e565b919050565b60006126c0826126a2565b9050919050565b6126d0816126b5565b82525050565b6126df81612126565b82525050565b60a0820160008201516126fb6000850182612641565b50602082015161270e6020850182612650565b5060408201516127216040850182612650565b50606082015161273460608501826126c7565b50608082015161274760808501826126d6565b50505050565b600061275983836126e5565b60a08301905092915050565b6000602082019050919050565b600061277d82612615565b6127878185612620565b935061279283612631565b8060005b838110156127c35781516127aa888261274d565b97506127b583612765565b925050600181019050612796565b5085935050505092915050565b600060208201905081810360008301526127ea8184612772565b905092915050565b60a0820160008201516128086000850182612641565b50602082015161281b6020850182612650565b50604082015161282e6040850182612650565b50606082015161284160608501826126c7565b50608082015161285460808501826126d6565b50505050565b600060a08201905061286f60008301846127f2565b92915050565b6000806040838503121561288c5761288b611f23565b5b600061289a85828601612179565b92505060206128ab85828601612179565b9150509250929050565b7f4e487b7100000000000000000000000000000000000000000000000000000000600052602260045260246000fd5b600060028204905060018216806128fc57607f821691505b602082108114156129105761290f6128b5565b5b50919050565b7f4552433732313a20617070726f76656420717565727920666f72206e6f6e657860008201527f697374656e7420746f6b656e0000000000000000000000000000000000000000602082015250565b6000612972602c83611ff3565b915061297d82612916565b604082019050919050565b600060208201905081810360008301526129a181612965565b9050919050565b7f4552433732313a20617070726f76616c20746f2063757272656e74206f776e6560008201527f7200000000000000000000000000000000000000000000000000000000000000602082015250565b6000612a04602183611ff3565b9150612a0f826129a8565b604082019050919050565b60006020820190508181036000830152612a33816129f7565b9050919050565b7f4552433732313a20617070726f76652063616c6c6572206973206e6f74206f7760008201527f6e6572206e6f7220617070726f76656420666f7220616c6c0000000000000000602082015250565b6000612a96603883611ff3565b9150612aa182612a3a565b604082019050919050565b60006020820190508181036000830152612ac581612a89565b9050919050565b7f4552433732313a207472616e736665722063616c6c6572206973206e6f74206f60008201527f776e6572206e6f7220617070726f766564000000000000000000000000000000602082015250565b6000612b28603183611ff3565b9150612b3382612acc565b604082019050919050565b60006020820190508181036000830152612b5781612b1b565b9050919050565b7f4552433732313a206f776e657220717565727920666f72206e6f6e657869737460008201527f656e7420746f6b656e0000000000000000000000000000000000000000000000602082015250565b6000612bba602983611ff3565b9150612bc582612b5e565b604082019050919050565b60006020820190508181036000830152612be981612bad565b9050919050565b7f454c2056414c4f5220444520414c5449545544204d494e494d4f20444542452060008201527f534552204d41594f522041203000000000000000000000000000000000000000602082015250565b6000612c4c602d83611ff3565b9150612c5782612bf0565b604082019050919050565b60006020820190508181036000830152612c7b81612c3f565b9050919050565b7f454c2056414c4f5220444520414c5449545544204d4158494d4f20444542452060008201527f534552204d41594f52204f20494755414c20414c204d494e494d4f0000000000602082015250565b6000612cde603b83611ff3565b9150612ce982612c82565b604082019050919050565b60006020820190508181036000830152612d0d81612cd1565b9050919050565b7f4552433732313a2062616c616e636520717565727920666f7220746865207a6560008201527f726f206164647265737300000000000000000000000000000000000000000000602082015250565b6000612d70602a83611ff3565b9150612d7b82612d14565b604082019050919050565b60006020820190508181036000830152612d9f81612d63565b9050919050565b7f4552433732314d657461646174613a2055524920717565727920666f72206e6f60008201527f6e6578697374656e7420746f6b656e0000000000000000000000000000000000602082015250565b6000612e02602f83611ff3565b9150612e0d82612da6565b604082019050919050565b60006020820190508181036000830152612e3181612df5565b9050919050565b600081905092915050565b6000612e4e82611fe8565b612e588185612e38565b9350612e68818560208601612004565b80840191505092915050565b6000612e808285612e43565b9150612e8c8284612e43565b91508190509392505050565b7f4552433732313a206f70657261746f7220717565727920666f72206e6f6e657860008201527f697374656e7420746f6b656e0000000000000000000000000000000000000000602082015250565b6000612ef4602c83611ff3565b9150612eff82612e98565b604082019050919050565b60006020820190508181036000830152612f2381612ee7565b9050919050565b7f4552433732313a207472616e736665722066726f6d20696e636f72726563742060008201527f6f776e6572000000000000000000000000000000000000000000000000000000602082015250565b6000612f86602583611ff3565b9150612f9182612f2a565b604082019050919050565b60006020820190508181036000830152612fb581612f79565b9050919050565b7f4552433732313a207472616e7366657220746f20746865207a65726f2061646460008201527f7265737300000000000000000000000000000000000000000000000000000000602082015250565b6000613018602483611ff3565b915061302382612fbc565b604082019050919050565b600060208201905081810360008301526130478161300b565b9050919050565b7f4e487b7100000000000000000000000000000000000000000000000000000000600052601160045260246000fd5b6000613088826120a3565b9150613093836120a3565b9250828210156130a6576130a561304e565b5b828203905092915050565b60006130bc826120a3565b91506130c7836120a3565b9250827fffffffffffffffffffffffffffffffffffffffffffffffffffffffffffffffff038211156130fc576130fb61304e565b5b828201905092915050565b7f4552433732313a20617070726f766520746f2063616c6c657200000000000000600082015250565b600061313d601983611ff3565b915061314882613107565b602082019050919050565b6000602082019050818103600083015261316c81613130565b9050919050565b7f4552433732313a207472616e7366657220746f206e6f6e20455243373231526560008201527f63656976657220696d706c656d656e7465720000000000000000000000000000602082015250565b60006131cf603283611ff3565b91506131da82613173565b604082019050919050565b600060208201905081810360008301526131fe816131c2565b9050919050565b6000613210826120a3565b91507fffffffffffffffffffffffffffffffffffffffffffffffffffffffffffffffff8214156132435761324261304e565b5b600182019050919050565b7f4e487b7100000000000000000000000000000000000000000000000000000000600052601260045260246000fd5b6000613288826120a3565b9150613293836120a3565b9250826132a3576132a261324e565b5b828204905092915050565b60006132b9826120a3565b91506132c4836120a3565b9250826132d4576132d361324e565b5b828206905092915050565b7f4e487b7100000000000000000000000000000000000000000000000000000000600052603260045260246000fd5b600081519050919050565b600082825260208201905092915050565b60006133358261330e565b61333f8185613319565b935061334f818560208601612004565b61335881612037565b840191505092915050565b60006080820190506133786000830187612138565b6133856020830186612138565b6133926040830185612322565b81810360608301526133a4818461332a565b905095945050505050565b6000815190506133be81611f59565b92915050565b6000602082840312156133da576133d9611f23565b5b60006133e8848285016133af565b91505092915050565b7f4552433732313a206d696e7420746f20746865207a65726f2061646472657373600082015250565b6000613427602083611ff3565b9150613432826133f1565b602082019050919050565b600060208201905081810360008301526134568161341a565b9050919050565b7f4552433732313a20746f6b656e20616c7265616479206d696e74656400000000600082015250565b6000613493601c83611ff3565b915061349e8261345d565b602082019050919050565b600060208201905081810360008301526134c281613486565b905091905056fea26469706673582212201cb975e8579a649b1893493194de7fd31d9a47c91adf72cdee613e6fa23d1d2564736f6c634300080c0033",
  "immutableReferences": {},
  "source": "//SPDX-License-Identifier: UNLICENSED\r\npragma solidity ^0.8.0; \r\n\r\n//Importamos\r\nimport \"@openzeppelin/contracts/token/ERC721/ERC721.sol\";\r\nimport \"@openzeppelin/contracts/utils/Counters.sol\";\r\n\r\n//Extendemos del contrato ERC721 (Contrato destinado a Tokens no fungibles)\r\ncontract ParcelaContract is ERC721 {\r\n    using Counters for Counters.Counter;\r\n    Counters.Counter UltimoID;\r\n\r\n    enum _Pesticidas{\r\n        Pesticida_A,\r\n        Pesticida_B,\r\n        Pesticida_C,\r\n        Pesticida_D,\r\n        Pesticida_E\r\n    }\r\n\r\n    //Creamos las variables propias del contrato\r\n    struct Parcela {\r\n        uint256 _ID;\r\n        int256 _Altitud_MIN;\r\n        int256 _Altitud_MAX;\r\n        _Pesticidas _Pesticida;\r\n        address _Owner;\r\n    }\r\n\r\n    mapping(uint256 => Parcela) private _Parcelas;\r\n\r\n    Parcela[] PARCELAS;\r\n\r\n    constructor() ERC721(\"MyParcela\", \"MParcela\") {\r\n        \r\n        UltimoID.increment();\r\n        uint256 IDActual = UltimoID.current();\r\n        /*\r\n        Parcela storage Primera = _Parcelas[IDActual];\r\n  \r\n        Primera._ID = IDActual;\r\n        Primera._Altitud_MIN = 0;\r\n        Primera._Altitud_MAX = 0;\r\n        Primera._Owner = msg.sender;\r\n        */\r\n\r\n        _safeMint(msg.sender,IDActual);\r\n    }\r\n\r\n    //Modificador de permisos de acceso\r\n    modifier SoloPropietario(uint256 ID){\r\n        require(msg.sender == ownerOf(ID));\r\n        _;\r\n    }\r\n\r\n    function CrearParcela(int256 MIN, int256 MAX, _Pesticidas PESTICIDA) public returns (uint256){\r\n        UltimoID.increment();\r\n        uint256 IDActual = UltimoID.current();\r\n        _safeMint(msg.sender,IDActual);\r\n\r\n        Parcela memory Parcela_ = Parcela({\r\n            _ID: IDActual,\r\n            _Altitud_MIN: MIN,\r\n            _Altitud_MAX: MAX,\r\n            _Pesticida: PESTICIDA,\r\n            _Owner: msg.sender\r\n        });\r\n\r\n        _Parcelas[IDActual] = Parcela_;\r\n        PARCELAS.push(Parcela_);\r\n\r\n        return IDActual;\r\n    }\r\n\r\n    function ConfigurarAltitud(uint256 ID, int256 MIN, int256 MAX) public SoloPropietario(ID) returns (int256, int256)\r\n    {\r\n        require (MIN > 0, \"EL VALOR DE ALTITUD MINIMO DEBE SER MAYOR A 0\");\r\n        require (MAX >= MIN, \"EL VALOR DE ALTITUD MAXIMO DEBE SER MAYOR O IGUAL AL MINIMO\");\r\n        _Parcelas[ID]._Altitud_MIN = MIN;\r\n        _Parcelas[ID]._Altitud_MAX = MAX;\r\n        return ( _Parcelas[ID]._Altitud_MIN,  _Parcelas[ID]._Altitud_MAX);\r\n    }\r\n\r\n    function ConfigurarPesticida(uint256 ID, _Pesticidas PESTICIDA) public SoloPropietario(ID) returns (bool)\r\n    {\r\n        _Parcelas[ID]._Pesticida = PESTICIDA;\r\n        return true;\r\n    }\r\n\r\n    function ObtenerInfoParcela(uint256 ID) public view returns (Parcela memory) {\r\n        return _Parcelas[ID];\r\n    }\r\n\r\n    function ObtenerInfoParcelas() public view returns (Parcela [] memory) {\r\n        return PARCELAS;\r\n    }\r\n\r\n    function ComprobarAltitud(uint256 ID, int256 MIN, int256 MAX) public view returns (bool)\r\n    {\r\n        if ((MAX < _Parcelas[ID]._Altitud_MIN) || (MIN > _Parcelas[ID]._Altitud_MAX) || (MIN > MAX)) {\r\n            return false;\r\n        } else {\r\n            if ((MAX >= _Parcelas[ID]._Altitud_MIN && MAX <= _Parcelas[ID]._Altitud_MAX) || (MIN <= _Parcelas[ID]._Altitud_MAX && MIN >= _Parcelas[ID]._Altitud_MIN)) {\r\n                return true;\r\n            } else {\r\n                if ((MAX >= _Parcelas[ID]._Altitud_MAX && MIN <= _Parcelas[ID]._Altitud_MIN) || (MAX <= _Parcelas[ID]._Altitud_MAX && MIN >= _Parcelas[ID]._Altitud_MIN)) {\r\n                    return true;\r\n                } else {\r\n                    return false;\r\n                }\r\n            }\r\n        }\r\n    }\r\n}",
  "sourcePath": "/Users/trabajo/Documents/apps/front_blockchain_tfe/contracts/ParcelaContract.sol",
  "compiler": {
    "name": "solc",
    "version": "0.8.12+commit.f00d7308.Emscripten.clang"
  },
  "schemaVersion": "3.4.6",
  "updatedAt": "2022-03-18T13:21:55.098Z",
  "networkType": "ethereum",
  "devdoc": {
    "kind": "dev",
    "methods": {
      "approve(address,uint256)": {
        "details": "See {IERC721-approve}."
      },
      "balanceOf(address)": {
        "details": "See {IERC721-balanceOf}."
      },
      "getApproved(uint256)": {
        "details": "See {IERC721-getApproved}."
      },
      "isApprovedForAll(address,address)": {
        "details": "See {IERC721-isApprovedForAll}."
      },
      "name()": {
        "details": "See {IERC721Metadata-name}."
      },
      "ownerOf(uint256)": {
        "details": "See {IERC721-ownerOf}."
      },
      "safeTransferFrom(address,address,uint256)": {
        "details": "See {IERC721-safeTransferFrom}."
      },
      "safeTransferFrom(address,address,uint256,bytes)": {
        "details": "See {IERC721-safeTransferFrom}."
      },
      "setApprovalForAll(address,bool)": {
        "details": "See {IERC721-setApprovalForAll}."
      },
      "supportsInterface(bytes4)": {
        "details": "See {IERC165-supportsInterface}."
      },
      "symbol()": {
        "details": "See {IERC721Metadata-symbol}."
      },
      "tokenURI(uint256)": {
        "details": "See {IERC721Metadata-tokenURI}."
      },
      "transferFrom(address,address,uint256)": {
        "details": "See {IERC721-transferFrom}."
      }
    },
    "version": 1
  },
  "userdoc": {
    "kind": "user",
    "methods": {},
    "version": 1
  }
}