{
  "contractName": "ParcelaContract",
  "abi": [
    {
      "inputs": [],
      "stateMutability": "nonpayable",
      "type": "constructor"
    },
    {
      "anonymous": false,
      "inputs": [
        {
          "indexed": true,
          "internalType": "address",
          "name": "owner",
          "type": "address"
        },
        {
          "indexed": true,
          "internalType": "address",
          "name": "approved",
          "type": "address"
        },
        {
          "indexed": true,
          "internalType": "uint256",
          "name": "tokenId",
          "type": "uint256"
        }
      ],
      "name": "Approval",
      "type": "event"
    },
    {
      "anonymous": false,
      "inputs": [
        {
          "indexed": true,
          "internalType": "address",
          "name": "owner",
          "type": "address"
        },
        {
          "indexed": true,
          "internalType": "address",
          "name": "operator",
          "type": "address"
        },
        {
          "indexed": false,
          "internalType": "bool",
          "name": "approved",
          "type": "bool"
        }
      ],
      "name": "ApprovalForAll",
      "type": "event"
    },
    {
      "anonymous": false,
      "inputs": [
        {
          "indexed": true,
          "internalType": "address",
          "name": "from",
          "type": "address"
        },
        {
          "indexed": true,
          "internalType": "address",
          "name": "to",
          "type": "address"
        },
        {
          "indexed": true,
          "internalType": "uint256",
          "name": "tokenId",
          "type": "uint256"
        }
      ],
      "name": "Transfer",
      "type": "event"
    },
    {
      "inputs": [
        {
          "internalType": "address",
          "name": "to",
          "type": "address"
        },
        {
          "internalType": "uint256",
          "name": "tokenId",
          "type": "uint256"
        }
      ],
      "name": "approve",
      "outputs": [],
      "stateMutability": "nonpayable",
      "type": "function"
    },
    {
      "inputs": [
        {
          "internalType": "address",
          "name": "owner",
          "type": "address"
        }
      ],
      "name": "balanceOf",
      "outputs": [
        {
          "internalType": "uint256",
          "name": "",
          "type": "uint256"
        }
      ],
      "stateMutability": "view",
      "type": "function",
      "constant": true
    },
    {
      "inputs": [
        {
          "internalType": "uint256",
          "name": "tokenId",
          "type": "uint256"
        }
      ],
      "name": "getApproved",
      "outputs": [
        {
          "internalType": "address",
          "name": "",
          "type": "address"
        }
      ],
      "stateMutability": "view",
      "type": "function",
      "constant": true
    },
    {
      "inputs": [
        {
          "internalType": "address",
          "name": "owner",
          "type": "address"
        },
        {
          "internalType": "address",
          "name": "operator",
          "type": "address"
        }
      ],
      "name": "isApprovedForAll",
      "outputs": [
        {
          "internalType": "bool",
          "name": "",
          "type": "bool"
        }
      ],
      "stateMutability": "view",
      "type": "function",
      "constant": true
    },
    {
      "inputs": [],
      "name": "name",
      "outputs": [
        {
          "internalType": "string",
          "name": "",
          "type": "string"
        }
      ],
      "stateMutability": "view",
      "type": "function",
      "constant": true
    },
    {
      "inputs": [
        {
          "internalType": "uint256",
          "name": "tokenId",
          "type": "uint256"
        }
      ],
      "name": "ownerOf",
      "outputs": [
        {
          "internalType": "address",
          "name": "",
          "type": "address"
        }
      ],
      "stateMutability": "view",
      "type": "function",
      "constant": true
    },
    {
      "inputs": [
        {
          "internalType": "address",
          "name": "from",
          "type": "address"
        },
        {
          "internalType": "address",
          "name": "to",
          "type": "address"
        },
        {
          "internalType": "uint256",
          "name": "tokenId",
          "type": "uint256"
        }
      ],
      "name": "safeTransferFrom",
      "outputs": [],
      "stateMutability": "nonpayable",
      "type": "function"
    },
    {
      "inputs": [
        {
          "internalType": "address",
          "name": "from",
          "type": "address"
        },
        {
          "internalType": "address",
          "name": "to",
          "type": "address"
        },
        {
          "internalType": "uint256",
          "name": "tokenId",
          "type": "uint256"
        },
        {
          "internalType": "bytes",
          "name": "_data",
          "type": "bytes"
        }
      ],
      "name": "safeTransferFrom",
      "outputs": [],
      "stateMutability": "nonpayable",
      "type": "function"
    },
    {
      "inputs": [
        {
          "internalType": "address",
          "name": "operator",
          "type": "address"
        },
        {
          "internalType": "bool",
          "name": "approved",
          "type": "bool"
        }
      ],
      "name": "setApprovalForAll",
      "outputs": [],
      "stateMutability": "nonpayable",
      "type": "function"
    },
    {
      "inputs": [
        {
          "internalType": "bytes4",
          "name": "interfaceId",
          "type": "bytes4"
        }
      ],
      "name": "supportsInterface",
      "outputs": [
        {
          "internalType": "bool",
          "name": "",
          "type": "bool"
        }
      ],
      "stateMutability": "view",
      "type": "function",
      "constant": true
    },
    {
      "inputs": [],
      "name": "symbol",
      "outputs": [
        {
          "internalType": "string",
          "name": "",
          "type": "string"
        }
      ],
      "stateMutability": "view",
      "type": "function",
      "constant": true
    },
    {
      "inputs": [
        {
          "internalType": "uint256",
          "name": "tokenId",
          "type": "uint256"
        }
      ],
      "name": "tokenURI",
      "outputs": [
        {
          "internalType": "string",
          "name": "",
          "type": "string"
        }
      ],
      "stateMutability": "view",
      "type": "function",
      "constant": true
    },
    {
      "inputs": [
        {
          "internalType": "address",
          "name": "from",
          "type": "address"
        },
        {
          "internalType": "address",
          "name": "to",
          "type": "address"
        },
        {
          "internalType": "uint256",
          "name": "tokenId",
          "type": "uint256"
        }
      ],
      "name": "transferFrom",
      "outputs": [],
      "stateMutability": "nonpayable",
      "type": "function"
    },
    {
      "inputs": [
        {
          "internalType": "int256",
          "name": "MIN",
          "type": "int256"
        },
        {
          "internalType": "int256",
          "name": "MAX",
          "type": "int256"
        },
        {
          "internalType": "enum ParcelaContract._Pesticidas",
          "name": "PESTICIDA",
          "type": "uint8"
        }
      ],
      "name": "CrearParcela",
      "outputs": [
        {
          "internalType": "uint256",
          "name": "",
          "type": "uint256"
        }
      ],
      "stateMutability": "nonpayable",
      "type": "function"
    },
    {
      "inputs": [
        {
          "internalType": "uint256",
          "name": "ID",
          "type": "uint256"
        },
        {
          "internalType": "int256",
          "name": "MIN",
          "type": "int256"
        },
        {
          "internalType": "int256",
          "name": "MAX",
          "type": "int256"
        }
      ],
      "name": "ConfigurarAltitud",
      "outputs": [
        {
          "internalType": "int256",
          "name": "",
          "type": "int256"
        },
        {
          "internalType": "int256",
          "name": "",
          "type": "int256"
        }
      ],
      "stateMutability": "nonpayable",
      "type": "function"
    },
    {
      "inputs": [
        {
          "internalType": "uint256",
          "name": "ID",
          "type": "uint256"
        },
        {
          "internalType": "enum ParcelaContract._Pesticidas",
          "name": "PESTICIDA",
          "type": "uint8"
        }
      ],
      "name": "ConfigurarPesticida",
      "outputs": [
        {
          "internalType": "bool",
          "name": "",
          "type": "bool"
        }
      ],
      "stateMutability": "nonpayable",
      "type": "function"
    },
    {
      "inputs": [
        {
          "internalType": "uint256",
          "name": "ID",
          "type": "uint256"
        }
      ],
      "name": "ObtenerInfoParcela",
      "outputs": [
        {
          "components": [
            {
              "internalType": "uint256",
              "name": "_ID",
              "type": "uint256"
            },
            {
              "internalType": "int256",
              "name": "_Altitud_MIN",
              "type": "int256"
            },
            {
              "internalType": "int256",
              "name": "_Altitud_MAX",
              "type": "int256"
            },
            {
              "internalType": "enum ParcelaContract._Pesticidas",
              "name": "_Pesticida",
              "type": "uint8"
            },
            {
              "internalType": "address",
              "name": "_Owner",
              "type": "address"
            }
          ],
          "internalType": "struct ParcelaContract.Parcela",
          "name": "",
          "type": "tuple"
        }
      ],
      "stateMutability": "view",
      "type": "function",
      "constant": true
    },
    {
      "inputs": [
        {
          "internalType": "uint256",
          "name": "ID",
          "type": "uint256"
        },
        {
          "internalType": "int256",
          "name": "MIN",
          "type": "int256"
        },
        {
          "internalType": "int256",
          "name": "MAX",
          "type": "int256"
        }
      ],
      "name": "ComprobarAltitud",
      "outputs": [
        {
          "internalType": "bool",
          "name": "",
          "type": "bool"
        }
      ],
      "stateMutability": "view",
      "type": "function",
      "constant": true
    }
  ],
  "bytecode": "0x60806040523480156200001157600080fd5b506040518060400160405280600981526020017f4d7950617263656c6100000000000000000000000000000000000000000000008152506040518060400160405280600881526020017f4d50617263656c61000000000000000000000000000000000000000000000000815250816000908051906020019062000096929190620005fa565b508060019080519060200190620000af929190620005fa565b505050620000c96006620000fd60201b620010751760201c565b6000620000e260066200011360201b6200108b1760201c565b9050620000f633826200012160201b60201c565b5062000b14565b6001816000016000828254019250508190555050565b600081600001549050919050565b620001438282604051806020016040528060008152506200014760201b60201c565b5050565b620001598383620001b560201b60201c565b6200016e6000848484620003af60201b60201c565b620001b0576040517f08c379a0000000000000000000000000000000000000000000000000000000008152600401620001a79062000731565b60405180910390fd5b505050565b600073ffffffffffffffffffffffffffffffffffffffff168273ffffffffffffffffffffffffffffffffffffffff16141562000228576040517f08c379a00000000000000000000000000000000000000000000000000000000081526004016200021f90620007a3565b60405180910390fd5b62000239816200055960201b60201c565b156200027c576040517f08c379a0000000000000000000000000000000000000000000000000000000008152600401620002739062000815565b60405180910390fd5b6200029060008383620005c560201b60201c565b6001600360008473ffffffffffffffffffffffffffffffffffffffff1673ffffffffffffffffffffffffffffffffffffffff1681526020019081526020016000206000828254620002e2919062000870565b92505081905550816002600083815260200190815260200160002060006101000a81548173ffffffffffffffffffffffffffffffffffffffff021916908373ffffffffffffffffffffffffffffffffffffffff160217905550808273ffffffffffffffffffffffffffffffffffffffff16600073ffffffffffffffffffffffffffffffffffffffff167fddf252ad1be2c89b69c2b068fc378daa952ba7f163c4a11628f55a4df523b3ef60405160405180910390a4620003ab60008383620005ca60201b60201c565b5050565b6000620003dd8473ffffffffffffffffffffffffffffffffffffffff16620005cf60201b620010991760201c565b156200054c578373ffffffffffffffffffffffffffffffffffffffff1663150b7a026200040f620005f260201b60201c565b8786866040518563ffffffff1660e01b8152600401620004339493929190620009c7565b6020604051808303816000875af19250505080156200047257506040513d601f19601f820116820180604052508101906200046f919062000a7d565b60015b620004fb573d8060008114620004a5576040519150601f19603f3d011682016040523d82523d6000602084013e620004aa565b606091505b50600081511415620004f3576040517f08c379a0000000000000000000000000000000000000000000000000000000008152600401620004ea9062000731565b60405180910390fd5b805181602001fd5b63150b7a0260e01b7bffffffffffffffffffffffffffffffffffffffffffffffffffffffff1916817bffffffffffffffffffffffffffffffffffffffffffffffffffffffff19161491505062000551565b600190505b949350505050565b60008073ffffffffffffffffffffffffffffffffffffffff166002600084815260200190815260200160002060009054906101000a900473ffffffffffffffffffffffffffffffffffffffff1673ffffffffffffffffffffffffffffffffffffffff1614159050919050565b505050565b505050565b6000808273ffffffffffffffffffffffffffffffffffffffff163b119050919050565b600033905090565b828054620006089062000ade565b90600052602060002090601f0160209004810192826200062c576000855562000678565b82601f106200064757805160ff191683800117855562000678565b8280016001018555821562000678579182015b82811115620006775782518255916020019190600101906200065a565b5b5090506200068791906200068b565b5090565b5b80821115620006a65760008160009055506001016200068c565b5090565b600082825260208201905092915050565b7f4552433732313a207472616e7366657220746f206e6f6e20455243373231526560008201527f63656976657220696d706c656d656e7465720000000000000000000000000000602082015250565b600062000719603283620006aa565b91506200072682620006bb565b604082019050919050565b600060208201905081810360008301526200074c816200070a565b9050919050565b7f4552433732313a206d696e7420746f20746865207a65726f2061646472657373600082015250565b60006200078b602083620006aa565b9150620007988262000753565b602082019050919050565b60006020820190508181036000830152620007be816200077c565b9050919050565b7f4552433732313a20746f6b656e20616c7265616479206d696e74656400000000600082015250565b6000620007fd601c83620006aa565b91506200080a82620007c5565b602082019050919050565b600060208201905081810360008301526200083081620007ee565b9050919050565b6000819050919050565b7f4e487b7100000000000000000000000000000000000000000000000000000000600052601160045260246000fd5b60006200087d8262000837565b91506200088a8362000837565b9250827fffffffffffffffffffffffffffffffffffffffffffffffffffffffffffffffff03821115620008c257620008c162000841565b5b828201905092915050565b600073ffffffffffffffffffffffffffffffffffffffff82169050919050565b6000620008fa82620008cd565b9050919050565b6200090c81620008ed565b82525050565b6200091d8162000837565b82525050565b600081519050919050565b600082825260208201905092915050565b60005b838110156200095f57808201518184015260208101905062000942565b838111156200096f576000848401525b50505050565b6000601f19601f8301169050919050565b6000620009938262000923565b6200099f81856200092e565b9350620009b18185602086016200093f565b620009bc8162000975565b840191505092915050565b6000608082019050620009de600083018762000901565b620009ed602083018662000901565b620009fc604083018562000912565b818103606083015262000a10818462000986565b905095945050505050565b600080fd5b60007fffffffff0000000000000000000000000000000000000000000000000000000082169050919050565b62000a578162000a20565b811462000a6357600080fd5b50565b60008151905062000a778162000a4c565b92915050565b60006020828403121562000a965762000a9562000a1b565b5b600062000aa68482850162000a66565b91505092915050565b7f4e487b7100000000000000000000000000000000000000000000000000000000600052602260045260246000fd5b6000600282049050600182168062000af757607f821691505b6020821081141562000b0e5762000b0d62000aaf565b5b50919050565b612e978062000b246000396000f3fe608060405234801561001057600080fd5b50600436106101165760003560e01c80636678fd0b116100a2578063a22cb46511610071578063a22cb4651461032c578063b88d4fde14610348578063c87b56dd14610364578063d5f8d1df14610394578063e985e9c5146103c457610116565b80636678fd0b1461027d57806370a08231146102ae578063896b4d8f146102de57806395d89b411461030e57610116565b806323b872dd116100e957806323b872dd146101b557806338a18c49146101d157806342842e0e146102015780635191f06a1461021d5780636352211e1461024d57610116565b806301ffc9a71461011b57806306fdde031461014b578063081812fc14610169578063095ea7b314610199575b600080fd5b61013560048036038101906101309190611b2e565b6103f4565b6040516101429190611b76565b60405180910390f35b6101536104d6565b6040516101609190611c2a565b60405180910390f35b610183600480360381019061017e9190611c82565b610568565b6040516101909190611cf0565b60405180910390f35b6101b360048036038101906101ae9190611d37565b6105ed565b005b6101cf60048036038101906101ca9190611d77565b610705565b005b6101eb60048036038101906101e69190611e00565b610765565b6040516101f89190611b76565b60405180910390f35b61021b60048036038101906102169190611d77565b6108de565b005b61023760048036038101906102329190611e78565b6108fe565b6040516102449190611eda565b60405180910390f35b61026760048036038101906102629190611c82565b610a23565b6040516102749190611cf0565b60405180910390f35b61029760048036038101906102929190611e00565b610ad5565b6040516102a5929190611f04565b60405180910390f35b6102c860048036038101906102c39190611f2d565b610c10565b6040516102d59190611eda565b60405180910390f35b6102f860048036038101906102f39190611f5a565b610cc8565b6040516103059190611b76565b60405180910390f35b610316610d54565b6040516103239190611c2a565b60405180910390f35b61034660048036038101906103419190611fc6565b610de6565b005b610362600480360381019061035d919061213b565b610dfc565b005b61037e60048036038101906103799190611c82565b610e5e565b60405161038b9190611c2a565b60405180910390f35b6103ae60048036038101906103a99190611c82565b610f05565b6040516103bb91906122ca565b60405180910390f35b6103de60048036038101906103d991906122e5565b610fe1565b6040516103eb9190611b76565b60405180910390f35b60007f80ac58cd000000000000000000000000000000000000000000000000000000007bffffffffffffffffffffffffffffffffffffffffffffffffffffffff1916827bffffffffffffffffffffffffffffffffffffffffffffffffffffffff191614806104bf57507f5b5e139f000000000000000000000000000000000000000000000000000000007bffffffffffffffffffffffffffffffffffffffffffffffffffffffff1916827bffffffffffffffffffffffffffffffffffffffffffffffffffffffff1916145b806104cf57506104ce826110bc565b5b9050919050565b6060600080546104e590612354565b80601f016020809104026020016040519081016040528092919081815260200182805461051190612354565b801561055e5780601f106105335761010080835404028352916020019161055e565b820191906000526020600020905b81548152906001019060200180831161054157829003601f168201915b5050505050905090565b600061057382611126565b6105b2576040517f08c379a00000000000000000000000000000000000000000000000000000000081526004016105a9906123f8565b60405180910390fd5b6004600083815260200190815260200160002060009054906101000a900473ffffffffffffffffffffffffffffffffffffffff169050919050565b60006105f882610a23565b90508073ffffffffffffffffffffffffffffffffffffffff168373ffffffffffffffffffffffffffffffffffffffff161415610669576040517f08c379a00000000000000000000000000000000000000000000000000000000081526004016106609061248a565b60405180910390fd5b8073ffffffffffffffffffffffffffffffffffffffff16610688611192565b73ffffffffffffffffffffffffffffffffffffffff1614806106b757506106b6816106b1611192565b610fe1565b5b6106f6576040517f08c379a00000000000000000000000000000000000000000000000000000000081526004016106ed9061251c565b60405180910390fd5b610700838361119a565b505050565b610716610710611192565b82611253565b610755576040517f08c379a000000000000000000000000000000000000000000000000000000000815260040161074c906125ae565b60405180910390fd5b610760838383611331565b505050565b600060076000858152602001908152602001600020600101548212806107a05750600760008581526020019081526020016000206002015483135b806107aa57508183135b156107b857600090506108d7565b600760008581526020019081526020016000206001015482121580156107f4575060076000858152602001908152602001600020600201548213155b80610837575060076000858152602001908152602001600020600201548313158015610836575060076000858152602001908152602001600020600101548312155b5b1561084557600190506108d7565b60076000858152602001908152602001600020600201548212158015610881575060076000858152602001908152602001600020600101548313155b806108c45750600760008581526020019081526020016000206002015482131580156108c3575060076000858152602001908152602001600020600101548312155b5b156108d257600190506108d7565b600090505b9392505050565b6108f983838360405180602001604052806000815250610dfc565b505050565b600061090a6006611075565b6000610916600661108b565b905060006040518060a0016040528083815260200187815260200186815260200185600481111561094a576109496121dc565b5b81526020013373ffffffffffffffffffffffffffffffffffffffff168152509050806007600084815260200190815260200160002060008201518160000155602082015181600101556040820151816002015560608201518160030160006101000a81548160ff021916908360048111156109c8576109c76121dc565b5b021790555060808201518160030160016101000a81548173ffffffffffffffffffffffffffffffffffffffff021916908373ffffffffffffffffffffffffffffffffffffffff16021790555090505081925050509392505050565b6000806002600084815260200190815260200160002060009054906101000a900473ffffffffffffffffffffffffffffffffffffffff169050600073ffffffffffffffffffffffffffffffffffffffff168173ffffffffffffffffffffffffffffffffffffffff161415610acc576040517f08c379a0000000000000000000000000000000000000000000000000000000008152600401610ac390612640565b60405180910390fd5b80915050919050565b60008084610ae281610a23565b73ffffffffffffffffffffffffffffffffffffffff163373ffffffffffffffffffffffffffffffffffffffff1614610b1957600080fd5b60008513610b5c576040517f08c379a0000000000000000000000000000000000000000000000000000000008152600401610b53906126d2565b60405180910390fd5b84841215610b9f576040517f08c379a0000000000000000000000000000000000000000000000000000000008152600401610b9690612764565b60405180910390fd5b846007600088815260200190815260200160002060010181905550836007600088815260200190815260200160002060020181905550600760008781526020019081526020016000206001015460076000888152602001908152602001600020600201549250925050935093915050565b60008073ffffffffffffffffffffffffffffffffffffffff168273ffffffffffffffffffffffffffffffffffffffff161415610c81576040517f08c379a0000000000000000000000000000000000000000000000000000000008152600401610c78906127f6565b60405180910390fd5b600360008373ffffffffffffffffffffffffffffffffffffffff1673ffffffffffffffffffffffffffffffffffffffff168152602001908152602001600020549050919050565b600082610cd481610a23565b73ffffffffffffffffffffffffffffffffffffffff163373ffffffffffffffffffffffffffffffffffffffff1614610d0b57600080fd5b826007600086815260200190815260200160002060030160006101000a81548160ff02191690836004811115610d4457610d436121dc565b5b0217905550600191505092915050565b606060018054610d6390612354565b80601f0160208091040260200160405190810160405280929190818152602001828054610d8f90612354565b8015610ddc5780601f10610db157610100808354040283529160200191610ddc565b820191906000526020600020905b815481529060010190602001808311610dbf57829003601f168201915b5050505050905090565b610df8610df1611192565b8383611598565b5050565b610e0d610e07611192565b83611253565b610e4c576040517f08c379a0000000000000000000000000000000000000000000000000000000008152600401610e43906125ae565b60405180910390fd5b610e5884848484611705565b50505050565b6060610e6982611126565b610ea8576040517f08c379a0000000000000000000000000000000000000000000000000000000008152600401610e9f90612888565b60405180910390fd5b6000610eb2611761565b90506000815111610ed25760405180602001604052806000815250610efd565b80610edc84611778565b604051602001610eed9291906128e4565b6040516020818303038152906040525b915050919050565b610f0d611a6b565b600760008381526020019081526020016000206040518060a00160405290816000820154815260200160018201548152602001600282015481526020016003820160009054906101000a900460ff166004811115610f6e57610f6d6121dc565b5b6004811115610f8057610f7f6121dc565b5b81526020016003820160019054906101000a900473ffffffffffffffffffffffffffffffffffffffff1673ffffffffffffffffffffffffffffffffffffffff1673ffffffffffffffffffffffffffffffffffffffff16815250509050919050565b6000600560008473ffffffffffffffffffffffffffffffffffffffff1673ffffffffffffffffffffffffffffffffffffffff16815260200190815260200160002060008373ffffffffffffffffffffffffffffffffffffffff1673ffffffffffffffffffffffffffffffffffffffff16815260200190815260200160002060009054906101000a900460ff16905092915050565b6001816000016000828254019250508190555050565b600081600001549050919050565b6000808273ffffffffffffffffffffffffffffffffffffffff163b119050919050565b60007f01ffc9a7000000000000000000000000000000000000000000000000000000007bffffffffffffffffffffffffffffffffffffffffffffffffffffffff1916827bffffffffffffffffffffffffffffffffffffffffffffffffffffffff1916149050919050565b60008073ffffffffffffffffffffffffffffffffffffffff166002600084815260200190815260200160002060009054906101000a900473ffffffffffffffffffffffffffffffffffffffff1673ffffffffffffffffffffffffffffffffffffffff1614159050919050565b600033905090565b816004600083815260200190815260200160002060006101000a81548173ffffffffffffffffffffffffffffffffffffffff021916908373ffffffffffffffffffffffffffffffffffffffff160217905550808273ffffffffffffffffffffffffffffffffffffffff1661120d83610a23565b73ffffffffffffffffffffffffffffffffffffffff167f8c5be1e5ebec7d5bd14f71427d1e84f3dd0314c0f7b2291e5b200ac8c7c3b92560405160405180910390a45050565b600061125e82611126565b61129d576040517f08c379a00000000000000000000000000000000000000000000000000000000081526004016112949061297a565b60405180910390fd5b60006112a883610a23565b90508073ffffffffffffffffffffffffffffffffffffffff168473ffffffffffffffffffffffffffffffffffffffff16148061131757508373ffffffffffffffffffffffffffffffffffffffff166112ff84610568565b73ffffffffffffffffffffffffffffffffffffffff16145b8061132857506113278185610fe1565b5b91505092915050565b8273ffffffffffffffffffffffffffffffffffffffff1661135182610a23565b73ffffffffffffffffffffffffffffffffffffffff16146113a7576040517f08c379a000000000000000000000000000000000000000000000000000000000815260040161139e90612a0c565b60405180910390fd5b600073ffffffffffffffffffffffffffffffffffffffff168273ffffffffffffffffffffffffffffffffffffffff161415611417576040517f08c379a000000000000000000000000000000000000000000000000000000000815260040161140e90612a9e565b60405180910390fd5b6114228383836118d9565b61142d60008261119a565b6001600360008573ffffffffffffffffffffffffffffffffffffffff1673ffffffffffffffffffffffffffffffffffffffff168152602001908152602001600020600082825461147d9190612aed565b925050819055506001600360008473ffffffffffffffffffffffffffffffffffffffff1673ffffffffffffffffffffffffffffffffffffffff16815260200190815260200160002060008282546114d49190612b21565b92505081905550816002600083815260200190815260200160002060006101000a81548173ffffffffffffffffffffffffffffffffffffffff021916908373ffffffffffffffffffffffffffffffffffffffff160217905550808273ffffffffffffffffffffffffffffffffffffffff168473ffffffffffffffffffffffffffffffffffffffff167fddf252ad1be2c89b69c2b068fc378daa952ba7f163c4a11628f55a4df523b3ef60405160405180910390a46115938383836118de565b505050565b8173ffffffffffffffffffffffffffffffffffffffff168373ffffffffffffffffffffffffffffffffffffffff161415611607576040517f08c379a00000000000000000000000000000000000000000000000000000000081526004016115fe90612bc3565b60405180910390fd5b80600560008573ffffffffffffffffffffffffffffffffffffffff1673ffffffffffffffffffffffffffffffffffffffff16815260200190815260200160002060008473ffffffffffffffffffffffffffffffffffffffff1673ffffffffffffffffffffffffffffffffffffffff16815260200190815260200160002060006101000a81548160ff0219169083151502179055508173ffffffffffffffffffffffffffffffffffffffff168373ffffffffffffffffffffffffffffffffffffffff167f17307eab39ab6107e8899845ad3d59bd9653f200f220920489ca2b5937696c31836040516116f89190611b76565b60405180910390a3505050565b611710848484611331565b61171c848484846118e3565b61175b576040517f08c379a000000000000000000000000000000000000000000000000000000000815260040161175290612c55565b60405180910390fd5b50505050565b606060405180602001604052806000815250905090565b606060008214156117c0576040518060400160405280600181526020017f300000000000000000000000000000000000000000000000000000000000000081525090506118d4565b600082905060005b600082146117f25780806117db90612c75565b915050600a826117eb9190612ced565b91506117c8565b60008167ffffffffffffffff81111561180e5761180d612010565b5b6040519080825280601f01601f1916602001820160405280156118405781602001600182028036833780820191505090505b5090505b600085146118cd576001826118599190612aed565b9150600a856118689190612d1e565b60306118749190612b21565b60f81b81838151811061188a57611889612d4f565b5b60200101907effffffffffffffffffffffffffffffffffffffffffffffffffffffffffffff1916908160001a905350600a856118c69190612ced565b9450611844565b8093505050505b919050565b505050565b505050565b60006119048473ffffffffffffffffffffffffffffffffffffffff16611099565b15611a5e578373ffffffffffffffffffffffffffffffffffffffff1663150b7a0261192d611192565b8786866040518563ffffffff1660e01b815260040161194f9493929190612dd3565b6020604051808303816000875af192505050801561198b57506040513d601f19601f820116820180604052508101906119889190612e34565b60015b611a0e573d80600081146119bb576040519150601f19603f3d011682016040523d82523d6000602084013e6119c0565b606091505b50600081511415611a06576040517f08c379a00000000000000000000000000000000000000000000000000000000081526004016119fd90612c55565b60405180910390fd5b805181602001fd5b63150b7a0260e01b7bffffffffffffffffffffffffffffffffffffffffffffffffffffffff1916817bffffffffffffffffffffffffffffffffffffffffffffffffffffffff191614915050611a63565b600190505b949350505050565b6040518060a0016040528060008152602001600081526020016000815260200160006004811115611a9f57611a9e6121dc565b5b8152602001600073ffffffffffffffffffffffffffffffffffffffff1681525090565b6000604051905090565b600080fd5b600080fd5b60007fffffffff0000000000000000000000000000000000000000000000000000000082169050919050565b611b0b81611ad6565b8114611b1657600080fd5b50565b600081359050611b2881611b02565b92915050565b600060208284031215611b4457611b43611acc565b5b6000611b5284828501611b19565b91505092915050565b60008115159050919050565b611b7081611b5b565b82525050565b6000602082019050611b8b6000830184611b67565b92915050565b600081519050919050565b600082825260208201905092915050565b60005b83811015611bcb578082015181840152602081019050611bb0565b83811115611bda576000848401525b50505050565b6000601f19601f8301169050919050565b6000611bfc82611b91565b611c068185611b9c565b9350611c16818560208601611bad565b611c1f81611be0565b840191505092915050565b60006020820190508181036000830152611c448184611bf1565b905092915050565b6000819050919050565b611c5f81611c4c565b8114611c6a57600080fd5b50565b600081359050611c7c81611c56565b92915050565b600060208284031215611c9857611c97611acc565b5b6000611ca684828501611c6d565b91505092915050565b600073ffffffffffffffffffffffffffffffffffffffff82169050919050565b6000611cda82611caf565b9050919050565b611cea81611ccf565b82525050565b6000602082019050611d056000830184611ce1565b92915050565b611d1481611ccf565b8114611d1f57600080fd5b50565b600081359050611d3181611d0b565b92915050565b60008060408385031215611d4e57611d4d611acc565b5b6000611d5c85828601611d22565b9250506020611d6d85828601611c6d565b9150509250929050565b600080600060608486031215611d9057611d8f611acc565b5b6000611d9e86828701611d22565b9350506020611daf86828701611d22565b9250506040611dc086828701611c6d565b9150509250925092565b6000819050919050565b611ddd81611dca565b8114611de857600080fd5b50565b600081359050611dfa81611dd4565b92915050565b600080600060608486031215611e1957611e18611acc565b5b6000611e2786828701611c6d565b9350506020611e3886828701611deb565b9250506040611e4986828701611deb565b9150509250925092565b60058110611e6057600080fd5b50565b600081359050611e7281611e53565b92915050565b600080600060608486031215611e9157611e90611acc565b5b6000611e9f86828701611deb565b9350506020611eb086828701611deb565b9250506040611ec186828701611e63565b9150509250925092565b611ed481611c4c565b82525050565b6000602082019050611eef6000830184611ecb565b92915050565b611efe81611dca565b82525050565b6000604082019050611f196000830185611ef5565b611f266020830184611ef5565b9392505050565b600060208284031215611f4357611f42611acc565b5b6000611f5184828501611d22565b91505092915050565b60008060408385031215611f7157611f70611acc565b5b6000611f7f85828601611c6d565b9250506020611f9085828601611e63565b9150509250929050565b611fa381611b5b565b8114611fae57600080fd5b50565b600081359050611fc081611f9a565b92915050565b60008060408385031215611fdd57611fdc611acc565b5b6000611feb85828601611d22565b9250506020611ffc85828601611fb1565b9150509250929050565b600080fd5b600080fd5b7f4e487b7100000000000000000000000000000000000000000000000000000000600052604160045260246000fd5b61204882611be0565b810181811067ffffffffffffffff8211171561206757612066612010565b5b80604052505050565b600061207a611ac2565b9050612086828261203f565b919050565b600067ffffffffffffffff8211156120a6576120a5612010565b5b6120af82611be0565b9050602081019050919050565b82818337600083830152505050565b60006120de6120d98461208b565b612070565b9050828152602081018484840111156120fa576120f961200b565b5b6121058482856120bc565b509392505050565b600082601f83011261212257612121612006565b5b81356121328482602086016120cb565b91505092915050565b6000806000806080858703121561215557612154611acc565b5b600061216387828801611d22565b945050602061217487828801611d22565b935050604061218587828801611c6d565b925050606085013567ffffffffffffffff8111156121a6576121a5611ad1565b5b6121b28782880161210d565b91505092959194509250565b6121c781611c4c565b82525050565b6121d681611dca565b82525050565b7f4e487b7100000000000000000000000000000000000000000000000000000000600052602160045260246000fd5b6005811061221c5761221b6121dc565b5b50565b600081905061222d8261220b565b919050565b600061223d8261221f565b9050919050565b61224d81612232565b82525050565b61225c81611ccf565b82525050565b60a08201600082015161227860008501826121be565b50602082015161228b60208501826121cd565b50604082015161229e60408501826121cd565b5060608201516122b16060850182612244565b5060808201516122c46080850182612253565b50505050565b600060a0820190506122df6000830184612262565b92915050565b600080604083850312156122fc576122fb611acc565b5b600061230a85828601611d22565b925050602061231b85828601611d22565b9150509250929050565b7f4e487b7100000000000000000000000000000000000000000000000000000000600052602260045260246000fd5b6000600282049050600182168061236c57607f821691505b602082108114156123805761237f612325565b5b50919050565b7f4552433732313a20617070726f76656420717565727920666f72206e6f6e657860008201527f697374656e7420746f6b656e0000000000000000000000000000000000000000602082015250565b60006123e2602c83611b9c565b91506123ed82612386565b604082019050919050565b60006020820190508181036000830152612411816123d5565b9050919050565b7f4552433732313a20617070726f76616c20746f2063757272656e74206f776e6560008201527f7200000000000000000000000000000000000000000000000000000000000000602082015250565b6000612474602183611b9c565b915061247f82612418565b604082019050919050565b600060208201905081810360008301526124a381612467565b9050919050565b7f4552433732313a20617070726f76652063616c6c6572206973206e6f74206f7760008201527f6e6572206e6f7220617070726f76656420666f7220616c6c0000000000000000602082015250565b6000612506603883611b9c565b9150612511826124aa565b604082019050919050565b60006020820190508181036000830152612535816124f9565b9050919050565b7f4552433732313a207472616e736665722063616c6c6572206973206e6f74206f60008201527f776e6572206e6f7220617070726f766564000000000000000000000000000000602082015250565b6000612598603183611b9c565b91506125a38261253c565b604082019050919050565b600060208201905081810360008301526125c78161258b565b9050919050565b7f4552433732313a206f776e657220717565727920666f72206e6f6e657869737460008201527f656e7420746f6b656e0000000000000000000000000000000000000000000000602082015250565b600061262a602983611b9c565b9150612635826125ce565b604082019050919050565b600060208201905081810360008301526126598161261d565b9050919050565b7f454c2056414c4f5220444520414c5449545544204d494e494d4f20444542452060008201527f534552204d41594f522041203000000000000000000000000000000000000000602082015250565b60006126bc602d83611b9c565b91506126c782612660565b604082019050919050565b600060208201905081810360008301526126eb816126af565b9050919050565b7f454c2056414c4f5220444520414c5449545544204d4158494d4f20444542452060008201527f534552204d41594f52204f20494755414c20414c204d494e494d4f0000000000602082015250565b600061274e603b83611b9c565b9150612759826126f2565b604082019050919050565b6000602082019050818103600083015261277d81612741565b9050919050565b7f4552433732313a2062616c616e636520717565727920666f7220746865207a6560008201527f726f206164647265737300000000000000000000000000000000000000000000602082015250565b60006127e0602a83611b9c565b91506127eb82612784565b604082019050919050565b6000602082019050818103600083015261280f816127d3565b9050919050565b7f4552433732314d657461646174613a2055524920717565727920666f72206e6f60008201527f6e6578697374656e7420746f6b656e0000000000000000000000000000000000602082015250565b6000612872602f83611b9c565b915061287d82612816565b604082019050919050565b600060208201905081810360008301526128a181612865565b9050919050565b600081905092915050565b60006128be82611b91565b6128c881856128a8565b93506128d8818560208601611bad565b80840191505092915050565b60006128f082856128b3565b91506128fc82846128b3565b91508190509392505050565b7f4552433732313a206f70657261746f7220717565727920666f72206e6f6e657860008201527f697374656e7420746f6b656e0000000000000000000000000000000000000000602082015250565b6000612964602c83611b9c565b915061296f82612908565b604082019050919050565b6000602082019050818103600083015261299381612957565b9050919050565b7f4552433732313a207472616e736665722066726f6d20696e636f72726563742060008201527f6f776e6572000000000000000000000000000000000000000000000000000000602082015250565b60006129f6602583611b9c565b9150612a018261299a565b604082019050919050565b60006020820190508181036000830152612a25816129e9565b9050919050565b7f4552433732313a207472616e7366657220746f20746865207a65726f2061646460008201527f7265737300000000000000000000000000000000000000000000000000000000602082015250565b6000612a88602483611b9c565b9150612a9382612a2c565b604082019050919050565b60006020820190508181036000830152612ab781612a7b565b9050919050565b7f4e487b7100000000000000000000000000000000000000000000000000000000600052601160045260246000fd5b6000612af882611c4c565b9150612b0383611c4c565b925082821015612b1657612b15612abe565b5b828203905092915050565b6000612b2c82611c4c565b9150612b3783611c4c565b9250827fffffffffffffffffffffffffffffffffffffffffffffffffffffffffffffffff03821115612b6c57612b6b612abe565b5b828201905092915050565b7f4552433732313a20617070726f766520746f2063616c6c657200000000000000600082015250565b6000612bad601983611b9c565b9150612bb882612b77565b602082019050919050565b60006020820190508181036000830152612bdc81612ba0565b9050919050565b7f4552433732313a207472616e7366657220746f206e6f6e20455243373231526560008201527f63656976657220696d706c656d656e7465720000000000000000000000000000602082015250565b6000612c3f603283611b9c565b9150612c4a82612be3565b604082019050919050565b60006020820190508181036000830152612c6e81612c32565b9050919050565b6000612c8082611c4c565b91507fffffffffffffffffffffffffffffffffffffffffffffffffffffffffffffffff821415612cb357612cb2612abe565b5b600182019050919050565b7f4e487b7100000000000000000000000000000000000000000000000000000000600052601260045260246000fd5b6000612cf882611c4c565b9150612d0383611c4c565b925082612d1357612d12612cbe565b5b828204905092915050565b6000612d2982611c4c565b9150612d3483611c4c565b925082612d4457612d43612cbe565b5b828206905092915050565b7f4e487b7100000000000000000000000000000000000000000000000000000000600052603260045260246000fd5b600081519050919050565b600082825260208201905092915050565b6000612da582612d7e565b612daf8185612d89565b9350612dbf818560208601611bad565b612dc881611be0565b840191505092915050565b6000608082019050612de86000830187611ce1565b612df56020830186611ce1565b612e026040830185611ecb565b8181036060830152612e148184612d9a565b905095945050505050565b600081519050612e2e81611b02565b92915050565b600060208284031215612e4a57612e49611acc565b5b6000612e5884828501612e1f565b9150509291505056fea2646970667358221220c21b44960e8838be54365f3c27addc5652ec84e54c6dbe2750d61ed9afd2187764736f6c634300080c0033",
  "immutableReferences": {},
  "source": "//SPDX-License-Identifier: UNLICENSED\r\npragma solidity ^0.8.0; \r\n\r\n//Importamos\r\nimport \"@openzeppelin/contracts/token/ERC721/ERC721.sol\";\r\nimport \"@openzeppelin/contracts/utils/Counters.sol\";\r\n\r\n//Extendemos del contrato ERC721 (Contrato destinado a Tokens no fungibles)\r\ncontract ParcelaContract is ERC721 {\r\n    using Counters for Counters.Counter;\r\n    Counters.Counter UltimoID;\r\n\r\n    enum _Pesticidas{\r\n        Pesticida_A,\r\n        Pesticida_B,\r\n        Pesticida_C,\r\n        Pesticida_D,\r\n        Pesticida_E\r\n    }\r\n\r\n    //Creamos las variables propias del contrato\r\n    struct Parcela {\r\n        uint256 _ID;\r\n        int256 _Altitud_MIN;\r\n        int256 _Altitud_MAX;\r\n        _Pesticidas _Pesticida;\r\n        address _Owner;\r\n    }\r\n\r\n    mapping(uint256 => Parcela) private _Parcelas;\r\n\r\n    constructor() ERC721(\"MyParcela\", \"MParcela\") {\r\n        \r\n        UltimoID.increment();\r\n        uint256 IDActual = UltimoID.current();\r\n        /*\r\n        Parcela storage Primera = _Parcelas[IDActual];\r\n  \r\n        Primera._ID = IDActual;\r\n        Primera._Altitud_MIN = 0;\r\n        Primera._Altitud_MAX = 0;\r\n        Primera._Owner = msg.sender;\r\n        */\r\n\r\n        _safeMint(msg.sender,IDActual);\r\n    }\r\n\r\n    //Modificador de permisos de acceso\r\n    modifier SoloPropietario(uint256 ID){\r\n        require(msg.sender == ownerOf(ID));\r\n        _;\r\n    }\r\n\r\n    function CrearParcela(int256 MIN, int256 MAX, _Pesticidas PESTICIDA) public returns (uint256){\r\n        UltimoID.increment();\r\n        uint256 IDActual = UltimoID.current();\r\n\r\n        Parcela memory Parcela_ = Parcela({\r\n            _ID: IDActual,\r\n            _Altitud_MIN: MIN,\r\n            _Altitud_MAX: MAX,\r\n            _Pesticida: PESTICIDA,\r\n            _Owner: msg.sender\r\n        });\r\n\r\n        _Parcelas[IDActual] = Parcela_;\r\n\r\n        return IDActual;\r\n    }\r\n\r\n    function ConfigurarAltitud(uint256 ID, int256 MIN, int256 MAX) public SoloPropietario(ID) returns (int256, int256)\r\n    {\r\n        require (MIN > 0, \"EL VALOR DE ALTITUD MINIMO DEBE SER MAYOR A 0\");\r\n        require (MAX >= MIN, \"EL VALOR DE ALTITUD MAXIMO DEBE SER MAYOR O IGUAL AL MINIMO\");\r\n        _Parcelas[ID]._Altitud_MIN = MIN;\r\n        _Parcelas[ID]._Altitud_MAX = MAX;\r\n        return ( _Parcelas[ID]._Altitud_MIN,  _Parcelas[ID]._Altitud_MAX);\r\n    }\r\n\r\n    function ConfigurarPesticida(uint256 ID, _Pesticidas PESTICIDA) public SoloPropietario(ID) returns (bool)\r\n    {\r\n        _Parcelas[ID]._Pesticida = PESTICIDA;\r\n        return true;\r\n    }\r\n\r\n    function ObtenerInfoParcela(uint256 ID) public view returns (Parcela memory) {\r\n        return _Parcelas[ID];\r\n    }\r\n\r\n    function ComprobarAltitud(uint256 ID, int256 MIN, int256 MAX) public view returns (bool)\r\n    {\r\n        if ((MAX < _Parcelas[ID]._Altitud_MIN) || (MIN > _Parcelas[ID]._Altitud_MAX) || (MIN > MAX)) {\r\n            return false;\r\n        } else {\r\n            if ((MAX >= _Parcelas[ID]._Altitud_MIN && MAX <= _Parcelas[ID]._Altitud_MAX) || (MIN <= _Parcelas[ID]._Altitud_MAX && MIN >= _Parcelas[ID]._Altitud_MIN)) {\r\n                return true;\r\n            } else {\r\n                if ((MAX >= _Parcelas[ID]._Altitud_MAX && MIN <= _Parcelas[ID]._Altitud_MIN) || (MAX <= _Parcelas[ID]._Altitud_MAX && MIN >= _Parcelas[ID]._Altitud_MIN)) {\r\n                    return true;\r\n                } else {\r\n                    return false;\r\n                }\r\n            }\r\n        }\r\n    }\r\n}",
  "sourcePath": "/Users/trabajo/Documents/apps/adventurees/front_blockchain_tfe/contracts/Parcela.sol",
  "compiler": {
    "name": "solc",
    "version": "0.8.12+commit.f00d7308.Emscripten.clang"
  },
  "schemaVersion": "3.4.6",
  "updatedAt": "2022-03-17T16:56:42.369Z",
  "networkType": "ethereum",
  "devdoc": {
    "kind": "dev",
    "methods": {
      "approve(address,uint256)": {
        "details": "See {IERC721-approve}."
      },
      "balanceOf(address)": {
        "details": "See {IERC721-balanceOf}."
      },
      "getApproved(uint256)": {
        "details": "See {IERC721-getApproved}."
      },
      "isApprovedForAll(address,address)": {
        "details": "See {IERC721-isApprovedForAll}."
      },
      "name()": {
        "details": "See {IERC721Metadata-name}."
      },
      "ownerOf(uint256)": {
        "details": "See {IERC721-ownerOf}."
      },
      "safeTransferFrom(address,address,uint256)": {
        "details": "See {IERC721-safeTransferFrom}."
      },
      "safeTransferFrom(address,address,uint256,bytes)": {
        "details": "See {IERC721-safeTransferFrom}."
      },
      "setApprovalForAll(address,bool)": {
        "details": "See {IERC721-setApprovalForAll}."
      },
      "supportsInterface(bytes4)": {
        "details": "See {IERC165-supportsInterface}."
      },
      "symbol()": {
        "details": "See {IERC721Metadata-symbol}."
      },
      "tokenURI(uint256)": {
        "details": "See {IERC721Metadata-tokenURI}."
      },
      "transferFrom(address,address,uint256)": {
        "details": "See {IERC721-transferFrom}."
      }
    },
    "version": 1
  },
  "userdoc": {
    "kind": "user",
    "methods": {},
    "version": 1
  }
}